{"contracts/RandomIpfsNft.sol":{"RandomIpfsNft":{"abi":[{"inputs":[{"internalType":"address","name":"vrfCoordinatorV2","type":"address"},{"internalType":"uint64","name":"subscriptionId","type":"uint64"},{"internalType":"bytes32","name":"gasLane","type":"bytes32"},{"internalType":"uint32","name":"callbackGasLimit","type":"uint32"},{"internalType":"string[3]","name":"dogTokenUris","type":"string[3]"},{"internalType":"uint256","name":"mintFee","type":"uint256"}],"stateMutability":"nonpayable","type":"constructor"},{"inputs":[{"internalType":"address","name":"have","type":"address"},{"internalType":"address","name":"want","type":"address"}],"name":"OnlyCoordinatorCanFulfill","type":"error"},{"inputs":[],"name":"RandomIpfsNft__NeedMoreETHSent","type":"error"},{"inputs":[],"name":"RandomIpfsNft__RangeOutOfBounds","type":"error"},{"inputs":[],"name":"RandomIpfsNft__TransferFailed","type":"error"},{"anonymous":false,"inputs":[{"indexed":true,"internalType":"address","name":"owner","type":"address"},{"indexed":true,"internalType":"address","name":"approved","type":"address"},{"indexed":true,"internalType":"uint256","name":"tokenId","type":"uint256"}],"name":"Approval","type":"event"},{"anonymous":false,"inputs":[{"indexed":true,"internalType":"address","name":"owner","type":"address"},{"indexed":true,"internalType":"address","name":"operator","type":"address"},{"indexed":false,"internalType":"bool","name":"approved","type":"bool"}],"name":"ApprovalForAll","type":"event"},{"anonymous":false,"inputs":[{"indexed":false,"internalType":"enum RandomIpfsNft.Breed","name":"breed","type":"uint8"},{"indexed":false,"internalType":"address","name":"minter","type":"address"}],"name":"NftMinted","type":"event"},{"anonymous":false,"inputs":[{"indexed":true,"internalType":"uint256","name":"requestId","type":"uint256"},{"indexed":false,"internalType":"address","name":"requester","type":"address"}],"name":"NftRequested","type":"event"},{"anonymous":false,"inputs":[{"indexed":true,"internalType":"address","name":"previousOwner","type":"address"},{"indexed":true,"internalType":"address","name":"newOwner","type":"address"}],"name":"OwnershipTransferred","type":"event"},{"anonymous":false,"inputs":[{"indexed":true,"internalType":"address","name":"from","type":"address"},{"indexed":true,"internalType":"address","name":"to","type":"address"},{"indexed":true,"internalType":"uint256","name":"tokenId","type":"uint256"}],"name":"Transfer","type":"event"},{"inputs":[{"internalType":"address","name":"to","type":"address"},{"internalType":"uint256","name":"tokenId","type":"uint256"}],"name":"approve","outputs":[],"stateMutability":"nonpayable","type":"function"},{"inputs":[{"internalType":"address","name":"owner","type":"address"}],"name":"balanceOf","outputs":[{"internalType":"uint256","name":"","type":"uint256"}],"stateMutability":"view","type":"function"},{"inputs":[{"internalType":"uint256","name":"tokenId","type":"uint256"}],"name":"getApproved","outputs":[{"internalType":"address","name":"","type":"address"}],"stateMutability":"view","type":"function"},{"inputs":[{"internalType":"uint256","name":"moddedRng","type":"uint256"}],"name":"getBreedFromModdedRng","outputs":[{"internalType":"enum RandomIpfsNft.Breed","name":"","type":"uint8"}],"stateMutability":"pure","type":"function"},{"inputs":[],"name":"getChanceArray","outputs":[{"internalType":"uint256[3]","name":"","type":"uint256[3]"}],"stateMutability":"pure","type":"function"},{"inputs":[{"internalType":"uint256","name":"index","type":"uint256"}],"name":"getDogTokenUris","outputs":[{"internalType":"string","name":"","type":"string"}],"stateMutability":"view","type":"function"},{"inputs":[],"name":"getMintFee","outputs":[{"internalType":"uint256","name":"","type":"uint256"}],"stateMutability":"view","type":"function"},{"inputs":[],"name":"getTokenCounter","outputs":[{"internalType":"uint256","name":"","type":"uint256"}],"stateMutability":"view","type":"function"},{"inputs":[{"internalType":"address","name":"owner","type":"address"},{"internalType":"address","name":"operator","type":"address"}],"name":"isApprovedForAll","outputs":[{"internalType":"bool","name":"","type":"bool"}],"stateMutability":"view","type":"function"},{"inputs":[],"name":"name","outputs":[{"internalType":"string","name":"","type":"string"}],"stateMutability":"view","type":"function"},{"inputs":[],"name":"owner","outputs":[{"internalType":"address","name":"","type":"address"}],"stateMutability":"view","type":"function"},{"inputs":[{"internalType":"uint256","name":"tokenId","type":"uint256"}],"name":"ownerOf","outputs":[{"internalType":"address","name":"","type":"address"}],"stateMutability":"view","type":"function"},{"inputs":[{"internalType":"uint256","name":"requestId","type":"uint256"},{"internalType":"uint256[]","name":"randomWords","type":"uint256[]"}],"name":"rawFulfillRandomWords","outputs":[],"stateMutability":"nonpayable","type":"function"},{"inputs":[],"name":"renounceOwnership","outputs":[],"stateMutability":"nonpayable","type":"function"},{"inputs":[],"name":"requestNft","outputs":[{"internalType":"uint256","name":"requestId","type":"uint256"}],"stateMutability":"payable","type":"function"},{"inputs":[{"internalType":"uint256","name":"","type":"uint256"}],"name":"s_requestIdToSender","outputs":[{"internalType":"address","name":"","type":"address"}],"stateMutability":"view","type":"function"},{"inputs":[],"name":"s_tokenCounter","outputs":[{"internalType":"uint256","name":"","type":"uint256"}],"stateMutability":"view","type":"function"},{"inputs":[{"internalType":"address","name":"from","type":"address"},{"internalType":"address","name":"to","type":"address"},{"internalType":"uint256","name":"tokenId","type":"uint256"}],"name":"safeTransferFrom","outputs":[],"stateMutability":"nonpayable","type":"function"},{"inputs":[{"internalType":"address","name":"from","type":"address"},{"internalType":"address","name":"to","type":"address"},{"internalType":"uint256","name":"tokenId","type":"uint256"},{"internalType":"bytes","name":"data","type":"bytes"}],"name":"safeTransferFrom","outputs":[],"stateMutability":"nonpayable","type":"function"},{"inputs":[{"internalType":"address","name":"operator","type":"address"},{"internalType":"bool","name":"approved","type":"bool"}],"name":"setApprovalForAll","outputs":[],"stateMutability":"nonpayable","type":"function"},{"inputs":[{"internalType":"bytes4","name":"interfaceId","type":"bytes4"}],"name":"supportsInterface","outputs":[{"internalType":"bool","name":"","type":"bool"}],"stateMutability":"view","type":"function"},{"inputs":[],"name":"symbol","outputs":[{"internalType":"string","name":"","type":"string"}],"stateMutability":"view","type":"function"},{"inputs":[{"internalType":"uint256","name":"tokenId","type":"uint256"}],"name":"tokenURI","outputs":[{"internalType":"string","name":"","type":"string"}],"stateMutability":"view","type":"function"},{"inputs":[{"internalType":"address","name":"from","type":"address"},{"internalType":"address","name":"to","type":"address"},{"internalType":"uint256","name":"tokenId","type":"uint256"}],"name":"transferFrom","outputs":[],"stateMutability":"nonpayable","type":"function"},{"inputs":[{"internalType":"address","name":"newOwner","type":"address"}],"name":"transferOwnership","outputs":[],"stateMutability":"nonpayable","type":"function"},{"inputs":[],"name":"withdraw","outputs":[],"stateMutability":"nonpayable","type":"function"}],"devdoc":{"kind":"dev","methods":{"approve(address,uint256)":{"details":"See {IERC721-approve}."},"balanceOf(address)":{"details":"See {IERC721-balanceOf}."},"getApproved(uint256)":{"details":"See {IERC721-getApproved}."},"isApprovedForAll(address,address)":{"details":"See {IERC721-isApprovedForAll}."},"name()":{"details":"See {IERC721Metadata-name}."},"owner()":{"details":"Returns the address of the current owner."},"ownerOf(uint256)":{"details":"See {IERC721-ownerOf}."},"renounceOwnership()":{"details":"Leaves the contract without owner. It will not be possible to call `onlyOwner` functions anymore. Can only be called by the current owner. NOTE: Renouncing ownership will leave the contract without an owner, thereby removing any functionality that is only available to the owner."},"safeTransferFrom(address,address,uint256)":{"details":"See {IERC721-safeTransferFrom}."},"safeTransferFrom(address,address,uint256,bytes)":{"details":"See {IERC721-safeTransferFrom}."},"setApprovalForAll(address,bool)":{"details":"See {IERC721-setApprovalForAll}."},"supportsInterface(bytes4)":{"details":"See {IERC165-supportsInterface}."},"symbol()":{"details":"See {IERC721Metadata-symbol}."},"tokenURI(uint256)":{"details":"See {IERC721Metadata-tokenURI}."},"transferFrom(address,address,uint256)":{"details":"See {IERC721-transferFrom}."},"transferOwnership(address)":{"details":"Transfers ownership of the contract to a new account (`newOwner`). Can only be called by the current owner."}},"version":1},"evm":{"bytecode":{"linkReferences":{},"object":"6101406040523480156200001257600080fd5b5060405162004459380380620044598339818101604052810190620000389190620005d7565b6040518060400160405280600f81526020017f52616e646f6d2049504653204e465400000000000000000000000000000000008152506040518060400160405280600381526020017f52494e0000000000000000000000000000000000000000000000000000000000815250878073ffffffffffffffffffffffffffffffffffffffff1660808173ffffffffffffffffffffffffffffffffffffffff1660601b81525050508160009080519060200190620000f59291906200029e565b5080600190805190602001906200010e9291906200029e565b5050506200013162000125620001d060201b60201c565b620001d860201b60201c565b8573ffffffffffffffffffffffffffffffffffffffff1660a08173ffffffffffffffffffffffffffffffffffffffff1660601b815250508467ffffffffffffffff1660c08167ffffffffffffffff1660c01b815250508360e081815250508263ffffffff166101008163ffffffff1660e01b8152505081600a906003620001ba9291906200032f565b5080610120818152505050505050505062000932565b600033905090565b6000600760009054906101000a900473ffffffffffffffffffffffffffffffffffffffff16905081600760006101000a81548173ffffffffffffffffffffffffffffffffffffffff021916908373ffffffffffffffffffffffffffffffffffffffff1602179055508173ffffffffffffffffffffffffffffffffffffffff168173ffffffffffffffffffffffffffffffffffffffff167f8be0079c531659141344cd1fd0a4f28419497f9722a3daafe3b4186f6b6457e060405160405180910390a35050565b828054620002ac90620007bc565b90600052602060002090601f016020900481019282620002d057600085556200031c565b82601f10620002eb57805160ff19168380011785556200031c565b828001600101855582156200031c579182015b828111156200031b578251825591602001919060010190620002fe565b5b5090506200032b919062000396565b5090565b82805482825590600052602060002090810192821562000383579160200282015b8281111562000382578251829080519060200190620003719291906200029e565b509160200191906001019062000350565b5b509050620003929190620003b5565b5090565b5b80821115620003b157600081600090555060010162000397565b5090565b5b80821115620003d95760008181620003cf9190620003dd565b50600101620003b6565b5090565b508054620003eb90620007bc565b6000825580601f10620003ff575062000420565b601f0160209004906000526020600020908101906200041f919062000396565b5b50565b60006200043a6200043484620006bb565b62000692565b905080828560208602820111156200045757620004566200088b565b5b60005b85811015620004ac57815167ffffffffffffffff81111562000481576200048062000886565b5b8086016200049089826200055f565b855260208501945060208401935050506001810190506200045a565b5050509392505050565b6000620004cd620004c784620006e4565b62000692565b905082815260208101848484011115620004ec57620004eb62000890565b5b620004f984828562000786565b509392505050565b6000815190506200051281620008b0565b92915050565b600082601f83011262000530576200052f62000886565b5b60036200053f84828562000423565b91505092915050565b6000815190506200055981620008ca565b92915050565b600082601f83011262000577576200057662000886565b5b815162000589848260208601620004b6565b91505092915050565b600081519050620005a381620008e4565b92915050565b600081519050620005ba81620008fe565b92915050565b600081519050620005d18162000918565b92915050565b60008060008060008060c08789031215620005f757620005f66200089a565b5b60006200060789828a0162000501565b96505060206200061a89828a01620005c0565b95505060406200062d89828a0162000548565b94505060606200064089828a01620005a9565b935050608087015167ffffffffffffffff81111562000664576200066362000895565b5b6200067289828a0162000518565b92505060a06200068589828a0162000592565b9150509295509295509295565b60006200069e620006b1565b9050620006ac8282620007f2565b919050565b6000604051905090565b600067ffffffffffffffff821115620006d957620006d862000857565b5b602082029050919050565b600067ffffffffffffffff82111562000702576200070162000857565b5b6200070d826200089f565b9050602081019050919050565b6000620007278262000738565b9050919050565b6000819050919050565b600073ffffffffffffffffffffffffffffffffffffffff82169050919050565b6000819050919050565b600063ffffffff82169050919050565b600067ffffffffffffffff82169050919050565b60005b83811015620007a657808201518184015260208101905062000789565b83811115620007b6576000848401525b50505050565b60006002820490506001821680620007d557607f821691505b60208210811415620007ec57620007eb62000828565b5b50919050565b620007fd826200089f565b810181811067ffffffffffffffff821117156200081f576200081e62000857565b5b80604052505050565b7f4e487b7100000000000000000000000000000000000000000000000000000000600052602260045260246000fd5b7f4e487b7100000000000000000000000000000000000000000000000000000000600052604160045260246000fd5b600080fd5b600080fd5b600080fd5b600080fd5b600080fd5b6000601f19601f8301169050919050565b620008bb816200071a565b8114620008c757600080fd5b50565b620008d5816200072e565b8114620008e157600080fd5b50565b620008ef8162000758565b8114620008fb57600080fd5b50565b620009098162000762565b81146200091557600080fd5b50565b620009238162000772565b81146200092f57600080fd5b50565b60805160601c60a05160601c60c05160c01c60e0516101005160e01c61012051613abd6200099c60003960008181610d4b0152610f5a0152600061103401526000610ff00152600061101101526000610fb401526000818161091d01526109710152613abd6000f3fe6080604052600436106101815760003560e01c806370a08231116100d1578063a36f573b1161008a578063b88d4fde11610064578063b88d4fde14610577578063c87b56dd146105a0578063e985e9c5146105dd578063f2fde38b1461061a57610181565b8063a36f573b146104df578063a51cccf31461051c578063aa1524911461055957610181565b806370a08231146103e1578063715018a61461041e5780637a5caab3146104355780638da5cb5b1461046057806395d89b411461048b578063a22cb465146104b657610181565b806323b872dd1161013e57806342842e0e1161011857806342842e0e146103255780635dacf5f41461034e5780636352211e146103795780636e02007d146103b657610181565b806323b872dd146102a85780633af25975146102d15780633ccfd60b1461030e57610181565b806301ffc9a71461018657806306fdde03146101c3578063081812fc146101ee578063095ea7b31461022b5780630b21a83b146102545780631fe543e31461027f575b600080fd5b34801561019257600080fd5b506101ad60048036038101906101a891906129ac565b610643565b6040516101ba9190612f46565b60405180910390f35b3480156101cf57600080fd5b506101d8610725565b6040516101e59190612ff8565b60405180910390f35b3480156101fa57600080fd5b5061021560048036038101906102109190612a06565b6107b7565b6040516102229190612e9b565b60405180910390f35b34801561023757600080fd5b50610252600480360381019061024d919061296c565b6107fd565b005b34801561026057600080fd5b50610269610915565b60405161027691906131da565b60405180910390f35b34801561028b57600080fd5b506102a660048036038101906102a19190612a60565b61091b565b005b3480156102b457600080fd5b506102cf60048036038101906102ca9190612856565b6109db565b005b3480156102dd57600080fd5b506102f860048036038101906102f39190612a06565b610a3b565b6040516103059190612ff8565b60405180910390f35b34801561031a57600080fd5b50610323610aeb565b005b34801561033157600080fd5b5061034c60048036038101906103479190612856565b610b9f565b005b34801561035a57600080fd5b50610363610bbf565b6040516103709190612f2b565b60405180910390f35b34801561038557600080fd5b506103a0600480360381019061039b9190612a06565b610bea565b6040516103ad9190612e9b565b60405180910390f35b3480156103c257600080fd5b506103cb610c71565b6040516103d891906131da565b60405180910390f35b3480156103ed57600080fd5b50610408600480360381019061040391906127e9565b610c7b565b60405161041591906131da565b60405180910390f35b34801561042a57600080fd5b50610433610d33565b005b34801561044157600080fd5b5061044a610d47565b60405161045791906131da565b60405180910390f35b34801561046c57600080fd5b50610475610d6f565b6040516104829190612e9b565b60405180910390f35b34801561049757600080fd5b506104a0610d99565b6040516104ad9190612ff8565b60405180910390f35b3480156104c257600080fd5b506104dd60048036038101906104d8919061292c565b610e2b565b005b3480156104eb57600080fd5b5061050660048036038101906105019190612a06565b610e41565b6040516105139190612e9b565b60405180910390f35b34801561052857600080fd5b50610543600480360381019061053e9190612a06565b610e74565b6040516105509190612fb4565b60405180910390f35b610561610f56565b60405161056e91906131da565b60405180910390f35b34801561058357600080fd5b5061059e600480360381019061059991906128a9565b611156565b005b3480156105ac57600080fd5b506105c760048036038101906105c29190612a06565b6111b8565b6040516105d49190612ff8565b60405180910390f35b3480156105e957600080fd5b5061060460048036038101906105ff9190612816565b6112cb565b6040516106119190612f46565b60405180910390f35b34801561062657600080fd5b50610641600480360381019061063c91906127e9565b61135f565b005b60007f80ac58cd000000000000000000000000000000000000000000000000000000007bffffffffffffffffffffffffffffffffffffffffffffffffffffffff1916827bffffffffffffffffffffffffffffffffffffffffffffffffffffffff1916148061070e57507f5b5e139f000000000000000000000000000000000000000000000000000000007bffffffffffffffffffffffffffffffffffffffffffffffffffffffff1916827bffffffffffffffffffffffffffffffffffffffffffffffffffffffff1916145b8061071e575061071d826113e3565b5b9050919050565b6060600080546107349061345f565b80601f01602080910402602001604051908101604052809291908181526020018280546107609061345f565b80156107ad5780601f10610782576101008083540402835291602001916107ad565b820191906000526020600020905b81548152906001019060200180831161079057829003601f168201915b5050505050905090565b60006107c28261144d565b6004600083815260200190815260200160002060009054906101000a900473ffffffffffffffffffffffffffffffffffffffff169050919050565b600061080882610bea565b90508073ffffffffffffffffffffffffffffffffffffffff168373ffffffffffffffffffffffffffffffffffffffff161415610879576040517f08c379a00000000000000000000000000000000000000000000000000000000081526004016108709061319a565b60405180910390fd5b8073ffffffffffffffffffffffffffffffffffffffff16610898611498565b73ffffffffffffffffffffffffffffffffffffffff1614806108c757506108c6816108c1611498565b6112cb565b5b610906576040517f08c379a00000000000000000000000000000000000000000000000000000000081526004016108fd906131ba565b60405180910390fd5b61091083836114a0565b505050565b60095481565b7f000000000000000000000000000000000000000000000000000000000000000073ffffffffffffffffffffffffffffffffffffffff163373ffffffffffffffffffffffffffffffffffffffff16146109cd57337f00000000000000000000000000000000000000000000000000000000000000006040517f1cf993f40000000000000000000000000000000000000000000000000000000081526004016109c4929190612eb6565b60405180910390fd5b6109d78282611559565b5050565b6109ec6109e6611498565b82611703565b610a2b576040517f08c379a0000000000000000000000000000000000000000000000000000000008152600401610a229061301a565b60405180910390fd5b610a36838383611798565b505050565b6060600a8281548110610a5157610a506135f8565b5b906000526020600020018054610a669061345f565b80601f0160208091040260200160405190810160405280929190818152602001828054610a929061345f565b8015610adf5780601f10610ab457610100808354040283529160200191610adf565b820191906000526020600020905b815481529060010190602001808311610ac257829003601f168201915b50505050509050919050565b610af3611a92565b600047905060003373ffffffffffffffffffffffffffffffffffffffff1682604051610b1e90612e86565b60006040518083038185875af1925050503d8060008114610b5b576040519150601f19603f3d011682016040523d82523d6000602084013e610b60565b606091505b5050905080610b9b576040517fca7e25b700000000000000000000000000000000000000000000000000000000815260040160405180910390fd5b5050565b610bba83838360405180602001604052806000815250611156565b505050565b610bc7612598565b6040518060600160405280600a8152602001601e81526020016064815250905090565b600080610bf683611b10565b9050600073ffffffffffffffffffffffffffffffffffffffff168173ffffffffffffffffffffffffffffffffffffffff161415610c68576040517f08c379a0000000000000000000000000000000000000000000000000000000008152600401610c5f9061317a565b60405180910390fd5b80915050919050565b6000600954905090565b60008073ffffffffffffffffffffffffffffffffffffffff168273ffffffffffffffffffffffffffffffffffffffff161415610cec576040517f08c379a0000000000000000000000000000000000000000000000000000000008152600401610ce3906130fa565b60405180910390fd5b600360008373ffffffffffffffffffffffffffffffffffffffff1673ffffffffffffffffffffffffffffffffffffffff168152602001908152602001600020549050919050565b610d3b611a92565b610d456000611b4d565b565b60007f0000000000000000000000000000000000000000000000000000000000000000905090565b6000600760009054906101000a900473ffffffffffffffffffffffffffffffffffffffff16905090565b606060018054610da89061345f565b80601f0160208091040260200160405190810160405280929190818152602001828054610dd49061345f565b8015610e215780601f10610df657610100808354040283529160200191610e21565b820191906000526020600020905b815481529060010190602001808311610e0457829003601f168201915b5050505050905090565b610e3d610e36611498565b8383611c13565b5050565b60086020528060005260406000206000915054906101000a900473ffffffffffffffffffffffffffffffffffffffff1681565b600080600090506000610e85610bbf565b905060005b6003811015610f1e57828510158015610ec45750818160038110610eb157610eb06135f8565b5b602002015183610ec191906132f2565b85105b15610ee657806002811115610edc57610edb61359a565b5b9350505050610f51565b818160038110610ef957610ef86135f8565b5b602002015183610f0991906132f2565b92508080610f16906134c2565b915050610e8a565b506040517f12806c9d00000000000000000000000000000000000000000000000000000000815260040160405180910390fd5b919050565b60007f0000000000000000000000000000000000000000000000000000000000000000341015610fb2576040517fb90f491000000000000000000000000000000000000000000000000000000000815260040160405180910390fd5b7f000000000000000000000000000000000000000000000000000000000000000073ffffffffffffffffffffffffffffffffffffffff16635d3b1d307f00000000000000000000000000000000000000000000000000000000000000007f000000000000000000000000000000000000000000000000000000000000000060037f000000000000000000000000000000000000000000000000000000000000000060016040518663ffffffff1660e01b8152600401611075959493929190612f61565b602060405180830381600087803b15801561108f57600080fd5b505af11580156110a3573d6000803e3d6000fd5b505050506040513d601f19601f820116820180604052508101906110c79190612a33565b9050336008600083815260200190815260200160002060006101000a81548173ffffffffffffffffffffffffffffffffffffffff021916908373ffffffffffffffffffffffffffffffffffffffff160217905550807ff873236e6cc0ecc5be1a9a35c95ee5b8d1ac4cc7bfef0cc5060391d6cc98e26b3360405161114b9190612e9b565b60405180910390a290565b611167611161611498565b83611703565b6111a6576040517f08c379a000000000000000000000000000000000000000000000000000000000815260040161119d9061301a565b60405180910390fd5b6111b284848484611d80565b50505050565b60606111c38261144d565b60006006600084815260200190815260200160002080546111e39061345f565b80601f016020809104026020016040519081016040528092919081815260200182805461120f9061345f565b801561125c5780601f106112315761010080835404028352916020019161125c565b820191906000526020600020905b81548152906001019060200180831161123f57829003601f168201915b50505050509050600061126d611ddc565b90506000815114156112835781925050506112c6565b6000825111156112b85780826040516020016112a0929190612e62565b604051602081830303815290604052925050506112c6565b6112c184611df3565b925050505b919050565b6000600560008473ffffffffffffffffffffffffffffffffffffffff1673ffffffffffffffffffffffffffffffffffffffff16815260200190815260200160002060008373ffffffffffffffffffffffffffffffffffffffff1673ffffffffffffffffffffffffffffffffffffffff16815260200190815260200160002060009054906101000a900460ff16905092915050565b611367611a92565b600073ffffffffffffffffffffffffffffffffffffffff168173ffffffffffffffffffffffffffffffffffffffff1614156113d7576040517f08c379a00000000000000000000000000000000000000000000000000000000081526004016113ce9061305a565b60405180910390fd5b6113e081611b4d565b50565b60007f01ffc9a7000000000000000000000000000000000000000000000000000000007bffffffffffffffffffffffffffffffffffffffffffffffffffffffff1916827bffffffffffffffffffffffffffffffffffffffffffffffffffffffff1916149050919050565b61145681611e5b565b611495576040517f08c379a000000000000000000000000000000000000000000000000000000000815260040161148c9061317a565b60405180910390fd5b50565b600033905090565b816004600083815260200190815260200160002060006101000a81548173ffffffffffffffffffffffffffffffffffffffff021916908373ffffffffffffffffffffffffffffffffffffffff160217905550808273ffffffffffffffffffffffffffffffffffffffff1661151383610bea565b73ffffffffffffffffffffffffffffffffffffffff167f8c5be1e5ebec7d5bd14f71427d1e84f3dd0314c0f7b2291e5b200ac8c7c3b92560405160405180910390a45050565b60006008600084815260200190815260200160002060009054906101000a900473ffffffffffffffffffffffffffffffffffffffff169050600060095490506115a28282611e9c565b60006064846000815181106115ba576115b96135f8565b5b60200260200101516115cc919061350b565b905060006115d982610e74565b9050600954600960008282546115ef91906132f2565b925050819055506116008484611e9c565b6116c283600a8360028111156116195761161861359a565b5b8154811061162a576116296135f8565b5b90600052602060002001805461163f9061345f565b80601f016020809104026020016040519081016040528092919081815260200182805461166b9061345f565b80156116b85780601f1061168d576101008083540402835291602001916116b8565b820191906000526020600020905b81548152906001019060200180831161169b57829003601f168201915b5050505050611eba565b7f8a269f26b688e110e9cbd887d163dab35cae678fa353a0292de532c0cac1ecdc81856040516116f3929190612fcf565b60405180910390a1505050505050565b60008061170f83610bea565b90508073ffffffffffffffffffffffffffffffffffffffff168473ffffffffffffffffffffffffffffffffffffffff161480611751575061175081856112cb565b5b8061178f57508373ffffffffffffffffffffffffffffffffffffffff16611777846107b7565b73ffffffffffffffffffffffffffffffffffffffff16145b91505092915050565b8273ffffffffffffffffffffffffffffffffffffffff166117b882610bea565b73ffffffffffffffffffffffffffffffffffffffff161461180e576040517f08c379a00000000000000000000000000000000000000000000000000000000081526004016118059061307a565b60405180910390fd5b600073ffffffffffffffffffffffffffffffffffffffff168273ffffffffffffffffffffffffffffffffffffffff16141561187e576040517f08c379a0000000000000000000000000000000000000000000000000000000008152600401611875906130ba565b60405180910390fd5b61188b8383836001611f2e565b8273ffffffffffffffffffffffffffffffffffffffff166118ab82610bea565b73ffffffffffffffffffffffffffffffffffffffff1614611901576040517f08c379a00000000000000000000000000000000000000000000000000000000081526004016118f89061307a565b60405180910390fd5b6004600082815260200190815260200160002060006101000a81549073ffffffffffffffffffffffffffffffffffffffff02191690556001600360008573ffffffffffffffffffffffffffffffffffffffff1673ffffffffffffffffffffffffffffffffffffffff168152602001908152602001600020600082825403925050819055506001600360008473ffffffffffffffffffffffffffffffffffffffff1673ffffffffffffffffffffffffffffffffffffffff16815260200190815260200160002060008282540192505081905550816002600083815260200190815260200160002060006101000a81548173ffffffffffffffffffffffffffffffffffffffff021916908373ffffffffffffffffffffffffffffffffffffffff160217905550808273ffffffffffffffffffffffffffffffffffffffff168473ffffffffffffffffffffffffffffffffffffffff167fddf252ad1be2c89b69c2b068fc378daa952ba7f163c4a11628f55a4df523b3ef60405160405180910390a4611a8d8383836001611f34565b505050565b611a9a611498565b73ffffffffffffffffffffffffffffffffffffffff16611ab8610d6f565b73ffffffffffffffffffffffffffffffffffffffff1614611b0e576040517f08c379a0000000000000000000000000000000000000000000000000000000008152600401611b059061315a565b60405180910390fd5b565b60006002600083815260200190815260200160002060009054906101000a900473ffffffffffffffffffffffffffffffffffffffff169050919050565b6000600760009054906101000a900473ffffffffffffffffffffffffffffffffffffffff16905081600760006101000a81548173ffffffffffffffffffffffffffffffffffffffff021916908373ffffffffffffffffffffffffffffffffffffffff1602179055508173ffffffffffffffffffffffffffffffffffffffff168173ffffffffffffffffffffffffffffffffffffffff167f8be0079c531659141344cd1fd0a4f28419497f9722a3daafe3b4186f6b6457e060405160405180910390a35050565b8173ffffffffffffffffffffffffffffffffffffffff168373ffffffffffffffffffffffffffffffffffffffff161415611c82576040517f08c379a0000000000000000000000000000000000000000000000000000000008152600401611c79906130da565b60405180910390fd5b80600560008573ffffffffffffffffffffffffffffffffffffffff1673ffffffffffffffffffffffffffffffffffffffff16815260200190815260200160002060008473ffffffffffffffffffffffffffffffffffffffff1673ffffffffffffffffffffffffffffffffffffffff16815260200190815260200160002060006101000a81548160ff0219169083151502179055508173ffffffffffffffffffffffffffffffffffffffff168373ffffffffffffffffffffffffffffffffffffffff167f17307eab39ab6107e8899845ad3d59bd9653f200f220920489ca2b5937696c3183604051611d739190612f46565b60405180910390a3505050565b611d8b848484611798565b611d9784848484611f3a565b611dd6576040517f08c379a0000000000000000000000000000000000000000000000000000000008152600401611dcd9061303a565b60405180910390fd5b50505050565b606060405180602001604052806000815250905090565b6060611dfe8261144d565b6000611e08611ddc565b90506000815111611e285760405180602001604052806000815250611e53565b80611e32846120d1565b604051602001611e43929190612e62565b6040516020818303038152906040525b915050919050565b60008073ffffffffffffffffffffffffffffffffffffffff16611e7d83611b10565b73ffffffffffffffffffffffffffffffffffffffff1614159050919050565b611eb68282604051806020016040528060008152506121a9565b5050565b611ec382611e5b565b611f02576040517f08c379a0000000000000000000000000000000000000000000000000000000008152600401611ef99061311a565b60405180910390fd5b80600660008481526020019081526020016000209080519060200190611f299291906125ba565b505050565b50505050565b50505050565b6000611f5b8473ffffffffffffffffffffffffffffffffffffffff16612204565b156120c4578373ffffffffffffffffffffffffffffffffffffffff1663150b7a02611f84611498565b8786866040518563ffffffff1660e01b8152600401611fa69493929190612edf565b602060405180830381600087803b158015611fc057600080fd5b505af1925050508015611ff157506040513d601f19601f82011682018060405250810190611fee91906129d9565b60015b612074573d8060008114612021576040519150601f19603f3d011682016040523d82523d6000602084013e612026565b606091505b5060008151141561206c576040517f08c379a00000000000000000000000000000000000000000000000000000000081526004016120639061303a565b60405180910390fd5b805181602001fd5b63150b7a0260e01b7bffffffffffffffffffffffffffffffffffffffffffffffffffffffff1916817bffffffffffffffffffffffffffffffffffffffffffffffffffffffff1916149150506120c9565b600190505b949350505050565b6060600060016120e084612227565b01905060008167ffffffffffffffff8111156120ff576120fe613627565b5b6040519080825280601f01601f1916602001820160405280156121315781602001600182028036833780820191505090505b509050600082602001820190505b60011561219e578080600190039150507f3031323334353637383961626364656600000000000000000000000000000000600a86061a8153600a85816121885761218761356b565b5b04945060008514156121995761219e565b61213f565b819350505050919050565b6121b3838361237a565b6121c06000848484611f3a565b6121ff576040517f08c379a00000000000000000000000000000000000000000000000000000000081526004016121f69061303a565b60405180910390fd5b505050565b6000808273ffffffffffffffffffffffffffffffffffffffff163b119050919050565b600080600090507a184f03e93ff9f4daa797ed6e38ed64bf6a1f0100000000000000008310612285577a184f03e93ff9f4daa797ed6e38ed64bf6a1f010000000000000000838161227b5761227a61356b565b5b0492506040810190505b6d04ee2d6d415b85acef810000000083106122c2576d04ee2d6d415b85acef810000000083816122b8576122b761356b565b5b0492506020810190505b662386f26fc1000083106122f157662386f26fc1000083816122e7576122e661356b565b5b0492506010810190505b6305f5e100831061231a576305f5e10083816123105761230f61356b565b5b0492506008810190505b612710831061233f5761271083816123355761233461356b565b5b0492506004810190505b6064831061236257606483816123585761235761356b565b5b0492506002810190505b600a8310612371576001810190505b80915050919050565b600073ffffffffffffffffffffffffffffffffffffffff168273ffffffffffffffffffffffffffffffffffffffff1614156123ea576040517f08c379a00000000000000000000000000000000000000000000000000000000081526004016123e19061313a565b60405180910390fd5b6123f381611e5b565b15612433576040517f08c379a000000000000000000000000000000000000000000000000000000000815260040161242a9061309a565b60405180910390fd5b612441600083836001611f2e565b61244a81611e5b565b1561248a576040517f08c379a00000000000000000000000000000000000000000000000000000000081526004016124819061309a565b60405180910390fd5b6001600360008473ffffffffffffffffffffffffffffffffffffffff1673ffffffffffffffffffffffffffffffffffffffff16815260200190815260200160002060008282540192505081905550816002600083815260200190815260200160002060006101000a81548173ffffffffffffffffffffffffffffffffffffffff021916908373ffffffffffffffffffffffffffffffffffffffff160217905550808273ffffffffffffffffffffffffffffffffffffffff16600073ffffffffffffffffffffffffffffffffffffffff167fddf252ad1be2c89b69c2b068fc378daa952ba7f163c4a11628f55a4df523b3ef60405160405180910390a4612594600083836001611f34565b5050565b6040518060600160405280600390602082028036833780820191505090505090565b8280546125c69061345f565b90600052602060002090601f0160209004810192826125e8576000855561262f565b82601f1061260157805160ff191683800117855561262f565b8280016001018555821561262f579182015b8281111561262e578251825591602001919060010190612613565b5b50905061263c9190612640565b5090565b5b80821115612659576000816000905550600101612641565b5090565b600061267061266b8461321a565b6131f5565b905080838252602082019050828560208602820111156126935761269261365b565b5b60005b858110156126c357816126a988826127bf565b845260208401935060208301925050600181019050612696565b5050509392505050565b60006126e06126db84613246565b6131f5565b9050828152602081018484840111156126fc576126fb613660565b5b61270784828561341d565b509392505050565b60008135905061271e81613a2b565b92915050565b600082601f83011261273957612738613656565b5b813561274984826020860161265d565b91505092915050565b60008135905061276181613a42565b92915050565b60008135905061277681613a59565b92915050565b60008151905061278b81613a59565b92915050565b600082601f8301126127a6576127a5613656565b5b81356127b68482602086016126cd565b91505092915050565b6000813590506127ce81613a70565b92915050565b6000815190506127e381613a70565b92915050565b6000602082840312156127ff576127fe61366a565b5b600061280d8482850161270f565b91505092915050565b6000806040838503121561282d5761282c61366a565b5b600061283b8582860161270f565b925050602061284c8582860161270f565b9150509250929050565b60008060006060848603121561286f5761286e61366a565b5b600061287d8682870161270f565b935050602061288e8682870161270f565b925050604061289f868287016127bf565b9150509250925092565b600080600080608085870312156128c3576128c261366a565b5b60006128d18782880161270f565b94505060206128e28782880161270f565b93505060406128f3878288016127bf565b925050606085013567ffffffffffffffff81111561291457612913613665565b5b61292087828801612791565b91505092959194509250565b600080604083850312156129435761294261366a565b5b60006129518582860161270f565b925050602061296285828601612752565b9150509250929050565b600080604083850312156129835761298261366a565b5b60006129918582860161270f565b92505060206129a2858286016127bf565b9150509250929050565b6000602082840312156129c2576129c161366a565b5b60006129d084828501612767565b91505092915050565b6000602082840312156129ef576129ee61366a565b5b60006129fd8482850161277c565b91505092915050565b600060208284031215612a1c57612a1b61366a565b5b6000612a2a848285016127bf565b91505092915050565b600060208284031215612a4957612a4861366a565b5b6000612a57848285016127d4565b91505092915050565b60008060408385031215612a7757612a7661366a565b5b6000612a85858286016127bf565b925050602083013567ffffffffffffffff811115612aa657612aa5613665565b5b612ab285828601612724565b9150509250929050565b6000612ac88383612e26565b60208301905092915050565b612add81613348565b82525050565b612aec81613281565b612af681846132af565b9250612b0182613277565b8060005b83811015612b32578151612b198782612abc565b9650612b24836132a2565b925050600181019050612b05565b505050505050565b612b438161335a565b82525050565b612b5281613366565b82525050565b6000612b638261328c565b612b6d81856132ba565b9350612b7d81856020860161342c565b612b868161366f565b840191505092915050565b612b9a8161340b565b82525050565b6000612bab82613297565b612bb581856132d6565b9350612bc581856020860161342c565b612bce8161366f565b840191505092915050565b6000612be482613297565b612bee81856132e7565b9350612bfe81856020860161342c565b80840191505092915050565b6000612c17602d836132d6565b9150612c2282613680565b604082019050919050565b6000612c3a6032836132d6565b9150612c45826136cf565b604082019050919050565b6000612c5d6026836132d6565b9150612c688261371e565b604082019050919050565b6000612c806025836132d6565b9150612c8b8261376d565b604082019050919050565b6000612ca3601c836132d6565b9150612cae826137bc565b602082019050919050565b6000612cc66024836132d6565b9150612cd1826137e5565b604082019050919050565b6000612ce96019836132d6565b9150612cf482613834565b602082019050919050565b6000612d0c6029836132d6565b9150612d178261385d565b604082019050919050565b6000612d2f602e836132d6565b9150612d3a826138ac565b604082019050919050565b6000612d526020836132d6565b9150612d5d826138fb565b602082019050919050565b6000612d756020836132d6565b9150612d8082613924565b602082019050919050565b6000612d986018836132d6565b9150612da38261394d565b602082019050919050565b6000612dbb6021836132d6565b9150612dc682613976565b604082019050919050565b6000612dde6000836132cb565b9150612de9826139c5565b600082019050919050565b6000612e01603d836132d6565b9150612e0c826139c8565b604082019050919050565b612e20816133af565b82525050565b612e2f816133dd565b82525050565b612e3e816133dd565b82525050565b612e4d816133e7565b82525050565b612e5c816133f7565b82525050565b6000612e6e8285612bd9565b9150612e7a8284612bd9565b91508190509392505050565b6000612e9182612dd1565b9150819050919050565b6000602082019050612eb06000830184612ad4565b92915050565b6000604082019050612ecb6000830185612ad4565b612ed86020830184612ad4565b9392505050565b6000608082019050612ef46000830187612ad4565b612f016020830186612ad4565b612f0e6040830185612e35565b8181036060830152612f208184612b58565b905095945050505050565b6000606082019050612f406000830184612ae3565b92915050565b6000602082019050612f5b6000830184612b3a565b92915050565b600060a082019050612f766000830188612b49565b612f836020830187612e53565b612f906040830186612e17565b612f9d6060830185612e44565b612faa6080830184612e44565b9695505050505050565b6000602082019050612fc96000830184612b91565b92915050565b6000604082019050612fe46000830185612b91565b612ff16020830184612ad4565b9392505050565b600060208201905081810360008301526130128184612ba0565b905092915050565b6000602082019050818103600083015261303381612c0a565b9050919050565b6000602082019050818103600083015261305381612c2d565b9050919050565b6000602082019050818103600083015261307381612c50565b9050919050565b6000602082019050818103600083015261309381612c73565b9050919050565b600060208201905081810360008301526130b381612c96565b9050919050565b600060208201905081810360008301526130d381612cb9565b9050919050565b600060208201905081810360008301526130f381612cdc565b9050919050565b6000602082019050818103600083015261311381612cff565b9050919050565b6000602082019050818103600083015261313381612d22565b9050919050565b6000602082019050818103600083015261315381612d45565b9050919050565b6000602082019050818103600083015261317381612d68565b9050919050565b6000602082019050818103600083015261319381612d8b565b9050919050565b600060208201905081810360008301526131b381612dae565b9050919050565b600060208201905081810360008301526131d381612df4565b9050919050565b60006020820190506131ef6000830184612e35565b92915050565b60006131ff613210565b905061320b8282613491565b919050565b6000604051905090565b600067ffffffffffffffff82111561323557613234613627565b5b602082029050602081019050919050565b600067ffffffffffffffff82111561326157613260613627565b5b61326a8261366f565b9050602081019050919050565b6000819050919050565b600060039050919050565b600081519050919050565b600081519050919050565b6000602082019050919050565b600081905092915050565b600082825260208201905092915050565b600081905092915050565b600082825260208201905092915050565b600081905092915050565b60006132fd826133dd565b9150613308836133dd565b9250827fffffffffffffffffffffffffffffffffffffffffffffffffffffffffffffffff0382111561333d5761333c61353c565b5b828201905092915050565b6000613353826133bd565b9050919050565b60008115159050919050565b6000819050919050565b60007fffffffff0000000000000000000000000000000000000000000000000000000082169050919050565b60008190506133aa82613a17565b919050565b600061ffff82169050919050565b600073ffffffffffffffffffffffffffffffffffffffff82169050919050565b6000819050919050565b600063ffffffff82169050919050565b600067ffffffffffffffff82169050919050565b60006134168261339c565b9050919050565b82818337600083830152505050565b60005b8381101561344a57808201518184015260208101905061342f565b83811115613459576000848401525b50505050565b6000600282049050600182168061347757607f821691505b6020821081141561348b5761348a6135c9565b5b50919050565b61349a8261366f565b810181811067ffffffffffffffff821117156134b9576134b8613627565b5b80604052505050565b60006134cd826133dd565b91507fffffffffffffffffffffffffffffffffffffffffffffffffffffffffffffffff821415613500576134ff61353c565b5b600182019050919050565b6000613516826133dd565b9150613521836133dd565b9250826135315761353061356b565b5b828206905092915050565b7f4e487b7100000000000000000000000000000000000000000000000000000000600052601160045260246000fd5b7f4e487b7100000000000000000000000000000000000000000000000000000000600052601260045260246000fd5b7f4e487b7100000000000000000000000000000000000000000000000000000000600052602160045260246000fd5b7f4e487b7100000000000000000000000000000000000000000000000000000000600052602260045260246000fd5b7f4e487b7100000000000000000000000000000000000000000000000000000000600052603260045260246000fd5b7f4e487b7100000000000000000000000000000000000000000000000000000000600052604160045260246000fd5b600080fd5b600080fd5b600080fd5b600080fd5b600080fd5b6000601f19601f8301169050919050565b7f4552433732313a2063616c6c6572206973206e6f7420746f6b656e206f776e6560008201527f72206f7220617070726f76656400000000000000000000000000000000000000602082015250565b7f4552433732313a207472616e7366657220746f206e6f6e20455243373231526560008201527f63656976657220696d706c656d656e7465720000000000000000000000000000602082015250565b7f4f776e61626c653a206e6577206f776e657220697320746865207a65726f206160008201527f6464726573730000000000000000000000000000000000000000000000000000602082015250565b7f4552433732313a207472616e736665722066726f6d20696e636f72726563742060008201527f6f776e6572000000000000000000000000000000000000000000000000000000602082015250565b7f4552433732313a20746f6b656e20616c7265616479206d696e74656400000000600082015250565b7f4552433732313a207472616e7366657220746f20746865207a65726f2061646460008201527f7265737300000000000000000000000000000000000000000000000000000000602082015250565b7f4552433732313a20617070726f766520746f2063616c6c657200000000000000600082015250565b7f4552433732313a2061646472657373207a65726f206973206e6f74206120766160008201527f6c6964206f776e65720000000000000000000000000000000000000000000000602082015250565b7f45524337323155524953746f726167653a2055524920736574206f66206e6f6e60008201527f6578697374656e7420746f6b656e000000000000000000000000000000000000602082015250565b7f4552433732313a206d696e7420746f20746865207a65726f2061646472657373600082015250565b7f4f776e61626c653a2063616c6c6572206973206e6f7420746865206f776e6572600082015250565b7f4552433732313a20696e76616c696420746f6b656e2049440000000000000000600082015250565b7f4552433732313a20617070726f76616c20746f2063757272656e74206f776e6560008201527f7200000000000000000000000000000000000000000000000000000000000000602082015250565b50565b7f4552433732313a20617070726f76652063616c6c6572206973206e6f7420746f60008201527f6b656e206f776e6572206f7220617070726f76656420666f7220616c6c000000602082015250565b60038110613a2857613a2761359a565b5b50565b613a3481613348565b8114613a3f57600080fd5b50565b613a4b8161335a565b8114613a5657600080fd5b50565b613a6281613370565b8114613a6d57600080fd5b50565b613a79816133dd565b8114613a8457600080fd5b5056fea2646970667358221220b5b07409d27d58d1c0cc8c760181594474ca1831271c495305ca496bb92a199364736f6c63430008070033","opcodes":"PUSH2 0x140 PUSH1 0x40 MSTORE CALLVALUE DUP1 ISZERO PUSH3 0x12 JUMPI PUSH1 0x0 DUP1 REVERT JUMPDEST POP PUSH1 0x40 MLOAD PUSH3 0x4459 CODESIZE SUB DUP1 PUSH3 0x4459 DUP4 CODECOPY DUP2 DUP2 ADD PUSH1 0x40 MSTORE DUP2 ADD SWAP1 PUSH3 0x38 SWAP2 SWAP1 PUSH3 0x5D7 JUMP JUMPDEST PUSH1 0x40 MLOAD DUP1 PUSH1 0x40 ADD PUSH1 0x40 MSTORE DUP1 PUSH1 0xF DUP2 MSTORE PUSH1 0x20 ADD PUSH32 0x52616E646F6D2049504653204E46540000000000000000000000000000000000 DUP2 MSTORE POP PUSH1 0x40 MLOAD DUP1 PUSH1 0x40 ADD PUSH1 0x40 MSTORE DUP1 PUSH1 0x3 DUP2 MSTORE PUSH1 0x20 ADD PUSH32 0x52494E0000000000000000000000000000000000000000000000000000000000 DUP2 MSTORE POP DUP8 DUP1 PUSH20 0xFFFFFFFFFFFFFFFFFFFFFFFFFFFFFFFFFFFFFFFF AND PUSH1 0x80 DUP2 PUSH20 0xFFFFFFFFFFFFFFFFFFFFFFFFFFFFFFFFFFFFFFFF AND PUSH1 0x60 SHL DUP2 MSTORE POP POP POP DUP2 PUSH1 0x0 SWAP1 DUP1 MLOAD SWAP1 PUSH1 0x20 ADD SWAP1 PUSH3 0xF5 SWAP3 SWAP2 SWAP1 PUSH3 0x29E JUMP JUMPDEST POP DUP1 PUSH1 0x1 SWAP1 DUP1 MLOAD SWAP1 PUSH1 0x20 ADD SWAP1 PUSH3 0x10E SWAP3 SWAP2 SWAP1 PUSH3 0x29E JUMP JUMPDEST POP POP POP PUSH3 0x131 PUSH3 0x125 PUSH3 0x1D0 PUSH1 0x20 SHL PUSH1 0x20 SHR JUMP JUMPDEST PUSH3 0x1D8 PUSH1 0x20 SHL PUSH1 0x20 SHR JUMP JUMPDEST DUP6 PUSH20 0xFFFFFFFFFFFFFFFFFFFFFFFFFFFFFFFFFFFFFFFF AND PUSH1 0xA0 DUP2 PUSH20 0xFFFFFFFFFFFFFFFFFFFFFFFFFFFFFFFFFFFFFFFF AND PUSH1 0x60 SHL DUP2 MSTORE POP POP DUP5 PUSH8 0xFFFFFFFFFFFFFFFF AND PUSH1 0xC0 DUP2 PUSH8 0xFFFFFFFFFFFFFFFF AND PUSH1 0xC0 SHL DUP2 MSTORE POP POP DUP4 PUSH1 0xE0 DUP2 DUP2 MSTORE POP POP DUP3 PUSH4 0xFFFFFFFF AND PUSH2 0x100 DUP2 PUSH4 0xFFFFFFFF AND PUSH1 0xE0 SHL DUP2 MSTORE POP POP DUP2 PUSH1 0xA SWAP1 PUSH1 0x3 PUSH3 0x1BA SWAP3 SWAP2 SWAP1 PUSH3 0x32F JUMP JUMPDEST POP DUP1 PUSH2 0x120 DUP2 DUP2 MSTORE POP POP POP POP POP POP POP POP PUSH3 0x932 JUMP JUMPDEST PUSH1 0x0 CALLER SWAP1 POP SWAP1 JUMP JUMPDEST PUSH1 0x0 PUSH1 0x7 PUSH1 0x0 SWAP1 SLOAD SWAP1 PUSH2 0x100 EXP SWAP1 DIV PUSH20 0xFFFFFFFFFFFFFFFFFFFFFFFFFFFFFFFFFFFFFFFF AND SWAP1 POP DUP2 PUSH1 0x7 PUSH1 0x0 PUSH2 0x100 EXP DUP2 SLOAD DUP2 PUSH20 0xFFFFFFFFFFFFFFFFFFFFFFFFFFFFFFFFFFFFFFFF MUL NOT AND SWAP1 DUP4 PUSH20 0xFFFFFFFFFFFFFFFFFFFFFFFFFFFFFFFFFFFFFFFF AND MUL OR SWAP1 SSTORE POP DUP2 PUSH20 0xFFFFFFFFFFFFFFFFFFFFFFFFFFFFFFFFFFFFFFFF AND DUP2 PUSH20 0xFFFFFFFFFFFFFFFFFFFFFFFFFFFFFFFFFFFFFFFF AND PUSH32 0x8BE0079C531659141344CD1FD0A4F28419497F9722A3DAAFE3B4186F6B6457E0 PUSH1 0x40 MLOAD PUSH1 0x40 MLOAD DUP1 SWAP2 SUB SWAP1 LOG3 POP POP JUMP JUMPDEST DUP3 DUP1 SLOAD PUSH3 0x2AC SWAP1 PUSH3 0x7BC JUMP JUMPDEST SWAP1 PUSH1 0x0 MSTORE PUSH1 0x20 PUSH1 0x0 KECCAK256 SWAP1 PUSH1 0x1F ADD PUSH1 0x20 SWAP1 DIV DUP2 ADD SWAP3 DUP3 PUSH3 0x2D0 JUMPI PUSH1 0x0 DUP6 SSTORE PUSH3 0x31C JUMP JUMPDEST DUP3 PUSH1 0x1F LT PUSH3 0x2EB JUMPI DUP1 MLOAD PUSH1 0xFF NOT AND DUP4 DUP1 ADD OR DUP6 SSTORE PUSH3 0x31C JUMP JUMPDEST DUP3 DUP1 ADD PUSH1 0x1 ADD DUP6 SSTORE DUP3 ISZERO PUSH3 0x31C JUMPI SWAP2 DUP3 ADD JUMPDEST DUP3 DUP2 GT ISZERO PUSH3 0x31B JUMPI DUP3 MLOAD DUP3 SSTORE SWAP2 PUSH1 0x20 ADD SWAP2 SWAP1 PUSH1 0x1 ADD SWAP1 PUSH3 0x2FE JUMP JUMPDEST JUMPDEST POP SWAP1 POP PUSH3 0x32B SWAP2 SWAP1 PUSH3 0x396 JUMP JUMPDEST POP SWAP1 JUMP JUMPDEST DUP3 DUP1 SLOAD DUP3 DUP3 SSTORE SWAP1 PUSH1 0x0 MSTORE PUSH1 0x20 PUSH1 0x0 KECCAK256 SWAP1 DUP2 ADD SWAP3 DUP3 ISZERO PUSH3 0x383 JUMPI SWAP2 PUSH1 0x20 MUL DUP3 ADD JUMPDEST DUP3 DUP2 GT ISZERO PUSH3 0x382 JUMPI DUP3 MLOAD DUP3 SWAP1 DUP1 MLOAD SWAP1 PUSH1 0x20 ADD SWAP1 PUSH3 0x371 SWAP3 SWAP2 SWAP1 PUSH3 0x29E JUMP JUMPDEST POP SWAP2 PUSH1 0x20 ADD SWAP2 SWAP1 PUSH1 0x1 ADD SWAP1 PUSH3 0x350 JUMP JUMPDEST JUMPDEST POP SWAP1 POP PUSH3 0x392 SWAP2 SWAP1 PUSH3 0x3B5 JUMP JUMPDEST POP SWAP1 JUMP JUMPDEST JUMPDEST DUP1 DUP3 GT ISZERO PUSH3 0x3B1 JUMPI PUSH1 0x0 DUP2 PUSH1 0x0 SWAP1 SSTORE POP PUSH1 0x1 ADD PUSH3 0x397 JUMP JUMPDEST POP SWAP1 JUMP JUMPDEST JUMPDEST DUP1 DUP3 GT ISZERO PUSH3 0x3D9 JUMPI PUSH1 0x0 DUP2 DUP2 PUSH3 0x3CF SWAP2 SWAP1 PUSH3 0x3DD JUMP JUMPDEST POP PUSH1 0x1 ADD PUSH3 0x3B6 JUMP JUMPDEST POP SWAP1 JUMP JUMPDEST POP DUP1 SLOAD PUSH3 0x3EB SWAP1 PUSH3 0x7BC JUMP JUMPDEST PUSH1 0x0 DUP3 SSTORE DUP1 PUSH1 0x1F LT PUSH3 0x3FF JUMPI POP PUSH3 0x420 JUMP JUMPDEST PUSH1 0x1F ADD PUSH1 0x20 SWAP1 DIV SWAP1 PUSH1 0x0 MSTORE PUSH1 0x20 PUSH1 0x0 KECCAK256 SWAP1 DUP2 ADD SWAP1 PUSH3 0x41F SWAP2 SWAP1 PUSH3 0x396 JUMP JUMPDEST JUMPDEST POP JUMP JUMPDEST PUSH1 0x0 PUSH3 0x43A PUSH3 0x434 DUP5 PUSH3 0x6BB JUMP JUMPDEST PUSH3 0x692 JUMP JUMPDEST SWAP1 POP DUP1 DUP3 DUP6 PUSH1 0x20 DUP7 MUL DUP3 ADD GT ISZERO PUSH3 0x457 JUMPI PUSH3 0x456 PUSH3 0x88B JUMP JUMPDEST JUMPDEST PUSH1 0x0 JUMPDEST DUP6 DUP2 LT ISZERO PUSH3 0x4AC JUMPI DUP2 MLOAD PUSH8 0xFFFFFFFFFFFFFFFF DUP2 GT ISZERO PUSH3 0x481 JUMPI PUSH3 0x480 PUSH3 0x886 JUMP JUMPDEST JUMPDEST DUP1 DUP7 ADD PUSH3 0x490 DUP10 DUP3 PUSH3 0x55F JUMP JUMPDEST DUP6 MSTORE PUSH1 0x20 DUP6 ADD SWAP5 POP PUSH1 0x20 DUP5 ADD SWAP4 POP POP POP PUSH1 0x1 DUP2 ADD SWAP1 POP PUSH3 0x45A JUMP JUMPDEST POP POP POP SWAP4 SWAP3 POP POP POP JUMP JUMPDEST PUSH1 0x0 PUSH3 0x4CD PUSH3 0x4C7 DUP5 PUSH3 0x6E4 JUMP JUMPDEST PUSH3 0x692 JUMP JUMPDEST SWAP1 POP DUP3 DUP2 MSTORE PUSH1 0x20 DUP2 ADD DUP5 DUP5 DUP5 ADD GT ISZERO PUSH3 0x4EC JUMPI PUSH3 0x4EB PUSH3 0x890 JUMP JUMPDEST JUMPDEST PUSH3 0x4F9 DUP5 DUP3 DUP6 PUSH3 0x786 JUMP JUMPDEST POP SWAP4 SWAP3 POP POP POP JUMP JUMPDEST PUSH1 0x0 DUP2 MLOAD SWAP1 POP PUSH3 0x512 DUP2 PUSH3 0x8B0 JUMP JUMPDEST SWAP3 SWAP2 POP POP JUMP JUMPDEST PUSH1 0x0 DUP3 PUSH1 0x1F DUP4 ADD SLT PUSH3 0x530 JUMPI PUSH3 0x52F PUSH3 0x886 JUMP JUMPDEST JUMPDEST PUSH1 0x3 PUSH3 0x53F DUP5 DUP3 DUP6 PUSH3 0x423 JUMP JUMPDEST SWAP2 POP POP SWAP3 SWAP2 POP POP JUMP JUMPDEST PUSH1 0x0 DUP2 MLOAD SWAP1 POP PUSH3 0x559 DUP2 PUSH3 0x8CA JUMP JUMPDEST SWAP3 SWAP2 POP POP JUMP JUMPDEST PUSH1 0x0 DUP3 PUSH1 0x1F DUP4 ADD SLT PUSH3 0x577 JUMPI PUSH3 0x576 PUSH3 0x886 JUMP JUMPDEST JUMPDEST DUP2 MLOAD PUSH3 0x589 DUP5 DUP3 PUSH1 0x20 DUP7 ADD PUSH3 0x4B6 JUMP JUMPDEST SWAP2 POP POP SWAP3 SWAP2 POP POP JUMP JUMPDEST PUSH1 0x0 DUP2 MLOAD SWAP1 POP PUSH3 0x5A3 DUP2 PUSH3 0x8E4 JUMP JUMPDEST SWAP3 SWAP2 POP POP JUMP JUMPDEST PUSH1 0x0 DUP2 MLOAD SWAP1 POP PUSH3 0x5BA DUP2 PUSH3 0x8FE JUMP JUMPDEST SWAP3 SWAP2 POP POP JUMP JUMPDEST PUSH1 0x0 DUP2 MLOAD SWAP1 POP PUSH3 0x5D1 DUP2 PUSH3 0x918 JUMP JUMPDEST SWAP3 SWAP2 POP POP JUMP JUMPDEST PUSH1 0x0 DUP1 PUSH1 0x0 DUP1 PUSH1 0x0 DUP1 PUSH1 0xC0 DUP8 DUP10 SUB SLT ISZERO PUSH3 0x5F7 JUMPI PUSH3 0x5F6 PUSH3 0x89A JUMP JUMPDEST JUMPDEST PUSH1 0x0 PUSH3 0x607 DUP10 DUP3 DUP11 ADD PUSH3 0x501 JUMP JUMPDEST SWAP7 POP POP PUSH1 0x20 PUSH3 0x61A DUP10 DUP3 DUP11 ADD PUSH3 0x5C0 JUMP JUMPDEST SWAP6 POP POP PUSH1 0x40 PUSH3 0x62D DUP10 DUP3 DUP11 ADD PUSH3 0x548 JUMP JUMPDEST SWAP5 POP POP PUSH1 0x60 PUSH3 0x640 DUP10 DUP3 DUP11 ADD PUSH3 0x5A9 JUMP JUMPDEST SWAP4 POP POP PUSH1 0x80 DUP8 ADD MLOAD PUSH8 0xFFFFFFFFFFFFFFFF DUP2 GT ISZERO PUSH3 0x664 JUMPI PUSH3 0x663 PUSH3 0x895 JUMP JUMPDEST JUMPDEST PUSH3 0x672 DUP10 DUP3 DUP11 ADD PUSH3 0x518 JUMP JUMPDEST SWAP3 POP POP PUSH1 0xA0 PUSH3 0x685 DUP10 DUP3 DUP11 ADD PUSH3 0x592 JUMP JUMPDEST SWAP2 POP POP SWAP3 SWAP6 POP SWAP3 SWAP6 POP SWAP3 SWAP6 JUMP JUMPDEST PUSH1 0x0 PUSH3 0x69E PUSH3 0x6B1 JUMP JUMPDEST SWAP1 POP PUSH3 0x6AC DUP3 DUP3 PUSH3 0x7F2 JUMP JUMPDEST SWAP2 SWAP1 POP JUMP JUMPDEST PUSH1 0x0 PUSH1 0x40 MLOAD SWAP1 POP SWAP1 JUMP JUMPDEST PUSH1 0x0 PUSH8 0xFFFFFFFFFFFFFFFF DUP3 GT ISZERO PUSH3 0x6D9 JUMPI PUSH3 0x6D8 PUSH3 0x857 JUMP JUMPDEST JUMPDEST PUSH1 0x20 DUP3 MUL SWAP1 POP SWAP2 SWAP1 POP JUMP JUMPDEST PUSH1 0x0 PUSH8 0xFFFFFFFFFFFFFFFF DUP3 GT ISZERO PUSH3 0x702 JUMPI PUSH3 0x701 PUSH3 0x857 JUMP JUMPDEST JUMPDEST PUSH3 0x70D DUP3 PUSH3 0x89F JUMP JUMPDEST SWAP1 POP PUSH1 0x20 DUP2 ADD SWAP1 POP SWAP2 SWAP1 POP JUMP JUMPDEST PUSH1 0x0 PUSH3 0x727 DUP3 PUSH3 0x738 JUMP JUMPDEST SWAP1 POP SWAP2 SWAP1 POP JUMP JUMPDEST PUSH1 0x0 DUP2 SWAP1 POP SWAP2 SWAP1 POP JUMP JUMPDEST PUSH1 0x0 PUSH20 0xFFFFFFFFFFFFFFFFFFFFFFFFFFFFFFFFFFFFFFFF DUP3 AND SWAP1 POP SWAP2 SWAP1 POP JUMP JUMPDEST PUSH1 0x0 DUP2 SWAP1 POP SWAP2 SWAP1 POP JUMP JUMPDEST PUSH1 0x0 PUSH4 0xFFFFFFFF DUP3 AND SWAP1 POP SWAP2 SWAP1 POP JUMP JUMPDEST PUSH1 0x0 PUSH8 0xFFFFFFFFFFFFFFFF DUP3 AND SWAP1 POP SWAP2 SWAP1 POP JUMP JUMPDEST PUSH1 0x0 JUMPDEST DUP4 DUP2 LT ISZERO PUSH3 0x7A6 JUMPI DUP1 DUP3 ADD MLOAD DUP2 DUP5 ADD MSTORE PUSH1 0x20 DUP2 ADD SWAP1 POP PUSH3 0x789 JUMP JUMPDEST DUP4 DUP2 GT ISZERO PUSH3 0x7B6 JUMPI PUSH1 0x0 DUP5 DUP5 ADD MSTORE JUMPDEST POP POP POP POP JUMP JUMPDEST PUSH1 0x0 PUSH1 0x2 DUP3 DIV SWAP1 POP PUSH1 0x1 DUP3 AND DUP1 PUSH3 0x7D5 JUMPI PUSH1 0x7F DUP3 AND SWAP2 POP JUMPDEST PUSH1 0x20 DUP3 LT DUP2 EQ ISZERO PUSH3 0x7EC JUMPI PUSH3 0x7EB PUSH3 0x828 JUMP JUMPDEST JUMPDEST POP SWAP2 SWAP1 POP JUMP JUMPDEST PUSH3 0x7FD DUP3 PUSH3 0x89F JUMP JUMPDEST DUP2 ADD DUP2 DUP2 LT PUSH8 0xFFFFFFFFFFFFFFFF DUP3 GT OR ISZERO PUSH3 0x81F JUMPI PUSH3 0x81E PUSH3 0x857 JUMP JUMPDEST JUMPDEST DUP1 PUSH1 0x40 MSTORE POP POP POP JUMP JUMPDEST PUSH32 0x4E487B7100000000000000000000000000000000000000000000000000000000 PUSH1 0x0 MSTORE PUSH1 0x22 PUSH1 0x4 MSTORE PUSH1 0x24 PUSH1 0x0 REVERT JUMPDEST PUSH32 0x4E487B7100000000000000000000000000000000000000000000000000000000 PUSH1 0x0 MSTORE PUSH1 0x41 PUSH1 0x4 MSTORE PUSH1 0x24 PUSH1 0x0 REVERT JUMPDEST PUSH1 0x0 DUP1 REVERT JUMPDEST PUSH1 0x0 DUP1 REVERT JUMPDEST PUSH1 0x0 DUP1 REVERT JUMPDEST PUSH1 0x0 DUP1 REVERT JUMPDEST PUSH1 0x0 DUP1 REVERT JUMPDEST PUSH1 0x0 PUSH1 0x1F NOT PUSH1 0x1F DUP4 ADD AND SWAP1 POP SWAP2 SWAP1 POP JUMP JUMPDEST PUSH3 0x8BB DUP2 PUSH3 0x71A JUMP JUMPDEST DUP2 EQ PUSH3 0x8C7 JUMPI PUSH1 0x0 DUP1 REVERT JUMPDEST POP JUMP JUMPDEST PUSH3 0x8D5 DUP2 PUSH3 0x72E JUMP JUMPDEST DUP2 EQ PUSH3 0x8E1 JUMPI PUSH1 0x0 DUP1 REVERT JUMPDEST POP JUMP JUMPDEST PUSH3 0x8EF DUP2 PUSH3 0x758 JUMP JUMPDEST DUP2 EQ PUSH3 0x8FB JUMPI PUSH1 0x0 DUP1 REVERT JUMPDEST POP JUMP JUMPDEST PUSH3 0x909 DUP2 PUSH3 0x762 JUMP JUMPDEST DUP2 EQ PUSH3 0x915 JUMPI PUSH1 0x0 DUP1 REVERT JUMPDEST POP JUMP JUMPDEST PUSH3 0x923 DUP2 PUSH3 0x772 JUMP JUMPDEST DUP2 EQ PUSH3 0x92F JUMPI PUSH1 0x0 DUP1 REVERT JUMPDEST POP JUMP JUMPDEST PUSH1 0x80 MLOAD PUSH1 0x60 SHR PUSH1 0xA0 MLOAD PUSH1 0x60 SHR PUSH1 0xC0 MLOAD PUSH1 0xC0 SHR PUSH1 0xE0 MLOAD PUSH2 0x100 MLOAD PUSH1 0xE0 SHR PUSH2 0x120 MLOAD PUSH2 0x3ABD PUSH3 0x99C PUSH1 0x0 CODECOPY PUSH1 0x0 DUP2 DUP2 PUSH2 0xD4B ADD MSTORE PUSH2 0xF5A ADD MSTORE PUSH1 0x0 PUSH2 0x1034 ADD MSTORE PUSH1 0x0 PUSH2 0xFF0 ADD MSTORE PUSH1 0x0 PUSH2 0x1011 ADD MSTORE PUSH1 0x0 PUSH2 0xFB4 ADD MSTORE PUSH1 0x0 DUP2 DUP2 PUSH2 0x91D ADD MSTORE PUSH2 0x971 ADD MSTORE PUSH2 0x3ABD PUSH1 0x0 RETURN INVALID PUSH1 0x80 PUSH1 0x40 MSTORE PUSH1 0x4 CALLDATASIZE LT PUSH2 0x181 JUMPI PUSH1 0x0 CALLDATALOAD PUSH1 0xE0 SHR DUP1 PUSH4 0x70A08231 GT PUSH2 0xD1 JUMPI DUP1 PUSH4 0xA36F573B GT PUSH2 0x8A JUMPI DUP1 PUSH4 0xB88D4FDE GT PUSH2 0x64 JUMPI DUP1 PUSH4 0xB88D4FDE EQ PUSH2 0x577 JUMPI DUP1 PUSH4 0xC87B56DD EQ PUSH2 0x5A0 JUMPI DUP1 PUSH4 0xE985E9C5 EQ PUSH2 0x5DD JUMPI DUP1 PUSH4 0xF2FDE38B EQ PUSH2 0x61A JUMPI PUSH2 0x181 JUMP JUMPDEST DUP1 PUSH4 0xA36F573B EQ PUSH2 0x4DF JUMPI DUP1 PUSH4 0xA51CCCF3 EQ PUSH2 0x51C JUMPI DUP1 PUSH4 0xAA152491 EQ PUSH2 0x559 JUMPI PUSH2 0x181 JUMP JUMPDEST DUP1 PUSH4 0x70A08231 EQ PUSH2 0x3E1 JUMPI DUP1 PUSH4 0x715018A6 EQ PUSH2 0x41E JUMPI DUP1 PUSH4 0x7A5CAAB3 EQ PUSH2 0x435 JUMPI DUP1 PUSH4 0x8DA5CB5B EQ PUSH2 0x460 JUMPI DUP1 PUSH4 0x95D89B41 EQ PUSH2 0x48B JUMPI DUP1 PUSH4 0xA22CB465 EQ PUSH2 0x4B6 JUMPI PUSH2 0x181 JUMP JUMPDEST DUP1 PUSH4 0x23B872DD GT PUSH2 0x13E JUMPI DUP1 PUSH4 0x42842E0E GT PUSH2 0x118 JUMPI DUP1 PUSH4 0x42842E0E EQ PUSH2 0x325 JUMPI DUP1 PUSH4 0x5DACF5F4 EQ PUSH2 0x34E JUMPI DUP1 PUSH4 0x6352211E EQ PUSH2 0x379 JUMPI DUP1 PUSH4 0x6E02007D EQ PUSH2 0x3B6 JUMPI PUSH2 0x181 JUMP JUMPDEST DUP1 PUSH4 0x23B872DD EQ PUSH2 0x2A8 JUMPI DUP1 PUSH4 0x3AF25975 EQ PUSH2 0x2D1 JUMPI DUP1 PUSH4 0x3CCFD60B EQ PUSH2 0x30E JUMPI PUSH2 0x181 JUMP JUMPDEST DUP1 PUSH4 0x1FFC9A7 EQ PUSH2 0x186 JUMPI DUP1 PUSH4 0x6FDDE03 EQ PUSH2 0x1C3 JUMPI DUP1 PUSH4 0x81812FC EQ PUSH2 0x1EE JUMPI DUP1 PUSH4 0x95EA7B3 EQ PUSH2 0x22B JUMPI DUP1 PUSH4 0xB21A83B EQ PUSH2 0x254 JUMPI DUP1 PUSH4 0x1FE543E3 EQ PUSH2 0x27F JUMPI JUMPDEST PUSH1 0x0 DUP1 REVERT JUMPDEST CALLVALUE DUP1 ISZERO PUSH2 0x192 JUMPI PUSH1 0x0 DUP1 REVERT JUMPDEST POP PUSH2 0x1AD PUSH1 0x4 DUP1 CALLDATASIZE SUB DUP2 ADD SWAP1 PUSH2 0x1A8 SWAP2 SWAP1 PUSH2 0x29AC JUMP JUMPDEST PUSH2 0x643 JUMP JUMPDEST PUSH1 0x40 MLOAD PUSH2 0x1BA SWAP2 SWAP1 PUSH2 0x2F46 JUMP JUMPDEST PUSH1 0x40 MLOAD DUP1 SWAP2 SUB SWAP1 RETURN JUMPDEST CALLVALUE DUP1 ISZERO PUSH2 0x1CF JUMPI PUSH1 0x0 DUP1 REVERT JUMPDEST POP PUSH2 0x1D8 PUSH2 0x725 JUMP JUMPDEST PUSH1 0x40 MLOAD PUSH2 0x1E5 SWAP2 SWAP1 PUSH2 0x2FF8 JUMP JUMPDEST PUSH1 0x40 MLOAD DUP1 SWAP2 SUB SWAP1 RETURN JUMPDEST CALLVALUE DUP1 ISZERO PUSH2 0x1FA JUMPI PUSH1 0x0 DUP1 REVERT JUMPDEST POP PUSH2 0x215 PUSH1 0x4 DUP1 CALLDATASIZE SUB DUP2 ADD SWAP1 PUSH2 0x210 SWAP2 SWAP1 PUSH2 0x2A06 JUMP JUMPDEST PUSH2 0x7B7 JUMP JUMPDEST PUSH1 0x40 MLOAD PUSH2 0x222 SWAP2 SWAP1 PUSH2 0x2E9B JUMP JUMPDEST PUSH1 0x40 MLOAD DUP1 SWAP2 SUB SWAP1 RETURN JUMPDEST CALLVALUE DUP1 ISZERO PUSH2 0x237 JUMPI PUSH1 0x0 DUP1 REVERT JUMPDEST POP PUSH2 0x252 PUSH1 0x4 DUP1 CALLDATASIZE SUB DUP2 ADD SWAP1 PUSH2 0x24D SWAP2 SWAP1 PUSH2 0x296C JUMP JUMPDEST PUSH2 0x7FD JUMP JUMPDEST STOP JUMPDEST CALLVALUE DUP1 ISZERO PUSH2 0x260 JUMPI PUSH1 0x0 DUP1 REVERT JUMPDEST POP PUSH2 0x269 PUSH2 0x915 JUMP JUMPDEST PUSH1 0x40 MLOAD PUSH2 0x276 SWAP2 SWAP1 PUSH2 0x31DA JUMP JUMPDEST PUSH1 0x40 MLOAD DUP1 SWAP2 SUB SWAP1 RETURN JUMPDEST CALLVALUE DUP1 ISZERO PUSH2 0x28B JUMPI PUSH1 0x0 DUP1 REVERT JUMPDEST POP PUSH2 0x2A6 PUSH1 0x4 DUP1 CALLDATASIZE SUB DUP2 ADD SWAP1 PUSH2 0x2A1 SWAP2 SWAP1 PUSH2 0x2A60 JUMP JUMPDEST PUSH2 0x91B JUMP JUMPDEST STOP JUMPDEST CALLVALUE DUP1 ISZERO PUSH2 0x2B4 JUMPI PUSH1 0x0 DUP1 REVERT JUMPDEST POP PUSH2 0x2CF PUSH1 0x4 DUP1 CALLDATASIZE SUB DUP2 ADD SWAP1 PUSH2 0x2CA SWAP2 SWAP1 PUSH2 0x2856 JUMP JUMPDEST PUSH2 0x9DB JUMP JUMPDEST STOP JUMPDEST CALLVALUE DUP1 ISZERO PUSH2 0x2DD JUMPI PUSH1 0x0 DUP1 REVERT JUMPDEST POP PUSH2 0x2F8 PUSH1 0x4 DUP1 CALLDATASIZE SUB DUP2 ADD SWAP1 PUSH2 0x2F3 SWAP2 SWAP1 PUSH2 0x2A06 JUMP JUMPDEST PUSH2 0xA3B JUMP JUMPDEST PUSH1 0x40 MLOAD PUSH2 0x305 SWAP2 SWAP1 PUSH2 0x2FF8 JUMP JUMPDEST PUSH1 0x40 MLOAD DUP1 SWAP2 SUB SWAP1 RETURN JUMPDEST CALLVALUE DUP1 ISZERO PUSH2 0x31A JUMPI PUSH1 0x0 DUP1 REVERT JUMPDEST POP PUSH2 0x323 PUSH2 0xAEB JUMP JUMPDEST STOP JUMPDEST CALLVALUE DUP1 ISZERO PUSH2 0x331 JUMPI PUSH1 0x0 DUP1 REVERT JUMPDEST POP PUSH2 0x34C PUSH1 0x4 DUP1 CALLDATASIZE SUB DUP2 ADD SWAP1 PUSH2 0x347 SWAP2 SWAP1 PUSH2 0x2856 JUMP JUMPDEST PUSH2 0xB9F JUMP JUMPDEST STOP JUMPDEST CALLVALUE DUP1 ISZERO PUSH2 0x35A JUMPI PUSH1 0x0 DUP1 REVERT JUMPDEST POP PUSH2 0x363 PUSH2 0xBBF JUMP JUMPDEST PUSH1 0x40 MLOAD PUSH2 0x370 SWAP2 SWAP1 PUSH2 0x2F2B JUMP JUMPDEST PUSH1 0x40 MLOAD DUP1 SWAP2 SUB SWAP1 RETURN JUMPDEST CALLVALUE DUP1 ISZERO PUSH2 0x385 JUMPI PUSH1 0x0 DUP1 REVERT JUMPDEST POP PUSH2 0x3A0 PUSH1 0x4 DUP1 CALLDATASIZE SUB DUP2 ADD SWAP1 PUSH2 0x39B SWAP2 SWAP1 PUSH2 0x2A06 JUMP JUMPDEST PUSH2 0xBEA JUMP JUMPDEST PUSH1 0x40 MLOAD PUSH2 0x3AD SWAP2 SWAP1 PUSH2 0x2E9B JUMP JUMPDEST PUSH1 0x40 MLOAD DUP1 SWAP2 SUB SWAP1 RETURN JUMPDEST CALLVALUE DUP1 ISZERO PUSH2 0x3C2 JUMPI PUSH1 0x0 DUP1 REVERT JUMPDEST POP PUSH2 0x3CB PUSH2 0xC71 JUMP JUMPDEST PUSH1 0x40 MLOAD PUSH2 0x3D8 SWAP2 SWAP1 PUSH2 0x31DA JUMP JUMPDEST PUSH1 0x40 MLOAD DUP1 SWAP2 SUB SWAP1 RETURN JUMPDEST CALLVALUE DUP1 ISZERO PUSH2 0x3ED JUMPI PUSH1 0x0 DUP1 REVERT JUMPDEST POP PUSH2 0x408 PUSH1 0x4 DUP1 CALLDATASIZE SUB DUP2 ADD SWAP1 PUSH2 0x403 SWAP2 SWAP1 PUSH2 0x27E9 JUMP JUMPDEST PUSH2 0xC7B JUMP JUMPDEST PUSH1 0x40 MLOAD PUSH2 0x415 SWAP2 SWAP1 PUSH2 0x31DA JUMP JUMPDEST PUSH1 0x40 MLOAD DUP1 SWAP2 SUB SWAP1 RETURN JUMPDEST CALLVALUE DUP1 ISZERO PUSH2 0x42A JUMPI PUSH1 0x0 DUP1 REVERT JUMPDEST POP PUSH2 0x433 PUSH2 0xD33 JUMP JUMPDEST STOP JUMPDEST CALLVALUE DUP1 ISZERO PUSH2 0x441 JUMPI PUSH1 0x0 DUP1 REVERT JUMPDEST POP PUSH2 0x44A PUSH2 0xD47 JUMP JUMPDEST PUSH1 0x40 MLOAD PUSH2 0x457 SWAP2 SWAP1 PUSH2 0x31DA JUMP JUMPDEST PUSH1 0x40 MLOAD DUP1 SWAP2 SUB SWAP1 RETURN JUMPDEST CALLVALUE DUP1 ISZERO PUSH2 0x46C JUMPI PUSH1 0x0 DUP1 REVERT JUMPDEST POP PUSH2 0x475 PUSH2 0xD6F JUMP JUMPDEST PUSH1 0x40 MLOAD PUSH2 0x482 SWAP2 SWAP1 PUSH2 0x2E9B JUMP JUMPDEST PUSH1 0x40 MLOAD DUP1 SWAP2 SUB SWAP1 RETURN JUMPDEST CALLVALUE DUP1 ISZERO PUSH2 0x497 JUMPI PUSH1 0x0 DUP1 REVERT JUMPDEST POP PUSH2 0x4A0 PUSH2 0xD99 JUMP JUMPDEST PUSH1 0x40 MLOAD PUSH2 0x4AD SWAP2 SWAP1 PUSH2 0x2FF8 JUMP JUMPDEST PUSH1 0x40 MLOAD DUP1 SWAP2 SUB SWAP1 RETURN JUMPDEST CALLVALUE DUP1 ISZERO PUSH2 0x4C2 JUMPI PUSH1 0x0 DUP1 REVERT JUMPDEST POP PUSH2 0x4DD PUSH1 0x4 DUP1 CALLDATASIZE SUB DUP2 ADD SWAP1 PUSH2 0x4D8 SWAP2 SWAP1 PUSH2 0x292C JUMP JUMPDEST PUSH2 0xE2B JUMP JUMPDEST STOP JUMPDEST CALLVALUE DUP1 ISZERO PUSH2 0x4EB JUMPI PUSH1 0x0 DUP1 REVERT JUMPDEST POP PUSH2 0x506 PUSH1 0x4 DUP1 CALLDATASIZE SUB DUP2 ADD SWAP1 PUSH2 0x501 SWAP2 SWAP1 PUSH2 0x2A06 JUMP JUMPDEST PUSH2 0xE41 JUMP JUMPDEST PUSH1 0x40 MLOAD PUSH2 0x513 SWAP2 SWAP1 PUSH2 0x2E9B JUMP JUMPDEST PUSH1 0x40 MLOAD DUP1 SWAP2 SUB SWAP1 RETURN JUMPDEST CALLVALUE DUP1 ISZERO PUSH2 0x528 JUMPI PUSH1 0x0 DUP1 REVERT JUMPDEST POP PUSH2 0x543 PUSH1 0x4 DUP1 CALLDATASIZE SUB DUP2 ADD SWAP1 PUSH2 0x53E SWAP2 SWAP1 PUSH2 0x2A06 JUMP JUMPDEST PUSH2 0xE74 JUMP JUMPDEST PUSH1 0x40 MLOAD PUSH2 0x550 SWAP2 SWAP1 PUSH2 0x2FB4 JUMP JUMPDEST PUSH1 0x40 MLOAD DUP1 SWAP2 SUB SWAP1 RETURN JUMPDEST PUSH2 0x561 PUSH2 0xF56 JUMP JUMPDEST PUSH1 0x40 MLOAD PUSH2 0x56E SWAP2 SWAP1 PUSH2 0x31DA JUMP JUMPDEST PUSH1 0x40 MLOAD DUP1 SWAP2 SUB SWAP1 RETURN JUMPDEST CALLVALUE DUP1 ISZERO PUSH2 0x583 JUMPI PUSH1 0x0 DUP1 REVERT JUMPDEST POP PUSH2 0x59E PUSH1 0x4 DUP1 CALLDATASIZE SUB DUP2 ADD SWAP1 PUSH2 0x599 SWAP2 SWAP1 PUSH2 0x28A9 JUMP JUMPDEST PUSH2 0x1156 JUMP JUMPDEST STOP JUMPDEST CALLVALUE DUP1 ISZERO PUSH2 0x5AC JUMPI PUSH1 0x0 DUP1 REVERT JUMPDEST POP PUSH2 0x5C7 PUSH1 0x4 DUP1 CALLDATASIZE SUB DUP2 ADD SWAP1 PUSH2 0x5C2 SWAP2 SWAP1 PUSH2 0x2A06 JUMP JUMPDEST PUSH2 0x11B8 JUMP JUMPDEST PUSH1 0x40 MLOAD PUSH2 0x5D4 SWAP2 SWAP1 PUSH2 0x2FF8 JUMP JUMPDEST PUSH1 0x40 MLOAD DUP1 SWAP2 SUB SWAP1 RETURN JUMPDEST CALLVALUE DUP1 ISZERO PUSH2 0x5E9 JUMPI PUSH1 0x0 DUP1 REVERT JUMPDEST POP PUSH2 0x604 PUSH1 0x4 DUP1 CALLDATASIZE SUB DUP2 ADD SWAP1 PUSH2 0x5FF SWAP2 SWAP1 PUSH2 0x2816 JUMP JUMPDEST PUSH2 0x12CB JUMP JUMPDEST PUSH1 0x40 MLOAD PUSH2 0x611 SWAP2 SWAP1 PUSH2 0x2F46 JUMP JUMPDEST PUSH1 0x40 MLOAD DUP1 SWAP2 SUB SWAP1 RETURN JUMPDEST CALLVALUE DUP1 ISZERO PUSH2 0x626 JUMPI PUSH1 0x0 DUP1 REVERT JUMPDEST POP PUSH2 0x641 PUSH1 0x4 DUP1 CALLDATASIZE SUB DUP2 ADD SWAP1 PUSH2 0x63C SWAP2 SWAP1 PUSH2 0x27E9 JUMP JUMPDEST PUSH2 0x135F JUMP JUMPDEST STOP JUMPDEST PUSH1 0x0 PUSH32 0x80AC58CD00000000000000000000000000000000000000000000000000000000 PUSH28 0xFFFFFFFFFFFFFFFFFFFFFFFFFFFFFFFFFFFFFFFFFFFFFFFFFFFFFFFF NOT AND DUP3 PUSH28 0xFFFFFFFFFFFFFFFFFFFFFFFFFFFFFFFFFFFFFFFFFFFFFFFFFFFFFFFF NOT AND EQ DUP1 PUSH2 0x70E JUMPI POP PUSH32 0x5B5E139F00000000000000000000000000000000000000000000000000000000 PUSH28 0xFFFFFFFFFFFFFFFFFFFFFFFFFFFFFFFFFFFFFFFFFFFFFFFFFFFFFFFF NOT AND DUP3 PUSH28 0xFFFFFFFFFFFFFFFFFFFFFFFFFFFFFFFFFFFFFFFFFFFFFFFFFFFFFFFF NOT AND EQ JUMPDEST DUP1 PUSH2 0x71E JUMPI POP PUSH2 0x71D DUP3 PUSH2 0x13E3 JUMP JUMPDEST JUMPDEST SWAP1 POP SWAP2 SWAP1 POP JUMP JUMPDEST PUSH1 0x60 PUSH1 0x0 DUP1 SLOAD PUSH2 0x734 SWAP1 PUSH2 0x345F JUMP JUMPDEST DUP1 PUSH1 0x1F ADD PUSH1 0x20 DUP1 SWAP2 DIV MUL PUSH1 0x20 ADD PUSH1 0x40 MLOAD SWAP1 DUP2 ADD PUSH1 0x40 MSTORE DUP1 SWAP3 SWAP2 SWAP1 DUP2 DUP2 MSTORE PUSH1 0x20 ADD DUP3 DUP1 SLOAD PUSH2 0x760 SWAP1 PUSH2 0x345F JUMP JUMPDEST DUP1 ISZERO PUSH2 0x7AD JUMPI DUP1 PUSH1 0x1F LT PUSH2 0x782 JUMPI PUSH2 0x100 DUP1 DUP4 SLOAD DIV MUL DUP4 MSTORE SWAP2 PUSH1 0x20 ADD SWAP2 PUSH2 0x7AD JUMP JUMPDEST DUP3 ADD SWAP2 SWAP1 PUSH1 0x0 MSTORE PUSH1 0x20 PUSH1 0x0 KECCAK256 SWAP1 JUMPDEST DUP2 SLOAD DUP2 MSTORE SWAP1 PUSH1 0x1 ADD SWAP1 PUSH1 0x20 ADD DUP1 DUP4 GT PUSH2 0x790 JUMPI DUP3 SWAP1 SUB PUSH1 0x1F AND DUP3 ADD SWAP2 JUMPDEST POP POP POP POP POP SWAP1 POP SWAP1 JUMP JUMPDEST PUSH1 0x0 PUSH2 0x7C2 DUP3 PUSH2 0x144D JUMP JUMPDEST PUSH1 0x4 PUSH1 0x0 DUP4 DUP2 MSTORE PUSH1 0x20 ADD SWAP1 DUP2 MSTORE PUSH1 0x20 ADD PUSH1 0x0 KECCAK256 PUSH1 0x0 SWAP1 SLOAD SWAP1 PUSH2 0x100 EXP SWAP1 DIV PUSH20 0xFFFFFFFFFFFFFFFFFFFFFFFFFFFFFFFFFFFFFFFF AND SWAP1 POP SWAP2 SWAP1 POP JUMP JUMPDEST PUSH1 0x0 PUSH2 0x808 DUP3 PUSH2 0xBEA JUMP JUMPDEST SWAP1 POP DUP1 PUSH20 0xFFFFFFFFFFFFFFFFFFFFFFFFFFFFFFFFFFFFFFFF AND DUP4 PUSH20 0xFFFFFFFFFFFFFFFFFFFFFFFFFFFFFFFFFFFFFFFF AND EQ ISZERO PUSH2 0x879 JUMPI PUSH1 0x40 MLOAD PUSH32 0x8C379A000000000000000000000000000000000000000000000000000000000 DUP2 MSTORE PUSH1 0x4 ADD PUSH2 0x870 SWAP1 PUSH2 0x319A JUMP JUMPDEST PUSH1 0x40 MLOAD DUP1 SWAP2 SUB SWAP1 REVERT JUMPDEST DUP1 PUSH20 0xFFFFFFFFFFFFFFFFFFFFFFFFFFFFFFFFFFFFFFFF AND PUSH2 0x898 PUSH2 0x1498 JUMP JUMPDEST PUSH20 0xFFFFFFFFFFFFFFFFFFFFFFFFFFFFFFFFFFFFFFFF AND EQ DUP1 PUSH2 0x8C7 JUMPI POP PUSH2 0x8C6 DUP2 PUSH2 0x8C1 PUSH2 0x1498 JUMP JUMPDEST PUSH2 0x12CB JUMP JUMPDEST JUMPDEST PUSH2 0x906 JUMPI PUSH1 0x40 MLOAD PUSH32 0x8C379A000000000000000000000000000000000000000000000000000000000 DUP2 MSTORE PUSH1 0x4 ADD PUSH2 0x8FD SWAP1 PUSH2 0x31BA JUMP JUMPDEST PUSH1 0x40 MLOAD DUP1 SWAP2 SUB SWAP1 REVERT JUMPDEST PUSH2 0x910 DUP4 DUP4 PUSH2 0x14A0 JUMP JUMPDEST POP POP POP JUMP JUMPDEST PUSH1 0x9 SLOAD DUP2 JUMP JUMPDEST PUSH32 0x0 PUSH20 0xFFFFFFFFFFFFFFFFFFFFFFFFFFFFFFFFFFFFFFFF AND CALLER PUSH20 0xFFFFFFFFFFFFFFFFFFFFFFFFFFFFFFFFFFFFFFFF AND EQ PUSH2 0x9CD JUMPI CALLER PUSH32 0x0 PUSH1 0x40 MLOAD PUSH32 0x1CF993F400000000000000000000000000000000000000000000000000000000 DUP2 MSTORE PUSH1 0x4 ADD PUSH2 0x9C4 SWAP3 SWAP2 SWAP1 PUSH2 0x2EB6 JUMP JUMPDEST PUSH1 0x40 MLOAD DUP1 SWAP2 SUB SWAP1 REVERT JUMPDEST PUSH2 0x9D7 DUP3 DUP3 PUSH2 0x1559 JUMP JUMPDEST POP POP JUMP JUMPDEST PUSH2 0x9EC PUSH2 0x9E6 PUSH2 0x1498 JUMP JUMPDEST DUP3 PUSH2 0x1703 JUMP JUMPDEST PUSH2 0xA2B JUMPI PUSH1 0x40 MLOAD PUSH32 0x8C379A000000000000000000000000000000000000000000000000000000000 DUP2 MSTORE PUSH1 0x4 ADD PUSH2 0xA22 SWAP1 PUSH2 0x301A JUMP JUMPDEST PUSH1 0x40 MLOAD DUP1 SWAP2 SUB SWAP1 REVERT JUMPDEST PUSH2 0xA36 DUP4 DUP4 DUP4 PUSH2 0x1798 JUMP JUMPDEST POP POP POP JUMP JUMPDEST PUSH1 0x60 PUSH1 0xA DUP3 DUP2 SLOAD DUP2 LT PUSH2 0xA51 JUMPI PUSH2 0xA50 PUSH2 0x35F8 JUMP JUMPDEST JUMPDEST SWAP1 PUSH1 0x0 MSTORE PUSH1 0x20 PUSH1 0x0 KECCAK256 ADD DUP1 SLOAD PUSH2 0xA66 SWAP1 PUSH2 0x345F JUMP JUMPDEST DUP1 PUSH1 0x1F ADD PUSH1 0x20 DUP1 SWAP2 DIV MUL PUSH1 0x20 ADD PUSH1 0x40 MLOAD SWAP1 DUP2 ADD PUSH1 0x40 MSTORE DUP1 SWAP3 SWAP2 SWAP1 DUP2 DUP2 MSTORE PUSH1 0x20 ADD DUP3 DUP1 SLOAD PUSH2 0xA92 SWAP1 PUSH2 0x345F JUMP JUMPDEST DUP1 ISZERO PUSH2 0xADF JUMPI DUP1 PUSH1 0x1F LT PUSH2 0xAB4 JUMPI PUSH2 0x100 DUP1 DUP4 SLOAD DIV MUL DUP4 MSTORE SWAP2 PUSH1 0x20 ADD SWAP2 PUSH2 0xADF JUMP JUMPDEST DUP3 ADD SWAP2 SWAP1 PUSH1 0x0 MSTORE PUSH1 0x20 PUSH1 0x0 KECCAK256 SWAP1 JUMPDEST DUP2 SLOAD DUP2 MSTORE SWAP1 PUSH1 0x1 ADD SWAP1 PUSH1 0x20 ADD DUP1 DUP4 GT PUSH2 0xAC2 JUMPI DUP3 SWAP1 SUB PUSH1 0x1F AND DUP3 ADD SWAP2 JUMPDEST POP POP POP POP POP SWAP1 POP SWAP2 SWAP1 POP JUMP JUMPDEST PUSH2 0xAF3 PUSH2 0x1A92 JUMP JUMPDEST PUSH1 0x0 SELFBALANCE SWAP1 POP PUSH1 0x0 CALLER PUSH20 0xFFFFFFFFFFFFFFFFFFFFFFFFFFFFFFFFFFFFFFFF AND DUP3 PUSH1 0x40 MLOAD PUSH2 0xB1E SWAP1 PUSH2 0x2E86 JUMP JUMPDEST PUSH1 0x0 PUSH1 0x40 MLOAD DUP1 DUP4 SUB DUP2 DUP6 DUP8 GAS CALL SWAP3 POP POP POP RETURNDATASIZE DUP1 PUSH1 0x0 DUP2 EQ PUSH2 0xB5B JUMPI PUSH1 0x40 MLOAD SWAP2 POP PUSH1 0x1F NOT PUSH1 0x3F RETURNDATASIZE ADD AND DUP3 ADD PUSH1 0x40 MSTORE RETURNDATASIZE DUP3 MSTORE RETURNDATASIZE PUSH1 0x0 PUSH1 0x20 DUP5 ADD RETURNDATACOPY PUSH2 0xB60 JUMP JUMPDEST PUSH1 0x60 SWAP2 POP JUMPDEST POP POP SWAP1 POP DUP1 PUSH2 0xB9B JUMPI PUSH1 0x40 MLOAD PUSH32 0xCA7E25B700000000000000000000000000000000000000000000000000000000 DUP2 MSTORE PUSH1 0x4 ADD PUSH1 0x40 MLOAD DUP1 SWAP2 SUB SWAP1 REVERT JUMPDEST POP POP JUMP JUMPDEST PUSH2 0xBBA DUP4 DUP4 DUP4 PUSH1 0x40 MLOAD DUP1 PUSH1 0x20 ADD PUSH1 0x40 MSTORE DUP1 PUSH1 0x0 DUP2 MSTORE POP PUSH2 0x1156 JUMP JUMPDEST POP POP POP JUMP JUMPDEST PUSH2 0xBC7 PUSH2 0x2598 JUMP JUMPDEST PUSH1 0x40 MLOAD DUP1 PUSH1 0x60 ADD PUSH1 0x40 MSTORE DUP1 PUSH1 0xA DUP2 MSTORE PUSH1 0x20 ADD PUSH1 0x1E DUP2 MSTORE PUSH1 0x20 ADD PUSH1 0x64 DUP2 MSTORE POP SWAP1 POP SWAP1 JUMP JUMPDEST PUSH1 0x0 DUP1 PUSH2 0xBF6 DUP4 PUSH2 0x1B10 JUMP JUMPDEST SWAP1 POP PUSH1 0x0 PUSH20 0xFFFFFFFFFFFFFFFFFFFFFFFFFFFFFFFFFFFFFFFF AND DUP2 PUSH20 0xFFFFFFFFFFFFFFFFFFFFFFFFFFFFFFFFFFFFFFFF AND EQ ISZERO PUSH2 0xC68 JUMPI PUSH1 0x40 MLOAD PUSH32 0x8C379A000000000000000000000000000000000000000000000000000000000 DUP2 MSTORE PUSH1 0x4 ADD PUSH2 0xC5F SWAP1 PUSH2 0x317A JUMP JUMPDEST PUSH1 0x40 MLOAD DUP1 SWAP2 SUB SWAP1 REVERT JUMPDEST DUP1 SWAP2 POP POP SWAP2 SWAP1 POP JUMP JUMPDEST PUSH1 0x0 PUSH1 0x9 SLOAD SWAP1 POP SWAP1 JUMP JUMPDEST PUSH1 0x0 DUP1 PUSH20 0xFFFFFFFFFFFFFFFFFFFFFFFFFFFFFFFFFFFFFFFF AND DUP3 PUSH20 0xFFFFFFFFFFFFFFFFFFFFFFFFFFFFFFFFFFFFFFFF AND EQ ISZERO PUSH2 0xCEC JUMPI PUSH1 0x40 MLOAD PUSH32 0x8C379A000000000000000000000000000000000000000000000000000000000 DUP2 MSTORE PUSH1 0x4 ADD PUSH2 0xCE3 SWAP1 PUSH2 0x30FA JUMP JUMPDEST PUSH1 0x40 MLOAD DUP1 SWAP2 SUB SWAP1 REVERT JUMPDEST PUSH1 0x3 PUSH1 0x0 DUP4 PUSH20 0xFFFFFFFFFFFFFFFFFFFFFFFFFFFFFFFFFFFFFFFF AND PUSH20 0xFFFFFFFFFFFFFFFFFFFFFFFFFFFFFFFFFFFFFFFF AND DUP2 MSTORE PUSH1 0x20 ADD SWAP1 DUP2 MSTORE PUSH1 0x20 ADD PUSH1 0x0 KECCAK256 SLOAD SWAP1 POP SWAP2 SWAP1 POP JUMP JUMPDEST PUSH2 0xD3B PUSH2 0x1A92 JUMP JUMPDEST PUSH2 0xD45 PUSH1 0x0 PUSH2 0x1B4D JUMP JUMPDEST JUMP JUMPDEST PUSH1 0x0 PUSH32 0x0 SWAP1 POP SWAP1 JUMP JUMPDEST PUSH1 0x0 PUSH1 0x7 PUSH1 0x0 SWAP1 SLOAD SWAP1 PUSH2 0x100 EXP SWAP1 DIV PUSH20 0xFFFFFFFFFFFFFFFFFFFFFFFFFFFFFFFFFFFFFFFF AND SWAP1 POP SWAP1 JUMP JUMPDEST PUSH1 0x60 PUSH1 0x1 DUP1 SLOAD PUSH2 0xDA8 SWAP1 PUSH2 0x345F JUMP JUMPDEST DUP1 PUSH1 0x1F ADD PUSH1 0x20 DUP1 SWAP2 DIV MUL PUSH1 0x20 ADD PUSH1 0x40 MLOAD SWAP1 DUP2 ADD PUSH1 0x40 MSTORE DUP1 SWAP3 SWAP2 SWAP1 DUP2 DUP2 MSTORE PUSH1 0x20 ADD DUP3 DUP1 SLOAD PUSH2 0xDD4 SWAP1 PUSH2 0x345F JUMP JUMPDEST DUP1 ISZERO PUSH2 0xE21 JUMPI DUP1 PUSH1 0x1F LT PUSH2 0xDF6 JUMPI PUSH2 0x100 DUP1 DUP4 SLOAD DIV MUL DUP4 MSTORE SWAP2 PUSH1 0x20 ADD SWAP2 PUSH2 0xE21 JUMP JUMPDEST DUP3 ADD SWAP2 SWAP1 PUSH1 0x0 MSTORE PUSH1 0x20 PUSH1 0x0 KECCAK256 SWAP1 JUMPDEST DUP2 SLOAD DUP2 MSTORE SWAP1 PUSH1 0x1 ADD SWAP1 PUSH1 0x20 ADD DUP1 DUP4 GT PUSH2 0xE04 JUMPI DUP3 SWAP1 SUB PUSH1 0x1F AND DUP3 ADD SWAP2 JUMPDEST POP POP POP POP POP SWAP1 POP SWAP1 JUMP JUMPDEST PUSH2 0xE3D PUSH2 0xE36 PUSH2 0x1498 JUMP JUMPDEST DUP4 DUP4 PUSH2 0x1C13 JUMP JUMPDEST POP POP JUMP JUMPDEST PUSH1 0x8 PUSH1 0x20 MSTORE DUP1 PUSH1 0x0 MSTORE PUSH1 0x40 PUSH1 0x0 KECCAK256 PUSH1 0x0 SWAP2 POP SLOAD SWAP1 PUSH2 0x100 EXP SWAP1 DIV PUSH20 0xFFFFFFFFFFFFFFFFFFFFFFFFFFFFFFFFFFFFFFFF AND DUP2 JUMP JUMPDEST PUSH1 0x0 DUP1 PUSH1 0x0 SWAP1 POP PUSH1 0x0 PUSH2 0xE85 PUSH2 0xBBF JUMP JUMPDEST SWAP1 POP PUSH1 0x0 JUMPDEST PUSH1 0x3 DUP2 LT ISZERO PUSH2 0xF1E JUMPI DUP3 DUP6 LT ISZERO DUP1 ISZERO PUSH2 0xEC4 JUMPI POP DUP2 DUP2 PUSH1 0x3 DUP2 LT PUSH2 0xEB1 JUMPI PUSH2 0xEB0 PUSH2 0x35F8 JUMP JUMPDEST JUMPDEST PUSH1 0x20 MUL ADD MLOAD DUP4 PUSH2 0xEC1 SWAP2 SWAP1 PUSH2 0x32F2 JUMP JUMPDEST DUP6 LT JUMPDEST ISZERO PUSH2 0xEE6 JUMPI DUP1 PUSH1 0x2 DUP2 GT ISZERO PUSH2 0xEDC JUMPI PUSH2 0xEDB PUSH2 0x359A JUMP JUMPDEST JUMPDEST SWAP4 POP POP POP POP PUSH2 0xF51 JUMP JUMPDEST DUP2 DUP2 PUSH1 0x3 DUP2 LT PUSH2 0xEF9 JUMPI PUSH2 0xEF8 PUSH2 0x35F8 JUMP JUMPDEST JUMPDEST PUSH1 0x20 MUL ADD MLOAD DUP4 PUSH2 0xF09 SWAP2 SWAP1 PUSH2 0x32F2 JUMP JUMPDEST SWAP3 POP DUP1 DUP1 PUSH2 0xF16 SWAP1 PUSH2 0x34C2 JUMP JUMPDEST SWAP2 POP POP PUSH2 0xE8A JUMP JUMPDEST POP PUSH1 0x40 MLOAD PUSH32 0x12806C9D00000000000000000000000000000000000000000000000000000000 DUP2 MSTORE PUSH1 0x4 ADD PUSH1 0x40 MLOAD DUP1 SWAP2 SUB SWAP1 REVERT JUMPDEST SWAP2 SWAP1 POP JUMP JUMPDEST PUSH1 0x0 PUSH32 0x0 CALLVALUE LT ISZERO PUSH2 0xFB2 JUMPI PUSH1 0x40 MLOAD PUSH32 0xB90F491000000000000000000000000000000000000000000000000000000000 DUP2 MSTORE PUSH1 0x4 ADD PUSH1 0x40 MLOAD DUP1 SWAP2 SUB SWAP1 REVERT JUMPDEST PUSH32 0x0 PUSH20 0xFFFFFFFFFFFFFFFFFFFFFFFFFFFFFFFFFFFFFFFF AND PUSH4 0x5D3B1D30 PUSH32 0x0 PUSH32 0x0 PUSH1 0x3 PUSH32 0x0 PUSH1 0x1 PUSH1 0x40 MLOAD DUP7 PUSH4 0xFFFFFFFF AND PUSH1 0xE0 SHL DUP2 MSTORE PUSH1 0x4 ADD PUSH2 0x1075 SWAP6 SWAP5 SWAP4 SWAP3 SWAP2 SWAP1 PUSH2 0x2F61 JUMP JUMPDEST PUSH1 0x20 PUSH1 0x40 MLOAD DUP1 DUP4 SUB DUP2 PUSH1 0x0 DUP8 DUP1 EXTCODESIZE ISZERO DUP1 ISZERO PUSH2 0x108F JUMPI PUSH1 0x0 DUP1 REVERT JUMPDEST POP GAS CALL ISZERO DUP1 ISZERO PUSH2 0x10A3 JUMPI RETURNDATASIZE PUSH1 0x0 DUP1 RETURNDATACOPY RETURNDATASIZE PUSH1 0x0 REVERT JUMPDEST POP POP POP POP PUSH1 0x40 MLOAD RETURNDATASIZE PUSH1 0x1F NOT PUSH1 0x1F DUP3 ADD AND DUP3 ADD DUP1 PUSH1 0x40 MSTORE POP DUP2 ADD SWAP1 PUSH2 0x10C7 SWAP2 SWAP1 PUSH2 0x2A33 JUMP JUMPDEST SWAP1 POP CALLER PUSH1 0x8 PUSH1 0x0 DUP4 DUP2 MSTORE PUSH1 0x20 ADD SWAP1 DUP2 MSTORE PUSH1 0x20 ADD PUSH1 0x0 KECCAK256 PUSH1 0x0 PUSH2 0x100 EXP DUP2 SLOAD DUP2 PUSH20 0xFFFFFFFFFFFFFFFFFFFFFFFFFFFFFFFFFFFFFFFF MUL NOT AND SWAP1 DUP4 PUSH20 0xFFFFFFFFFFFFFFFFFFFFFFFFFFFFFFFFFFFFFFFF AND MUL OR SWAP1 SSTORE POP DUP1 PUSH32 0xF873236E6CC0ECC5BE1A9A35C95EE5B8D1AC4CC7BFEF0CC5060391D6CC98E26B CALLER PUSH1 0x40 MLOAD PUSH2 0x114B SWAP2 SWAP1 PUSH2 0x2E9B JUMP JUMPDEST PUSH1 0x40 MLOAD DUP1 SWAP2 SUB SWAP1 LOG2 SWAP1 JUMP JUMPDEST PUSH2 0x1167 PUSH2 0x1161 PUSH2 0x1498 JUMP JUMPDEST DUP4 PUSH2 0x1703 JUMP JUMPDEST PUSH2 0x11A6 JUMPI PUSH1 0x40 MLOAD PUSH32 0x8C379A000000000000000000000000000000000000000000000000000000000 DUP2 MSTORE PUSH1 0x4 ADD PUSH2 0x119D SWAP1 PUSH2 0x301A JUMP JUMPDEST PUSH1 0x40 MLOAD DUP1 SWAP2 SUB SWAP1 REVERT JUMPDEST PUSH2 0x11B2 DUP5 DUP5 DUP5 DUP5 PUSH2 0x1D80 JUMP JUMPDEST POP POP POP POP JUMP JUMPDEST PUSH1 0x60 PUSH2 0x11C3 DUP3 PUSH2 0x144D JUMP JUMPDEST PUSH1 0x0 PUSH1 0x6 PUSH1 0x0 DUP5 DUP2 MSTORE PUSH1 0x20 ADD SWAP1 DUP2 MSTORE PUSH1 0x20 ADD PUSH1 0x0 KECCAK256 DUP1 SLOAD PUSH2 0x11E3 SWAP1 PUSH2 0x345F JUMP JUMPDEST DUP1 PUSH1 0x1F ADD PUSH1 0x20 DUP1 SWAP2 DIV MUL PUSH1 0x20 ADD PUSH1 0x40 MLOAD SWAP1 DUP2 ADD PUSH1 0x40 MSTORE DUP1 SWAP3 SWAP2 SWAP1 DUP2 DUP2 MSTORE PUSH1 0x20 ADD DUP3 DUP1 SLOAD PUSH2 0x120F SWAP1 PUSH2 0x345F JUMP JUMPDEST DUP1 ISZERO PUSH2 0x125C JUMPI DUP1 PUSH1 0x1F LT PUSH2 0x1231 JUMPI PUSH2 0x100 DUP1 DUP4 SLOAD DIV MUL DUP4 MSTORE SWAP2 PUSH1 0x20 ADD SWAP2 PUSH2 0x125C JUMP JUMPDEST DUP3 ADD SWAP2 SWAP1 PUSH1 0x0 MSTORE PUSH1 0x20 PUSH1 0x0 KECCAK256 SWAP1 JUMPDEST DUP2 SLOAD DUP2 MSTORE SWAP1 PUSH1 0x1 ADD SWAP1 PUSH1 0x20 ADD DUP1 DUP4 GT PUSH2 0x123F JUMPI DUP3 SWAP1 SUB PUSH1 0x1F AND DUP3 ADD SWAP2 JUMPDEST POP POP POP POP POP SWAP1 POP PUSH1 0x0 PUSH2 0x126D PUSH2 0x1DDC JUMP JUMPDEST SWAP1 POP PUSH1 0x0 DUP2 MLOAD EQ ISZERO PUSH2 0x1283 JUMPI DUP2 SWAP3 POP POP POP PUSH2 0x12C6 JUMP JUMPDEST PUSH1 0x0 DUP3 MLOAD GT ISZERO PUSH2 0x12B8 JUMPI DUP1 DUP3 PUSH1 0x40 MLOAD PUSH1 0x20 ADD PUSH2 0x12A0 SWAP3 SWAP2 SWAP1 PUSH2 0x2E62 JUMP JUMPDEST PUSH1 0x40 MLOAD PUSH1 0x20 DUP2 DUP4 SUB SUB DUP2 MSTORE SWAP1 PUSH1 0x40 MSTORE SWAP3 POP POP POP PUSH2 0x12C6 JUMP JUMPDEST PUSH2 0x12C1 DUP5 PUSH2 0x1DF3 JUMP JUMPDEST SWAP3 POP POP POP JUMPDEST SWAP2 SWAP1 POP JUMP JUMPDEST PUSH1 0x0 PUSH1 0x5 PUSH1 0x0 DUP5 PUSH20 0xFFFFFFFFFFFFFFFFFFFFFFFFFFFFFFFFFFFFFFFF AND PUSH20 0xFFFFFFFFFFFFFFFFFFFFFFFFFFFFFFFFFFFFFFFF AND DUP2 MSTORE PUSH1 0x20 ADD SWAP1 DUP2 MSTORE PUSH1 0x20 ADD PUSH1 0x0 KECCAK256 PUSH1 0x0 DUP4 PUSH20 0xFFFFFFFFFFFFFFFFFFFFFFFFFFFFFFFFFFFFFFFF AND PUSH20 0xFFFFFFFFFFFFFFFFFFFFFFFFFFFFFFFFFFFFFFFF AND DUP2 MSTORE PUSH1 0x20 ADD SWAP1 DUP2 MSTORE PUSH1 0x20 ADD PUSH1 0x0 KECCAK256 PUSH1 0x0 SWAP1 SLOAD SWAP1 PUSH2 0x100 EXP SWAP1 DIV PUSH1 0xFF AND SWAP1 POP SWAP3 SWAP2 POP POP JUMP JUMPDEST PUSH2 0x1367 PUSH2 0x1A92 JUMP JUMPDEST PUSH1 0x0 PUSH20 0xFFFFFFFFFFFFFFFFFFFFFFFFFFFFFFFFFFFFFFFF AND DUP2 PUSH20 0xFFFFFFFFFFFFFFFFFFFFFFFFFFFFFFFFFFFFFFFF AND EQ ISZERO PUSH2 0x13D7 JUMPI PUSH1 0x40 MLOAD PUSH32 0x8C379A000000000000000000000000000000000000000000000000000000000 DUP2 MSTORE PUSH1 0x4 ADD PUSH2 0x13CE SWAP1 PUSH2 0x305A JUMP JUMPDEST PUSH1 0x40 MLOAD DUP1 SWAP2 SUB SWAP1 REVERT JUMPDEST PUSH2 0x13E0 DUP2 PUSH2 0x1B4D JUMP JUMPDEST POP JUMP JUMPDEST PUSH1 0x0 PUSH32 0x1FFC9A700000000000000000000000000000000000000000000000000000000 PUSH28 0xFFFFFFFFFFFFFFFFFFFFFFFFFFFFFFFFFFFFFFFFFFFFFFFFFFFFFFFF NOT AND DUP3 PUSH28 0xFFFFFFFFFFFFFFFFFFFFFFFFFFFFFFFFFFFFFFFFFFFFFFFFFFFFFFFF NOT AND EQ SWAP1 POP SWAP2 SWAP1 POP JUMP JUMPDEST PUSH2 0x1456 DUP2 PUSH2 0x1E5B JUMP JUMPDEST PUSH2 0x1495 JUMPI PUSH1 0x40 MLOAD PUSH32 0x8C379A000000000000000000000000000000000000000000000000000000000 DUP2 MSTORE PUSH1 0x4 ADD PUSH2 0x148C SWAP1 PUSH2 0x317A JUMP JUMPDEST PUSH1 0x40 MLOAD DUP1 SWAP2 SUB SWAP1 REVERT JUMPDEST POP JUMP JUMPDEST PUSH1 0x0 CALLER SWAP1 POP SWAP1 JUMP JUMPDEST DUP2 PUSH1 0x4 PUSH1 0x0 DUP4 DUP2 MSTORE PUSH1 0x20 ADD SWAP1 DUP2 MSTORE PUSH1 0x20 ADD PUSH1 0x0 KECCAK256 PUSH1 0x0 PUSH2 0x100 EXP DUP2 SLOAD DUP2 PUSH20 0xFFFFFFFFFFFFFFFFFFFFFFFFFFFFFFFFFFFFFFFF MUL NOT AND SWAP1 DUP4 PUSH20 0xFFFFFFFFFFFFFFFFFFFFFFFFFFFFFFFFFFFFFFFF AND MUL OR SWAP1 SSTORE POP DUP1 DUP3 PUSH20 0xFFFFFFFFFFFFFFFFFFFFFFFFFFFFFFFFFFFFFFFF AND PUSH2 0x1513 DUP4 PUSH2 0xBEA JUMP JUMPDEST PUSH20 0xFFFFFFFFFFFFFFFFFFFFFFFFFFFFFFFFFFFFFFFF AND PUSH32 0x8C5BE1E5EBEC7D5BD14F71427D1E84F3DD0314C0F7B2291E5B200AC8C7C3B925 PUSH1 0x40 MLOAD PUSH1 0x40 MLOAD DUP1 SWAP2 SUB SWAP1 LOG4 POP POP JUMP JUMPDEST PUSH1 0x0 PUSH1 0x8 PUSH1 0x0 DUP5 DUP2 MSTORE PUSH1 0x20 ADD SWAP1 DUP2 MSTORE PUSH1 0x20 ADD PUSH1 0x0 KECCAK256 PUSH1 0x0 SWAP1 SLOAD SWAP1 PUSH2 0x100 EXP SWAP1 DIV PUSH20 0xFFFFFFFFFFFFFFFFFFFFFFFFFFFFFFFFFFFFFFFF AND SWAP1 POP PUSH1 0x0 PUSH1 0x9 SLOAD SWAP1 POP PUSH2 0x15A2 DUP3 DUP3 PUSH2 0x1E9C JUMP JUMPDEST PUSH1 0x0 PUSH1 0x64 DUP5 PUSH1 0x0 DUP2 MLOAD DUP2 LT PUSH2 0x15BA JUMPI PUSH2 0x15B9 PUSH2 0x35F8 JUMP JUMPDEST JUMPDEST PUSH1 0x20 MUL PUSH1 0x20 ADD ADD MLOAD PUSH2 0x15CC SWAP2 SWAP1 PUSH2 0x350B JUMP JUMPDEST SWAP1 POP PUSH1 0x0 PUSH2 0x15D9 DUP3 PUSH2 0xE74 JUMP JUMPDEST SWAP1 POP PUSH1 0x9 SLOAD PUSH1 0x9 PUSH1 0x0 DUP3 DUP3 SLOAD PUSH2 0x15EF SWAP2 SWAP1 PUSH2 0x32F2 JUMP JUMPDEST SWAP3 POP POP DUP2 SWAP1 SSTORE POP PUSH2 0x1600 DUP5 DUP5 PUSH2 0x1E9C JUMP JUMPDEST PUSH2 0x16C2 DUP4 PUSH1 0xA DUP4 PUSH1 0x2 DUP2 GT ISZERO PUSH2 0x1619 JUMPI PUSH2 0x1618 PUSH2 0x359A JUMP JUMPDEST JUMPDEST DUP2 SLOAD DUP2 LT PUSH2 0x162A JUMPI PUSH2 0x1629 PUSH2 0x35F8 JUMP JUMPDEST JUMPDEST SWAP1 PUSH1 0x0 MSTORE PUSH1 0x20 PUSH1 0x0 KECCAK256 ADD DUP1 SLOAD PUSH2 0x163F SWAP1 PUSH2 0x345F JUMP JUMPDEST DUP1 PUSH1 0x1F ADD PUSH1 0x20 DUP1 SWAP2 DIV MUL PUSH1 0x20 ADD PUSH1 0x40 MLOAD SWAP1 DUP2 ADD PUSH1 0x40 MSTORE DUP1 SWAP3 SWAP2 SWAP1 DUP2 DUP2 MSTORE PUSH1 0x20 ADD DUP3 DUP1 SLOAD PUSH2 0x166B SWAP1 PUSH2 0x345F JUMP JUMPDEST DUP1 ISZERO PUSH2 0x16B8 JUMPI DUP1 PUSH1 0x1F LT PUSH2 0x168D JUMPI PUSH2 0x100 DUP1 DUP4 SLOAD DIV MUL DUP4 MSTORE SWAP2 PUSH1 0x20 ADD SWAP2 PUSH2 0x16B8 JUMP JUMPDEST DUP3 ADD SWAP2 SWAP1 PUSH1 0x0 MSTORE PUSH1 0x20 PUSH1 0x0 KECCAK256 SWAP1 JUMPDEST DUP2 SLOAD DUP2 MSTORE SWAP1 PUSH1 0x1 ADD SWAP1 PUSH1 0x20 ADD DUP1 DUP4 GT PUSH2 0x169B JUMPI DUP3 SWAP1 SUB PUSH1 0x1F AND DUP3 ADD SWAP2 JUMPDEST POP POP POP POP POP PUSH2 0x1EBA JUMP JUMPDEST PUSH32 0x8A269F26B688E110E9CBD887D163DAB35CAE678FA353A0292DE532C0CAC1ECDC DUP2 DUP6 PUSH1 0x40 MLOAD PUSH2 0x16F3 SWAP3 SWAP2 SWAP1 PUSH2 0x2FCF JUMP JUMPDEST PUSH1 0x40 MLOAD DUP1 SWAP2 SUB SWAP1 LOG1 POP POP POP POP POP POP JUMP JUMPDEST PUSH1 0x0 DUP1 PUSH2 0x170F DUP4 PUSH2 0xBEA JUMP JUMPDEST SWAP1 POP DUP1 PUSH20 0xFFFFFFFFFFFFFFFFFFFFFFFFFFFFFFFFFFFFFFFF AND DUP5 PUSH20 0xFFFFFFFFFFFFFFFFFFFFFFFFFFFFFFFFFFFFFFFF AND EQ DUP1 PUSH2 0x1751 JUMPI POP PUSH2 0x1750 DUP2 DUP6 PUSH2 0x12CB JUMP JUMPDEST JUMPDEST DUP1 PUSH2 0x178F JUMPI POP DUP4 PUSH20 0xFFFFFFFFFFFFFFFFFFFFFFFFFFFFFFFFFFFFFFFF AND PUSH2 0x1777 DUP5 PUSH2 0x7B7 JUMP JUMPDEST PUSH20 0xFFFFFFFFFFFFFFFFFFFFFFFFFFFFFFFFFFFFFFFF AND EQ JUMPDEST SWAP2 POP POP SWAP3 SWAP2 POP POP JUMP JUMPDEST DUP3 PUSH20 0xFFFFFFFFFFFFFFFFFFFFFFFFFFFFFFFFFFFFFFFF AND PUSH2 0x17B8 DUP3 PUSH2 0xBEA JUMP JUMPDEST PUSH20 0xFFFFFFFFFFFFFFFFFFFFFFFFFFFFFFFFFFFFFFFF AND EQ PUSH2 0x180E JUMPI PUSH1 0x40 MLOAD PUSH32 0x8C379A000000000000000000000000000000000000000000000000000000000 DUP2 MSTORE PUSH1 0x4 ADD PUSH2 0x1805 SWAP1 PUSH2 0x307A JUMP JUMPDEST PUSH1 0x40 MLOAD DUP1 SWAP2 SUB SWAP1 REVERT JUMPDEST PUSH1 0x0 PUSH20 0xFFFFFFFFFFFFFFFFFFFFFFFFFFFFFFFFFFFFFFFF AND DUP3 PUSH20 0xFFFFFFFFFFFFFFFFFFFFFFFFFFFFFFFFFFFFFFFF AND EQ ISZERO PUSH2 0x187E JUMPI PUSH1 0x40 MLOAD PUSH32 0x8C379A000000000000000000000000000000000000000000000000000000000 DUP2 MSTORE PUSH1 0x4 ADD PUSH2 0x1875 SWAP1 PUSH2 0x30BA JUMP JUMPDEST PUSH1 0x40 MLOAD DUP1 SWAP2 SUB SWAP1 REVERT JUMPDEST PUSH2 0x188B DUP4 DUP4 DUP4 PUSH1 0x1 PUSH2 0x1F2E JUMP JUMPDEST DUP3 PUSH20 0xFFFFFFFFFFFFFFFFFFFFFFFFFFFFFFFFFFFFFFFF AND PUSH2 0x18AB DUP3 PUSH2 0xBEA JUMP JUMPDEST PUSH20 0xFFFFFFFFFFFFFFFFFFFFFFFFFFFFFFFFFFFFFFFF AND EQ PUSH2 0x1901 JUMPI PUSH1 0x40 MLOAD PUSH32 0x8C379A000000000000000000000000000000000000000000000000000000000 DUP2 MSTORE PUSH1 0x4 ADD PUSH2 0x18F8 SWAP1 PUSH2 0x307A JUMP JUMPDEST PUSH1 0x40 MLOAD DUP1 SWAP2 SUB SWAP1 REVERT JUMPDEST PUSH1 0x4 PUSH1 0x0 DUP3 DUP2 MSTORE PUSH1 0x20 ADD SWAP1 DUP2 MSTORE PUSH1 0x20 ADD PUSH1 0x0 KECCAK256 PUSH1 0x0 PUSH2 0x100 EXP DUP2 SLOAD SWAP1 PUSH20 0xFFFFFFFFFFFFFFFFFFFFFFFFFFFFFFFFFFFFFFFF MUL NOT AND SWAP1 SSTORE PUSH1 0x1 PUSH1 0x3 PUSH1 0x0 DUP6 PUSH20 0xFFFFFFFFFFFFFFFFFFFFFFFFFFFFFFFFFFFFFFFF AND PUSH20 0xFFFFFFFFFFFFFFFFFFFFFFFFFFFFFFFFFFFFFFFF AND DUP2 MSTORE PUSH1 0x20 ADD SWAP1 DUP2 MSTORE PUSH1 0x20 ADD PUSH1 0x0 KECCAK256 PUSH1 0x0 DUP3 DUP3 SLOAD SUB SWAP3 POP POP DUP2 SWAP1 SSTORE POP PUSH1 0x1 PUSH1 0x3 PUSH1 0x0 DUP5 PUSH20 0xFFFFFFFFFFFFFFFFFFFFFFFFFFFFFFFFFFFFFFFF AND PUSH20 0xFFFFFFFFFFFFFFFFFFFFFFFFFFFFFFFFFFFFFFFF AND DUP2 MSTORE PUSH1 0x20 ADD SWAP1 DUP2 MSTORE PUSH1 0x20 ADD PUSH1 0x0 KECCAK256 PUSH1 0x0 DUP3 DUP3 SLOAD ADD SWAP3 POP POP DUP2 SWAP1 SSTORE POP DUP2 PUSH1 0x2 PUSH1 0x0 DUP4 DUP2 MSTORE PUSH1 0x20 ADD SWAP1 DUP2 MSTORE PUSH1 0x20 ADD PUSH1 0x0 KECCAK256 PUSH1 0x0 PUSH2 0x100 EXP DUP2 SLOAD DUP2 PUSH20 0xFFFFFFFFFFFFFFFFFFFFFFFFFFFFFFFFFFFFFFFF MUL NOT AND SWAP1 DUP4 PUSH20 0xFFFFFFFFFFFFFFFFFFFFFFFFFFFFFFFFFFFFFFFF AND MUL OR SWAP1 SSTORE POP DUP1 DUP3 PUSH20 0xFFFFFFFFFFFFFFFFFFFFFFFFFFFFFFFFFFFFFFFF AND DUP5 PUSH20 0xFFFFFFFFFFFFFFFFFFFFFFFFFFFFFFFFFFFFFFFF AND PUSH32 0xDDF252AD1BE2C89B69C2B068FC378DAA952BA7F163C4A11628F55A4DF523B3EF PUSH1 0x40 MLOAD PUSH1 0x40 MLOAD DUP1 SWAP2 SUB SWAP1 LOG4 PUSH2 0x1A8D DUP4 DUP4 DUP4 PUSH1 0x1 PUSH2 0x1F34 JUMP JUMPDEST POP POP POP JUMP JUMPDEST PUSH2 0x1A9A PUSH2 0x1498 JUMP JUMPDEST PUSH20 0xFFFFFFFFFFFFFFFFFFFFFFFFFFFFFFFFFFFFFFFF AND PUSH2 0x1AB8 PUSH2 0xD6F JUMP JUMPDEST PUSH20 0xFFFFFFFFFFFFFFFFFFFFFFFFFFFFFFFFFFFFFFFF AND EQ PUSH2 0x1B0E JUMPI PUSH1 0x40 MLOAD PUSH32 0x8C379A000000000000000000000000000000000000000000000000000000000 DUP2 MSTORE PUSH1 0x4 ADD PUSH2 0x1B05 SWAP1 PUSH2 0x315A JUMP JUMPDEST PUSH1 0x40 MLOAD DUP1 SWAP2 SUB SWAP1 REVERT JUMPDEST JUMP JUMPDEST PUSH1 0x0 PUSH1 0x2 PUSH1 0x0 DUP4 DUP2 MSTORE PUSH1 0x20 ADD SWAP1 DUP2 MSTORE PUSH1 0x20 ADD PUSH1 0x0 KECCAK256 PUSH1 0x0 SWAP1 SLOAD SWAP1 PUSH2 0x100 EXP SWAP1 DIV PUSH20 0xFFFFFFFFFFFFFFFFFFFFFFFFFFFFFFFFFFFFFFFF AND SWAP1 POP SWAP2 SWAP1 POP JUMP JUMPDEST PUSH1 0x0 PUSH1 0x7 PUSH1 0x0 SWAP1 SLOAD SWAP1 PUSH2 0x100 EXP SWAP1 DIV PUSH20 0xFFFFFFFFFFFFFFFFFFFFFFFFFFFFFFFFFFFFFFFF AND SWAP1 POP DUP2 PUSH1 0x7 PUSH1 0x0 PUSH2 0x100 EXP DUP2 SLOAD DUP2 PUSH20 0xFFFFFFFFFFFFFFFFFFFFFFFFFFFFFFFFFFFFFFFF MUL NOT AND SWAP1 DUP4 PUSH20 0xFFFFFFFFFFFFFFFFFFFFFFFFFFFFFFFFFFFFFFFF AND MUL OR SWAP1 SSTORE POP DUP2 PUSH20 0xFFFFFFFFFFFFFFFFFFFFFFFFFFFFFFFFFFFFFFFF AND DUP2 PUSH20 0xFFFFFFFFFFFFFFFFFFFFFFFFFFFFFFFFFFFFFFFF AND PUSH32 0x8BE0079C531659141344CD1FD0A4F28419497F9722A3DAAFE3B4186F6B6457E0 PUSH1 0x40 MLOAD PUSH1 0x40 MLOAD DUP1 SWAP2 SUB SWAP1 LOG3 POP POP JUMP JUMPDEST DUP2 PUSH20 0xFFFFFFFFFFFFFFFFFFFFFFFFFFFFFFFFFFFFFFFF AND DUP4 PUSH20 0xFFFFFFFFFFFFFFFFFFFFFFFFFFFFFFFFFFFFFFFF AND EQ ISZERO PUSH2 0x1C82 JUMPI PUSH1 0x40 MLOAD PUSH32 0x8C379A000000000000000000000000000000000000000000000000000000000 DUP2 MSTORE PUSH1 0x4 ADD PUSH2 0x1C79 SWAP1 PUSH2 0x30DA JUMP JUMPDEST PUSH1 0x40 MLOAD DUP1 SWAP2 SUB SWAP1 REVERT JUMPDEST DUP1 PUSH1 0x5 PUSH1 0x0 DUP6 PUSH20 0xFFFFFFFFFFFFFFFFFFFFFFFFFFFFFFFFFFFFFFFF AND PUSH20 0xFFFFFFFFFFFFFFFFFFFFFFFFFFFFFFFFFFFFFFFF AND DUP2 MSTORE PUSH1 0x20 ADD SWAP1 DUP2 MSTORE PUSH1 0x20 ADD PUSH1 0x0 KECCAK256 PUSH1 0x0 DUP5 PUSH20 0xFFFFFFFFFFFFFFFFFFFFFFFFFFFFFFFFFFFFFFFF AND PUSH20 0xFFFFFFFFFFFFFFFFFFFFFFFFFFFFFFFFFFFFFFFF AND DUP2 MSTORE PUSH1 0x20 ADD SWAP1 DUP2 MSTORE PUSH1 0x20 ADD PUSH1 0x0 KECCAK256 PUSH1 0x0 PUSH2 0x100 EXP DUP2 SLOAD DUP2 PUSH1 0xFF MUL NOT AND SWAP1 DUP4 ISZERO ISZERO MUL OR SWAP1 SSTORE POP DUP2 PUSH20 0xFFFFFFFFFFFFFFFFFFFFFFFFFFFFFFFFFFFFFFFF AND DUP4 PUSH20 0xFFFFFFFFFFFFFFFFFFFFFFFFFFFFFFFFFFFFFFFF AND PUSH32 0x17307EAB39AB6107E8899845AD3D59BD9653F200F220920489CA2B5937696C31 DUP4 PUSH1 0x40 MLOAD PUSH2 0x1D73 SWAP2 SWAP1 PUSH2 0x2F46 JUMP JUMPDEST PUSH1 0x40 MLOAD DUP1 SWAP2 SUB SWAP1 LOG3 POP POP POP JUMP JUMPDEST PUSH2 0x1D8B DUP5 DUP5 DUP5 PUSH2 0x1798 JUMP JUMPDEST PUSH2 0x1D97 DUP5 DUP5 DUP5 DUP5 PUSH2 0x1F3A JUMP JUMPDEST PUSH2 0x1DD6 JUMPI PUSH1 0x40 MLOAD PUSH32 0x8C379A000000000000000000000000000000000000000000000000000000000 DUP2 MSTORE PUSH1 0x4 ADD PUSH2 0x1DCD SWAP1 PUSH2 0x303A JUMP JUMPDEST PUSH1 0x40 MLOAD DUP1 SWAP2 SUB SWAP1 REVERT JUMPDEST POP POP POP POP JUMP JUMPDEST PUSH1 0x60 PUSH1 0x40 MLOAD DUP1 PUSH1 0x20 ADD PUSH1 0x40 MSTORE DUP1 PUSH1 0x0 DUP2 MSTORE POP SWAP1 POP SWAP1 JUMP JUMPDEST PUSH1 0x60 PUSH2 0x1DFE DUP3 PUSH2 0x144D JUMP JUMPDEST PUSH1 0x0 PUSH2 0x1E08 PUSH2 0x1DDC JUMP JUMPDEST SWAP1 POP PUSH1 0x0 DUP2 MLOAD GT PUSH2 0x1E28 JUMPI PUSH1 0x40 MLOAD DUP1 PUSH1 0x20 ADD PUSH1 0x40 MSTORE DUP1 PUSH1 0x0 DUP2 MSTORE POP PUSH2 0x1E53 JUMP JUMPDEST DUP1 PUSH2 0x1E32 DUP5 PUSH2 0x20D1 JUMP JUMPDEST PUSH1 0x40 MLOAD PUSH1 0x20 ADD PUSH2 0x1E43 SWAP3 SWAP2 SWAP1 PUSH2 0x2E62 JUMP JUMPDEST PUSH1 0x40 MLOAD PUSH1 0x20 DUP2 DUP4 SUB SUB DUP2 MSTORE SWAP1 PUSH1 0x40 MSTORE JUMPDEST SWAP2 POP POP SWAP2 SWAP1 POP JUMP JUMPDEST PUSH1 0x0 DUP1 PUSH20 0xFFFFFFFFFFFFFFFFFFFFFFFFFFFFFFFFFFFFFFFF AND PUSH2 0x1E7D DUP4 PUSH2 0x1B10 JUMP JUMPDEST PUSH20 0xFFFFFFFFFFFFFFFFFFFFFFFFFFFFFFFFFFFFFFFF AND EQ ISZERO SWAP1 POP SWAP2 SWAP1 POP JUMP JUMPDEST PUSH2 0x1EB6 DUP3 DUP3 PUSH1 0x40 MLOAD DUP1 PUSH1 0x20 ADD PUSH1 0x40 MSTORE DUP1 PUSH1 0x0 DUP2 MSTORE POP PUSH2 0x21A9 JUMP JUMPDEST POP POP JUMP JUMPDEST PUSH2 0x1EC3 DUP3 PUSH2 0x1E5B JUMP JUMPDEST PUSH2 0x1F02 JUMPI PUSH1 0x40 MLOAD PUSH32 0x8C379A000000000000000000000000000000000000000000000000000000000 DUP2 MSTORE PUSH1 0x4 ADD PUSH2 0x1EF9 SWAP1 PUSH2 0x311A JUMP JUMPDEST PUSH1 0x40 MLOAD DUP1 SWAP2 SUB SWAP1 REVERT JUMPDEST DUP1 PUSH1 0x6 PUSH1 0x0 DUP5 DUP2 MSTORE PUSH1 0x20 ADD SWAP1 DUP2 MSTORE PUSH1 0x20 ADD PUSH1 0x0 KECCAK256 SWAP1 DUP1 MLOAD SWAP1 PUSH1 0x20 ADD SWAP1 PUSH2 0x1F29 SWAP3 SWAP2 SWAP1 PUSH2 0x25BA JUMP JUMPDEST POP POP POP JUMP JUMPDEST POP POP POP POP JUMP JUMPDEST POP POP POP POP JUMP JUMPDEST PUSH1 0x0 PUSH2 0x1F5B DUP5 PUSH20 0xFFFFFFFFFFFFFFFFFFFFFFFFFFFFFFFFFFFFFFFF AND PUSH2 0x2204 JUMP JUMPDEST ISZERO PUSH2 0x20C4 JUMPI DUP4 PUSH20 0xFFFFFFFFFFFFFFFFFFFFFFFFFFFFFFFFFFFFFFFF AND PUSH4 0x150B7A02 PUSH2 0x1F84 PUSH2 0x1498 JUMP JUMPDEST DUP8 DUP7 DUP7 PUSH1 0x40 MLOAD DUP6 PUSH4 0xFFFFFFFF AND PUSH1 0xE0 SHL DUP2 MSTORE PUSH1 0x4 ADD PUSH2 0x1FA6 SWAP5 SWAP4 SWAP3 SWAP2 SWAP1 PUSH2 0x2EDF JUMP JUMPDEST PUSH1 0x20 PUSH1 0x40 MLOAD DUP1 DUP4 SUB DUP2 PUSH1 0x0 DUP8 DUP1 EXTCODESIZE ISZERO DUP1 ISZERO PUSH2 0x1FC0 JUMPI PUSH1 0x0 DUP1 REVERT JUMPDEST POP GAS CALL SWAP3 POP POP POP DUP1 ISZERO PUSH2 0x1FF1 JUMPI POP PUSH1 0x40 MLOAD RETURNDATASIZE PUSH1 0x1F NOT PUSH1 0x1F DUP3 ADD AND DUP3 ADD DUP1 PUSH1 0x40 MSTORE POP DUP2 ADD SWAP1 PUSH2 0x1FEE SWAP2 SWAP1 PUSH2 0x29D9 JUMP JUMPDEST PUSH1 0x1 JUMPDEST PUSH2 0x2074 JUMPI RETURNDATASIZE DUP1 PUSH1 0x0 DUP2 EQ PUSH2 0x2021 JUMPI PUSH1 0x40 MLOAD SWAP2 POP PUSH1 0x1F NOT PUSH1 0x3F RETURNDATASIZE ADD AND DUP3 ADD PUSH1 0x40 MSTORE RETURNDATASIZE DUP3 MSTORE RETURNDATASIZE PUSH1 0x0 PUSH1 0x20 DUP5 ADD RETURNDATACOPY PUSH2 0x2026 JUMP JUMPDEST PUSH1 0x60 SWAP2 POP JUMPDEST POP PUSH1 0x0 DUP2 MLOAD EQ ISZERO PUSH2 0x206C JUMPI PUSH1 0x40 MLOAD PUSH32 0x8C379A000000000000000000000000000000000000000000000000000000000 DUP2 MSTORE PUSH1 0x4 ADD PUSH2 0x2063 SWAP1 PUSH2 0x303A JUMP JUMPDEST PUSH1 0x40 MLOAD DUP1 SWAP2 SUB SWAP1 REVERT JUMPDEST DUP1 MLOAD DUP2 PUSH1 0x20 ADD REVERT JUMPDEST PUSH4 0x150B7A02 PUSH1 0xE0 SHL PUSH28 0xFFFFFFFFFFFFFFFFFFFFFFFFFFFFFFFFFFFFFFFFFFFFFFFFFFFFFFFF NOT AND DUP2 PUSH28 0xFFFFFFFFFFFFFFFFFFFFFFFFFFFFFFFFFFFFFFFFFFFFFFFFFFFFFFFF NOT AND EQ SWAP2 POP POP PUSH2 0x20C9 JUMP JUMPDEST PUSH1 0x1 SWAP1 POP JUMPDEST SWAP5 SWAP4 POP POP POP POP JUMP JUMPDEST PUSH1 0x60 PUSH1 0x0 PUSH1 0x1 PUSH2 0x20E0 DUP5 PUSH2 0x2227 JUMP JUMPDEST ADD SWAP1 POP PUSH1 0x0 DUP2 PUSH8 0xFFFFFFFFFFFFFFFF DUP2 GT ISZERO PUSH2 0x20FF JUMPI PUSH2 0x20FE PUSH2 0x3627 JUMP JUMPDEST JUMPDEST PUSH1 0x40 MLOAD SWAP1 DUP1 DUP3 MSTORE DUP1 PUSH1 0x1F ADD PUSH1 0x1F NOT AND PUSH1 0x20 ADD DUP3 ADD PUSH1 0x40 MSTORE DUP1 ISZERO PUSH2 0x2131 JUMPI DUP2 PUSH1 0x20 ADD PUSH1 0x1 DUP3 MUL DUP1 CALLDATASIZE DUP4 CALLDATACOPY DUP1 DUP3 ADD SWAP2 POP POP SWAP1 POP JUMPDEST POP SWAP1 POP PUSH1 0x0 DUP3 PUSH1 0x20 ADD DUP3 ADD SWAP1 POP JUMPDEST PUSH1 0x1 ISZERO PUSH2 0x219E JUMPI DUP1 DUP1 PUSH1 0x1 SWAP1 SUB SWAP2 POP POP PUSH32 0x3031323334353637383961626364656600000000000000000000000000000000 PUSH1 0xA DUP7 MOD BYTE DUP2 MSTORE8 PUSH1 0xA DUP6 DUP2 PUSH2 0x2188 JUMPI PUSH2 0x2187 PUSH2 0x356B JUMP JUMPDEST JUMPDEST DIV SWAP5 POP PUSH1 0x0 DUP6 EQ ISZERO PUSH2 0x2199 JUMPI PUSH2 0x219E JUMP JUMPDEST PUSH2 0x213F JUMP JUMPDEST DUP2 SWAP4 POP POP POP POP SWAP2 SWAP1 POP JUMP JUMPDEST PUSH2 0x21B3 DUP4 DUP4 PUSH2 0x237A JUMP JUMPDEST PUSH2 0x21C0 PUSH1 0x0 DUP5 DUP5 DUP5 PUSH2 0x1F3A JUMP JUMPDEST PUSH2 0x21FF JUMPI PUSH1 0x40 MLOAD PUSH32 0x8C379A000000000000000000000000000000000000000000000000000000000 DUP2 MSTORE PUSH1 0x4 ADD PUSH2 0x21F6 SWAP1 PUSH2 0x303A JUMP JUMPDEST PUSH1 0x40 MLOAD DUP1 SWAP2 SUB SWAP1 REVERT JUMPDEST POP POP POP JUMP JUMPDEST PUSH1 0x0 DUP1 DUP3 PUSH20 0xFFFFFFFFFFFFFFFFFFFFFFFFFFFFFFFFFFFFFFFF AND EXTCODESIZE GT SWAP1 POP SWAP2 SWAP1 POP JUMP JUMPDEST PUSH1 0x0 DUP1 PUSH1 0x0 SWAP1 POP PUSH27 0x184F03E93FF9F4DAA797ED6E38ED64BF6A1F010000000000000000 DUP4 LT PUSH2 0x2285 JUMPI PUSH27 0x184F03E93FF9F4DAA797ED6E38ED64BF6A1F010000000000000000 DUP4 DUP2 PUSH2 0x227B JUMPI PUSH2 0x227A PUSH2 0x356B JUMP JUMPDEST JUMPDEST DIV SWAP3 POP PUSH1 0x40 DUP2 ADD SWAP1 POP JUMPDEST PUSH14 0x4EE2D6D415B85ACEF8100000000 DUP4 LT PUSH2 0x22C2 JUMPI PUSH14 0x4EE2D6D415B85ACEF8100000000 DUP4 DUP2 PUSH2 0x22B8 JUMPI PUSH2 0x22B7 PUSH2 0x356B JUMP JUMPDEST JUMPDEST DIV SWAP3 POP PUSH1 0x20 DUP2 ADD SWAP1 POP JUMPDEST PUSH7 0x2386F26FC10000 DUP4 LT PUSH2 0x22F1 JUMPI PUSH7 0x2386F26FC10000 DUP4 DUP2 PUSH2 0x22E7 JUMPI PUSH2 0x22E6 PUSH2 0x356B JUMP JUMPDEST JUMPDEST DIV SWAP3 POP PUSH1 0x10 DUP2 ADD SWAP1 POP JUMPDEST PUSH4 0x5F5E100 DUP4 LT PUSH2 0x231A JUMPI PUSH4 0x5F5E100 DUP4 DUP2 PUSH2 0x2310 JUMPI PUSH2 0x230F PUSH2 0x356B JUMP JUMPDEST JUMPDEST DIV SWAP3 POP PUSH1 0x8 DUP2 ADD SWAP1 POP JUMPDEST PUSH2 0x2710 DUP4 LT PUSH2 0x233F JUMPI PUSH2 0x2710 DUP4 DUP2 PUSH2 0x2335 JUMPI PUSH2 0x2334 PUSH2 0x356B JUMP JUMPDEST JUMPDEST DIV SWAP3 POP PUSH1 0x4 DUP2 ADD SWAP1 POP JUMPDEST PUSH1 0x64 DUP4 LT PUSH2 0x2362 JUMPI PUSH1 0x64 DUP4 DUP2 PUSH2 0x2358 JUMPI PUSH2 0x2357 PUSH2 0x356B JUMP JUMPDEST JUMPDEST DIV SWAP3 POP PUSH1 0x2 DUP2 ADD SWAP1 POP JUMPDEST PUSH1 0xA DUP4 LT PUSH2 0x2371 JUMPI PUSH1 0x1 DUP2 ADD SWAP1 POP JUMPDEST DUP1 SWAP2 POP POP SWAP2 SWAP1 POP JUMP JUMPDEST PUSH1 0x0 PUSH20 0xFFFFFFFFFFFFFFFFFFFFFFFFFFFFFFFFFFFFFFFF AND DUP3 PUSH20 0xFFFFFFFFFFFFFFFFFFFFFFFFFFFFFFFFFFFFFFFF AND EQ ISZERO PUSH2 0x23EA JUMPI PUSH1 0x40 MLOAD PUSH32 0x8C379A000000000000000000000000000000000000000000000000000000000 DUP2 MSTORE PUSH1 0x4 ADD PUSH2 0x23E1 SWAP1 PUSH2 0x313A JUMP JUMPDEST PUSH1 0x40 MLOAD DUP1 SWAP2 SUB SWAP1 REVERT JUMPDEST PUSH2 0x23F3 DUP2 PUSH2 0x1E5B JUMP JUMPDEST ISZERO PUSH2 0x2433 JUMPI PUSH1 0x40 MLOAD PUSH32 0x8C379A000000000000000000000000000000000000000000000000000000000 DUP2 MSTORE PUSH1 0x4 ADD PUSH2 0x242A SWAP1 PUSH2 0x309A JUMP JUMPDEST PUSH1 0x40 MLOAD DUP1 SWAP2 SUB SWAP1 REVERT JUMPDEST PUSH2 0x2441 PUSH1 0x0 DUP4 DUP4 PUSH1 0x1 PUSH2 0x1F2E JUMP JUMPDEST PUSH2 0x244A DUP2 PUSH2 0x1E5B JUMP JUMPDEST ISZERO PUSH2 0x248A JUMPI PUSH1 0x40 MLOAD PUSH32 0x8C379A000000000000000000000000000000000000000000000000000000000 DUP2 MSTORE PUSH1 0x4 ADD PUSH2 0x2481 SWAP1 PUSH2 0x309A JUMP JUMPDEST PUSH1 0x40 MLOAD DUP1 SWAP2 SUB SWAP1 REVERT JUMPDEST PUSH1 0x1 PUSH1 0x3 PUSH1 0x0 DUP5 PUSH20 0xFFFFFFFFFFFFFFFFFFFFFFFFFFFFFFFFFFFFFFFF AND PUSH20 0xFFFFFFFFFFFFFFFFFFFFFFFFFFFFFFFFFFFFFFFF AND DUP2 MSTORE PUSH1 0x20 ADD SWAP1 DUP2 MSTORE PUSH1 0x20 ADD PUSH1 0x0 KECCAK256 PUSH1 0x0 DUP3 DUP3 SLOAD ADD SWAP3 POP POP DUP2 SWAP1 SSTORE POP DUP2 PUSH1 0x2 PUSH1 0x0 DUP4 DUP2 MSTORE PUSH1 0x20 ADD SWAP1 DUP2 MSTORE PUSH1 0x20 ADD PUSH1 0x0 KECCAK256 PUSH1 0x0 PUSH2 0x100 EXP DUP2 SLOAD DUP2 PUSH20 0xFFFFFFFFFFFFFFFFFFFFFFFFFFFFFFFFFFFFFFFF MUL NOT AND SWAP1 DUP4 PUSH20 0xFFFFFFFFFFFFFFFFFFFFFFFFFFFFFFFFFFFFFFFF AND MUL OR SWAP1 SSTORE POP DUP1 DUP3 PUSH20 0xFFFFFFFFFFFFFFFFFFFFFFFFFFFFFFFFFFFFFFFF AND PUSH1 0x0 PUSH20 0xFFFFFFFFFFFFFFFFFFFFFFFFFFFFFFFFFFFFFFFF AND PUSH32 0xDDF252AD1BE2C89B69C2B068FC378DAA952BA7F163C4A11628F55A4DF523B3EF PUSH1 0x40 MLOAD PUSH1 0x40 MLOAD DUP1 SWAP2 SUB SWAP1 LOG4 PUSH2 0x2594 PUSH1 0x0 DUP4 DUP4 PUSH1 0x1 PUSH2 0x1F34 JUMP JUMPDEST POP POP JUMP JUMPDEST PUSH1 0x40 MLOAD DUP1 PUSH1 0x60 ADD PUSH1 0x40 MSTORE DUP1 PUSH1 0x3 SWAP1 PUSH1 0x20 DUP3 MUL DUP1 CALLDATASIZE DUP4 CALLDATACOPY DUP1 DUP3 ADD SWAP2 POP POP SWAP1 POP POP SWAP1 JUMP JUMPDEST DUP3 DUP1 SLOAD PUSH2 0x25C6 SWAP1 PUSH2 0x345F JUMP JUMPDEST SWAP1 PUSH1 0x0 MSTORE PUSH1 0x20 PUSH1 0x0 KECCAK256 SWAP1 PUSH1 0x1F ADD PUSH1 0x20 SWAP1 DIV DUP2 ADD SWAP3 DUP3 PUSH2 0x25E8 JUMPI PUSH1 0x0 DUP6 SSTORE PUSH2 0x262F JUMP JUMPDEST DUP3 PUSH1 0x1F LT PUSH2 0x2601 JUMPI DUP1 MLOAD PUSH1 0xFF NOT AND DUP4 DUP1 ADD OR DUP6 SSTORE PUSH2 0x262F JUMP JUMPDEST DUP3 DUP1 ADD PUSH1 0x1 ADD DUP6 SSTORE DUP3 ISZERO PUSH2 0x262F JUMPI SWAP2 DUP3 ADD JUMPDEST DUP3 DUP2 GT ISZERO PUSH2 0x262E JUMPI DUP3 MLOAD DUP3 SSTORE SWAP2 PUSH1 0x20 ADD SWAP2 SWAP1 PUSH1 0x1 ADD SWAP1 PUSH2 0x2613 JUMP JUMPDEST JUMPDEST POP SWAP1 POP PUSH2 0x263C SWAP2 SWAP1 PUSH2 0x2640 JUMP JUMPDEST POP SWAP1 JUMP JUMPDEST JUMPDEST DUP1 DUP3 GT ISZERO PUSH2 0x2659 JUMPI PUSH1 0x0 DUP2 PUSH1 0x0 SWAP1 SSTORE POP PUSH1 0x1 ADD PUSH2 0x2641 JUMP JUMPDEST POP SWAP1 JUMP JUMPDEST PUSH1 0x0 PUSH2 0x2670 PUSH2 0x266B DUP5 PUSH2 0x321A JUMP JUMPDEST PUSH2 0x31F5 JUMP JUMPDEST SWAP1 POP DUP1 DUP4 DUP3 MSTORE PUSH1 0x20 DUP3 ADD SWAP1 POP DUP3 DUP6 PUSH1 0x20 DUP7 MUL DUP3 ADD GT ISZERO PUSH2 0x2693 JUMPI PUSH2 0x2692 PUSH2 0x365B JUMP JUMPDEST JUMPDEST PUSH1 0x0 JUMPDEST DUP6 DUP2 LT ISZERO PUSH2 0x26C3 JUMPI DUP2 PUSH2 0x26A9 DUP9 DUP3 PUSH2 0x27BF JUMP JUMPDEST DUP5 MSTORE PUSH1 0x20 DUP5 ADD SWAP4 POP PUSH1 0x20 DUP4 ADD SWAP3 POP POP PUSH1 0x1 DUP2 ADD SWAP1 POP PUSH2 0x2696 JUMP JUMPDEST POP POP POP SWAP4 SWAP3 POP POP POP JUMP JUMPDEST PUSH1 0x0 PUSH2 0x26E0 PUSH2 0x26DB DUP5 PUSH2 0x3246 JUMP JUMPDEST PUSH2 0x31F5 JUMP JUMPDEST SWAP1 POP DUP3 DUP2 MSTORE PUSH1 0x20 DUP2 ADD DUP5 DUP5 DUP5 ADD GT ISZERO PUSH2 0x26FC JUMPI PUSH2 0x26FB PUSH2 0x3660 JUMP JUMPDEST JUMPDEST PUSH2 0x2707 DUP5 DUP3 DUP6 PUSH2 0x341D JUMP JUMPDEST POP SWAP4 SWAP3 POP POP POP JUMP JUMPDEST PUSH1 0x0 DUP2 CALLDATALOAD SWAP1 POP PUSH2 0x271E DUP2 PUSH2 0x3A2B JUMP JUMPDEST SWAP3 SWAP2 POP POP JUMP JUMPDEST PUSH1 0x0 DUP3 PUSH1 0x1F DUP4 ADD SLT PUSH2 0x2739 JUMPI PUSH2 0x2738 PUSH2 0x3656 JUMP JUMPDEST JUMPDEST DUP2 CALLDATALOAD PUSH2 0x2749 DUP5 DUP3 PUSH1 0x20 DUP7 ADD PUSH2 0x265D JUMP JUMPDEST SWAP2 POP POP SWAP3 SWAP2 POP POP JUMP JUMPDEST PUSH1 0x0 DUP2 CALLDATALOAD SWAP1 POP PUSH2 0x2761 DUP2 PUSH2 0x3A42 JUMP JUMPDEST SWAP3 SWAP2 POP POP JUMP JUMPDEST PUSH1 0x0 DUP2 CALLDATALOAD SWAP1 POP PUSH2 0x2776 DUP2 PUSH2 0x3A59 JUMP JUMPDEST SWAP3 SWAP2 POP POP JUMP JUMPDEST PUSH1 0x0 DUP2 MLOAD SWAP1 POP PUSH2 0x278B DUP2 PUSH2 0x3A59 JUMP JUMPDEST SWAP3 SWAP2 POP POP JUMP JUMPDEST PUSH1 0x0 DUP3 PUSH1 0x1F DUP4 ADD SLT PUSH2 0x27A6 JUMPI PUSH2 0x27A5 PUSH2 0x3656 JUMP JUMPDEST JUMPDEST DUP2 CALLDATALOAD PUSH2 0x27B6 DUP5 DUP3 PUSH1 0x20 DUP7 ADD PUSH2 0x26CD JUMP JUMPDEST SWAP2 POP POP SWAP3 SWAP2 POP POP JUMP JUMPDEST PUSH1 0x0 DUP2 CALLDATALOAD SWAP1 POP PUSH2 0x27CE DUP2 PUSH2 0x3A70 JUMP JUMPDEST SWAP3 SWAP2 POP POP JUMP JUMPDEST PUSH1 0x0 DUP2 MLOAD SWAP1 POP PUSH2 0x27E3 DUP2 PUSH2 0x3A70 JUMP JUMPDEST SWAP3 SWAP2 POP POP JUMP JUMPDEST PUSH1 0x0 PUSH1 0x20 DUP3 DUP5 SUB SLT ISZERO PUSH2 0x27FF JUMPI PUSH2 0x27FE PUSH2 0x366A JUMP JUMPDEST JUMPDEST PUSH1 0x0 PUSH2 0x280D DUP5 DUP3 DUP6 ADD PUSH2 0x270F JUMP JUMPDEST SWAP2 POP POP SWAP3 SWAP2 POP POP JUMP JUMPDEST PUSH1 0x0 DUP1 PUSH1 0x40 DUP4 DUP6 SUB SLT ISZERO PUSH2 0x282D JUMPI PUSH2 0x282C PUSH2 0x366A JUMP JUMPDEST JUMPDEST PUSH1 0x0 PUSH2 0x283B DUP6 DUP3 DUP7 ADD PUSH2 0x270F JUMP JUMPDEST SWAP3 POP POP PUSH1 0x20 PUSH2 0x284C DUP6 DUP3 DUP7 ADD PUSH2 0x270F JUMP JUMPDEST SWAP2 POP POP SWAP3 POP SWAP3 SWAP1 POP JUMP JUMPDEST PUSH1 0x0 DUP1 PUSH1 0x0 PUSH1 0x60 DUP5 DUP7 SUB SLT ISZERO PUSH2 0x286F JUMPI PUSH2 0x286E PUSH2 0x366A JUMP JUMPDEST JUMPDEST PUSH1 0x0 PUSH2 0x287D DUP7 DUP3 DUP8 ADD PUSH2 0x270F JUMP JUMPDEST SWAP4 POP POP PUSH1 0x20 PUSH2 0x288E DUP7 DUP3 DUP8 ADD PUSH2 0x270F JUMP JUMPDEST SWAP3 POP POP PUSH1 0x40 PUSH2 0x289F DUP7 DUP3 DUP8 ADD PUSH2 0x27BF JUMP JUMPDEST SWAP2 POP POP SWAP3 POP SWAP3 POP SWAP3 JUMP JUMPDEST PUSH1 0x0 DUP1 PUSH1 0x0 DUP1 PUSH1 0x80 DUP6 DUP8 SUB SLT ISZERO PUSH2 0x28C3 JUMPI PUSH2 0x28C2 PUSH2 0x366A JUMP JUMPDEST JUMPDEST PUSH1 0x0 PUSH2 0x28D1 DUP8 DUP3 DUP9 ADD PUSH2 0x270F JUMP JUMPDEST SWAP5 POP POP PUSH1 0x20 PUSH2 0x28E2 DUP8 DUP3 DUP9 ADD PUSH2 0x270F JUMP JUMPDEST SWAP4 POP POP PUSH1 0x40 PUSH2 0x28F3 DUP8 DUP3 DUP9 ADD PUSH2 0x27BF JUMP JUMPDEST SWAP3 POP POP PUSH1 0x60 DUP6 ADD CALLDATALOAD PUSH8 0xFFFFFFFFFFFFFFFF DUP2 GT ISZERO PUSH2 0x2914 JUMPI PUSH2 0x2913 PUSH2 0x3665 JUMP JUMPDEST JUMPDEST PUSH2 0x2920 DUP8 DUP3 DUP9 ADD PUSH2 0x2791 JUMP JUMPDEST SWAP2 POP POP SWAP3 SWAP6 SWAP2 SWAP5 POP SWAP3 POP JUMP JUMPDEST PUSH1 0x0 DUP1 PUSH1 0x40 DUP4 DUP6 SUB SLT ISZERO PUSH2 0x2943 JUMPI PUSH2 0x2942 PUSH2 0x366A JUMP JUMPDEST JUMPDEST PUSH1 0x0 PUSH2 0x2951 DUP6 DUP3 DUP7 ADD PUSH2 0x270F JUMP JUMPDEST SWAP3 POP POP PUSH1 0x20 PUSH2 0x2962 DUP6 DUP3 DUP7 ADD PUSH2 0x2752 JUMP JUMPDEST SWAP2 POP POP SWAP3 POP SWAP3 SWAP1 POP JUMP JUMPDEST PUSH1 0x0 DUP1 PUSH1 0x40 DUP4 DUP6 SUB SLT ISZERO PUSH2 0x2983 JUMPI PUSH2 0x2982 PUSH2 0x366A JUMP JUMPDEST JUMPDEST PUSH1 0x0 PUSH2 0x2991 DUP6 DUP3 DUP7 ADD PUSH2 0x270F JUMP JUMPDEST SWAP3 POP POP PUSH1 0x20 PUSH2 0x29A2 DUP6 DUP3 DUP7 ADD PUSH2 0x27BF JUMP JUMPDEST SWAP2 POP POP SWAP3 POP SWAP3 SWAP1 POP JUMP JUMPDEST PUSH1 0x0 PUSH1 0x20 DUP3 DUP5 SUB SLT ISZERO PUSH2 0x29C2 JUMPI PUSH2 0x29C1 PUSH2 0x366A JUMP JUMPDEST JUMPDEST PUSH1 0x0 PUSH2 0x29D0 DUP5 DUP3 DUP6 ADD PUSH2 0x2767 JUMP JUMPDEST SWAP2 POP POP SWAP3 SWAP2 POP POP JUMP JUMPDEST PUSH1 0x0 PUSH1 0x20 DUP3 DUP5 SUB SLT ISZERO PUSH2 0x29EF JUMPI PUSH2 0x29EE PUSH2 0x366A JUMP JUMPDEST JUMPDEST PUSH1 0x0 PUSH2 0x29FD DUP5 DUP3 DUP6 ADD PUSH2 0x277C JUMP JUMPDEST SWAP2 POP POP SWAP3 SWAP2 POP POP JUMP JUMPDEST PUSH1 0x0 PUSH1 0x20 DUP3 DUP5 SUB SLT ISZERO PUSH2 0x2A1C JUMPI PUSH2 0x2A1B PUSH2 0x366A JUMP JUMPDEST JUMPDEST PUSH1 0x0 PUSH2 0x2A2A DUP5 DUP3 DUP6 ADD PUSH2 0x27BF JUMP JUMPDEST SWAP2 POP POP SWAP3 SWAP2 POP POP JUMP JUMPDEST PUSH1 0x0 PUSH1 0x20 DUP3 DUP5 SUB SLT ISZERO PUSH2 0x2A49 JUMPI PUSH2 0x2A48 PUSH2 0x366A JUMP JUMPDEST JUMPDEST PUSH1 0x0 PUSH2 0x2A57 DUP5 DUP3 DUP6 ADD PUSH2 0x27D4 JUMP JUMPDEST SWAP2 POP POP SWAP3 SWAP2 POP POP JUMP JUMPDEST PUSH1 0x0 DUP1 PUSH1 0x40 DUP4 DUP6 SUB SLT ISZERO PUSH2 0x2A77 JUMPI PUSH2 0x2A76 PUSH2 0x366A JUMP JUMPDEST JUMPDEST PUSH1 0x0 PUSH2 0x2A85 DUP6 DUP3 DUP7 ADD PUSH2 0x27BF JUMP JUMPDEST SWAP3 POP POP PUSH1 0x20 DUP4 ADD CALLDATALOAD PUSH8 0xFFFFFFFFFFFFFFFF DUP2 GT ISZERO PUSH2 0x2AA6 JUMPI PUSH2 0x2AA5 PUSH2 0x3665 JUMP JUMPDEST JUMPDEST PUSH2 0x2AB2 DUP6 DUP3 DUP7 ADD PUSH2 0x2724 JUMP JUMPDEST SWAP2 POP POP SWAP3 POP SWAP3 SWAP1 POP JUMP JUMPDEST PUSH1 0x0 PUSH2 0x2AC8 DUP4 DUP4 PUSH2 0x2E26 JUMP JUMPDEST PUSH1 0x20 DUP4 ADD SWAP1 POP SWAP3 SWAP2 POP POP JUMP JUMPDEST PUSH2 0x2ADD DUP2 PUSH2 0x3348 JUMP JUMPDEST DUP3 MSTORE POP POP JUMP JUMPDEST PUSH2 0x2AEC DUP2 PUSH2 0x3281 JUMP JUMPDEST PUSH2 0x2AF6 DUP2 DUP5 PUSH2 0x32AF JUMP JUMPDEST SWAP3 POP PUSH2 0x2B01 DUP3 PUSH2 0x3277 JUMP JUMPDEST DUP1 PUSH1 0x0 JUMPDEST DUP4 DUP2 LT ISZERO PUSH2 0x2B32 JUMPI DUP2 MLOAD PUSH2 0x2B19 DUP8 DUP3 PUSH2 0x2ABC JUMP JUMPDEST SWAP7 POP PUSH2 0x2B24 DUP4 PUSH2 0x32A2 JUMP JUMPDEST SWAP3 POP POP PUSH1 0x1 DUP2 ADD SWAP1 POP PUSH2 0x2B05 JUMP JUMPDEST POP POP POP POP POP POP JUMP JUMPDEST PUSH2 0x2B43 DUP2 PUSH2 0x335A JUMP JUMPDEST DUP3 MSTORE POP POP JUMP JUMPDEST PUSH2 0x2B52 DUP2 PUSH2 0x3366 JUMP JUMPDEST DUP3 MSTORE POP POP JUMP JUMPDEST PUSH1 0x0 PUSH2 0x2B63 DUP3 PUSH2 0x328C JUMP JUMPDEST PUSH2 0x2B6D DUP2 DUP6 PUSH2 0x32BA JUMP JUMPDEST SWAP4 POP PUSH2 0x2B7D DUP2 DUP6 PUSH1 0x20 DUP7 ADD PUSH2 0x342C JUMP JUMPDEST PUSH2 0x2B86 DUP2 PUSH2 0x366F JUMP JUMPDEST DUP5 ADD SWAP2 POP POP SWAP3 SWAP2 POP POP JUMP JUMPDEST PUSH2 0x2B9A DUP2 PUSH2 0x340B JUMP JUMPDEST DUP3 MSTORE POP POP JUMP JUMPDEST PUSH1 0x0 PUSH2 0x2BAB DUP3 PUSH2 0x3297 JUMP JUMPDEST PUSH2 0x2BB5 DUP2 DUP6 PUSH2 0x32D6 JUMP JUMPDEST SWAP4 POP PUSH2 0x2BC5 DUP2 DUP6 PUSH1 0x20 DUP7 ADD PUSH2 0x342C JUMP JUMPDEST PUSH2 0x2BCE DUP2 PUSH2 0x366F JUMP JUMPDEST DUP5 ADD SWAP2 POP POP SWAP3 SWAP2 POP POP JUMP JUMPDEST PUSH1 0x0 PUSH2 0x2BE4 DUP3 PUSH2 0x3297 JUMP JUMPDEST PUSH2 0x2BEE DUP2 DUP6 PUSH2 0x32E7 JUMP JUMPDEST SWAP4 POP PUSH2 0x2BFE DUP2 DUP6 PUSH1 0x20 DUP7 ADD PUSH2 0x342C JUMP JUMPDEST DUP1 DUP5 ADD SWAP2 POP POP SWAP3 SWAP2 POP POP JUMP JUMPDEST PUSH1 0x0 PUSH2 0x2C17 PUSH1 0x2D DUP4 PUSH2 0x32D6 JUMP JUMPDEST SWAP2 POP PUSH2 0x2C22 DUP3 PUSH2 0x3680 JUMP JUMPDEST PUSH1 0x40 DUP3 ADD SWAP1 POP SWAP2 SWAP1 POP JUMP JUMPDEST PUSH1 0x0 PUSH2 0x2C3A PUSH1 0x32 DUP4 PUSH2 0x32D6 JUMP JUMPDEST SWAP2 POP PUSH2 0x2C45 DUP3 PUSH2 0x36CF JUMP JUMPDEST PUSH1 0x40 DUP3 ADD SWAP1 POP SWAP2 SWAP1 POP JUMP JUMPDEST PUSH1 0x0 PUSH2 0x2C5D PUSH1 0x26 DUP4 PUSH2 0x32D6 JUMP JUMPDEST SWAP2 POP PUSH2 0x2C68 DUP3 PUSH2 0x371E JUMP JUMPDEST PUSH1 0x40 DUP3 ADD SWAP1 POP SWAP2 SWAP1 POP JUMP JUMPDEST PUSH1 0x0 PUSH2 0x2C80 PUSH1 0x25 DUP4 PUSH2 0x32D6 JUMP JUMPDEST SWAP2 POP PUSH2 0x2C8B DUP3 PUSH2 0x376D JUMP JUMPDEST PUSH1 0x40 DUP3 ADD SWAP1 POP SWAP2 SWAP1 POP JUMP JUMPDEST PUSH1 0x0 PUSH2 0x2CA3 PUSH1 0x1C DUP4 PUSH2 0x32D6 JUMP JUMPDEST SWAP2 POP PUSH2 0x2CAE DUP3 PUSH2 0x37BC JUMP JUMPDEST PUSH1 0x20 DUP3 ADD SWAP1 POP SWAP2 SWAP1 POP JUMP JUMPDEST PUSH1 0x0 PUSH2 0x2CC6 PUSH1 0x24 DUP4 PUSH2 0x32D6 JUMP JUMPDEST SWAP2 POP PUSH2 0x2CD1 DUP3 PUSH2 0x37E5 JUMP JUMPDEST PUSH1 0x40 DUP3 ADD SWAP1 POP SWAP2 SWAP1 POP JUMP JUMPDEST PUSH1 0x0 PUSH2 0x2CE9 PUSH1 0x19 DUP4 PUSH2 0x32D6 JUMP JUMPDEST SWAP2 POP PUSH2 0x2CF4 DUP3 PUSH2 0x3834 JUMP JUMPDEST PUSH1 0x20 DUP3 ADD SWAP1 POP SWAP2 SWAP1 POP JUMP JUMPDEST PUSH1 0x0 PUSH2 0x2D0C PUSH1 0x29 DUP4 PUSH2 0x32D6 JUMP JUMPDEST SWAP2 POP PUSH2 0x2D17 DUP3 PUSH2 0x385D JUMP JUMPDEST PUSH1 0x40 DUP3 ADD SWAP1 POP SWAP2 SWAP1 POP JUMP JUMPDEST PUSH1 0x0 PUSH2 0x2D2F PUSH1 0x2E DUP4 PUSH2 0x32D6 JUMP JUMPDEST SWAP2 POP PUSH2 0x2D3A DUP3 PUSH2 0x38AC JUMP JUMPDEST PUSH1 0x40 DUP3 ADD SWAP1 POP SWAP2 SWAP1 POP JUMP JUMPDEST PUSH1 0x0 PUSH2 0x2D52 PUSH1 0x20 DUP4 PUSH2 0x32D6 JUMP JUMPDEST SWAP2 POP PUSH2 0x2D5D DUP3 PUSH2 0x38FB JUMP JUMPDEST PUSH1 0x20 DUP3 ADD SWAP1 POP SWAP2 SWAP1 POP JUMP JUMPDEST PUSH1 0x0 PUSH2 0x2D75 PUSH1 0x20 DUP4 PUSH2 0x32D6 JUMP JUMPDEST SWAP2 POP PUSH2 0x2D80 DUP3 PUSH2 0x3924 JUMP JUMPDEST PUSH1 0x20 DUP3 ADD SWAP1 POP SWAP2 SWAP1 POP JUMP JUMPDEST PUSH1 0x0 PUSH2 0x2D98 PUSH1 0x18 DUP4 PUSH2 0x32D6 JUMP JUMPDEST SWAP2 POP PUSH2 0x2DA3 DUP3 PUSH2 0x394D JUMP JUMPDEST PUSH1 0x20 DUP3 ADD SWAP1 POP SWAP2 SWAP1 POP JUMP JUMPDEST PUSH1 0x0 PUSH2 0x2DBB PUSH1 0x21 DUP4 PUSH2 0x32D6 JUMP JUMPDEST SWAP2 POP PUSH2 0x2DC6 DUP3 PUSH2 0x3976 JUMP JUMPDEST PUSH1 0x40 DUP3 ADD SWAP1 POP SWAP2 SWAP1 POP JUMP JUMPDEST PUSH1 0x0 PUSH2 0x2DDE PUSH1 0x0 DUP4 PUSH2 0x32CB JUMP JUMPDEST SWAP2 POP PUSH2 0x2DE9 DUP3 PUSH2 0x39C5 JUMP JUMPDEST PUSH1 0x0 DUP3 ADD SWAP1 POP SWAP2 SWAP1 POP JUMP JUMPDEST PUSH1 0x0 PUSH2 0x2E01 PUSH1 0x3D DUP4 PUSH2 0x32D6 JUMP JUMPDEST SWAP2 POP PUSH2 0x2E0C DUP3 PUSH2 0x39C8 JUMP JUMPDEST PUSH1 0x40 DUP3 ADD SWAP1 POP SWAP2 SWAP1 POP JUMP JUMPDEST PUSH2 0x2E20 DUP2 PUSH2 0x33AF JUMP JUMPDEST DUP3 MSTORE POP POP JUMP JUMPDEST PUSH2 0x2E2F DUP2 PUSH2 0x33DD JUMP JUMPDEST DUP3 MSTORE POP POP JUMP JUMPDEST PUSH2 0x2E3E DUP2 PUSH2 0x33DD JUMP JUMPDEST DUP3 MSTORE POP POP JUMP JUMPDEST PUSH2 0x2E4D DUP2 PUSH2 0x33E7 JUMP JUMPDEST DUP3 MSTORE POP POP JUMP JUMPDEST PUSH2 0x2E5C DUP2 PUSH2 0x33F7 JUMP JUMPDEST DUP3 MSTORE POP POP JUMP JUMPDEST PUSH1 0x0 PUSH2 0x2E6E DUP3 DUP6 PUSH2 0x2BD9 JUMP JUMPDEST SWAP2 POP PUSH2 0x2E7A DUP3 DUP5 PUSH2 0x2BD9 JUMP JUMPDEST SWAP2 POP DUP2 SWAP1 POP SWAP4 SWAP3 POP POP POP JUMP JUMPDEST PUSH1 0x0 PUSH2 0x2E91 DUP3 PUSH2 0x2DD1 JUMP JUMPDEST SWAP2 POP DUP2 SWAP1 POP SWAP2 SWAP1 POP JUMP JUMPDEST PUSH1 0x0 PUSH1 0x20 DUP3 ADD SWAP1 POP PUSH2 0x2EB0 PUSH1 0x0 DUP4 ADD DUP5 PUSH2 0x2AD4 JUMP JUMPDEST SWAP3 SWAP2 POP POP JUMP JUMPDEST PUSH1 0x0 PUSH1 0x40 DUP3 ADD SWAP1 POP PUSH2 0x2ECB PUSH1 0x0 DUP4 ADD DUP6 PUSH2 0x2AD4 JUMP JUMPDEST PUSH2 0x2ED8 PUSH1 0x20 DUP4 ADD DUP5 PUSH2 0x2AD4 JUMP JUMPDEST SWAP4 SWAP3 POP POP POP JUMP JUMPDEST PUSH1 0x0 PUSH1 0x80 DUP3 ADD SWAP1 POP PUSH2 0x2EF4 PUSH1 0x0 DUP4 ADD DUP8 PUSH2 0x2AD4 JUMP JUMPDEST PUSH2 0x2F01 PUSH1 0x20 DUP4 ADD DUP7 PUSH2 0x2AD4 JUMP JUMPDEST PUSH2 0x2F0E PUSH1 0x40 DUP4 ADD DUP6 PUSH2 0x2E35 JUMP JUMPDEST DUP2 DUP2 SUB PUSH1 0x60 DUP4 ADD MSTORE PUSH2 0x2F20 DUP2 DUP5 PUSH2 0x2B58 JUMP JUMPDEST SWAP1 POP SWAP6 SWAP5 POP POP POP POP POP JUMP JUMPDEST PUSH1 0x0 PUSH1 0x60 DUP3 ADD SWAP1 POP PUSH2 0x2F40 PUSH1 0x0 DUP4 ADD DUP5 PUSH2 0x2AE3 JUMP JUMPDEST SWAP3 SWAP2 POP POP JUMP JUMPDEST PUSH1 0x0 PUSH1 0x20 DUP3 ADD SWAP1 POP PUSH2 0x2F5B PUSH1 0x0 DUP4 ADD DUP5 PUSH2 0x2B3A JUMP JUMPDEST SWAP3 SWAP2 POP POP JUMP JUMPDEST PUSH1 0x0 PUSH1 0xA0 DUP3 ADD SWAP1 POP PUSH2 0x2F76 PUSH1 0x0 DUP4 ADD DUP9 PUSH2 0x2B49 JUMP JUMPDEST PUSH2 0x2F83 PUSH1 0x20 DUP4 ADD DUP8 PUSH2 0x2E53 JUMP JUMPDEST PUSH2 0x2F90 PUSH1 0x40 DUP4 ADD DUP7 PUSH2 0x2E17 JUMP JUMPDEST PUSH2 0x2F9D PUSH1 0x60 DUP4 ADD DUP6 PUSH2 0x2E44 JUMP JUMPDEST PUSH2 0x2FAA PUSH1 0x80 DUP4 ADD DUP5 PUSH2 0x2E44 JUMP JUMPDEST SWAP7 SWAP6 POP POP POP POP POP POP JUMP JUMPDEST PUSH1 0x0 PUSH1 0x20 DUP3 ADD SWAP1 POP PUSH2 0x2FC9 PUSH1 0x0 DUP4 ADD DUP5 PUSH2 0x2B91 JUMP JUMPDEST SWAP3 SWAP2 POP POP JUMP JUMPDEST PUSH1 0x0 PUSH1 0x40 DUP3 ADD SWAP1 POP PUSH2 0x2FE4 PUSH1 0x0 DUP4 ADD DUP6 PUSH2 0x2B91 JUMP JUMPDEST PUSH2 0x2FF1 PUSH1 0x20 DUP4 ADD DUP5 PUSH2 0x2AD4 JUMP JUMPDEST SWAP4 SWAP3 POP POP POP JUMP JUMPDEST PUSH1 0x0 PUSH1 0x20 DUP3 ADD SWAP1 POP DUP2 DUP2 SUB PUSH1 0x0 DUP4 ADD MSTORE PUSH2 0x3012 DUP2 DUP5 PUSH2 0x2BA0 JUMP JUMPDEST SWAP1 POP SWAP3 SWAP2 POP POP JUMP JUMPDEST PUSH1 0x0 PUSH1 0x20 DUP3 ADD SWAP1 POP DUP2 DUP2 SUB PUSH1 0x0 DUP4 ADD MSTORE PUSH2 0x3033 DUP2 PUSH2 0x2C0A JUMP JUMPDEST SWAP1 POP SWAP2 SWAP1 POP JUMP JUMPDEST PUSH1 0x0 PUSH1 0x20 DUP3 ADD SWAP1 POP DUP2 DUP2 SUB PUSH1 0x0 DUP4 ADD MSTORE PUSH2 0x3053 DUP2 PUSH2 0x2C2D JUMP JUMPDEST SWAP1 POP SWAP2 SWAP1 POP JUMP JUMPDEST PUSH1 0x0 PUSH1 0x20 DUP3 ADD SWAP1 POP DUP2 DUP2 SUB PUSH1 0x0 DUP4 ADD MSTORE PUSH2 0x3073 DUP2 PUSH2 0x2C50 JUMP JUMPDEST SWAP1 POP SWAP2 SWAP1 POP JUMP JUMPDEST PUSH1 0x0 PUSH1 0x20 DUP3 ADD SWAP1 POP DUP2 DUP2 SUB PUSH1 0x0 DUP4 ADD MSTORE PUSH2 0x3093 DUP2 PUSH2 0x2C73 JUMP JUMPDEST SWAP1 POP SWAP2 SWAP1 POP JUMP JUMPDEST PUSH1 0x0 PUSH1 0x20 DUP3 ADD SWAP1 POP DUP2 DUP2 SUB PUSH1 0x0 DUP4 ADD MSTORE PUSH2 0x30B3 DUP2 PUSH2 0x2C96 JUMP JUMPDEST SWAP1 POP SWAP2 SWAP1 POP JUMP JUMPDEST PUSH1 0x0 PUSH1 0x20 DUP3 ADD SWAP1 POP DUP2 DUP2 SUB PUSH1 0x0 DUP4 ADD MSTORE PUSH2 0x30D3 DUP2 PUSH2 0x2CB9 JUMP JUMPDEST SWAP1 POP SWAP2 SWAP1 POP JUMP JUMPDEST PUSH1 0x0 PUSH1 0x20 DUP3 ADD SWAP1 POP DUP2 DUP2 SUB PUSH1 0x0 DUP4 ADD MSTORE PUSH2 0x30F3 DUP2 PUSH2 0x2CDC JUMP JUMPDEST SWAP1 POP SWAP2 SWAP1 POP JUMP JUMPDEST PUSH1 0x0 PUSH1 0x20 DUP3 ADD SWAP1 POP DUP2 DUP2 SUB PUSH1 0x0 DUP4 ADD MSTORE PUSH2 0x3113 DUP2 PUSH2 0x2CFF JUMP JUMPDEST SWAP1 POP SWAP2 SWAP1 POP JUMP JUMPDEST PUSH1 0x0 PUSH1 0x20 DUP3 ADD SWAP1 POP DUP2 DUP2 SUB PUSH1 0x0 DUP4 ADD MSTORE PUSH2 0x3133 DUP2 PUSH2 0x2D22 JUMP JUMPDEST SWAP1 POP SWAP2 SWAP1 POP JUMP JUMPDEST PUSH1 0x0 PUSH1 0x20 DUP3 ADD SWAP1 POP DUP2 DUP2 SUB PUSH1 0x0 DUP4 ADD MSTORE PUSH2 0x3153 DUP2 PUSH2 0x2D45 JUMP JUMPDEST SWAP1 POP SWAP2 SWAP1 POP JUMP JUMPDEST PUSH1 0x0 PUSH1 0x20 DUP3 ADD SWAP1 POP DUP2 DUP2 SUB PUSH1 0x0 DUP4 ADD MSTORE PUSH2 0x3173 DUP2 PUSH2 0x2D68 JUMP JUMPDEST SWAP1 POP SWAP2 SWAP1 POP JUMP JUMPDEST PUSH1 0x0 PUSH1 0x20 DUP3 ADD SWAP1 POP DUP2 DUP2 SUB PUSH1 0x0 DUP4 ADD MSTORE PUSH2 0x3193 DUP2 PUSH2 0x2D8B JUMP JUMPDEST SWAP1 POP SWAP2 SWAP1 POP JUMP JUMPDEST PUSH1 0x0 PUSH1 0x20 DUP3 ADD SWAP1 POP DUP2 DUP2 SUB PUSH1 0x0 DUP4 ADD MSTORE PUSH2 0x31B3 DUP2 PUSH2 0x2DAE JUMP JUMPDEST SWAP1 POP SWAP2 SWAP1 POP JUMP JUMPDEST PUSH1 0x0 PUSH1 0x20 DUP3 ADD SWAP1 POP DUP2 DUP2 SUB PUSH1 0x0 DUP4 ADD MSTORE PUSH2 0x31D3 DUP2 PUSH2 0x2DF4 JUMP JUMPDEST SWAP1 POP SWAP2 SWAP1 POP JUMP JUMPDEST PUSH1 0x0 PUSH1 0x20 DUP3 ADD SWAP1 POP PUSH2 0x31EF PUSH1 0x0 DUP4 ADD DUP5 PUSH2 0x2E35 JUMP JUMPDEST SWAP3 SWAP2 POP POP JUMP JUMPDEST PUSH1 0x0 PUSH2 0x31FF PUSH2 0x3210 JUMP JUMPDEST SWAP1 POP PUSH2 0x320B DUP3 DUP3 PUSH2 0x3491 JUMP JUMPDEST SWAP2 SWAP1 POP JUMP JUMPDEST PUSH1 0x0 PUSH1 0x40 MLOAD SWAP1 POP SWAP1 JUMP JUMPDEST PUSH1 0x0 PUSH8 0xFFFFFFFFFFFFFFFF DUP3 GT ISZERO PUSH2 0x3235 JUMPI PUSH2 0x3234 PUSH2 0x3627 JUMP JUMPDEST JUMPDEST PUSH1 0x20 DUP3 MUL SWAP1 POP PUSH1 0x20 DUP2 ADD SWAP1 POP SWAP2 SWAP1 POP JUMP JUMPDEST PUSH1 0x0 PUSH8 0xFFFFFFFFFFFFFFFF DUP3 GT ISZERO PUSH2 0x3261 JUMPI PUSH2 0x3260 PUSH2 0x3627 JUMP JUMPDEST JUMPDEST PUSH2 0x326A DUP3 PUSH2 0x366F JUMP JUMPDEST SWAP1 POP PUSH1 0x20 DUP2 ADD SWAP1 POP SWAP2 SWAP1 POP JUMP JUMPDEST PUSH1 0x0 DUP2 SWAP1 POP SWAP2 SWAP1 POP JUMP JUMPDEST PUSH1 0x0 PUSH1 0x3 SWAP1 POP SWAP2 SWAP1 POP JUMP JUMPDEST PUSH1 0x0 DUP2 MLOAD SWAP1 POP SWAP2 SWAP1 POP JUMP JUMPDEST PUSH1 0x0 DUP2 MLOAD SWAP1 POP SWAP2 SWAP1 POP JUMP JUMPDEST PUSH1 0x0 PUSH1 0x20 DUP3 ADD SWAP1 POP SWAP2 SWAP1 POP JUMP JUMPDEST PUSH1 0x0 DUP2 SWAP1 POP SWAP3 SWAP2 POP POP JUMP JUMPDEST PUSH1 0x0 DUP3 DUP3 MSTORE PUSH1 0x20 DUP3 ADD SWAP1 POP SWAP3 SWAP2 POP POP JUMP JUMPDEST PUSH1 0x0 DUP2 SWAP1 POP SWAP3 SWAP2 POP POP JUMP JUMPDEST PUSH1 0x0 DUP3 DUP3 MSTORE PUSH1 0x20 DUP3 ADD SWAP1 POP SWAP3 SWAP2 POP POP JUMP JUMPDEST PUSH1 0x0 DUP2 SWAP1 POP SWAP3 SWAP2 POP POP JUMP JUMPDEST PUSH1 0x0 PUSH2 0x32FD DUP3 PUSH2 0x33DD JUMP JUMPDEST SWAP2 POP PUSH2 0x3308 DUP4 PUSH2 0x33DD JUMP JUMPDEST SWAP3 POP DUP3 PUSH32 0xFFFFFFFFFFFFFFFFFFFFFFFFFFFFFFFFFFFFFFFFFFFFFFFFFFFFFFFFFFFFFFFF SUB DUP3 GT ISZERO PUSH2 0x333D JUMPI PUSH2 0x333C PUSH2 0x353C JUMP JUMPDEST JUMPDEST DUP3 DUP3 ADD SWAP1 POP SWAP3 SWAP2 POP POP JUMP JUMPDEST PUSH1 0x0 PUSH2 0x3353 DUP3 PUSH2 0x33BD JUMP JUMPDEST SWAP1 POP SWAP2 SWAP1 POP JUMP JUMPDEST PUSH1 0x0 DUP2 ISZERO ISZERO SWAP1 POP SWAP2 SWAP1 POP JUMP JUMPDEST PUSH1 0x0 DUP2 SWAP1 POP SWAP2 SWAP1 POP JUMP JUMPDEST PUSH1 0x0 PUSH32 0xFFFFFFFF00000000000000000000000000000000000000000000000000000000 DUP3 AND SWAP1 POP SWAP2 SWAP1 POP JUMP JUMPDEST PUSH1 0x0 DUP2 SWAP1 POP PUSH2 0x33AA DUP3 PUSH2 0x3A17 JUMP JUMPDEST SWAP2 SWAP1 POP JUMP JUMPDEST PUSH1 0x0 PUSH2 0xFFFF DUP3 AND SWAP1 POP SWAP2 SWAP1 POP JUMP JUMPDEST PUSH1 0x0 PUSH20 0xFFFFFFFFFFFFFFFFFFFFFFFFFFFFFFFFFFFFFFFF DUP3 AND SWAP1 POP SWAP2 SWAP1 POP JUMP JUMPDEST PUSH1 0x0 DUP2 SWAP1 POP SWAP2 SWAP1 POP JUMP JUMPDEST PUSH1 0x0 PUSH4 0xFFFFFFFF DUP3 AND SWAP1 POP SWAP2 SWAP1 POP JUMP JUMPDEST PUSH1 0x0 PUSH8 0xFFFFFFFFFFFFFFFF DUP3 AND SWAP1 POP SWAP2 SWAP1 POP JUMP JUMPDEST PUSH1 0x0 PUSH2 0x3416 DUP3 PUSH2 0x339C JUMP JUMPDEST SWAP1 POP SWAP2 SWAP1 POP JUMP JUMPDEST DUP3 DUP2 DUP4 CALLDATACOPY PUSH1 0x0 DUP4 DUP4 ADD MSTORE POP POP POP JUMP JUMPDEST PUSH1 0x0 JUMPDEST DUP4 DUP2 LT ISZERO PUSH2 0x344A JUMPI DUP1 DUP3 ADD MLOAD DUP2 DUP5 ADD MSTORE PUSH1 0x20 DUP2 ADD SWAP1 POP PUSH2 0x342F JUMP JUMPDEST DUP4 DUP2 GT ISZERO PUSH2 0x3459 JUMPI PUSH1 0x0 DUP5 DUP5 ADD MSTORE JUMPDEST POP POP POP POP JUMP JUMPDEST PUSH1 0x0 PUSH1 0x2 DUP3 DIV SWAP1 POP PUSH1 0x1 DUP3 AND DUP1 PUSH2 0x3477 JUMPI PUSH1 0x7F DUP3 AND SWAP2 POP JUMPDEST PUSH1 0x20 DUP3 LT DUP2 EQ ISZERO PUSH2 0x348B JUMPI PUSH2 0x348A PUSH2 0x35C9 JUMP JUMPDEST JUMPDEST POP SWAP2 SWAP1 POP JUMP JUMPDEST PUSH2 0x349A DUP3 PUSH2 0x366F JUMP JUMPDEST DUP2 ADD DUP2 DUP2 LT PUSH8 0xFFFFFFFFFFFFFFFF DUP3 GT OR ISZERO PUSH2 0x34B9 JUMPI PUSH2 0x34B8 PUSH2 0x3627 JUMP JUMPDEST JUMPDEST DUP1 PUSH1 0x40 MSTORE POP POP POP JUMP JUMPDEST PUSH1 0x0 PUSH2 0x34CD DUP3 PUSH2 0x33DD JUMP JUMPDEST SWAP2 POP PUSH32 0xFFFFFFFFFFFFFFFFFFFFFFFFFFFFFFFFFFFFFFFFFFFFFFFFFFFFFFFFFFFFFFFF DUP3 EQ ISZERO PUSH2 0x3500 JUMPI PUSH2 0x34FF PUSH2 0x353C JUMP JUMPDEST JUMPDEST PUSH1 0x1 DUP3 ADD SWAP1 POP SWAP2 SWAP1 POP JUMP JUMPDEST PUSH1 0x0 PUSH2 0x3516 DUP3 PUSH2 0x33DD JUMP JUMPDEST SWAP2 POP PUSH2 0x3521 DUP4 PUSH2 0x33DD JUMP JUMPDEST SWAP3 POP DUP3 PUSH2 0x3531 JUMPI PUSH2 0x3530 PUSH2 0x356B JUMP JUMPDEST JUMPDEST DUP3 DUP3 MOD SWAP1 POP SWAP3 SWAP2 POP POP JUMP JUMPDEST PUSH32 0x4E487B7100000000000000000000000000000000000000000000000000000000 PUSH1 0x0 MSTORE PUSH1 0x11 PUSH1 0x4 MSTORE PUSH1 0x24 PUSH1 0x0 REVERT JUMPDEST PUSH32 0x4E487B7100000000000000000000000000000000000000000000000000000000 PUSH1 0x0 MSTORE PUSH1 0x12 PUSH1 0x4 MSTORE PUSH1 0x24 PUSH1 0x0 REVERT JUMPDEST PUSH32 0x4E487B7100000000000000000000000000000000000000000000000000000000 PUSH1 0x0 MSTORE PUSH1 0x21 PUSH1 0x4 MSTORE PUSH1 0x24 PUSH1 0x0 REVERT JUMPDEST PUSH32 0x4E487B7100000000000000000000000000000000000000000000000000000000 PUSH1 0x0 MSTORE PUSH1 0x22 PUSH1 0x4 MSTORE PUSH1 0x24 PUSH1 0x0 REVERT JUMPDEST PUSH32 0x4E487B7100000000000000000000000000000000000000000000000000000000 PUSH1 0x0 MSTORE PUSH1 0x32 PUSH1 0x4 MSTORE PUSH1 0x24 PUSH1 0x0 REVERT JUMPDEST PUSH32 0x4E487B7100000000000000000000000000000000000000000000000000000000 PUSH1 0x0 MSTORE PUSH1 0x41 PUSH1 0x4 MSTORE PUSH1 0x24 PUSH1 0x0 REVERT JUMPDEST PUSH1 0x0 DUP1 REVERT JUMPDEST PUSH1 0x0 DUP1 REVERT JUMPDEST PUSH1 0x0 DUP1 REVERT JUMPDEST PUSH1 0x0 DUP1 REVERT JUMPDEST PUSH1 0x0 DUP1 REVERT JUMPDEST PUSH1 0x0 PUSH1 0x1F NOT PUSH1 0x1F DUP4 ADD AND SWAP1 POP SWAP2 SWAP1 POP JUMP JUMPDEST PUSH32 0x4552433732313A2063616C6C6572206973206E6F7420746F6B656E206F776E65 PUSH1 0x0 DUP3 ADD MSTORE PUSH32 0x72206F7220617070726F76656400000000000000000000000000000000000000 PUSH1 0x20 DUP3 ADD MSTORE POP JUMP JUMPDEST PUSH32 0x4552433732313A207472616E7366657220746F206E6F6E204552433732315265 PUSH1 0x0 DUP3 ADD MSTORE PUSH32 0x63656976657220696D706C656D656E7465720000000000000000000000000000 PUSH1 0x20 DUP3 ADD MSTORE POP JUMP JUMPDEST PUSH32 0x4F776E61626C653A206E6577206F776E657220697320746865207A65726F2061 PUSH1 0x0 DUP3 ADD MSTORE PUSH32 0x6464726573730000000000000000000000000000000000000000000000000000 PUSH1 0x20 DUP3 ADD MSTORE POP JUMP JUMPDEST PUSH32 0x4552433732313A207472616E736665722066726F6D20696E636F727265637420 PUSH1 0x0 DUP3 ADD MSTORE PUSH32 0x6F776E6572000000000000000000000000000000000000000000000000000000 PUSH1 0x20 DUP3 ADD MSTORE POP JUMP JUMPDEST PUSH32 0x4552433732313A20746F6B656E20616C7265616479206D696E74656400000000 PUSH1 0x0 DUP3 ADD MSTORE POP JUMP JUMPDEST PUSH32 0x4552433732313A207472616E7366657220746F20746865207A65726F20616464 PUSH1 0x0 DUP3 ADD MSTORE PUSH32 0x7265737300000000000000000000000000000000000000000000000000000000 PUSH1 0x20 DUP3 ADD MSTORE POP JUMP JUMPDEST PUSH32 0x4552433732313A20617070726F766520746F2063616C6C657200000000000000 PUSH1 0x0 DUP3 ADD MSTORE POP JUMP JUMPDEST PUSH32 0x4552433732313A2061646472657373207A65726F206973206E6F742061207661 PUSH1 0x0 DUP3 ADD MSTORE PUSH32 0x6C6964206F776E65720000000000000000000000000000000000000000000000 PUSH1 0x20 DUP3 ADD MSTORE POP JUMP JUMPDEST PUSH32 0x45524337323155524953746F726167653A2055524920736574206F66206E6F6E PUSH1 0x0 DUP3 ADD MSTORE PUSH32 0x6578697374656E7420746F6B656E000000000000000000000000000000000000 PUSH1 0x20 DUP3 ADD MSTORE POP JUMP JUMPDEST PUSH32 0x4552433732313A206D696E7420746F20746865207A65726F2061646472657373 PUSH1 0x0 DUP3 ADD MSTORE POP JUMP JUMPDEST PUSH32 0x4F776E61626C653A2063616C6C6572206973206E6F7420746865206F776E6572 PUSH1 0x0 DUP3 ADD MSTORE POP JUMP JUMPDEST PUSH32 0x4552433732313A20696E76616C696420746F6B656E2049440000000000000000 PUSH1 0x0 DUP3 ADD MSTORE POP JUMP JUMPDEST PUSH32 0x4552433732313A20617070726F76616C20746F2063757272656E74206F776E65 PUSH1 0x0 DUP3 ADD MSTORE PUSH32 0x7200000000000000000000000000000000000000000000000000000000000000 PUSH1 0x20 DUP3 ADD MSTORE POP JUMP JUMPDEST POP JUMP JUMPDEST PUSH32 0x4552433732313A20617070726F76652063616C6C6572206973206E6F7420746F PUSH1 0x0 DUP3 ADD MSTORE PUSH32 0x6B656E206F776E6572206F7220617070726F76656420666F7220616C6C000000 PUSH1 0x20 DUP3 ADD MSTORE POP JUMP JUMPDEST PUSH1 0x3 DUP2 LT PUSH2 0x3A28 JUMPI PUSH2 0x3A27 PUSH2 0x359A JUMP JUMPDEST JUMPDEST POP JUMP JUMPDEST PUSH2 0x3A34 DUP2 PUSH2 0x3348 JUMP JUMPDEST DUP2 EQ PUSH2 0x3A3F JUMPI PUSH1 0x0 DUP1 REVERT JUMPDEST POP JUMP JUMPDEST PUSH2 0x3A4B DUP2 PUSH2 0x335A JUMP JUMPDEST DUP2 EQ PUSH2 0x3A56 JUMPI PUSH1 0x0 DUP1 REVERT JUMPDEST POP JUMP JUMPDEST PUSH2 0x3A62 DUP2 PUSH2 0x3370 JUMP JUMPDEST DUP2 EQ PUSH2 0x3A6D JUMPI PUSH1 0x0 DUP1 REVERT JUMPDEST POP JUMP JUMPDEST PUSH2 0x3A79 DUP2 PUSH2 0x33DD JUMP JUMPDEST DUP2 EQ PUSH2 0x3A84 JUMPI PUSH1 0x0 DUP1 REVERT JUMPDEST POP JUMP INVALID LOG2 PUSH5 0x6970667358 0x22 SLT KECCAK256 0xB5 0xB0 PUSH21 0x9D27D58D1C0CC8C760181594474CA1831271C4953 SDIV 0xCA 0x49 PUSH12 0xB92A199364736F6C63430008 SMOD STOP CALLER "},"gasEstimates":{"creation":{"codeDepositCost":"3007400","executionCost":"infinite","totalCost":"infinite"},"external":{"approve(address,uint256)":"infinite","balanceOf(address)":"2902","getApproved(uint256)":"5300","getBreedFromModdedRng(uint256)":"infinite","getChanceArray()":"infinite","getDogTokenUris(uint256)":"infinite","getMintFee()":"infinite","getTokenCounter()":"2548","isApprovedForAll(address,address)":"infinite","name()":"infinite","owner()":"2611","ownerOf(uint256)":"3091","rawFulfillRandomWords(uint256,uint256[])":"infinite","renounceOwnership()":"30443","requestNft()":"infinite","s_requestIdToSender(uint256)":"2884","s_tokenCounter()":"2541","safeTransferFrom(address,address,uint256)":"infinite","safeTransferFrom(address,address,uint256,bytes)":"infinite","setApprovalForAll(address,bool)":"infinite","supportsInterface(bytes4)":"797","symbol()":"infinite","tokenURI(uint256)":"infinite","transferFrom(address,address,uint256)":"infinite","transferOwnership(address)":"30857","withdraw()":"infinite"},"internal":{"fulfillRandomWords(uint256,uint256[] memory)":"infinite"}},"methodIdentifiers":{"approve(address,uint256)":"095ea7b3","balanceOf(address)":"70a08231","getApproved(uint256)":"081812fc","getBreedFromModdedRng(uint256)":"a51cccf3","getChanceArray()":"5dacf5f4","getDogTokenUris(uint256)":"3af25975","getMintFee()":"7a5caab3","getTokenCounter()":"6e02007d","isApprovedForAll(address,address)":"e985e9c5","name()":"06fdde03","owner()":"8da5cb5b","ownerOf(uint256)":"6352211e","rawFulfillRandomWords(uint256,uint256[])":"1fe543e3","renounceOwnership()":"715018a6","requestNft()":"aa152491","s_requestIdToSender(uint256)":"a36f573b","s_tokenCounter()":"0b21a83b","safeTransferFrom(address,address,uint256)":"42842e0e","safeTransferFrom(address,address,uint256,bytes)":"b88d4fde","setApprovalForAll(address,bool)":"a22cb465","supportsInterface(bytes4)":"01ffc9a7","symbol()":"95d89b41","tokenURI(uint256)":"c87b56dd","transferFrom(address,address,uint256)":"23b872dd","transferOwnership(address)":"f2fde38b","withdraw()":"3ccfd60b"}},"storageLayout":{"storage":[{"astId":338,"contract":"contracts/RandomIpfsNft.sol:RandomIpfsNft","label":"_name","offset":0,"slot":"0","type":"t_string_storage"},{"astId":340,"contract":"contracts/RandomIpfsNft.sol:RandomIpfsNft","label":"_symbol","offset":0,"slot":"1","type":"t_string_storage"},{"astId":344,"contract":"contracts/RandomIpfsNft.sol:RandomIpfsNft","label":"_owners","offset":0,"slot":"2","type":"t_mapping(t_uint256,t_address)"},{"astId":348,"contract":"contracts/RandomIpfsNft.sol:RandomIpfsNft","label":"_balances","offset":0,"slot":"3","type":"t_mapping(t_address,t_uint256)"},{"astId":352,"contract":"contracts/RandomIpfsNft.sol:RandomIpfsNft","label":"_tokenApprovals","offset":0,"slot":"4","type":"t_mapping(t_uint256,t_address)"},{"astId":358,"contract":"contracts/RandomIpfsNft.sol:RandomIpfsNft","label":"_operatorApprovals","offset":0,"slot":"5","type":"t_mapping(t_address,t_mapping(t_address,t_bool))"},{"astId":1386,"contract":"contracts/RandomIpfsNft.sol:RandomIpfsNft","label":"_tokenURIs","offset":0,"slot":"6","type":"t_mapping(t_uint256,t_string_storage)"},{"astId":207,"contract":"contracts/RandomIpfsNft.sol:RandomIpfsNft","label":"_owner","offset":0,"slot":"7","type":"t_address"},{"astId":3309,"contract":"contracts/RandomIpfsNft.sol:RandomIpfsNft","label":"s_requestIdToSender","offset":0,"slot":"8","type":"t_mapping(t_uint256,t_address)"},{"astId":3311,"contract":"contracts/RandomIpfsNft.sol:RandomIpfsNft","label":"s_tokenCounter","offset":0,"slot":"9","type":"t_uint256"},{"astId":3317,"contract":"contracts/RandomIpfsNft.sol:RandomIpfsNft","label":"s_dogTokenUris","offset":0,"slot":"10","type":"t_array(t_string_storage)dyn_storage"}],"types":{"t_address":{"encoding":"inplace","label":"address","numberOfBytes":"20"},"t_array(t_string_storage)dyn_storage":{"base":"t_string_storage","encoding":"dynamic_array","label":"string[]","numberOfBytes":"32"},"t_bool":{"encoding":"inplace","label":"bool","numberOfBytes":"1"},"t_mapping(t_address,t_bool)":{"encoding":"mapping","key":"t_address","label":"mapping(address => bool)","numberOfBytes":"32","value":"t_bool"},"t_mapping(t_address,t_mapping(t_address,t_bool))":{"encoding":"mapping","key":"t_address","label":"mapping(address => mapping(address => bool))","numberOfBytes":"32","value":"t_mapping(t_address,t_bool)"},"t_mapping(t_address,t_uint256)":{"encoding":"mapping","key":"t_address","label":"mapping(address => uint256)","numberOfBytes":"32","value":"t_uint256"},"t_mapping(t_uint256,t_address)":{"encoding":"mapping","key":"t_uint256","label":"mapping(uint256 => address)","numberOfBytes":"32","value":"t_address"},"t_mapping(t_uint256,t_string_storage)":{"encoding":"mapping","key":"t_uint256","label":"mapping(uint256 => string)","numberOfBytes":"32","value":"t_string_storage"},"t_string_storage":{"encoding":"bytes","label":"string","numberOfBytes":"32"},"t_uint256":{"encoding":"inplace","label":"uint256","numberOfBytes":"32"}}},"userdoc":{"kind":"user","methods":{"getChanceArray()":{"notice":""}},"version":1}}}}