{"contracts/RandomIpfsNft.sol":{"RandomIpfsNft":{"abi":[{"inputs":[{"internalType":"address","name":"vrfCoordinatorV2","type":"address"},{"internalType":"uint64","name":"subscriptionId","type":"uint64"},{"internalType":"bytes32","name":"gasLane","type":"bytes32"},{"internalType":"uint32","name":"callbackGasLimit","type":"uint32"},{"internalType":"string[3]","name":"dogTokenUris","type":"string[3]"},{"internalType":"uint256","name":"mintFee","type":"uint256"}],"stateMutability":"nonpayable","type":"constructor"},{"inputs":[{"internalType":"address","name":"have","type":"address"},{"internalType":"address","name":"want","type":"address"}],"name":"OnlyCoordinatorCanFulfill","type":"error"},{"inputs":[],"name":"RandomIpfsNft__NeedMoreETHSent","type":"error"},{"inputs":[],"name":"RandomIpfsNft__RangeOutOfBounds","type":"error"},{"inputs":[],"name":"RandomIpfsNft__TransferFailed","type":"error"},{"anonymous":false,"inputs":[{"indexed":true,"internalType":"address","name":"owner","type":"address"},{"indexed":true,"internalType":"address","name":"approved","type":"address"},{"indexed":true,"internalType":"uint256","name":"tokenId","type":"uint256"}],"name":"Approval","type":"event"},{"anonymous":false,"inputs":[{"indexed":true,"internalType":"address","name":"owner","type":"address"},{"indexed":true,"internalType":"address","name":"operator","type":"address"},{"indexed":false,"internalType":"bool","name":"approved","type":"bool"}],"name":"ApprovalForAll","type":"event"},{"anonymous":false,"inputs":[{"indexed":false,"internalType":"enum RandomIpfsNft.Breed","name":"breed","type":"uint8"},{"indexed":false,"internalType":"address","name":"minter","type":"address"}],"name":"NftMinted","type":"event"},{"anonymous":false,"inputs":[{"indexed":true,"internalType":"uint256","name":"requestId","type":"uint256"},{"indexed":false,"internalType":"address","name":"requester","type":"address"}],"name":"NftRequested","type":"event"},{"anonymous":false,"inputs":[{"indexed":true,"internalType":"address","name":"previousOwner","type":"address"},{"indexed":true,"internalType":"address","name":"newOwner","type":"address"}],"name":"OwnershipTransferred","type":"event"},{"anonymous":false,"inputs":[{"indexed":true,"internalType":"address","name":"from","type":"address"},{"indexed":true,"internalType":"address","name":"to","type":"address"},{"indexed":true,"internalType":"uint256","name":"tokenId","type":"uint256"}],"name":"Transfer","type":"event"},{"inputs":[{"internalType":"address","name":"to","type":"address"},{"internalType":"uint256","name":"tokenId","type":"uint256"}],"name":"approve","outputs":[],"stateMutability":"nonpayable","type":"function"},{"inputs":[{"internalType":"address","name":"owner","type":"address"}],"name":"balanceOf","outputs":[{"internalType":"uint256","name":"","type":"uint256"}],"stateMutability":"view","type":"function"},{"inputs":[{"internalType":"uint256","name":"tokenId","type":"uint256"}],"name":"getApproved","outputs":[{"internalType":"address","name":"","type":"address"}],"stateMutability":"view","type":"function"},{"inputs":[{"internalType":"uint256","name":"moddedRng","type":"uint256"}],"name":"getBreedFromModdedRng","outputs":[{"internalType":"enum RandomIpfsNft.Breed","name":"","type":"uint8"}],"stateMutability":"pure","type":"function"},{"inputs":[],"name":"getChanceArray","outputs":[{"internalType":"uint256[3]","name":"","type":"uint256[3]"}],"stateMutability":"pure","type":"function"},{"inputs":[{"internalType":"uint256","name":"index","type":"uint256"}],"name":"getDogTokenUris","outputs":[{"internalType":"string","name":"","type":"string"}],"stateMutability":"view","type":"function"},{"inputs":[],"name":"getMintFee","outputs":[{"internalType":"uint256","name":"","type":"uint256"}],"stateMutability":"view","type":"function"},{"inputs":[],"name":"getTokenCounter","outputs":[{"internalType":"uint256","name":"","type":"uint256"}],"stateMutability":"view","type":"function"},{"inputs":[{"internalType":"address","name":"owner","type":"address"},{"internalType":"address","name":"operator","type":"address"}],"name":"isApprovedForAll","outputs":[{"internalType":"bool","name":"","type":"bool"}],"stateMutability":"view","type":"function"},{"inputs":[],"name":"name","outputs":[{"internalType":"string","name":"","type":"string"}],"stateMutability":"view","type":"function"},{"inputs":[],"name":"owner","outputs":[{"internalType":"address","name":"","type":"address"}],"stateMutability":"view","type":"function"},{"inputs":[{"internalType":"uint256","name":"tokenId","type":"uint256"}],"name":"ownerOf","outputs":[{"internalType":"address","name":"","type":"address"}],"stateMutability":"view","type":"function"},{"inputs":[{"internalType":"uint256","name":"requestId","type":"uint256"},{"internalType":"uint256[]","name":"randomWords","type":"uint256[]"}],"name":"rawFulfillRandomWords","outputs":[],"stateMutability":"nonpayable","type":"function"},{"inputs":[],"name":"renounceOwnership","outputs":[],"stateMutability":"nonpayable","type":"function"},{"inputs":[],"name":"requestNft","outputs":[{"internalType":"uint256","name":"requestId","type":"uint256"}],"stateMutability":"payable","type":"function"},{"inputs":[{"internalType":"uint256","name":"","type":"uint256"}],"name":"s_requestIdToSender","outputs":[{"internalType":"address","name":"","type":"address"}],"stateMutability":"view","type":"function"},{"inputs":[],"name":"s_tokenCounter","outputs":[{"internalType":"uint256","name":"","type":"uint256"}],"stateMutability":"view","type":"function"},{"inputs":[{"internalType":"address","name":"from","type":"address"},{"internalType":"address","name":"to","type":"address"},{"internalType":"uint256","name":"tokenId","type":"uint256"}],"name":"safeTransferFrom","outputs":[],"stateMutability":"nonpayable","type":"function"},{"inputs":[{"internalType":"address","name":"from","type":"address"},{"internalType":"address","name":"to","type":"address"},{"internalType":"uint256","name":"tokenId","type":"uint256"},{"internalType":"bytes","name":"data","type":"bytes"}],"name":"safeTransferFrom","outputs":[],"stateMutability":"nonpayable","type":"function"},{"inputs":[{"internalType":"address","name":"operator","type":"address"},{"internalType":"bool","name":"approved","type":"bool"}],"name":"setApprovalForAll","outputs":[],"stateMutability":"nonpayable","type":"function"},{"inputs":[{"internalType":"bytes4","name":"interfaceId","type":"bytes4"}],"name":"supportsInterface","outputs":[{"internalType":"bool","name":"","type":"bool"}],"stateMutability":"view","type":"function"},{"inputs":[],"name":"symbol","outputs":[{"internalType":"string","name":"","type":"string"}],"stateMutability":"view","type":"function"},{"inputs":[{"internalType":"uint256","name":"tokenId","type":"uint256"}],"name":"tokenURI","outputs":[{"internalType":"string","name":"","type":"string"}],"stateMutability":"view","type":"function"},{"inputs":[{"internalType":"address","name":"from","type":"address"},{"internalType":"address","name":"to","type":"address"},{"internalType":"uint256","name":"tokenId","type":"uint256"}],"name":"transferFrom","outputs":[],"stateMutability":"nonpayable","type":"function"},{"inputs":[{"internalType":"address","name":"newOwner","type":"address"}],"name":"transferOwnership","outputs":[],"stateMutability":"nonpayable","type":"function"},{"inputs":[],"name":"withdraw","outputs":[],"stateMutability":"nonpayable","type":"function"}],"devdoc":{"kind":"dev","methods":{"approve(address,uint256)":{"details":"See {IERC721-approve}."},"balanceOf(address)":{"details":"See {IERC721-balanceOf}."},"getApproved(uint256)":{"details":"See {IERC721-getApproved}."},"isApprovedForAll(address,address)":{"details":"See {IERC721-isApprovedForAll}."},"name()":{"details":"See {IERC721Metadata-name}."},"owner()":{"details":"Returns the address of the current owner."},"ownerOf(uint256)":{"details":"See {IERC721-ownerOf}."},"renounceOwnership()":{"details":"Leaves the contract without owner. It will not be possible to call `onlyOwner` functions anymore. Can only be called by the current owner. NOTE: Renouncing ownership will leave the contract without an owner, thereby removing any functionality that is only available to the owner."},"safeTransferFrom(address,address,uint256)":{"details":"See {IERC721-safeTransferFrom}."},"safeTransferFrom(address,address,uint256,bytes)":{"details":"See {IERC721-safeTransferFrom}."},"setApprovalForAll(address,bool)":{"details":"See {IERC721-setApprovalForAll}."},"supportsInterface(bytes4)":{"details":"See {IERC165-supportsInterface}."},"symbol()":{"details":"See {IERC721Metadata-symbol}."},"tokenURI(uint256)":{"details":"See {IERC721Metadata-tokenURI}."},"transferFrom(address,address,uint256)":{"details":"See {IERC721-transferFrom}."},"transferOwnership(address)":{"details":"Transfers ownership of the contract to a new account (`newOwner`). Can only be called by the current owner."}},"version":1},"evm":{"bytecode":{"linkReferences":{},"object":"6101406040523480156200001257600080fd5b506040516200443e3803806200443e8339818101604052810190620000389190620005d7565b6040518060400160405280600f81526020017f52616e646f6d2049504653204e465400000000000000000000000000000000008152506040518060400160405280600381526020017f52494e0000000000000000000000000000000000000000000000000000000000815250878073ffffffffffffffffffffffffffffffffffffffff1660808173ffffffffffffffffffffffffffffffffffffffff1660601b81525050508160009080519060200190620000f59291906200029e565b5080600190805190602001906200010e9291906200029e565b5050506200013162000125620001d060201b60201c565b620001d860201b60201c565b8573ffffffffffffffffffffffffffffffffffffffff1660a08173ffffffffffffffffffffffffffffffffffffffff1660601b815250508467ffffffffffffffff1660c08167ffffffffffffffff1660c01b815250508360e081815250508263ffffffff166101008163ffffffff1660e01b8152505081600a906003620001ba9291906200032f565b5080610120818152505050505050505062000932565b600033905090565b6000600760009054906101000a900473ffffffffffffffffffffffffffffffffffffffff16905081600760006101000a81548173ffffffffffffffffffffffffffffffffffffffff021916908373ffffffffffffffffffffffffffffffffffffffff1602179055508173ffffffffffffffffffffffffffffffffffffffff168173ffffffffffffffffffffffffffffffffffffffff167f8be0079c531659141344cd1fd0a4f28419497f9722a3daafe3b4186f6b6457e060405160405180910390a35050565b828054620002ac90620007bc565b90600052602060002090601f016020900481019282620002d057600085556200031c565b82601f10620002eb57805160ff19168380011785556200031c565b828001600101855582156200031c579182015b828111156200031b578251825591602001919060010190620002fe565b5b5090506200032b919062000396565b5090565b82805482825590600052602060002090810192821562000383579160200282015b8281111562000382578251829080519060200190620003719291906200029e565b509160200191906001019062000350565b5b509050620003929190620003b5565b5090565b5b80821115620003b157600081600090555060010162000397565b5090565b5b80821115620003d95760008181620003cf9190620003dd565b50600101620003b6565b5090565b508054620003eb90620007bc565b6000825580601f10620003ff575062000420565b601f0160209004906000526020600020908101906200041f919062000396565b5b50565b60006200043a6200043484620006bb565b62000692565b905080828560208602820111156200045757620004566200088b565b5b60005b85811015620004ac57815167ffffffffffffffff81111562000481576200048062000886565b5b8086016200049089826200055f565b855260208501945060208401935050506001810190506200045a565b5050509392505050565b6000620004cd620004c784620006e4565b62000692565b905082815260208101848484011115620004ec57620004eb62000890565b5b620004f984828562000786565b509392505050565b6000815190506200051281620008b0565b92915050565b600082601f83011262000530576200052f62000886565b5b60036200053f84828562000423565b91505092915050565b6000815190506200055981620008ca565b92915050565b600082601f83011262000577576200057662000886565b5b815162000589848260208601620004b6565b91505092915050565b600081519050620005a381620008e4565b92915050565b600081519050620005ba81620008fe565b92915050565b600081519050620005d18162000918565b92915050565b60008060008060008060c08789031215620005f757620005f66200089a565b5b60006200060789828a0162000501565b96505060206200061a89828a01620005c0565b95505060406200062d89828a0162000548565b94505060606200064089828a01620005a9565b935050608087015167ffffffffffffffff81111562000664576200066362000895565b5b6200067289828a0162000518565b92505060a06200068589828a0162000592565b9150509295509295509295565b60006200069e620006b1565b9050620006ac8282620007f2565b919050565b6000604051905090565b600067ffffffffffffffff821115620006d957620006d862000857565b5b602082029050919050565b600067ffffffffffffffff82111562000702576200070162000857565b5b6200070d826200089f565b9050602081019050919050565b6000620007278262000738565b9050919050565b6000819050919050565b600073ffffffffffffffffffffffffffffffffffffffff82169050919050565b6000819050919050565b600063ffffffff82169050919050565b600067ffffffffffffffff82169050919050565b60005b83811015620007a657808201518184015260208101905062000789565b83811115620007b6576000848401525b50505050565b60006002820490506001821680620007d557607f821691505b60208210811415620007ec57620007eb62000828565b5b50919050565b620007fd826200089f565b810181811067ffffffffffffffff821117156200081f576200081e62000857565b5b80604052505050565b7f4e487b7100000000000000000000000000000000000000000000000000000000600052602260045260246000fd5b7f4e487b7100000000000000000000000000000000000000000000000000000000600052604160045260246000fd5b600080fd5b600080fd5b600080fd5b600080fd5b600080fd5b6000601f19601f8301169050919050565b620008bb816200071a565b8114620008c757600080fd5b50565b620008d5816200072e565b8114620008e157600080fd5b50565b620008ef8162000758565b8114620008fb57600080fd5b50565b620009098162000762565b81146200091557600080fd5b50565b620009238162000772565b81146200092f57600080fd5b50565b60805160601c60a05160601c60c05160c01c60e0516101005160e01c61012051613aa26200099c60003960008181610d4b0152610f5a0152600061103401526000610ff00152600061101101526000610fb401526000818161091d01526109710152613aa26000f3fe6080604052600436106101815760003560e01c806370a08231116100d1578063a36f573b1161008a578063b88d4fde11610064578063b88d4fde14610577578063c87b56dd146105a0578063e985e9c5146105dd578063f2fde38b1461061a57610181565b8063a36f573b146104df578063a51cccf31461051c578063aa1524911461055957610181565b806370a08231146103e1578063715018a61461041e5780637a5caab3146104355780638da5cb5b1461046057806395d89b411461048b578063a22cb465146104b657610181565b806323b872dd1161013e57806342842e0e1161011857806342842e0e146103255780635dacf5f41461034e5780636352211e146103795780636e02007d146103b657610181565b806323b872dd146102a85780633af25975146102d15780633ccfd60b1461030e57610181565b806301ffc9a71461018657806306fdde03146101c3578063081812fc146101ee578063095ea7b31461022b5780630b21a83b146102545780631fe543e31461027f575b600080fd5b34801561019257600080fd5b506101ad60048036038101906101a89190612991565b610643565b6040516101ba9190612f2b565b60405180910390f35b3480156101cf57600080fd5b506101d8610725565b6040516101e59190612fdd565b60405180910390f35b3480156101fa57600080fd5b50610215600480360381019061021091906129eb565b6107b7565b6040516102229190612e80565b60405180910390f35b34801561023757600080fd5b50610252600480360381019061024d9190612951565b6107fd565b005b34801561026057600080fd5b50610269610915565b60405161027691906131bf565b60405180910390f35b34801561028b57600080fd5b506102a660048036038101906102a19190612a45565b61091b565b005b3480156102b457600080fd5b506102cf60048036038101906102ca919061283b565b6109db565b005b3480156102dd57600080fd5b506102f860048036038101906102f391906129eb565b610a3b565b6040516103059190612fdd565b60405180910390f35b34801561031a57600080fd5b50610323610aeb565b005b34801561033157600080fd5b5061034c6004803603810190610347919061283b565b610b9f565b005b34801561035a57600080fd5b50610363610bbf565b6040516103709190612f10565b60405180910390f35b34801561038557600080fd5b506103a0600480360381019061039b91906129eb565b610bea565b6040516103ad9190612e80565b60405180910390f35b3480156103c257600080fd5b506103cb610c71565b6040516103d891906131bf565b60405180910390f35b3480156103ed57600080fd5b50610408600480360381019061040391906127ce565b610c7b565b60405161041591906131bf565b60405180910390f35b34801561042a57600080fd5b50610433610d33565b005b34801561044157600080fd5b5061044a610d47565b60405161045791906131bf565b60405180910390f35b34801561046c57600080fd5b50610475610d6f565b6040516104829190612e80565b60405180910390f35b34801561049757600080fd5b506104a0610d99565b6040516104ad9190612fdd565b60405180910390f35b3480156104c257600080fd5b506104dd60048036038101906104d89190612911565b610e2b565b005b3480156104eb57600080fd5b50610506600480360381019061050191906129eb565b610e41565b6040516105139190612e80565b60405180910390f35b34801561052857600080fd5b50610543600480360381019061053e91906129eb565b610e74565b6040516105509190612f99565b60405180910390f35b610561610f56565b60405161056e91906131bf565b60405180910390f35b34801561058357600080fd5b5061059e6004803603810190610599919061288e565b611156565b005b3480156105ac57600080fd5b506105c760048036038101906105c291906129eb565b6111b8565b6040516105d49190612fdd565b60405180910390f35b3480156105e957600080fd5b5061060460048036038101906105ff91906127fb565b6112cb565b6040516106119190612f2b565b60405180910390f35b34801561062657600080fd5b50610641600480360381019061063c91906127ce565b61135f565b005b60007f80ac58cd000000000000000000000000000000000000000000000000000000007bffffffffffffffffffffffffffffffffffffffffffffffffffffffff1916827bffffffffffffffffffffffffffffffffffffffffffffffffffffffff1916148061070e57507f5b5e139f000000000000000000000000000000000000000000000000000000007bffffffffffffffffffffffffffffffffffffffffffffffffffffffff1916827bffffffffffffffffffffffffffffffffffffffffffffffffffffffff1916145b8061071e575061071d826113e3565b5b9050919050565b60606000805461073490613444565b80601f016020809104026020016040519081016040528092919081815260200182805461076090613444565b80156107ad5780601f10610782576101008083540402835291602001916107ad565b820191906000526020600020905b81548152906001019060200180831161079057829003601f168201915b5050505050905090565b60006107c28261144d565b6004600083815260200190815260200160002060009054906101000a900473ffffffffffffffffffffffffffffffffffffffff169050919050565b600061080882610bea565b90508073ffffffffffffffffffffffffffffffffffffffff168373ffffffffffffffffffffffffffffffffffffffff161415610879576040517f08c379a00000000000000000000000000000000000000000000000000000000081526004016108709061317f565b60405180910390fd5b8073ffffffffffffffffffffffffffffffffffffffff16610898611498565b73ffffffffffffffffffffffffffffffffffffffff1614806108c757506108c6816108c1611498565b6112cb565b5b610906576040517f08c379a00000000000000000000000000000000000000000000000000000000081526004016108fd9061319f565b60405180910390fd5b61091083836114a0565b505050565b60095481565b7f000000000000000000000000000000000000000000000000000000000000000073ffffffffffffffffffffffffffffffffffffffff163373ffffffffffffffffffffffffffffffffffffffff16146109cd57337f00000000000000000000000000000000000000000000000000000000000000006040517f1cf993f40000000000000000000000000000000000000000000000000000000081526004016109c4929190612e9b565b60405180910390fd5b6109d78282611559565b5050565b6109ec6109e6611498565b826116e8565b610a2b576040517f08c379a0000000000000000000000000000000000000000000000000000000008152600401610a2290612fff565b60405180910390fd5b610a3683838361177d565b505050565b6060600a8281548110610a5157610a506135dd565b5b906000526020600020018054610a6690613444565b80601f0160208091040260200160405190810160405280929190818152602001828054610a9290613444565b8015610adf5780601f10610ab457610100808354040283529160200191610adf565b820191906000526020600020905b815481529060010190602001808311610ac257829003601f168201915b50505050509050919050565b610af3611a77565b600047905060003373ffffffffffffffffffffffffffffffffffffffff1682604051610b1e90612e6b565b60006040518083038185875af1925050503d8060008114610b5b576040519150601f19603f3d011682016040523d82523d6000602084013e610b60565b606091505b5050905080610b9b576040517fca7e25b700000000000000000000000000000000000000000000000000000000815260040160405180910390fd5b5050565b610bba83838360405180602001604052806000815250611156565b505050565b610bc761257d565b6040518060600160405280600a8152602001601e81526020016064815250905090565b600080610bf683611af5565b9050600073ffffffffffffffffffffffffffffffffffffffff168173ffffffffffffffffffffffffffffffffffffffff161415610c68576040517f08c379a0000000000000000000000000000000000000000000000000000000008152600401610c5f9061315f565b60405180910390fd5b80915050919050565b6000600954905090565b60008073ffffffffffffffffffffffffffffffffffffffff168273ffffffffffffffffffffffffffffffffffffffff161415610cec576040517f08c379a0000000000000000000000000000000000000000000000000000000008152600401610ce3906130df565b60405180910390fd5b600360008373ffffffffffffffffffffffffffffffffffffffff1673ffffffffffffffffffffffffffffffffffffffff168152602001908152602001600020549050919050565b610d3b611a77565b610d456000611b32565b565b60007f0000000000000000000000000000000000000000000000000000000000000000905090565b6000600760009054906101000a900473ffffffffffffffffffffffffffffffffffffffff16905090565b606060018054610da890613444565b80601f0160208091040260200160405190810160405280929190818152602001828054610dd490613444565b8015610e215780601f10610df657610100808354040283529160200191610e21565b820191906000526020600020905b815481529060010190602001808311610e0457829003601f168201915b5050505050905090565b610e3d610e36611498565b8383611bf8565b5050565b60086020528060005260406000206000915054906101000a900473ffffffffffffffffffffffffffffffffffffffff1681565b600080600090506000610e85610bbf565b905060005b6003811015610f1e57828510158015610ec45750818160038110610eb157610eb06135dd565b5b602002015183610ec191906132d7565b85105b15610ee657806002811115610edc57610edb61357f565b5b9350505050610f51565b818160038110610ef957610ef86135dd565b5b602002015183610f0991906132d7565b92508080610f16906134a7565b915050610e8a565b506040517f12806c9d00000000000000000000000000000000000000000000000000000000815260040160405180910390fd5b919050565b60007f0000000000000000000000000000000000000000000000000000000000000000341015610fb2576040517fb90f491000000000000000000000000000000000000000000000000000000000815260040160405180910390fd5b7f000000000000000000000000000000000000000000000000000000000000000073ffffffffffffffffffffffffffffffffffffffff16635d3b1d307f00000000000000000000000000000000000000000000000000000000000000007f000000000000000000000000000000000000000000000000000000000000000060037f000000000000000000000000000000000000000000000000000000000000000060016040518663ffffffff1660e01b8152600401611075959493929190612f46565b602060405180830381600087803b15801561108f57600080fd5b505af11580156110a3573d6000803e3d6000fd5b505050506040513d601f19601f820116820180604052508101906110c79190612a18565b9050336008600083815260200190815260200160002060006101000a81548173ffffffffffffffffffffffffffffffffffffffff021916908373ffffffffffffffffffffffffffffffffffffffff160217905550807ff873236e6cc0ecc5be1a9a35c95ee5b8d1ac4cc7bfef0cc5060391d6cc98e26b3360405161114b9190612e80565b60405180910390a290565b611167611161611498565b836116e8565b6111a6576040517f08c379a000000000000000000000000000000000000000000000000000000000815260040161119d90612fff565b60405180910390fd5b6111b284848484611d65565b50505050565b60606111c38261144d565b60006006600084815260200190815260200160002080546111e390613444565b80601f016020809104026020016040519081016040528092919081815260200182805461120f90613444565b801561125c5780601f106112315761010080835404028352916020019161125c565b820191906000526020600020905b81548152906001019060200180831161123f57829003601f168201915b50505050509050600061126d611dc1565b90506000815114156112835781925050506112c6565b6000825111156112b85780826040516020016112a0929190612e47565b604051602081830303815290604052925050506112c6565b6112c184611dd8565b925050505b919050565b6000600560008473ffffffffffffffffffffffffffffffffffffffff1673ffffffffffffffffffffffffffffffffffffffff16815260200190815260200160002060008373ffffffffffffffffffffffffffffffffffffffff1673ffffffffffffffffffffffffffffffffffffffff16815260200190815260200160002060009054906101000a900460ff16905092915050565b611367611a77565b600073ffffffffffffffffffffffffffffffffffffffff168173ffffffffffffffffffffffffffffffffffffffff1614156113d7576040517f08c379a00000000000000000000000000000000000000000000000000000000081526004016113ce9061303f565b60405180910390fd5b6113e081611b32565b50565b60007f01ffc9a7000000000000000000000000000000000000000000000000000000007bffffffffffffffffffffffffffffffffffffffffffffffffffffffff1916827bffffffffffffffffffffffffffffffffffffffffffffffffffffffff1916149050919050565b61145681611e40565b611495576040517f08c379a000000000000000000000000000000000000000000000000000000000815260040161148c9061315f565b60405180910390fd5b50565b600033905090565b816004600083815260200190815260200160002060006101000a81548173ffffffffffffffffffffffffffffffffffffffff021916908373ffffffffffffffffffffffffffffffffffffffff160217905550808273ffffffffffffffffffffffffffffffffffffffff1661151383610bea565b73ffffffffffffffffffffffffffffffffffffffff167f8c5be1e5ebec7d5bd14f71427d1e84f3dd0314c0f7b2291e5b200ac8c7c3b92560405160405180910390a45050565b60006008600084815260200190815260200160002060009054906101000a900473ffffffffffffffffffffffffffffffffffffffff169050600060095490506115a28282611e81565b60006064846000815181106115ba576115b96135dd565b5b60200260200101516115cc91906134f0565b905060006115d982610e74565b90506115e58484611e81565b6116a783600a8360028111156115fe576115fd61357f565b5b8154811061160f5761160e6135dd565b5b90600052602060002001805461162490613444565b80601f016020809104026020016040519081016040528092919081815260200182805461165090613444565b801561169d5780601f106116725761010080835404028352916020019161169d565b820191906000526020600020905b81548152906001019060200180831161168057829003601f168201915b5050505050611e9f565b7f8a269f26b688e110e9cbd887d163dab35cae678fa353a0292de532c0cac1ecdc81856040516116d8929190612fb4565b60405180910390a1505050505050565b6000806116f483610bea565b90508073ffffffffffffffffffffffffffffffffffffffff168473ffffffffffffffffffffffffffffffffffffffff161480611736575061173581856112cb565b5b8061177457508373ffffffffffffffffffffffffffffffffffffffff1661175c846107b7565b73ffffffffffffffffffffffffffffffffffffffff16145b91505092915050565b8273ffffffffffffffffffffffffffffffffffffffff1661179d82610bea565b73ffffffffffffffffffffffffffffffffffffffff16146117f3576040517f08c379a00000000000000000000000000000000000000000000000000000000081526004016117ea9061305f565b60405180910390fd5b600073ffffffffffffffffffffffffffffffffffffffff168273ffffffffffffffffffffffffffffffffffffffff161415611863576040517f08c379a000000000000000000000000000000000000000000000000000000000815260040161185a9061309f565b60405180910390fd5b6118708383836001611f13565b8273ffffffffffffffffffffffffffffffffffffffff1661189082610bea565b73ffffffffffffffffffffffffffffffffffffffff16146118e6576040517f08c379a00000000000000000000000000000000000000000000000000000000081526004016118dd9061305f565b60405180910390fd5b6004600082815260200190815260200160002060006101000a81549073ffffffffffffffffffffffffffffffffffffffff02191690556001600360008573ffffffffffffffffffffffffffffffffffffffff1673ffffffffffffffffffffffffffffffffffffffff168152602001908152602001600020600082825403925050819055506001600360008473ffffffffffffffffffffffffffffffffffffffff1673ffffffffffffffffffffffffffffffffffffffff16815260200190815260200160002060008282540192505081905550816002600083815260200190815260200160002060006101000a81548173ffffffffffffffffffffffffffffffffffffffff021916908373ffffffffffffffffffffffffffffffffffffffff160217905550808273ffffffffffffffffffffffffffffffffffffffff168473ffffffffffffffffffffffffffffffffffffffff167fddf252ad1be2c89b69c2b068fc378daa952ba7f163c4a11628f55a4df523b3ef60405160405180910390a4611a728383836001611f19565b505050565b611a7f611498565b73ffffffffffffffffffffffffffffffffffffffff16611a9d610d6f565b73ffffffffffffffffffffffffffffffffffffffff1614611af3576040517f08c379a0000000000000000000000000000000000000000000000000000000008152600401611aea9061313f565b60405180910390fd5b565b60006002600083815260200190815260200160002060009054906101000a900473ffffffffffffffffffffffffffffffffffffffff169050919050565b6000600760009054906101000a900473ffffffffffffffffffffffffffffffffffffffff16905081600760006101000a81548173ffffffffffffffffffffffffffffffffffffffff021916908373ffffffffffffffffffffffffffffffffffffffff1602179055508173ffffffffffffffffffffffffffffffffffffffff168173ffffffffffffffffffffffffffffffffffffffff167f8be0079c531659141344cd1fd0a4f28419497f9722a3daafe3b4186f6b6457e060405160405180910390a35050565b8173ffffffffffffffffffffffffffffffffffffffff168373ffffffffffffffffffffffffffffffffffffffff161415611c67576040517f08c379a0000000000000000000000000000000000000000000000000000000008152600401611c5e906130bf565b60405180910390fd5b80600560008573ffffffffffffffffffffffffffffffffffffffff1673ffffffffffffffffffffffffffffffffffffffff16815260200190815260200160002060008473ffffffffffffffffffffffffffffffffffffffff1673ffffffffffffffffffffffffffffffffffffffff16815260200190815260200160002060006101000a81548160ff0219169083151502179055508173ffffffffffffffffffffffffffffffffffffffff168373ffffffffffffffffffffffffffffffffffffffff167f17307eab39ab6107e8899845ad3d59bd9653f200f220920489ca2b5937696c3183604051611d589190612f2b565b60405180910390a3505050565b611d7084848461177d565b611d7c84848484611f1f565b611dbb576040517f08c379a0000000000000000000000000000000000000000000000000000000008152600401611db29061301f565b60405180910390fd5b50505050565b606060405180602001604052806000815250905090565b6060611de38261144d565b6000611ded611dc1565b90506000815111611e0d5760405180602001604052806000815250611e38565b80611e17846120b6565b604051602001611e28929190612e47565b6040516020818303038152906040525b915050919050565b60008073ffffffffffffffffffffffffffffffffffffffff16611e6283611af5565b73ffffffffffffffffffffffffffffffffffffffff1614159050919050565b611e9b82826040518060200160405280600081525061218e565b5050565b611ea882611e40565b611ee7576040517f08c379a0000000000000000000000000000000000000000000000000000000008152600401611ede906130ff565b60405180910390fd5b80600660008481526020019081526020016000209080519060200190611f0e92919061259f565b505050565b50505050565b50505050565b6000611f408473ffffffffffffffffffffffffffffffffffffffff166121e9565b156120a9578373ffffffffffffffffffffffffffffffffffffffff1663150b7a02611f69611498565b8786866040518563ffffffff1660e01b8152600401611f8b9493929190612ec4565b602060405180830381600087803b158015611fa557600080fd5b505af1925050508015611fd657506040513d601f19601f82011682018060405250810190611fd391906129be565b60015b612059573d8060008114612006576040519150601f19603f3d011682016040523d82523d6000602084013e61200b565b606091505b50600081511415612051576040517f08c379a00000000000000000000000000000000000000000000000000000000081526004016120489061301f565b60405180910390fd5b805181602001fd5b63150b7a0260e01b7bffffffffffffffffffffffffffffffffffffffffffffffffffffffff1916817bffffffffffffffffffffffffffffffffffffffffffffffffffffffff1916149150506120ae565b600190505b949350505050565b6060600060016120c58461220c565b01905060008167ffffffffffffffff8111156120e4576120e361360c565b5b6040519080825280601f01601f1916602001820160405280156121165781602001600182028036833780820191505090505b509050600082602001820190505b600115612183578080600190039150507f3031323334353637383961626364656600000000000000000000000000000000600a86061a8153600a858161216d5761216c613550565b5b049450600085141561217e57612183565b612124565b819350505050919050565b612198838361235f565b6121a56000848484611f1f565b6121e4576040517f08c379a00000000000000000000000000000000000000000000000000000000081526004016121db9061301f565b60405180910390fd5b505050565b6000808273ffffffffffffffffffffffffffffffffffffffff163b119050919050565b600080600090507a184f03e93ff9f4daa797ed6e38ed64bf6a1f010000000000000000831061226a577a184f03e93ff9f4daa797ed6e38ed64bf6a1f01000000000000000083816122605761225f613550565b5b0492506040810190505b6d04ee2d6d415b85acef810000000083106122a7576d04ee2d6d415b85acef8100000000838161229d5761229c613550565b5b0492506020810190505b662386f26fc1000083106122d657662386f26fc1000083816122cc576122cb613550565b5b0492506010810190505b6305f5e10083106122ff576305f5e10083816122f5576122f4613550565b5b0492506008810190505b612710831061232457612710838161231a57612319613550565b5b0492506004810190505b60648310612347576064838161233d5761233c613550565b5b0492506002810190505b600a8310612356576001810190505b80915050919050565b600073ffffffffffffffffffffffffffffffffffffffff168273ffffffffffffffffffffffffffffffffffffffff1614156123cf576040517f08c379a00000000000000000000000000000000000000000000000000000000081526004016123c69061311f565b60405180910390fd5b6123d881611e40565b15612418576040517f08c379a000000000000000000000000000000000000000000000000000000000815260040161240f9061307f565b60405180910390fd5b612426600083836001611f13565b61242f81611e40565b1561246f576040517f08c379a00000000000000000000000000000000000000000000000000000000081526004016124669061307f565b60405180910390fd5b6001600360008473ffffffffffffffffffffffffffffffffffffffff1673ffffffffffffffffffffffffffffffffffffffff16815260200190815260200160002060008282540192505081905550816002600083815260200190815260200160002060006101000a81548173ffffffffffffffffffffffffffffffffffffffff021916908373ffffffffffffffffffffffffffffffffffffffff160217905550808273ffffffffffffffffffffffffffffffffffffffff16600073ffffffffffffffffffffffffffffffffffffffff167fddf252ad1be2c89b69c2b068fc378daa952ba7f163c4a11628f55a4df523b3ef60405160405180910390a4612579600083836001611f19565b5050565b6040518060600160405280600390602082028036833780820191505090505090565b8280546125ab90613444565b90600052602060002090601f0160209004810192826125cd5760008555612614565b82601f106125e657805160ff1916838001178555612614565b82800160010185558215612614579182015b828111156126135782518255916020019190600101906125f8565b5b5090506126219190612625565b5090565b5b8082111561263e576000816000905550600101612626565b5090565b6000612655612650846131ff565b6131da565b9050808382526020820190508285602086028201111561267857612677613640565b5b60005b858110156126a8578161268e88826127a4565b84526020840193506020830192505060018101905061267b565b5050509392505050565b60006126c56126c08461322b565b6131da565b9050828152602081018484840111156126e1576126e0613645565b5b6126ec848285613402565b509392505050565b60008135905061270381613a10565b92915050565b600082601f83011261271e5761271d61363b565b5b813561272e848260208601612642565b91505092915050565b60008135905061274681613a27565b92915050565b60008135905061275b81613a3e565b92915050565b60008151905061277081613a3e565b92915050565b600082601f83011261278b5761278a61363b565b5b813561279b8482602086016126b2565b91505092915050565b6000813590506127b381613a55565b92915050565b6000815190506127c881613a55565b92915050565b6000602082840312156127e4576127e361364f565b5b60006127f2848285016126f4565b91505092915050565b600080604083850312156128125761281161364f565b5b6000612820858286016126f4565b9250506020612831858286016126f4565b9150509250929050565b6000806000606084860312156128545761285361364f565b5b6000612862868287016126f4565b9350506020612873868287016126f4565b9250506040612884868287016127a4565b9150509250925092565b600080600080608085870312156128a8576128a761364f565b5b60006128b6878288016126f4565b94505060206128c7878288016126f4565b93505060406128d8878288016127a4565b925050606085013567ffffffffffffffff8111156128f9576128f861364a565b5b61290587828801612776565b91505092959194509250565b600080604083850312156129285761292761364f565b5b6000612936858286016126f4565b925050602061294785828601612737565b9150509250929050565b600080604083850312156129685761296761364f565b5b6000612976858286016126f4565b9250506020612987858286016127a4565b9150509250929050565b6000602082840312156129a7576129a661364f565b5b60006129b58482850161274c565b91505092915050565b6000602082840312156129d4576129d361364f565b5b60006129e284828501612761565b91505092915050565b600060208284031215612a0157612a0061364f565b5b6000612a0f848285016127a4565b91505092915050565b600060208284031215612a2e57612a2d61364f565b5b6000612a3c848285016127b9565b91505092915050565b60008060408385031215612a5c57612a5b61364f565b5b6000612a6a858286016127a4565b925050602083013567ffffffffffffffff811115612a8b57612a8a61364a565b5b612a9785828601612709565b9150509250929050565b6000612aad8383612e0b565b60208301905092915050565b612ac28161332d565b82525050565b612ad181613266565b612adb8184613294565b9250612ae68261325c565b8060005b83811015612b17578151612afe8782612aa1565b9650612b0983613287565b925050600181019050612aea565b505050505050565b612b288161333f565b82525050565b612b378161334b565b82525050565b6000612b4882613271565b612b52818561329f565b9350612b62818560208601613411565b612b6b81613654565b840191505092915050565b612b7f816133f0565b82525050565b6000612b908261327c565b612b9a81856132bb565b9350612baa818560208601613411565b612bb381613654565b840191505092915050565b6000612bc98261327c565b612bd381856132cc565b9350612be3818560208601613411565b80840191505092915050565b6000612bfc602d836132bb565b9150612c0782613665565b604082019050919050565b6000612c1f6032836132bb565b9150612c2a826136b4565b604082019050919050565b6000612c426026836132bb565b9150612c4d82613703565b604082019050919050565b6000612c656025836132bb565b9150612c7082613752565b604082019050919050565b6000612c88601c836132bb565b9150612c93826137a1565b602082019050919050565b6000612cab6024836132bb565b9150612cb6826137ca565b604082019050919050565b6000612cce6019836132bb565b9150612cd982613819565b602082019050919050565b6000612cf16029836132bb565b9150612cfc82613842565b604082019050919050565b6000612d14602e836132bb565b9150612d1f82613891565b604082019050919050565b6000612d376020836132bb565b9150612d42826138e0565b602082019050919050565b6000612d5a6020836132bb565b9150612d6582613909565b602082019050919050565b6000612d7d6018836132bb565b9150612d8882613932565b602082019050919050565b6000612da06021836132bb565b9150612dab8261395b565b604082019050919050565b6000612dc36000836132b0565b9150612dce826139aa565b600082019050919050565b6000612de6603d836132bb565b9150612df1826139ad565b604082019050919050565b612e0581613394565b82525050565b612e14816133c2565b82525050565b612e23816133c2565b82525050565b612e32816133cc565b82525050565b612e41816133dc565b82525050565b6000612e538285612bbe565b9150612e5f8284612bbe565b91508190509392505050565b6000612e7682612db6565b9150819050919050565b6000602082019050612e956000830184612ab9565b92915050565b6000604082019050612eb06000830185612ab9565b612ebd6020830184612ab9565b9392505050565b6000608082019050612ed96000830187612ab9565b612ee66020830186612ab9565b612ef36040830185612e1a565b8181036060830152612f058184612b3d565b905095945050505050565b6000606082019050612f256000830184612ac8565b92915050565b6000602082019050612f406000830184612b1f565b92915050565b600060a082019050612f5b6000830188612b2e565b612f686020830187612e38565b612f756040830186612dfc565b612f826060830185612e29565b612f8f6080830184612e29565b9695505050505050565b6000602082019050612fae6000830184612b76565b92915050565b6000604082019050612fc96000830185612b76565b612fd66020830184612ab9565b9392505050565b60006020820190508181036000830152612ff78184612b85565b905092915050565b6000602082019050818103600083015261301881612bef565b9050919050565b6000602082019050818103600083015261303881612c12565b9050919050565b6000602082019050818103600083015261305881612c35565b9050919050565b6000602082019050818103600083015261307881612c58565b9050919050565b6000602082019050818103600083015261309881612c7b565b9050919050565b600060208201905081810360008301526130b881612c9e565b9050919050565b600060208201905081810360008301526130d881612cc1565b9050919050565b600060208201905081810360008301526130f881612ce4565b9050919050565b6000602082019050818103600083015261311881612d07565b9050919050565b6000602082019050818103600083015261313881612d2a565b9050919050565b6000602082019050818103600083015261315881612d4d565b9050919050565b6000602082019050818103600083015261317881612d70565b9050919050565b6000602082019050818103600083015261319881612d93565b9050919050565b600060208201905081810360008301526131b881612dd9565b9050919050565b60006020820190506131d46000830184612e1a565b92915050565b60006131e46131f5565b90506131f08282613476565b919050565b6000604051905090565b600067ffffffffffffffff82111561321a5761321961360c565b5b602082029050602081019050919050565b600067ffffffffffffffff8211156132465761324561360c565b5b61324f82613654565b9050602081019050919050565b6000819050919050565b600060039050919050565b600081519050919050565b600081519050919050565b6000602082019050919050565b600081905092915050565b600082825260208201905092915050565b600081905092915050565b600082825260208201905092915050565b600081905092915050565b60006132e2826133c2565b91506132ed836133c2565b9250827fffffffffffffffffffffffffffffffffffffffffffffffffffffffffffffffff0382111561332257613321613521565b5b828201905092915050565b6000613338826133a2565b9050919050565b60008115159050919050565b6000819050919050565b60007fffffffff0000000000000000000000000000000000000000000000000000000082169050919050565b600081905061338f826139fc565b919050565b600061ffff82169050919050565b600073ffffffffffffffffffffffffffffffffffffffff82169050919050565b6000819050919050565b600063ffffffff82169050919050565b600067ffffffffffffffff82169050919050565b60006133fb82613381565b9050919050565b82818337600083830152505050565b60005b8381101561342f578082015181840152602081019050613414565b8381111561343e576000848401525b50505050565b6000600282049050600182168061345c57607f821691505b602082108114156134705761346f6135ae565b5b50919050565b61347f82613654565b810181811067ffffffffffffffff8211171561349e5761349d61360c565b5b80604052505050565b60006134b2826133c2565b91507fffffffffffffffffffffffffffffffffffffffffffffffffffffffffffffffff8214156134e5576134e4613521565b5b600182019050919050565b60006134fb826133c2565b9150613506836133c2565b92508261351657613515613550565b5b828206905092915050565b7f4e487b7100000000000000000000000000000000000000000000000000000000600052601160045260246000fd5b7f4e487b7100000000000000000000000000000000000000000000000000000000600052601260045260246000fd5b7f4e487b7100000000000000000000000000000000000000000000000000000000600052602160045260246000fd5b7f4e487b7100000000000000000000000000000000000000000000000000000000600052602260045260246000fd5b7f4e487b7100000000000000000000000000000000000000000000000000000000600052603260045260246000fd5b7f4e487b7100000000000000000000000000000000000000000000000000000000600052604160045260246000fd5b600080fd5b600080fd5b600080fd5b600080fd5b600080fd5b6000601f19601f8301169050919050565b7f4552433732313a2063616c6c6572206973206e6f7420746f6b656e206f776e6560008201527f72206f7220617070726f76656400000000000000000000000000000000000000602082015250565b7f4552433732313a207472616e7366657220746f206e6f6e20455243373231526560008201527f63656976657220696d706c656d656e7465720000000000000000000000000000602082015250565b7f4f776e61626c653a206e6577206f776e657220697320746865207a65726f206160008201527f6464726573730000000000000000000000000000000000000000000000000000602082015250565b7f4552433732313a207472616e736665722066726f6d20696e636f72726563742060008201527f6f776e6572000000000000000000000000000000000000000000000000000000602082015250565b7f4552433732313a20746f6b656e20616c7265616479206d696e74656400000000600082015250565b7f4552433732313a207472616e7366657220746f20746865207a65726f2061646460008201527f7265737300000000000000000000000000000000000000000000000000000000602082015250565b7f4552433732313a20617070726f766520746f2063616c6c657200000000000000600082015250565b7f4552433732313a2061646472657373207a65726f206973206e6f74206120766160008201527f6c6964206f776e65720000000000000000000000000000000000000000000000602082015250565b7f45524337323155524953746f726167653a2055524920736574206f66206e6f6e60008201527f6578697374656e7420746f6b656e000000000000000000000000000000000000602082015250565b7f4552433732313a206d696e7420746f20746865207a65726f2061646472657373600082015250565b7f4f776e61626c653a2063616c6c6572206973206e6f7420746865206f776e6572600082015250565b7f4552433732313a20696e76616c696420746f6b656e2049440000000000000000600082015250565b7f4552433732313a20617070726f76616c20746f2063757272656e74206f776e6560008201527f7200000000000000000000000000000000000000000000000000000000000000602082015250565b50565b7f4552433732313a20617070726f76652063616c6c6572206973206e6f7420746f60008201527f6b656e206f776e6572206f7220617070726f76656420666f7220616c6c000000602082015250565b60038110613a0d57613a0c61357f565b5b50565b613a198161332d565b8114613a2457600080fd5b50565b613a308161333f565b8114613a3b57600080fd5b50565b613a4781613355565b8114613a5257600080fd5b50565b613a5e816133c2565b8114613a6957600080fd5b5056fea2646970667358221220dd38ed0f2329885648fcd1c58842d244d7483190aa4221da3590f4f9601fde8264736f6c63430008070033","opcodes":"PUSH2 0x140 PUSH1 0x40 MSTORE CALLVALUE DUP1 ISZERO PUSH3 0x12 JUMPI PUSH1 0x0 DUP1 REVERT JUMPDEST POP PUSH1 0x40 MLOAD PUSH3 0x443E CODESIZE SUB DUP1 PUSH3 0x443E DUP4 CODECOPY DUP2 DUP2 ADD PUSH1 0x40 MSTORE DUP2 ADD SWAP1 PUSH3 0x38 SWAP2 SWAP1 PUSH3 0x5D7 JUMP JUMPDEST PUSH1 0x40 MLOAD DUP1 PUSH1 0x40 ADD PUSH1 0x40 MSTORE DUP1 PUSH1 0xF DUP2 MSTORE PUSH1 0x20 ADD PUSH32 0x52616E646F6D2049504653204E46540000000000000000000000000000000000 DUP2 MSTORE POP PUSH1 0x40 MLOAD DUP1 PUSH1 0x40 ADD PUSH1 0x40 MSTORE DUP1 PUSH1 0x3 DUP2 MSTORE PUSH1 0x20 ADD PUSH32 0x52494E0000000000000000000000000000000000000000000000000000000000 DUP2 MSTORE POP DUP8 DUP1 PUSH20 0xFFFFFFFFFFFFFFFFFFFFFFFFFFFFFFFFFFFFFFFF AND PUSH1 0x80 DUP2 PUSH20 0xFFFFFFFFFFFFFFFFFFFFFFFFFFFFFFFFFFFFFFFF AND PUSH1 0x60 SHL DUP2 MSTORE POP POP POP DUP2 PUSH1 0x0 SWAP1 DUP1 MLOAD SWAP1 PUSH1 0x20 ADD SWAP1 PUSH3 0xF5 SWAP3 SWAP2 SWAP1 PUSH3 0x29E JUMP JUMPDEST POP DUP1 PUSH1 0x1 SWAP1 DUP1 MLOAD SWAP1 PUSH1 0x20 ADD SWAP1 PUSH3 0x10E SWAP3 SWAP2 SWAP1 PUSH3 0x29E JUMP JUMPDEST POP POP POP PUSH3 0x131 PUSH3 0x125 PUSH3 0x1D0 PUSH1 0x20 SHL PUSH1 0x20 SHR JUMP JUMPDEST PUSH3 0x1D8 PUSH1 0x20 SHL PUSH1 0x20 SHR JUMP JUMPDEST DUP6 PUSH20 0xFFFFFFFFFFFFFFFFFFFFFFFFFFFFFFFFFFFFFFFF AND PUSH1 0xA0 DUP2 PUSH20 0xFFFFFFFFFFFFFFFFFFFFFFFFFFFFFFFFFFFFFFFF AND PUSH1 0x60 SHL DUP2 MSTORE POP POP DUP5 PUSH8 0xFFFFFFFFFFFFFFFF AND PUSH1 0xC0 DUP2 PUSH8 0xFFFFFFFFFFFFFFFF AND PUSH1 0xC0 SHL DUP2 MSTORE POP POP DUP4 PUSH1 0xE0 DUP2 DUP2 MSTORE POP POP DUP3 PUSH4 0xFFFFFFFF AND PUSH2 0x100 DUP2 PUSH4 0xFFFFFFFF AND PUSH1 0xE0 SHL DUP2 MSTORE POP POP DUP2 PUSH1 0xA SWAP1 PUSH1 0x3 PUSH3 0x1BA SWAP3 SWAP2 SWAP1 PUSH3 0x32F JUMP JUMPDEST POP DUP1 PUSH2 0x120 DUP2 DUP2 MSTORE POP POP POP POP POP POP POP POP PUSH3 0x932 JUMP JUMPDEST PUSH1 0x0 CALLER SWAP1 POP SWAP1 JUMP JUMPDEST PUSH1 0x0 PUSH1 0x7 PUSH1 0x0 SWAP1 SLOAD SWAP1 PUSH2 0x100 EXP SWAP1 DIV PUSH20 0xFFFFFFFFFFFFFFFFFFFFFFFFFFFFFFFFFFFFFFFF AND SWAP1 POP DUP2 PUSH1 0x7 PUSH1 0x0 PUSH2 0x100 EXP DUP2 SLOAD DUP2 PUSH20 0xFFFFFFFFFFFFFFFFFFFFFFFFFFFFFFFFFFFFFFFF MUL NOT AND SWAP1 DUP4 PUSH20 0xFFFFFFFFFFFFFFFFFFFFFFFFFFFFFFFFFFFFFFFF AND MUL OR SWAP1 SSTORE POP DUP2 PUSH20 0xFFFFFFFFFFFFFFFFFFFFFFFFFFFFFFFFFFFFFFFF AND DUP2 PUSH20 0xFFFFFFFFFFFFFFFFFFFFFFFFFFFFFFFFFFFFFFFF AND PUSH32 0x8BE0079C531659141344CD1FD0A4F28419497F9722A3DAAFE3B4186F6B6457E0 PUSH1 0x40 MLOAD PUSH1 0x40 MLOAD DUP1 SWAP2 SUB SWAP1 LOG3 POP POP JUMP JUMPDEST DUP3 DUP1 SLOAD PUSH3 0x2AC SWAP1 PUSH3 0x7BC JUMP JUMPDEST SWAP1 PUSH1 0x0 MSTORE PUSH1 0x20 PUSH1 0x0 KECCAK256 SWAP1 PUSH1 0x1F ADD PUSH1 0x20 SWAP1 DIV DUP2 ADD SWAP3 DUP3 PUSH3 0x2D0 JUMPI PUSH1 0x0 DUP6 SSTORE PUSH3 0x31C JUMP JUMPDEST DUP3 PUSH1 0x1F LT PUSH3 0x2EB JUMPI DUP1 MLOAD PUSH1 0xFF NOT AND DUP4 DUP1 ADD OR DUP6 SSTORE PUSH3 0x31C JUMP JUMPDEST DUP3 DUP1 ADD PUSH1 0x1 ADD DUP6 SSTORE DUP3 ISZERO PUSH3 0x31C JUMPI SWAP2 DUP3 ADD JUMPDEST DUP3 DUP2 GT ISZERO PUSH3 0x31B JUMPI DUP3 MLOAD DUP3 SSTORE SWAP2 PUSH1 0x20 ADD SWAP2 SWAP1 PUSH1 0x1 ADD SWAP1 PUSH3 0x2FE JUMP JUMPDEST JUMPDEST POP SWAP1 POP PUSH3 0x32B SWAP2 SWAP1 PUSH3 0x396 JUMP JUMPDEST POP SWAP1 JUMP JUMPDEST DUP3 DUP1 SLOAD DUP3 DUP3 SSTORE SWAP1 PUSH1 0x0 MSTORE PUSH1 0x20 PUSH1 0x0 KECCAK256 SWAP1 DUP2 ADD SWAP3 DUP3 ISZERO PUSH3 0x383 JUMPI SWAP2 PUSH1 0x20 MUL DUP3 ADD JUMPDEST DUP3 DUP2 GT ISZERO PUSH3 0x382 JUMPI DUP3 MLOAD DUP3 SWAP1 DUP1 MLOAD SWAP1 PUSH1 0x20 ADD SWAP1 PUSH3 0x371 SWAP3 SWAP2 SWAP1 PUSH3 0x29E JUMP JUMPDEST POP SWAP2 PUSH1 0x20 ADD SWAP2 SWAP1 PUSH1 0x1 ADD SWAP1 PUSH3 0x350 JUMP JUMPDEST JUMPDEST POP SWAP1 POP PUSH3 0x392 SWAP2 SWAP1 PUSH3 0x3B5 JUMP JUMPDEST POP SWAP1 JUMP JUMPDEST JUMPDEST DUP1 DUP3 GT ISZERO PUSH3 0x3B1 JUMPI PUSH1 0x0 DUP2 PUSH1 0x0 SWAP1 SSTORE POP PUSH1 0x1 ADD PUSH3 0x397 JUMP JUMPDEST POP SWAP1 JUMP JUMPDEST JUMPDEST DUP1 DUP3 GT ISZERO PUSH3 0x3D9 JUMPI PUSH1 0x0 DUP2 DUP2 PUSH3 0x3CF SWAP2 SWAP1 PUSH3 0x3DD JUMP JUMPDEST POP PUSH1 0x1 ADD PUSH3 0x3B6 JUMP JUMPDEST POP SWAP1 JUMP JUMPDEST POP DUP1 SLOAD PUSH3 0x3EB SWAP1 PUSH3 0x7BC JUMP JUMPDEST PUSH1 0x0 DUP3 SSTORE DUP1 PUSH1 0x1F LT PUSH3 0x3FF JUMPI POP PUSH3 0x420 JUMP JUMPDEST PUSH1 0x1F ADD PUSH1 0x20 SWAP1 DIV SWAP1 PUSH1 0x0 MSTORE PUSH1 0x20 PUSH1 0x0 KECCAK256 SWAP1 DUP2 ADD SWAP1 PUSH3 0x41F SWAP2 SWAP1 PUSH3 0x396 JUMP JUMPDEST JUMPDEST POP JUMP JUMPDEST PUSH1 0x0 PUSH3 0x43A PUSH3 0x434 DUP5 PUSH3 0x6BB JUMP JUMPDEST PUSH3 0x692 JUMP JUMPDEST SWAP1 POP DUP1 DUP3 DUP6 PUSH1 0x20 DUP7 MUL DUP3 ADD GT ISZERO PUSH3 0x457 JUMPI PUSH3 0x456 PUSH3 0x88B JUMP JUMPDEST JUMPDEST PUSH1 0x0 JUMPDEST DUP6 DUP2 LT ISZERO PUSH3 0x4AC JUMPI DUP2 MLOAD PUSH8 0xFFFFFFFFFFFFFFFF DUP2 GT ISZERO PUSH3 0x481 JUMPI PUSH3 0x480 PUSH3 0x886 JUMP JUMPDEST JUMPDEST DUP1 DUP7 ADD PUSH3 0x490 DUP10 DUP3 PUSH3 0x55F JUMP JUMPDEST DUP6 MSTORE PUSH1 0x20 DUP6 ADD SWAP5 POP PUSH1 0x20 DUP5 ADD SWAP4 POP POP POP PUSH1 0x1 DUP2 ADD SWAP1 POP PUSH3 0x45A JUMP JUMPDEST POP POP POP SWAP4 SWAP3 POP POP POP JUMP JUMPDEST PUSH1 0x0 PUSH3 0x4CD PUSH3 0x4C7 DUP5 PUSH3 0x6E4 JUMP JUMPDEST PUSH3 0x692 JUMP JUMPDEST SWAP1 POP DUP3 DUP2 MSTORE PUSH1 0x20 DUP2 ADD DUP5 DUP5 DUP5 ADD GT ISZERO PUSH3 0x4EC JUMPI PUSH3 0x4EB PUSH3 0x890 JUMP JUMPDEST JUMPDEST PUSH3 0x4F9 DUP5 DUP3 DUP6 PUSH3 0x786 JUMP JUMPDEST POP SWAP4 SWAP3 POP POP POP JUMP JUMPDEST PUSH1 0x0 DUP2 MLOAD SWAP1 POP PUSH3 0x512 DUP2 PUSH3 0x8B0 JUMP JUMPDEST SWAP3 SWAP2 POP POP JUMP JUMPDEST PUSH1 0x0 DUP3 PUSH1 0x1F DUP4 ADD SLT PUSH3 0x530 JUMPI PUSH3 0x52F PUSH3 0x886 JUMP JUMPDEST JUMPDEST PUSH1 0x3 PUSH3 0x53F DUP5 DUP3 DUP6 PUSH3 0x423 JUMP JUMPDEST SWAP2 POP POP SWAP3 SWAP2 POP POP JUMP JUMPDEST PUSH1 0x0 DUP2 MLOAD SWAP1 POP PUSH3 0x559 DUP2 PUSH3 0x8CA JUMP JUMPDEST SWAP3 SWAP2 POP POP JUMP JUMPDEST PUSH1 0x0 DUP3 PUSH1 0x1F DUP4 ADD SLT PUSH3 0x577 JUMPI PUSH3 0x576 PUSH3 0x886 JUMP JUMPDEST JUMPDEST DUP2 MLOAD PUSH3 0x589 DUP5 DUP3 PUSH1 0x20 DUP7 ADD PUSH3 0x4B6 JUMP JUMPDEST SWAP2 POP POP SWAP3 SWAP2 POP POP JUMP JUMPDEST PUSH1 0x0 DUP2 MLOAD SWAP1 POP PUSH3 0x5A3 DUP2 PUSH3 0x8E4 JUMP JUMPDEST SWAP3 SWAP2 POP POP JUMP JUMPDEST PUSH1 0x0 DUP2 MLOAD SWAP1 POP PUSH3 0x5BA DUP2 PUSH3 0x8FE JUMP JUMPDEST SWAP3 SWAP2 POP POP JUMP JUMPDEST PUSH1 0x0 DUP2 MLOAD SWAP1 POP PUSH3 0x5D1 DUP2 PUSH3 0x918 JUMP JUMPDEST SWAP3 SWAP2 POP POP JUMP JUMPDEST PUSH1 0x0 DUP1 PUSH1 0x0 DUP1 PUSH1 0x0 DUP1 PUSH1 0xC0 DUP8 DUP10 SUB SLT ISZERO PUSH3 0x5F7 JUMPI PUSH3 0x5F6 PUSH3 0x89A JUMP JUMPDEST JUMPDEST PUSH1 0x0 PUSH3 0x607 DUP10 DUP3 DUP11 ADD PUSH3 0x501 JUMP JUMPDEST SWAP7 POP POP PUSH1 0x20 PUSH3 0x61A DUP10 DUP3 DUP11 ADD PUSH3 0x5C0 JUMP JUMPDEST SWAP6 POP POP PUSH1 0x40 PUSH3 0x62D DUP10 DUP3 DUP11 ADD PUSH3 0x548 JUMP JUMPDEST SWAP5 POP POP PUSH1 0x60 PUSH3 0x640 DUP10 DUP3 DUP11 ADD PUSH3 0x5A9 JUMP JUMPDEST SWAP4 POP POP PUSH1 0x80 DUP8 ADD MLOAD PUSH8 0xFFFFFFFFFFFFFFFF DUP2 GT ISZERO PUSH3 0x664 JUMPI PUSH3 0x663 PUSH3 0x895 JUMP JUMPDEST JUMPDEST PUSH3 0x672 DUP10 DUP3 DUP11 ADD PUSH3 0x518 JUMP JUMPDEST SWAP3 POP POP PUSH1 0xA0 PUSH3 0x685 DUP10 DUP3 DUP11 ADD PUSH3 0x592 JUMP JUMPDEST SWAP2 POP POP SWAP3 SWAP6 POP SWAP3 SWAP6 POP SWAP3 SWAP6 JUMP JUMPDEST PUSH1 0x0 PUSH3 0x69E PUSH3 0x6B1 JUMP JUMPDEST SWAP1 POP PUSH3 0x6AC DUP3 DUP3 PUSH3 0x7F2 JUMP JUMPDEST SWAP2 SWAP1 POP JUMP JUMPDEST PUSH1 0x0 PUSH1 0x40 MLOAD SWAP1 POP SWAP1 JUMP JUMPDEST PUSH1 0x0 PUSH8 0xFFFFFFFFFFFFFFFF DUP3 GT ISZERO PUSH3 0x6D9 JUMPI PUSH3 0x6D8 PUSH3 0x857 JUMP JUMPDEST JUMPDEST PUSH1 0x20 DUP3 MUL SWAP1 POP SWAP2 SWAP1 POP JUMP JUMPDEST PUSH1 0x0 PUSH8 0xFFFFFFFFFFFFFFFF DUP3 GT ISZERO PUSH3 0x702 JUMPI PUSH3 0x701 PUSH3 0x857 JUMP JUMPDEST JUMPDEST PUSH3 0x70D DUP3 PUSH3 0x89F JUMP JUMPDEST SWAP1 POP PUSH1 0x20 DUP2 ADD SWAP1 POP SWAP2 SWAP1 POP JUMP JUMPDEST PUSH1 0x0 PUSH3 0x727 DUP3 PUSH3 0x738 JUMP JUMPDEST SWAP1 POP SWAP2 SWAP1 POP JUMP JUMPDEST PUSH1 0x0 DUP2 SWAP1 POP SWAP2 SWAP1 POP JUMP JUMPDEST PUSH1 0x0 PUSH20 0xFFFFFFFFFFFFFFFFFFFFFFFFFFFFFFFFFFFFFFFF DUP3 AND SWAP1 POP SWAP2 SWAP1 POP JUMP JUMPDEST PUSH1 0x0 DUP2 SWAP1 POP SWAP2 SWAP1 POP JUMP JUMPDEST PUSH1 0x0 PUSH4 0xFFFFFFFF DUP3 AND SWAP1 POP SWAP2 SWAP1 POP JUMP JUMPDEST PUSH1 0x0 PUSH8 0xFFFFFFFFFFFFFFFF DUP3 AND SWAP1 POP SWAP2 SWAP1 POP JUMP JUMPDEST PUSH1 0x0 JUMPDEST DUP4 DUP2 LT ISZERO PUSH3 0x7A6 JUMPI DUP1 DUP3 ADD MLOAD DUP2 DUP5 ADD MSTORE PUSH1 0x20 DUP2 ADD SWAP1 POP PUSH3 0x789 JUMP JUMPDEST DUP4 DUP2 GT ISZERO PUSH3 0x7B6 JUMPI PUSH1 0x0 DUP5 DUP5 ADD MSTORE JUMPDEST POP POP POP POP JUMP JUMPDEST PUSH1 0x0 PUSH1 0x2 DUP3 DIV SWAP1 POP PUSH1 0x1 DUP3 AND DUP1 PUSH3 0x7D5 JUMPI PUSH1 0x7F DUP3 AND SWAP2 POP JUMPDEST PUSH1 0x20 DUP3 LT DUP2 EQ ISZERO PUSH3 0x7EC JUMPI PUSH3 0x7EB PUSH3 0x828 JUMP JUMPDEST JUMPDEST POP SWAP2 SWAP1 POP JUMP JUMPDEST PUSH3 0x7FD DUP3 PUSH3 0x89F JUMP JUMPDEST DUP2 ADD DUP2 DUP2 LT PUSH8 0xFFFFFFFFFFFFFFFF DUP3 GT OR ISZERO PUSH3 0x81F JUMPI PUSH3 0x81E PUSH3 0x857 JUMP JUMPDEST JUMPDEST DUP1 PUSH1 0x40 MSTORE POP POP POP JUMP JUMPDEST PUSH32 0x4E487B7100000000000000000000000000000000000000000000000000000000 PUSH1 0x0 MSTORE PUSH1 0x22 PUSH1 0x4 MSTORE PUSH1 0x24 PUSH1 0x0 REVERT JUMPDEST PUSH32 0x4E487B7100000000000000000000000000000000000000000000000000000000 PUSH1 0x0 MSTORE PUSH1 0x41 PUSH1 0x4 MSTORE PUSH1 0x24 PUSH1 0x0 REVERT JUMPDEST PUSH1 0x0 DUP1 REVERT JUMPDEST PUSH1 0x0 DUP1 REVERT JUMPDEST PUSH1 0x0 DUP1 REVERT JUMPDEST PUSH1 0x0 DUP1 REVERT JUMPDEST PUSH1 0x0 DUP1 REVERT JUMPDEST PUSH1 0x0 PUSH1 0x1F NOT PUSH1 0x1F DUP4 ADD AND SWAP1 POP SWAP2 SWAP1 POP JUMP JUMPDEST PUSH3 0x8BB DUP2 PUSH3 0x71A JUMP JUMPDEST DUP2 EQ PUSH3 0x8C7 JUMPI PUSH1 0x0 DUP1 REVERT JUMPDEST POP JUMP JUMPDEST PUSH3 0x8D5 DUP2 PUSH3 0x72E JUMP JUMPDEST DUP2 EQ PUSH3 0x8E1 JUMPI PUSH1 0x0 DUP1 REVERT JUMPDEST POP JUMP JUMPDEST PUSH3 0x8EF DUP2 PUSH3 0x758 JUMP JUMPDEST DUP2 EQ PUSH3 0x8FB JUMPI PUSH1 0x0 DUP1 REVERT JUMPDEST POP JUMP JUMPDEST PUSH3 0x909 DUP2 PUSH3 0x762 JUMP JUMPDEST DUP2 EQ PUSH3 0x915 JUMPI PUSH1 0x0 DUP1 REVERT JUMPDEST POP JUMP JUMPDEST PUSH3 0x923 DUP2 PUSH3 0x772 JUMP JUMPDEST DUP2 EQ PUSH3 0x92F JUMPI PUSH1 0x0 DUP1 REVERT JUMPDEST POP JUMP JUMPDEST PUSH1 0x80 MLOAD PUSH1 0x60 SHR PUSH1 0xA0 MLOAD PUSH1 0x60 SHR PUSH1 0xC0 MLOAD PUSH1 0xC0 SHR PUSH1 0xE0 MLOAD PUSH2 0x100 MLOAD PUSH1 0xE0 SHR PUSH2 0x120 MLOAD PUSH2 0x3AA2 PUSH3 0x99C PUSH1 0x0 CODECOPY PUSH1 0x0 DUP2 DUP2 PUSH2 0xD4B ADD MSTORE PUSH2 0xF5A ADD MSTORE PUSH1 0x0 PUSH2 0x1034 ADD MSTORE PUSH1 0x0 PUSH2 0xFF0 ADD MSTORE PUSH1 0x0 PUSH2 0x1011 ADD MSTORE PUSH1 0x0 PUSH2 0xFB4 ADD MSTORE PUSH1 0x0 DUP2 DUP2 PUSH2 0x91D ADD MSTORE PUSH2 0x971 ADD MSTORE PUSH2 0x3AA2 PUSH1 0x0 RETURN INVALID PUSH1 0x80 PUSH1 0x40 MSTORE PUSH1 0x4 CALLDATASIZE LT PUSH2 0x181 JUMPI PUSH1 0x0 CALLDATALOAD PUSH1 0xE0 SHR DUP1 PUSH4 0x70A08231 GT PUSH2 0xD1 JUMPI DUP1 PUSH4 0xA36F573B GT PUSH2 0x8A JUMPI DUP1 PUSH4 0xB88D4FDE GT PUSH2 0x64 JUMPI DUP1 PUSH4 0xB88D4FDE EQ PUSH2 0x577 JUMPI DUP1 PUSH4 0xC87B56DD EQ PUSH2 0x5A0 JUMPI DUP1 PUSH4 0xE985E9C5 EQ PUSH2 0x5DD JUMPI DUP1 PUSH4 0xF2FDE38B EQ PUSH2 0x61A JUMPI PUSH2 0x181 JUMP JUMPDEST DUP1 PUSH4 0xA36F573B EQ PUSH2 0x4DF JUMPI DUP1 PUSH4 0xA51CCCF3 EQ PUSH2 0x51C JUMPI DUP1 PUSH4 0xAA152491 EQ PUSH2 0x559 JUMPI PUSH2 0x181 JUMP JUMPDEST DUP1 PUSH4 0x70A08231 EQ PUSH2 0x3E1 JUMPI DUP1 PUSH4 0x715018A6 EQ PUSH2 0x41E JUMPI DUP1 PUSH4 0x7A5CAAB3 EQ PUSH2 0x435 JUMPI DUP1 PUSH4 0x8DA5CB5B EQ PUSH2 0x460 JUMPI DUP1 PUSH4 0x95D89B41 EQ PUSH2 0x48B JUMPI DUP1 PUSH4 0xA22CB465 EQ PUSH2 0x4B6 JUMPI PUSH2 0x181 JUMP JUMPDEST DUP1 PUSH4 0x23B872DD GT PUSH2 0x13E JUMPI DUP1 PUSH4 0x42842E0E GT PUSH2 0x118 JUMPI DUP1 PUSH4 0x42842E0E EQ PUSH2 0x325 JUMPI DUP1 PUSH4 0x5DACF5F4 EQ PUSH2 0x34E JUMPI DUP1 PUSH4 0x6352211E EQ PUSH2 0x379 JUMPI DUP1 PUSH4 0x6E02007D EQ PUSH2 0x3B6 JUMPI PUSH2 0x181 JUMP JUMPDEST DUP1 PUSH4 0x23B872DD EQ PUSH2 0x2A8 JUMPI DUP1 PUSH4 0x3AF25975 EQ PUSH2 0x2D1 JUMPI DUP1 PUSH4 0x3CCFD60B EQ PUSH2 0x30E JUMPI PUSH2 0x181 JUMP JUMPDEST DUP1 PUSH4 0x1FFC9A7 EQ PUSH2 0x186 JUMPI DUP1 PUSH4 0x6FDDE03 EQ PUSH2 0x1C3 JUMPI DUP1 PUSH4 0x81812FC EQ PUSH2 0x1EE JUMPI DUP1 PUSH4 0x95EA7B3 EQ PUSH2 0x22B JUMPI DUP1 PUSH4 0xB21A83B EQ PUSH2 0x254 JUMPI DUP1 PUSH4 0x1FE543E3 EQ PUSH2 0x27F JUMPI JUMPDEST PUSH1 0x0 DUP1 REVERT JUMPDEST CALLVALUE DUP1 ISZERO PUSH2 0x192 JUMPI PUSH1 0x0 DUP1 REVERT JUMPDEST POP PUSH2 0x1AD PUSH1 0x4 DUP1 CALLDATASIZE SUB DUP2 ADD SWAP1 PUSH2 0x1A8 SWAP2 SWAP1 PUSH2 0x2991 JUMP JUMPDEST PUSH2 0x643 JUMP JUMPDEST PUSH1 0x40 MLOAD PUSH2 0x1BA SWAP2 SWAP1 PUSH2 0x2F2B JUMP JUMPDEST PUSH1 0x40 MLOAD DUP1 SWAP2 SUB SWAP1 RETURN JUMPDEST CALLVALUE DUP1 ISZERO PUSH2 0x1CF JUMPI PUSH1 0x0 DUP1 REVERT JUMPDEST POP PUSH2 0x1D8 PUSH2 0x725 JUMP JUMPDEST PUSH1 0x40 MLOAD PUSH2 0x1E5 SWAP2 SWAP1 PUSH2 0x2FDD JUMP JUMPDEST PUSH1 0x40 MLOAD DUP1 SWAP2 SUB SWAP1 RETURN JUMPDEST CALLVALUE DUP1 ISZERO PUSH2 0x1FA JUMPI PUSH1 0x0 DUP1 REVERT JUMPDEST POP PUSH2 0x215 PUSH1 0x4 DUP1 CALLDATASIZE SUB DUP2 ADD SWAP1 PUSH2 0x210 SWAP2 SWAP1 PUSH2 0x29EB JUMP JUMPDEST PUSH2 0x7B7 JUMP JUMPDEST PUSH1 0x40 MLOAD PUSH2 0x222 SWAP2 SWAP1 PUSH2 0x2E80 JUMP JUMPDEST PUSH1 0x40 MLOAD DUP1 SWAP2 SUB SWAP1 RETURN JUMPDEST CALLVALUE DUP1 ISZERO PUSH2 0x237 JUMPI PUSH1 0x0 DUP1 REVERT JUMPDEST POP PUSH2 0x252 PUSH1 0x4 DUP1 CALLDATASIZE SUB DUP2 ADD SWAP1 PUSH2 0x24D SWAP2 SWAP1 PUSH2 0x2951 JUMP JUMPDEST PUSH2 0x7FD JUMP JUMPDEST STOP JUMPDEST CALLVALUE DUP1 ISZERO PUSH2 0x260 JUMPI PUSH1 0x0 DUP1 REVERT JUMPDEST POP PUSH2 0x269 PUSH2 0x915 JUMP JUMPDEST PUSH1 0x40 MLOAD PUSH2 0x276 SWAP2 SWAP1 PUSH2 0x31BF JUMP JUMPDEST PUSH1 0x40 MLOAD DUP1 SWAP2 SUB SWAP1 RETURN JUMPDEST CALLVALUE DUP1 ISZERO PUSH2 0x28B JUMPI PUSH1 0x0 DUP1 REVERT JUMPDEST POP PUSH2 0x2A6 PUSH1 0x4 DUP1 CALLDATASIZE SUB DUP2 ADD SWAP1 PUSH2 0x2A1 SWAP2 SWAP1 PUSH2 0x2A45 JUMP JUMPDEST PUSH2 0x91B JUMP JUMPDEST STOP JUMPDEST CALLVALUE DUP1 ISZERO PUSH2 0x2B4 JUMPI PUSH1 0x0 DUP1 REVERT JUMPDEST POP PUSH2 0x2CF PUSH1 0x4 DUP1 CALLDATASIZE SUB DUP2 ADD SWAP1 PUSH2 0x2CA SWAP2 SWAP1 PUSH2 0x283B JUMP JUMPDEST PUSH2 0x9DB JUMP JUMPDEST STOP JUMPDEST CALLVALUE DUP1 ISZERO PUSH2 0x2DD JUMPI PUSH1 0x0 DUP1 REVERT JUMPDEST POP PUSH2 0x2F8 PUSH1 0x4 DUP1 CALLDATASIZE SUB DUP2 ADD SWAP1 PUSH2 0x2F3 SWAP2 SWAP1 PUSH2 0x29EB JUMP JUMPDEST PUSH2 0xA3B JUMP JUMPDEST PUSH1 0x40 MLOAD PUSH2 0x305 SWAP2 SWAP1 PUSH2 0x2FDD JUMP JUMPDEST PUSH1 0x40 MLOAD DUP1 SWAP2 SUB SWAP1 RETURN JUMPDEST CALLVALUE DUP1 ISZERO PUSH2 0x31A JUMPI PUSH1 0x0 DUP1 REVERT JUMPDEST POP PUSH2 0x323 PUSH2 0xAEB JUMP JUMPDEST STOP JUMPDEST CALLVALUE DUP1 ISZERO PUSH2 0x331 JUMPI PUSH1 0x0 DUP1 REVERT JUMPDEST POP PUSH2 0x34C PUSH1 0x4 DUP1 CALLDATASIZE SUB DUP2 ADD SWAP1 PUSH2 0x347 SWAP2 SWAP1 PUSH2 0x283B JUMP JUMPDEST PUSH2 0xB9F JUMP JUMPDEST STOP JUMPDEST CALLVALUE DUP1 ISZERO PUSH2 0x35A JUMPI PUSH1 0x0 DUP1 REVERT JUMPDEST POP PUSH2 0x363 PUSH2 0xBBF JUMP JUMPDEST PUSH1 0x40 MLOAD PUSH2 0x370 SWAP2 SWAP1 PUSH2 0x2F10 JUMP JUMPDEST PUSH1 0x40 MLOAD DUP1 SWAP2 SUB SWAP1 RETURN JUMPDEST CALLVALUE DUP1 ISZERO PUSH2 0x385 JUMPI PUSH1 0x0 DUP1 REVERT JUMPDEST POP PUSH2 0x3A0 PUSH1 0x4 DUP1 CALLDATASIZE SUB DUP2 ADD SWAP1 PUSH2 0x39B SWAP2 SWAP1 PUSH2 0x29EB JUMP JUMPDEST PUSH2 0xBEA JUMP JUMPDEST PUSH1 0x40 MLOAD PUSH2 0x3AD SWAP2 SWAP1 PUSH2 0x2E80 JUMP JUMPDEST PUSH1 0x40 MLOAD DUP1 SWAP2 SUB SWAP1 RETURN JUMPDEST CALLVALUE DUP1 ISZERO PUSH2 0x3C2 JUMPI PUSH1 0x0 DUP1 REVERT JUMPDEST POP PUSH2 0x3CB PUSH2 0xC71 JUMP JUMPDEST PUSH1 0x40 MLOAD PUSH2 0x3D8 SWAP2 SWAP1 PUSH2 0x31BF JUMP JUMPDEST PUSH1 0x40 MLOAD DUP1 SWAP2 SUB SWAP1 RETURN JUMPDEST CALLVALUE DUP1 ISZERO PUSH2 0x3ED JUMPI PUSH1 0x0 DUP1 REVERT JUMPDEST POP PUSH2 0x408 PUSH1 0x4 DUP1 CALLDATASIZE SUB DUP2 ADD SWAP1 PUSH2 0x403 SWAP2 SWAP1 PUSH2 0x27CE JUMP JUMPDEST PUSH2 0xC7B JUMP JUMPDEST PUSH1 0x40 MLOAD PUSH2 0x415 SWAP2 SWAP1 PUSH2 0x31BF JUMP JUMPDEST PUSH1 0x40 MLOAD DUP1 SWAP2 SUB SWAP1 RETURN JUMPDEST CALLVALUE DUP1 ISZERO PUSH2 0x42A JUMPI PUSH1 0x0 DUP1 REVERT JUMPDEST POP PUSH2 0x433 PUSH2 0xD33 JUMP JUMPDEST STOP JUMPDEST CALLVALUE DUP1 ISZERO PUSH2 0x441 JUMPI PUSH1 0x0 DUP1 REVERT JUMPDEST POP PUSH2 0x44A PUSH2 0xD47 JUMP JUMPDEST PUSH1 0x40 MLOAD PUSH2 0x457 SWAP2 SWAP1 PUSH2 0x31BF JUMP JUMPDEST PUSH1 0x40 MLOAD DUP1 SWAP2 SUB SWAP1 RETURN JUMPDEST CALLVALUE DUP1 ISZERO PUSH2 0x46C JUMPI PUSH1 0x0 DUP1 REVERT JUMPDEST POP PUSH2 0x475 PUSH2 0xD6F JUMP JUMPDEST PUSH1 0x40 MLOAD PUSH2 0x482 SWAP2 SWAP1 PUSH2 0x2E80 JUMP JUMPDEST PUSH1 0x40 MLOAD DUP1 SWAP2 SUB SWAP1 RETURN JUMPDEST CALLVALUE DUP1 ISZERO PUSH2 0x497 JUMPI PUSH1 0x0 DUP1 REVERT JUMPDEST POP PUSH2 0x4A0 PUSH2 0xD99 JUMP JUMPDEST PUSH1 0x40 MLOAD PUSH2 0x4AD SWAP2 SWAP1 PUSH2 0x2FDD JUMP JUMPDEST PUSH1 0x40 MLOAD DUP1 SWAP2 SUB SWAP1 RETURN JUMPDEST CALLVALUE DUP1 ISZERO PUSH2 0x4C2 JUMPI PUSH1 0x0 DUP1 REVERT JUMPDEST POP PUSH2 0x4DD PUSH1 0x4 DUP1 CALLDATASIZE SUB DUP2 ADD SWAP1 PUSH2 0x4D8 SWAP2 SWAP1 PUSH2 0x2911 JUMP JUMPDEST PUSH2 0xE2B JUMP JUMPDEST STOP JUMPDEST CALLVALUE DUP1 ISZERO PUSH2 0x4EB JUMPI PUSH1 0x0 DUP1 REVERT JUMPDEST POP PUSH2 0x506 PUSH1 0x4 DUP1 CALLDATASIZE SUB DUP2 ADD SWAP1 PUSH2 0x501 SWAP2 SWAP1 PUSH2 0x29EB JUMP JUMPDEST PUSH2 0xE41 JUMP JUMPDEST PUSH1 0x40 MLOAD PUSH2 0x513 SWAP2 SWAP1 PUSH2 0x2E80 JUMP JUMPDEST PUSH1 0x40 MLOAD DUP1 SWAP2 SUB SWAP1 RETURN JUMPDEST CALLVALUE DUP1 ISZERO PUSH2 0x528 JUMPI PUSH1 0x0 DUP1 REVERT JUMPDEST POP PUSH2 0x543 PUSH1 0x4 DUP1 CALLDATASIZE SUB DUP2 ADD SWAP1 PUSH2 0x53E SWAP2 SWAP1 PUSH2 0x29EB JUMP JUMPDEST PUSH2 0xE74 JUMP JUMPDEST PUSH1 0x40 MLOAD PUSH2 0x550 SWAP2 SWAP1 PUSH2 0x2F99 JUMP JUMPDEST PUSH1 0x40 MLOAD DUP1 SWAP2 SUB SWAP1 RETURN JUMPDEST PUSH2 0x561 PUSH2 0xF56 JUMP JUMPDEST PUSH1 0x40 MLOAD PUSH2 0x56E SWAP2 SWAP1 PUSH2 0x31BF JUMP JUMPDEST PUSH1 0x40 MLOAD DUP1 SWAP2 SUB SWAP1 RETURN JUMPDEST CALLVALUE DUP1 ISZERO PUSH2 0x583 JUMPI PUSH1 0x0 DUP1 REVERT JUMPDEST POP PUSH2 0x59E PUSH1 0x4 DUP1 CALLDATASIZE SUB DUP2 ADD SWAP1 PUSH2 0x599 SWAP2 SWAP1 PUSH2 0x288E JUMP JUMPDEST PUSH2 0x1156 JUMP JUMPDEST STOP JUMPDEST CALLVALUE DUP1 ISZERO PUSH2 0x5AC JUMPI PUSH1 0x0 DUP1 REVERT JUMPDEST POP PUSH2 0x5C7 PUSH1 0x4 DUP1 CALLDATASIZE SUB DUP2 ADD SWAP1 PUSH2 0x5C2 SWAP2 SWAP1 PUSH2 0x29EB JUMP JUMPDEST PUSH2 0x11B8 JUMP JUMPDEST PUSH1 0x40 MLOAD PUSH2 0x5D4 SWAP2 SWAP1 PUSH2 0x2FDD JUMP JUMPDEST PUSH1 0x40 MLOAD DUP1 SWAP2 SUB SWAP1 RETURN JUMPDEST CALLVALUE DUP1 ISZERO PUSH2 0x5E9 JUMPI PUSH1 0x0 DUP1 REVERT JUMPDEST POP PUSH2 0x604 PUSH1 0x4 DUP1 CALLDATASIZE SUB DUP2 ADD SWAP1 PUSH2 0x5FF SWAP2 SWAP1 PUSH2 0x27FB JUMP JUMPDEST PUSH2 0x12CB JUMP JUMPDEST PUSH1 0x40 MLOAD PUSH2 0x611 SWAP2 SWAP1 PUSH2 0x2F2B JUMP JUMPDEST PUSH1 0x40 MLOAD DUP1 SWAP2 SUB SWAP1 RETURN JUMPDEST CALLVALUE DUP1 ISZERO PUSH2 0x626 JUMPI PUSH1 0x0 DUP1 REVERT JUMPDEST POP PUSH2 0x641 PUSH1 0x4 DUP1 CALLDATASIZE SUB DUP2 ADD SWAP1 PUSH2 0x63C SWAP2 SWAP1 PUSH2 0x27CE JUMP JUMPDEST PUSH2 0x135F JUMP JUMPDEST STOP JUMPDEST PUSH1 0x0 PUSH32 0x80AC58CD00000000000000000000000000000000000000000000000000000000 PUSH28 0xFFFFFFFFFFFFFFFFFFFFFFFFFFFFFFFFFFFFFFFFFFFFFFFFFFFFFFFF NOT AND DUP3 PUSH28 0xFFFFFFFFFFFFFFFFFFFFFFFFFFFFFFFFFFFFFFFFFFFFFFFFFFFFFFFF NOT AND EQ DUP1 PUSH2 0x70E JUMPI POP PUSH32 0x5B5E139F00000000000000000000000000000000000000000000000000000000 PUSH28 0xFFFFFFFFFFFFFFFFFFFFFFFFFFFFFFFFFFFFFFFFFFFFFFFFFFFFFFFF NOT AND DUP3 PUSH28 0xFFFFFFFFFFFFFFFFFFFFFFFFFFFFFFFFFFFFFFFFFFFFFFFFFFFFFFFF NOT AND EQ JUMPDEST DUP1 PUSH2 0x71E JUMPI POP PUSH2 0x71D DUP3 PUSH2 0x13E3 JUMP JUMPDEST JUMPDEST SWAP1 POP SWAP2 SWAP1 POP JUMP JUMPDEST PUSH1 0x60 PUSH1 0x0 DUP1 SLOAD PUSH2 0x734 SWAP1 PUSH2 0x3444 JUMP JUMPDEST DUP1 PUSH1 0x1F ADD PUSH1 0x20 DUP1 SWAP2 DIV MUL PUSH1 0x20 ADD PUSH1 0x40 MLOAD SWAP1 DUP2 ADD PUSH1 0x40 MSTORE DUP1 SWAP3 SWAP2 SWAP1 DUP2 DUP2 MSTORE PUSH1 0x20 ADD DUP3 DUP1 SLOAD PUSH2 0x760 SWAP1 PUSH2 0x3444 JUMP JUMPDEST DUP1 ISZERO PUSH2 0x7AD JUMPI DUP1 PUSH1 0x1F LT PUSH2 0x782 JUMPI PUSH2 0x100 DUP1 DUP4 SLOAD DIV MUL DUP4 MSTORE SWAP2 PUSH1 0x20 ADD SWAP2 PUSH2 0x7AD JUMP JUMPDEST DUP3 ADD SWAP2 SWAP1 PUSH1 0x0 MSTORE PUSH1 0x20 PUSH1 0x0 KECCAK256 SWAP1 JUMPDEST DUP2 SLOAD DUP2 MSTORE SWAP1 PUSH1 0x1 ADD SWAP1 PUSH1 0x20 ADD DUP1 DUP4 GT PUSH2 0x790 JUMPI DUP3 SWAP1 SUB PUSH1 0x1F AND DUP3 ADD SWAP2 JUMPDEST POP POP POP POP POP SWAP1 POP SWAP1 JUMP JUMPDEST PUSH1 0x0 PUSH2 0x7C2 DUP3 PUSH2 0x144D JUMP JUMPDEST PUSH1 0x4 PUSH1 0x0 DUP4 DUP2 MSTORE PUSH1 0x20 ADD SWAP1 DUP2 MSTORE PUSH1 0x20 ADD PUSH1 0x0 KECCAK256 PUSH1 0x0 SWAP1 SLOAD SWAP1 PUSH2 0x100 EXP SWAP1 DIV PUSH20 0xFFFFFFFFFFFFFFFFFFFFFFFFFFFFFFFFFFFFFFFF AND SWAP1 POP SWAP2 SWAP1 POP JUMP JUMPDEST PUSH1 0x0 PUSH2 0x808 DUP3 PUSH2 0xBEA JUMP JUMPDEST SWAP1 POP DUP1 PUSH20 0xFFFFFFFFFFFFFFFFFFFFFFFFFFFFFFFFFFFFFFFF AND DUP4 PUSH20 0xFFFFFFFFFFFFFFFFFFFFFFFFFFFFFFFFFFFFFFFF AND EQ ISZERO PUSH2 0x879 JUMPI PUSH1 0x40 MLOAD PUSH32 0x8C379A000000000000000000000000000000000000000000000000000000000 DUP2 MSTORE PUSH1 0x4 ADD PUSH2 0x870 SWAP1 PUSH2 0x317F JUMP JUMPDEST PUSH1 0x40 MLOAD DUP1 SWAP2 SUB SWAP1 REVERT JUMPDEST DUP1 PUSH20 0xFFFFFFFFFFFFFFFFFFFFFFFFFFFFFFFFFFFFFFFF AND PUSH2 0x898 PUSH2 0x1498 JUMP JUMPDEST PUSH20 0xFFFFFFFFFFFFFFFFFFFFFFFFFFFFFFFFFFFFFFFF AND EQ DUP1 PUSH2 0x8C7 JUMPI POP PUSH2 0x8C6 DUP2 PUSH2 0x8C1 PUSH2 0x1498 JUMP JUMPDEST PUSH2 0x12CB JUMP JUMPDEST JUMPDEST PUSH2 0x906 JUMPI PUSH1 0x40 MLOAD PUSH32 0x8C379A000000000000000000000000000000000000000000000000000000000 DUP2 MSTORE PUSH1 0x4 ADD PUSH2 0x8FD SWAP1 PUSH2 0x319F JUMP JUMPDEST PUSH1 0x40 MLOAD DUP1 SWAP2 SUB SWAP1 REVERT JUMPDEST PUSH2 0x910 DUP4 DUP4 PUSH2 0x14A0 JUMP JUMPDEST POP POP POP JUMP JUMPDEST PUSH1 0x9 SLOAD DUP2 JUMP JUMPDEST PUSH32 0x0 PUSH20 0xFFFFFFFFFFFFFFFFFFFFFFFFFFFFFFFFFFFFFFFF AND CALLER PUSH20 0xFFFFFFFFFFFFFFFFFFFFFFFFFFFFFFFFFFFFFFFF AND EQ PUSH2 0x9CD JUMPI CALLER PUSH32 0x0 PUSH1 0x40 MLOAD PUSH32 0x1CF993F400000000000000000000000000000000000000000000000000000000 DUP2 MSTORE PUSH1 0x4 ADD PUSH2 0x9C4 SWAP3 SWAP2 SWAP1 PUSH2 0x2E9B JUMP JUMPDEST PUSH1 0x40 MLOAD DUP1 SWAP2 SUB SWAP1 REVERT JUMPDEST PUSH2 0x9D7 DUP3 DUP3 PUSH2 0x1559 JUMP JUMPDEST POP POP JUMP JUMPDEST PUSH2 0x9EC PUSH2 0x9E6 PUSH2 0x1498 JUMP JUMPDEST DUP3 PUSH2 0x16E8 JUMP JUMPDEST PUSH2 0xA2B JUMPI PUSH1 0x40 MLOAD PUSH32 0x8C379A000000000000000000000000000000000000000000000000000000000 DUP2 MSTORE PUSH1 0x4 ADD PUSH2 0xA22 SWAP1 PUSH2 0x2FFF JUMP JUMPDEST PUSH1 0x40 MLOAD DUP1 SWAP2 SUB SWAP1 REVERT JUMPDEST PUSH2 0xA36 DUP4 DUP4 DUP4 PUSH2 0x177D JUMP JUMPDEST POP POP POP JUMP JUMPDEST PUSH1 0x60 PUSH1 0xA DUP3 DUP2 SLOAD DUP2 LT PUSH2 0xA51 JUMPI PUSH2 0xA50 PUSH2 0x35DD JUMP JUMPDEST JUMPDEST SWAP1 PUSH1 0x0 MSTORE PUSH1 0x20 PUSH1 0x0 KECCAK256 ADD DUP1 SLOAD PUSH2 0xA66 SWAP1 PUSH2 0x3444 JUMP JUMPDEST DUP1 PUSH1 0x1F ADD PUSH1 0x20 DUP1 SWAP2 DIV MUL PUSH1 0x20 ADD PUSH1 0x40 MLOAD SWAP1 DUP2 ADD PUSH1 0x40 MSTORE DUP1 SWAP3 SWAP2 SWAP1 DUP2 DUP2 MSTORE PUSH1 0x20 ADD DUP3 DUP1 SLOAD PUSH2 0xA92 SWAP1 PUSH2 0x3444 JUMP JUMPDEST DUP1 ISZERO PUSH2 0xADF JUMPI DUP1 PUSH1 0x1F LT PUSH2 0xAB4 JUMPI PUSH2 0x100 DUP1 DUP4 SLOAD DIV MUL DUP4 MSTORE SWAP2 PUSH1 0x20 ADD SWAP2 PUSH2 0xADF JUMP JUMPDEST DUP3 ADD SWAP2 SWAP1 PUSH1 0x0 MSTORE PUSH1 0x20 PUSH1 0x0 KECCAK256 SWAP1 JUMPDEST DUP2 SLOAD DUP2 MSTORE SWAP1 PUSH1 0x1 ADD SWAP1 PUSH1 0x20 ADD DUP1 DUP4 GT PUSH2 0xAC2 JUMPI DUP3 SWAP1 SUB PUSH1 0x1F AND DUP3 ADD SWAP2 JUMPDEST POP POP POP POP POP SWAP1 POP SWAP2 SWAP1 POP JUMP JUMPDEST PUSH2 0xAF3 PUSH2 0x1A77 JUMP JUMPDEST PUSH1 0x0 SELFBALANCE SWAP1 POP PUSH1 0x0 CALLER PUSH20 0xFFFFFFFFFFFFFFFFFFFFFFFFFFFFFFFFFFFFFFFF AND DUP3 PUSH1 0x40 MLOAD PUSH2 0xB1E SWAP1 PUSH2 0x2E6B JUMP JUMPDEST PUSH1 0x0 PUSH1 0x40 MLOAD DUP1 DUP4 SUB DUP2 DUP6 DUP8 GAS CALL SWAP3 POP POP POP RETURNDATASIZE DUP1 PUSH1 0x0 DUP2 EQ PUSH2 0xB5B JUMPI PUSH1 0x40 MLOAD SWAP2 POP PUSH1 0x1F NOT PUSH1 0x3F RETURNDATASIZE ADD AND DUP3 ADD PUSH1 0x40 MSTORE RETURNDATASIZE DUP3 MSTORE RETURNDATASIZE PUSH1 0x0 PUSH1 0x20 DUP5 ADD RETURNDATACOPY PUSH2 0xB60 JUMP JUMPDEST PUSH1 0x60 SWAP2 POP JUMPDEST POP POP SWAP1 POP DUP1 PUSH2 0xB9B JUMPI PUSH1 0x40 MLOAD PUSH32 0xCA7E25B700000000000000000000000000000000000000000000000000000000 DUP2 MSTORE PUSH1 0x4 ADD PUSH1 0x40 MLOAD DUP1 SWAP2 SUB SWAP1 REVERT JUMPDEST POP POP JUMP JUMPDEST PUSH2 0xBBA DUP4 DUP4 DUP4 PUSH1 0x40 MLOAD DUP1 PUSH1 0x20 ADD PUSH1 0x40 MSTORE DUP1 PUSH1 0x0 DUP2 MSTORE POP PUSH2 0x1156 JUMP JUMPDEST POP POP POP JUMP JUMPDEST PUSH2 0xBC7 PUSH2 0x257D JUMP JUMPDEST PUSH1 0x40 MLOAD DUP1 PUSH1 0x60 ADD PUSH1 0x40 MSTORE DUP1 PUSH1 0xA DUP2 MSTORE PUSH1 0x20 ADD PUSH1 0x1E DUP2 MSTORE PUSH1 0x20 ADD PUSH1 0x64 DUP2 MSTORE POP SWAP1 POP SWAP1 JUMP JUMPDEST PUSH1 0x0 DUP1 PUSH2 0xBF6 DUP4 PUSH2 0x1AF5 JUMP JUMPDEST SWAP1 POP PUSH1 0x0 PUSH20 0xFFFFFFFFFFFFFFFFFFFFFFFFFFFFFFFFFFFFFFFF AND DUP2 PUSH20 0xFFFFFFFFFFFFFFFFFFFFFFFFFFFFFFFFFFFFFFFF AND EQ ISZERO PUSH2 0xC68 JUMPI PUSH1 0x40 MLOAD PUSH32 0x8C379A000000000000000000000000000000000000000000000000000000000 DUP2 MSTORE PUSH1 0x4 ADD PUSH2 0xC5F SWAP1 PUSH2 0x315F JUMP JUMPDEST PUSH1 0x40 MLOAD DUP1 SWAP2 SUB SWAP1 REVERT JUMPDEST DUP1 SWAP2 POP POP SWAP2 SWAP1 POP JUMP JUMPDEST PUSH1 0x0 PUSH1 0x9 SLOAD SWAP1 POP SWAP1 JUMP JUMPDEST PUSH1 0x0 DUP1 PUSH20 0xFFFFFFFFFFFFFFFFFFFFFFFFFFFFFFFFFFFFFFFF AND DUP3 PUSH20 0xFFFFFFFFFFFFFFFFFFFFFFFFFFFFFFFFFFFFFFFF AND EQ ISZERO PUSH2 0xCEC JUMPI PUSH1 0x40 MLOAD PUSH32 0x8C379A000000000000000000000000000000000000000000000000000000000 DUP2 MSTORE PUSH1 0x4 ADD PUSH2 0xCE3 SWAP1 PUSH2 0x30DF JUMP JUMPDEST PUSH1 0x40 MLOAD DUP1 SWAP2 SUB SWAP1 REVERT JUMPDEST PUSH1 0x3 PUSH1 0x0 DUP4 PUSH20 0xFFFFFFFFFFFFFFFFFFFFFFFFFFFFFFFFFFFFFFFF AND PUSH20 0xFFFFFFFFFFFFFFFFFFFFFFFFFFFFFFFFFFFFFFFF AND DUP2 MSTORE PUSH1 0x20 ADD SWAP1 DUP2 MSTORE PUSH1 0x20 ADD PUSH1 0x0 KECCAK256 SLOAD SWAP1 POP SWAP2 SWAP1 POP JUMP JUMPDEST PUSH2 0xD3B PUSH2 0x1A77 JUMP JUMPDEST PUSH2 0xD45 PUSH1 0x0 PUSH2 0x1B32 JUMP JUMPDEST JUMP JUMPDEST PUSH1 0x0 PUSH32 0x0 SWAP1 POP SWAP1 JUMP JUMPDEST PUSH1 0x0 PUSH1 0x7 PUSH1 0x0 SWAP1 SLOAD SWAP1 PUSH2 0x100 EXP SWAP1 DIV PUSH20 0xFFFFFFFFFFFFFFFFFFFFFFFFFFFFFFFFFFFFFFFF AND SWAP1 POP SWAP1 JUMP JUMPDEST PUSH1 0x60 PUSH1 0x1 DUP1 SLOAD PUSH2 0xDA8 SWAP1 PUSH2 0x3444 JUMP JUMPDEST DUP1 PUSH1 0x1F ADD PUSH1 0x20 DUP1 SWAP2 DIV MUL PUSH1 0x20 ADD PUSH1 0x40 MLOAD SWAP1 DUP2 ADD PUSH1 0x40 MSTORE DUP1 SWAP3 SWAP2 SWAP1 DUP2 DUP2 MSTORE PUSH1 0x20 ADD DUP3 DUP1 SLOAD PUSH2 0xDD4 SWAP1 PUSH2 0x3444 JUMP JUMPDEST DUP1 ISZERO PUSH2 0xE21 JUMPI DUP1 PUSH1 0x1F LT PUSH2 0xDF6 JUMPI PUSH2 0x100 DUP1 DUP4 SLOAD DIV MUL DUP4 MSTORE SWAP2 PUSH1 0x20 ADD SWAP2 PUSH2 0xE21 JUMP JUMPDEST DUP3 ADD SWAP2 SWAP1 PUSH1 0x0 MSTORE PUSH1 0x20 PUSH1 0x0 KECCAK256 SWAP1 JUMPDEST DUP2 SLOAD DUP2 MSTORE SWAP1 PUSH1 0x1 ADD SWAP1 PUSH1 0x20 ADD DUP1 DUP4 GT PUSH2 0xE04 JUMPI DUP3 SWAP1 SUB PUSH1 0x1F AND DUP3 ADD SWAP2 JUMPDEST POP POP POP POP POP SWAP1 POP SWAP1 JUMP JUMPDEST PUSH2 0xE3D PUSH2 0xE36 PUSH2 0x1498 JUMP JUMPDEST DUP4 DUP4 PUSH2 0x1BF8 JUMP JUMPDEST POP POP JUMP JUMPDEST PUSH1 0x8 PUSH1 0x20 MSTORE DUP1 PUSH1 0x0 MSTORE PUSH1 0x40 PUSH1 0x0 KECCAK256 PUSH1 0x0 SWAP2 POP SLOAD SWAP1 PUSH2 0x100 EXP SWAP1 DIV PUSH20 0xFFFFFFFFFFFFFFFFFFFFFFFFFFFFFFFFFFFFFFFF AND DUP2 JUMP JUMPDEST PUSH1 0x0 DUP1 PUSH1 0x0 SWAP1 POP PUSH1 0x0 PUSH2 0xE85 PUSH2 0xBBF JUMP JUMPDEST SWAP1 POP PUSH1 0x0 JUMPDEST PUSH1 0x3 DUP2 LT ISZERO PUSH2 0xF1E JUMPI DUP3 DUP6 LT ISZERO DUP1 ISZERO PUSH2 0xEC4 JUMPI POP DUP2 DUP2 PUSH1 0x3 DUP2 LT PUSH2 0xEB1 JUMPI PUSH2 0xEB0 PUSH2 0x35DD JUMP JUMPDEST JUMPDEST PUSH1 0x20 MUL ADD MLOAD DUP4 PUSH2 0xEC1 SWAP2 SWAP1 PUSH2 0x32D7 JUMP JUMPDEST DUP6 LT JUMPDEST ISZERO PUSH2 0xEE6 JUMPI DUP1 PUSH1 0x2 DUP2 GT ISZERO PUSH2 0xEDC JUMPI PUSH2 0xEDB PUSH2 0x357F JUMP JUMPDEST JUMPDEST SWAP4 POP POP POP POP PUSH2 0xF51 JUMP JUMPDEST DUP2 DUP2 PUSH1 0x3 DUP2 LT PUSH2 0xEF9 JUMPI PUSH2 0xEF8 PUSH2 0x35DD JUMP JUMPDEST JUMPDEST PUSH1 0x20 MUL ADD MLOAD DUP4 PUSH2 0xF09 SWAP2 SWAP1 PUSH2 0x32D7 JUMP JUMPDEST SWAP3 POP DUP1 DUP1 PUSH2 0xF16 SWAP1 PUSH2 0x34A7 JUMP JUMPDEST SWAP2 POP POP PUSH2 0xE8A JUMP JUMPDEST POP PUSH1 0x40 MLOAD PUSH32 0x12806C9D00000000000000000000000000000000000000000000000000000000 DUP2 MSTORE PUSH1 0x4 ADD PUSH1 0x40 MLOAD DUP1 SWAP2 SUB SWAP1 REVERT JUMPDEST SWAP2 SWAP1 POP JUMP JUMPDEST PUSH1 0x0 PUSH32 0x0 CALLVALUE LT ISZERO PUSH2 0xFB2 JUMPI PUSH1 0x40 MLOAD PUSH32 0xB90F491000000000000000000000000000000000000000000000000000000000 DUP2 MSTORE PUSH1 0x4 ADD PUSH1 0x40 MLOAD DUP1 SWAP2 SUB SWAP1 REVERT JUMPDEST PUSH32 0x0 PUSH20 0xFFFFFFFFFFFFFFFFFFFFFFFFFFFFFFFFFFFFFFFF AND PUSH4 0x5D3B1D30 PUSH32 0x0 PUSH32 0x0 PUSH1 0x3 PUSH32 0x0 PUSH1 0x1 PUSH1 0x40 MLOAD DUP7 PUSH4 0xFFFFFFFF AND PUSH1 0xE0 SHL DUP2 MSTORE PUSH1 0x4 ADD PUSH2 0x1075 SWAP6 SWAP5 SWAP4 SWAP3 SWAP2 SWAP1 PUSH2 0x2F46 JUMP JUMPDEST PUSH1 0x20 PUSH1 0x40 MLOAD DUP1 DUP4 SUB DUP2 PUSH1 0x0 DUP8 DUP1 EXTCODESIZE ISZERO DUP1 ISZERO PUSH2 0x108F JUMPI PUSH1 0x0 DUP1 REVERT JUMPDEST POP GAS CALL ISZERO DUP1 ISZERO PUSH2 0x10A3 JUMPI RETURNDATASIZE PUSH1 0x0 DUP1 RETURNDATACOPY RETURNDATASIZE PUSH1 0x0 REVERT JUMPDEST POP POP POP POP PUSH1 0x40 MLOAD RETURNDATASIZE PUSH1 0x1F NOT PUSH1 0x1F DUP3 ADD AND DUP3 ADD DUP1 PUSH1 0x40 MSTORE POP DUP2 ADD SWAP1 PUSH2 0x10C7 SWAP2 SWAP1 PUSH2 0x2A18 JUMP JUMPDEST SWAP1 POP CALLER PUSH1 0x8 PUSH1 0x0 DUP4 DUP2 MSTORE PUSH1 0x20 ADD SWAP1 DUP2 MSTORE PUSH1 0x20 ADD PUSH1 0x0 KECCAK256 PUSH1 0x0 PUSH2 0x100 EXP DUP2 SLOAD DUP2 PUSH20 0xFFFFFFFFFFFFFFFFFFFFFFFFFFFFFFFFFFFFFFFF MUL NOT AND SWAP1 DUP4 PUSH20 0xFFFFFFFFFFFFFFFFFFFFFFFFFFFFFFFFFFFFFFFF AND MUL OR SWAP1 SSTORE POP DUP1 PUSH32 0xF873236E6CC0ECC5BE1A9A35C95EE5B8D1AC4CC7BFEF0CC5060391D6CC98E26B CALLER PUSH1 0x40 MLOAD PUSH2 0x114B SWAP2 SWAP1 PUSH2 0x2E80 JUMP JUMPDEST PUSH1 0x40 MLOAD DUP1 SWAP2 SUB SWAP1 LOG2 SWAP1 JUMP JUMPDEST PUSH2 0x1167 PUSH2 0x1161 PUSH2 0x1498 JUMP JUMPDEST DUP4 PUSH2 0x16E8 JUMP JUMPDEST PUSH2 0x11A6 JUMPI PUSH1 0x40 MLOAD PUSH32 0x8C379A000000000000000000000000000000000000000000000000000000000 DUP2 MSTORE PUSH1 0x4 ADD PUSH2 0x119D SWAP1 PUSH2 0x2FFF JUMP JUMPDEST PUSH1 0x40 MLOAD DUP1 SWAP2 SUB SWAP1 REVERT JUMPDEST PUSH2 0x11B2 DUP5 DUP5 DUP5 DUP5 PUSH2 0x1D65 JUMP JUMPDEST POP POP POP POP JUMP JUMPDEST PUSH1 0x60 PUSH2 0x11C3 DUP3 PUSH2 0x144D JUMP JUMPDEST PUSH1 0x0 PUSH1 0x6 PUSH1 0x0 DUP5 DUP2 MSTORE PUSH1 0x20 ADD SWAP1 DUP2 MSTORE PUSH1 0x20 ADD PUSH1 0x0 KECCAK256 DUP1 SLOAD PUSH2 0x11E3 SWAP1 PUSH2 0x3444 JUMP JUMPDEST DUP1 PUSH1 0x1F ADD PUSH1 0x20 DUP1 SWAP2 DIV MUL PUSH1 0x20 ADD PUSH1 0x40 MLOAD SWAP1 DUP2 ADD PUSH1 0x40 MSTORE DUP1 SWAP3 SWAP2 SWAP1 DUP2 DUP2 MSTORE PUSH1 0x20 ADD DUP3 DUP1 SLOAD PUSH2 0x120F SWAP1 PUSH2 0x3444 JUMP JUMPDEST DUP1 ISZERO PUSH2 0x125C JUMPI DUP1 PUSH1 0x1F LT PUSH2 0x1231 JUMPI PUSH2 0x100 DUP1 DUP4 SLOAD DIV MUL DUP4 MSTORE SWAP2 PUSH1 0x20 ADD SWAP2 PUSH2 0x125C JUMP JUMPDEST DUP3 ADD SWAP2 SWAP1 PUSH1 0x0 MSTORE PUSH1 0x20 PUSH1 0x0 KECCAK256 SWAP1 JUMPDEST DUP2 SLOAD DUP2 MSTORE SWAP1 PUSH1 0x1 ADD SWAP1 PUSH1 0x20 ADD DUP1 DUP4 GT PUSH2 0x123F JUMPI DUP3 SWAP1 SUB PUSH1 0x1F AND DUP3 ADD SWAP2 JUMPDEST POP POP POP POP POP SWAP1 POP PUSH1 0x0 PUSH2 0x126D PUSH2 0x1DC1 JUMP JUMPDEST SWAP1 POP PUSH1 0x0 DUP2 MLOAD EQ ISZERO PUSH2 0x1283 JUMPI DUP2 SWAP3 POP POP POP PUSH2 0x12C6 JUMP JUMPDEST PUSH1 0x0 DUP3 MLOAD GT ISZERO PUSH2 0x12B8 JUMPI DUP1 DUP3 PUSH1 0x40 MLOAD PUSH1 0x20 ADD PUSH2 0x12A0 SWAP3 SWAP2 SWAP1 PUSH2 0x2E47 JUMP JUMPDEST PUSH1 0x40 MLOAD PUSH1 0x20 DUP2 DUP4 SUB SUB DUP2 MSTORE SWAP1 PUSH1 0x40 MSTORE SWAP3 POP POP POP PUSH2 0x12C6 JUMP JUMPDEST PUSH2 0x12C1 DUP5 PUSH2 0x1DD8 JUMP JUMPDEST SWAP3 POP POP POP JUMPDEST SWAP2 SWAP1 POP JUMP JUMPDEST PUSH1 0x0 PUSH1 0x5 PUSH1 0x0 DUP5 PUSH20 0xFFFFFFFFFFFFFFFFFFFFFFFFFFFFFFFFFFFFFFFF AND PUSH20 0xFFFFFFFFFFFFFFFFFFFFFFFFFFFFFFFFFFFFFFFF AND DUP2 MSTORE PUSH1 0x20 ADD SWAP1 DUP2 MSTORE PUSH1 0x20 ADD PUSH1 0x0 KECCAK256 PUSH1 0x0 DUP4 PUSH20 0xFFFFFFFFFFFFFFFFFFFFFFFFFFFFFFFFFFFFFFFF AND PUSH20 0xFFFFFFFFFFFFFFFFFFFFFFFFFFFFFFFFFFFFFFFF AND DUP2 MSTORE PUSH1 0x20 ADD SWAP1 DUP2 MSTORE PUSH1 0x20 ADD PUSH1 0x0 KECCAK256 PUSH1 0x0 SWAP1 SLOAD SWAP1 PUSH2 0x100 EXP SWAP1 DIV PUSH1 0xFF AND SWAP1 POP SWAP3 SWAP2 POP POP JUMP JUMPDEST PUSH2 0x1367 PUSH2 0x1A77 JUMP JUMPDEST PUSH1 0x0 PUSH20 0xFFFFFFFFFFFFFFFFFFFFFFFFFFFFFFFFFFFFFFFF AND DUP2 PUSH20 0xFFFFFFFFFFFFFFFFFFFFFFFFFFFFFFFFFFFFFFFF AND EQ ISZERO PUSH2 0x13D7 JUMPI PUSH1 0x40 MLOAD PUSH32 0x8C379A000000000000000000000000000000000000000000000000000000000 DUP2 MSTORE PUSH1 0x4 ADD PUSH2 0x13CE SWAP1 PUSH2 0x303F JUMP JUMPDEST PUSH1 0x40 MLOAD DUP1 SWAP2 SUB SWAP1 REVERT JUMPDEST PUSH2 0x13E0 DUP2 PUSH2 0x1B32 JUMP JUMPDEST POP JUMP JUMPDEST PUSH1 0x0 PUSH32 0x1FFC9A700000000000000000000000000000000000000000000000000000000 PUSH28 0xFFFFFFFFFFFFFFFFFFFFFFFFFFFFFFFFFFFFFFFFFFFFFFFFFFFFFFFF NOT AND DUP3 PUSH28 0xFFFFFFFFFFFFFFFFFFFFFFFFFFFFFFFFFFFFFFFFFFFFFFFFFFFFFFFF NOT AND EQ SWAP1 POP SWAP2 SWAP1 POP JUMP JUMPDEST PUSH2 0x1456 DUP2 PUSH2 0x1E40 JUMP JUMPDEST PUSH2 0x1495 JUMPI PUSH1 0x40 MLOAD PUSH32 0x8C379A000000000000000000000000000000000000000000000000000000000 DUP2 MSTORE PUSH1 0x4 ADD PUSH2 0x148C SWAP1 PUSH2 0x315F JUMP JUMPDEST PUSH1 0x40 MLOAD DUP1 SWAP2 SUB SWAP1 REVERT JUMPDEST POP JUMP JUMPDEST PUSH1 0x0 CALLER SWAP1 POP SWAP1 JUMP JUMPDEST DUP2 PUSH1 0x4 PUSH1 0x0 DUP4 DUP2 MSTORE PUSH1 0x20 ADD SWAP1 DUP2 MSTORE PUSH1 0x20 ADD PUSH1 0x0 KECCAK256 PUSH1 0x0 PUSH2 0x100 EXP DUP2 SLOAD DUP2 PUSH20 0xFFFFFFFFFFFFFFFFFFFFFFFFFFFFFFFFFFFFFFFF MUL NOT AND SWAP1 DUP4 PUSH20 0xFFFFFFFFFFFFFFFFFFFFFFFFFFFFFFFFFFFFFFFF AND MUL OR SWAP1 SSTORE POP DUP1 DUP3 PUSH20 0xFFFFFFFFFFFFFFFFFFFFFFFFFFFFFFFFFFFFFFFF AND PUSH2 0x1513 DUP4 PUSH2 0xBEA JUMP JUMPDEST PUSH20 0xFFFFFFFFFFFFFFFFFFFFFFFFFFFFFFFFFFFFFFFF AND PUSH32 0x8C5BE1E5EBEC7D5BD14F71427D1E84F3DD0314C0F7B2291E5B200AC8C7C3B925 PUSH1 0x40 MLOAD PUSH1 0x40 MLOAD DUP1 SWAP2 SUB SWAP1 LOG4 POP POP JUMP JUMPDEST PUSH1 0x0 PUSH1 0x8 PUSH1 0x0 DUP5 DUP2 MSTORE PUSH1 0x20 ADD SWAP1 DUP2 MSTORE PUSH1 0x20 ADD PUSH1 0x0 KECCAK256 PUSH1 0x0 SWAP1 SLOAD SWAP1 PUSH2 0x100 EXP SWAP1 DIV PUSH20 0xFFFFFFFFFFFFFFFFFFFFFFFFFFFFFFFFFFFFFFFF AND SWAP1 POP PUSH1 0x0 PUSH1 0x9 SLOAD SWAP1 POP PUSH2 0x15A2 DUP3 DUP3 PUSH2 0x1E81 JUMP JUMPDEST PUSH1 0x0 PUSH1 0x64 DUP5 PUSH1 0x0 DUP2 MLOAD DUP2 LT PUSH2 0x15BA JUMPI PUSH2 0x15B9 PUSH2 0x35DD JUMP JUMPDEST JUMPDEST PUSH1 0x20 MUL PUSH1 0x20 ADD ADD MLOAD PUSH2 0x15CC SWAP2 SWAP1 PUSH2 0x34F0 JUMP JUMPDEST SWAP1 POP PUSH1 0x0 PUSH2 0x15D9 DUP3 PUSH2 0xE74 JUMP JUMPDEST SWAP1 POP PUSH2 0x15E5 DUP5 DUP5 PUSH2 0x1E81 JUMP JUMPDEST PUSH2 0x16A7 DUP4 PUSH1 0xA DUP4 PUSH1 0x2 DUP2 GT ISZERO PUSH2 0x15FE JUMPI PUSH2 0x15FD PUSH2 0x357F JUMP JUMPDEST JUMPDEST DUP2 SLOAD DUP2 LT PUSH2 0x160F JUMPI PUSH2 0x160E PUSH2 0x35DD JUMP JUMPDEST JUMPDEST SWAP1 PUSH1 0x0 MSTORE PUSH1 0x20 PUSH1 0x0 KECCAK256 ADD DUP1 SLOAD PUSH2 0x1624 SWAP1 PUSH2 0x3444 JUMP JUMPDEST DUP1 PUSH1 0x1F ADD PUSH1 0x20 DUP1 SWAP2 DIV MUL PUSH1 0x20 ADD PUSH1 0x40 MLOAD SWAP1 DUP2 ADD PUSH1 0x40 MSTORE DUP1 SWAP3 SWAP2 SWAP1 DUP2 DUP2 MSTORE PUSH1 0x20 ADD DUP3 DUP1 SLOAD PUSH2 0x1650 SWAP1 PUSH2 0x3444 JUMP JUMPDEST DUP1 ISZERO PUSH2 0x169D JUMPI DUP1 PUSH1 0x1F LT PUSH2 0x1672 JUMPI PUSH2 0x100 DUP1 DUP4 SLOAD DIV MUL DUP4 MSTORE SWAP2 PUSH1 0x20 ADD SWAP2 PUSH2 0x169D JUMP JUMPDEST DUP3 ADD SWAP2 SWAP1 PUSH1 0x0 MSTORE PUSH1 0x20 PUSH1 0x0 KECCAK256 SWAP1 JUMPDEST DUP2 SLOAD DUP2 MSTORE SWAP1 PUSH1 0x1 ADD SWAP1 PUSH1 0x20 ADD DUP1 DUP4 GT PUSH2 0x1680 JUMPI DUP3 SWAP1 SUB PUSH1 0x1F AND DUP3 ADD SWAP2 JUMPDEST POP POP POP POP POP PUSH2 0x1E9F JUMP JUMPDEST PUSH32 0x8A269F26B688E110E9CBD887D163DAB35CAE678FA353A0292DE532C0CAC1ECDC DUP2 DUP6 PUSH1 0x40 MLOAD PUSH2 0x16D8 SWAP3 SWAP2 SWAP1 PUSH2 0x2FB4 JUMP JUMPDEST PUSH1 0x40 MLOAD DUP1 SWAP2 SUB SWAP1 LOG1 POP POP POP POP POP POP JUMP JUMPDEST PUSH1 0x0 DUP1 PUSH2 0x16F4 DUP4 PUSH2 0xBEA JUMP JUMPDEST SWAP1 POP DUP1 PUSH20 0xFFFFFFFFFFFFFFFFFFFFFFFFFFFFFFFFFFFFFFFF AND DUP5 PUSH20 0xFFFFFFFFFFFFFFFFFFFFFFFFFFFFFFFFFFFFFFFF AND EQ DUP1 PUSH2 0x1736 JUMPI POP PUSH2 0x1735 DUP2 DUP6 PUSH2 0x12CB JUMP JUMPDEST JUMPDEST DUP1 PUSH2 0x1774 JUMPI POP DUP4 PUSH20 0xFFFFFFFFFFFFFFFFFFFFFFFFFFFFFFFFFFFFFFFF AND PUSH2 0x175C DUP5 PUSH2 0x7B7 JUMP JUMPDEST PUSH20 0xFFFFFFFFFFFFFFFFFFFFFFFFFFFFFFFFFFFFFFFF AND EQ JUMPDEST SWAP2 POP POP SWAP3 SWAP2 POP POP JUMP JUMPDEST DUP3 PUSH20 0xFFFFFFFFFFFFFFFFFFFFFFFFFFFFFFFFFFFFFFFF AND PUSH2 0x179D DUP3 PUSH2 0xBEA JUMP JUMPDEST PUSH20 0xFFFFFFFFFFFFFFFFFFFFFFFFFFFFFFFFFFFFFFFF AND EQ PUSH2 0x17F3 JUMPI PUSH1 0x40 MLOAD PUSH32 0x8C379A000000000000000000000000000000000000000000000000000000000 DUP2 MSTORE PUSH1 0x4 ADD PUSH2 0x17EA SWAP1 PUSH2 0x305F JUMP JUMPDEST PUSH1 0x40 MLOAD DUP1 SWAP2 SUB SWAP1 REVERT JUMPDEST PUSH1 0x0 PUSH20 0xFFFFFFFFFFFFFFFFFFFFFFFFFFFFFFFFFFFFFFFF AND DUP3 PUSH20 0xFFFFFFFFFFFFFFFFFFFFFFFFFFFFFFFFFFFFFFFF AND EQ ISZERO PUSH2 0x1863 JUMPI PUSH1 0x40 MLOAD PUSH32 0x8C379A000000000000000000000000000000000000000000000000000000000 DUP2 MSTORE PUSH1 0x4 ADD PUSH2 0x185A SWAP1 PUSH2 0x309F JUMP JUMPDEST PUSH1 0x40 MLOAD DUP1 SWAP2 SUB SWAP1 REVERT JUMPDEST PUSH2 0x1870 DUP4 DUP4 DUP4 PUSH1 0x1 PUSH2 0x1F13 JUMP JUMPDEST DUP3 PUSH20 0xFFFFFFFFFFFFFFFFFFFFFFFFFFFFFFFFFFFFFFFF AND PUSH2 0x1890 DUP3 PUSH2 0xBEA JUMP JUMPDEST PUSH20 0xFFFFFFFFFFFFFFFFFFFFFFFFFFFFFFFFFFFFFFFF AND EQ PUSH2 0x18E6 JUMPI PUSH1 0x40 MLOAD PUSH32 0x8C379A000000000000000000000000000000000000000000000000000000000 DUP2 MSTORE PUSH1 0x4 ADD PUSH2 0x18DD SWAP1 PUSH2 0x305F JUMP JUMPDEST PUSH1 0x40 MLOAD DUP1 SWAP2 SUB SWAP1 REVERT JUMPDEST PUSH1 0x4 PUSH1 0x0 DUP3 DUP2 MSTORE PUSH1 0x20 ADD SWAP1 DUP2 MSTORE PUSH1 0x20 ADD PUSH1 0x0 KECCAK256 PUSH1 0x0 PUSH2 0x100 EXP DUP2 SLOAD SWAP1 PUSH20 0xFFFFFFFFFFFFFFFFFFFFFFFFFFFFFFFFFFFFFFFF MUL NOT AND SWAP1 SSTORE PUSH1 0x1 PUSH1 0x3 PUSH1 0x0 DUP6 PUSH20 0xFFFFFFFFFFFFFFFFFFFFFFFFFFFFFFFFFFFFFFFF AND PUSH20 0xFFFFFFFFFFFFFFFFFFFFFFFFFFFFFFFFFFFFFFFF AND DUP2 MSTORE PUSH1 0x20 ADD SWAP1 DUP2 MSTORE PUSH1 0x20 ADD PUSH1 0x0 KECCAK256 PUSH1 0x0 DUP3 DUP3 SLOAD SUB SWAP3 POP POP DUP2 SWAP1 SSTORE POP PUSH1 0x1 PUSH1 0x3 PUSH1 0x0 DUP5 PUSH20 0xFFFFFFFFFFFFFFFFFFFFFFFFFFFFFFFFFFFFFFFF AND PUSH20 0xFFFFFFFFFFFFFFFFFFFFFFFFFFFFFFFFFFFFFFFF AND DUP2 MSTORE PUSH1 0x20 ADD SWAP1 DUP2 MSTORE PUSH1 0x20 ADD PUSH1 0x0 KECCAK256 PUSH1 0x0 DUP3 DUP3 SLOAD ADD SWAP3 POP POP DUP2 SWAP1 SSTORE POP DUP2 PUSH1 0x2 PUSH1 0x0 DUP4 DUP2 MSTORE PUSH1 0x20 ADD SWAP1 DUP2 MSTORE PUSH1 0x20 ADD PUSH1 0x0 KECCAK256 PUSH1 0x0 PUSH2 0x100 EXP DUP2 SLOAD DUP2 PUSH20 0xFFFFFFFFFFFFFFFFFFFFFFFFFFFFFFFFFFFFFFFF MUL NOT AND SWAP1 DUP4 PUSH20 0xFFFFFFFFFFFFFFFFFFFFFFFFFFFFFFFFFFFFFFFF AND MUL OR SWAP1 SSTORE POP DUP1 DUP3 PUSH20 0xFFFFFFFFFFFFFFFFFFFFFFFFFFFFFFFFFFFFFFFF AND DUP5 PUSH20 0xFFFFFFFFFFFFFFFFFFFFFFFFFFFFFFFFFFFFFFFF AND PUSH32 0xDDF252AD1BE2C89B69C2B068FC378DAA952BA7F163C4A11628F55A4DF523B3EF PUSH1 0x40 MLOAD PUSH1 0x40 MLOAD DUP1 SWAP2 SUB SWAP1 LOG4 PUSH2 0x1A72 DUP4 DUP4 DUP4 PUSH1 0x1 PUSH2 0x1F19 JUMP JUMPDEST POP POP POP JUMP JUMPDEST PUSH2 0x1A7F PUSH2 0x1498 JUMP JUMPDEST PUSH20 0xFFFFFFFFFFFFFFFFFFFFFFFFFFFFFFFFFFFFFFFF AND PUSH2 0x1A9D PUSH2 0xD6F JUMP JUMPDEST PUSH20 0xFFFFFFFFFFFFFFFFFFFFFFFFFFFFFFFFFFFFFFFF AND EQ PUSH2 0x1AF3 JUMPI PUSH1 0x40 MLOAD PUSH32 0x8C379A000000000000000000000000000000000000000000000000000000000 DUP2 MSTORE PUSH1 0x4 ADD PUSH2 0x1AEA SWAP1 PUSH2 0x313F JUMP JUMPDEST PUSH1 0x40 MLOAD DUP1 SWAP2 SUB SWAP1 REVERT JUMPDEST JUMP JUMPDEST PUSH1 0x0 PUSH1 0x2 PUSH1 0x0 DUP4 DUP2 MSTORE PUSH1 0x20 ADD SWAP1 DUP2 MSTORE PUSH1 0x20 ADD PUSH1 0x0 KECCAK256 PUSH1 0x0 SWAP1 SLOAD SWAP1 PUSH2 0x100 EXP SWAP1 DIV PUSH20 0xFFFFFFFFFFFFFFFFFFFFFFFFFFFFFFFFFFFFFFFF AND SWAP1 POP SWAP2 SWAP1 POP JUMP JUMPDEST PUSH1 0x0 PUSH1 0x7 PUSH1 0x0 SWAP1 SLOAD SWAP1 PUSH2 0x100 EXP SWAP1 DIV PUSH20 0xFFFFFFFFFFFFFFFFFFFFFFFFFFFFFFFFFFFFFFFF AND SWAP1 POP DUP2 PUSH1 0x7 PUSH1 0x0 PUSH2 0x100 EXP DUP2 SLOAD DUP2 PUSH20 0xFFFFFFFFFFFFFFFFFFFFFFFFFFFFFFFFFFFFFFFF MUL NOT AND SWAP1 DUP4 PUSH20 0xFFFFFFFFFFFFFFFFFFFFFFFFFFFFFFFFFFFFFFFF AND MUL OR SWAP1 SSTORE POP DUP2 PUSH20 0xFFFFFFFFFFFFFFFFFFFFFFFFFFFFFFFFFFFFFFFF AND DUP2 PUSH20 0xFFFFFFFFFFFFFFFFFFFFFFFFFFFFFFFFFFFFFFFF AND PUSH32 0x8BE0079C531659141344CD1FD0A4F28419497F9722A3DAAFE3B4186F6B6457E0 PUSH1 0x40 MLOAD PUSH1 0x40 MLOAD DUP1 SWAP2 SUB SWAP1 LOG3 POP POP JUMP JUMPDEST DUP2 PUSH20 0xFFFFFFFFFFFFFFFFFFFFFFFFFFFFFFFFFFFFFFFF AND DUP4 PUSH20 0xFFFFFFFFFFFFFFFFFFFFFFFFFFFFFFFFFFFFFFFF AND EQ ISZERO PUSH2 0x1C67 JUMPI PUSH1 0x40 MLOAD PUSH32 0x8C379A000000000000000000000000000000000000000000000000000000000 DUP2 MSTORE PUSH1 0x4 ADD PUSH2 0x1C5E SWAP1 PUSH2 0x30BF JUMP JUMPDEST PUSH1 0x40 MLOAD DUP1 SWAP2 SUB SWAP1 REVERT JUMPDEST DUP1 PUSH1 0x5 PUSH1 0x0 DUP6 PUSH20 0xFFFFFFFFFFFFFFFFFFFFFFFFFFFFFFFFFFFFFFFF AND PUSH20 0xFFFFFFFFFFFFFFFFFFFFFFFFFFFFFFFFFFFFFFFF AND DUP2 MSTORE PUSH1 0x20 ADD SWAP1 DUP2 MSTORE PUSH1 0x20 ADD PUSH1 0x0 KECCAK256 PUSH1 0x0 DUP5 PUSH20 0xFFFFFFFFFFFFFFFFFFFFFFFFFFFFFFFFFFFFFFFF AND PUSH20 0xFFFFFFFFFFFFFFFFFFFFFFFFFFFFFFFFFFFFFFFF AND DUP2 MSTORE PUSH1 0x20 ADD SWAP1 DUP2 MSTORE PUSH1 0x20 ADD PUSH1 0x0 KECCAK256 PUSH1 0x0 PUSH2 0x100 EXP DUP2 SLOAD DUP2 PUSH1 0xFF MUL NOT AND SWAP1 DUP4 ISZERO ISZERO MUL OR SWAP1 SSTORE POP DUP2 PUSH20 0xFFFFFFFFFFFFFFFFFFFFFFFFFFFFFFFFFFFFFFFF AND DUP4 PUSH20 0xFFFFFFFFFFFFFFFFFFFFFFFFFFFFFFFFFFFFFFFF AND PUSH32 0x17307EAB39AB6107E8899845AD3D59BD9653F200F220920489CA2B5937696C31 DUP4 PUSH1 0x40 MLOAD PUSH2 0x1D58 SWAP2 SWAP1 PUSH2 0x2F2B JUMP JUMPDEST PUSH1 0x40 MLOAD DUP1 SWAP2 SUB SWAP1 LOG3 POP POP POP JUMP JUMPDEST PUSH2 0x1D70 DUP5 DUP5 DUP5 PUSH2 0x177D JUMP JUMPDEST PUSH2 0x1D7C DUP5 DUP5 DUP5 DUP5 PUSH2 0x1F1F JUMP JUMPDEST PUSH2 0x1DBB JUMPI PUSH1 0x40 MLOAD PUSH32 0x8C379A000000000000000000000000000000000000000000000000000000000 DUP2 MSTORE PUSH1 0x4 ADD PUSH2 0x1DB2 SWAP1 PUSH2 0x301F JUMP JUMPDEST PUSH1 0x40 MLOAD DUP1 SWAP2 SUB SWAP1 REVERT JUMPDEST POP POP POP POP JUMP JUMPDEST PUSH1 0x60 PUSH1 0x40 MLOAD DUP1 PUSH1 0x20 ADD PUSH1 0x40 MSTORE DUP1 PUSH1 0x0 DUP2 MSTORE POP SWAP1 POP SWAP1 JUMP JUMPDEST PUSH1 0x60 PUSH2 0x1DE3 DUP3 PUSH2 0x144D JUMP JUMPDEST PUSH1 0x0 PUSH2 0x1DED PUSH2 0x1DC1 JUMP JUMPDEST SWAP1 POP PUSH1 0x0 DUP2 MLOAD GT PUSH2 0x1E0D JUMPI PUSH1 0x40 MLOAD DUP1 PUSH1 0x20 ADD PUSH1 0x40 MSTORE DUP1 PUSH1 0x0 DUP2 MSTORE POP PUSH2 0x1E38 JUMP JUMPDEST DUP1 PUSH2 0x1E17 DUP5 PUSH2 0x20B6 JUMP JUMPDEST PUSH1 0x40 MLOAD PUSH1 0x20 ADD PUSH2 0x1E28 SWAP3 SWAP2 SWAP1 PUSH2 0x2E47 JUMP JUMPDEST PUSH1 0x40 MLOAD PUSH1 0x20 DUP2 DUP4 SUB SUB DUP2 MSTORE SWAP1 PUSH1 0x40 MSTORE JUMPDEST SWAP2 POP POP SWAP2 SWAP1 POP JUMP JUMPDEST PUSH1 0x0 DUP1 PUSH20 0xFFFFFFFFFFFFFFFFFFFFFFFFFFFFFFFFFFFFFFFF AND PUSH2 0x1E62 DUP4 PUSH2 0x1AF5 JUMP JUMPDEST PUSH20 0xFFFFFFFFFFFFFFFFFFFFFFFFFFFFFFFFFFFFFFFF AND EQ ISZERO SWAP1 POP SWAP2 SWAP1 POP JUMP JUMPDEST PUSH2 0x1E9B DUP3 DUP3 PUSH1 0x40 MLOAD DUP1 PUSH1 0x20 ADD PUSH1 0x40 MSTORE DUP1 PUSH1 0x0 DUP2 MSTORE POP PUSH2 0x218E JUMP JUMPDEST POP POP JUMP JUMPDEST PUSH2 0x1EA8 DUP3 PUSH2 0x1E40 JUMP JUMPDEST PUSH2 0x1EE7 JUMPI PUSH1 0x40 MLOAD PUSH32 0x8C379A000000000000000000000000000000000000000000000000000000000 DUP2 MSTORE PUSH1 0x4 ADD PUSH2 0x1EDE SWAP1 PUSH2 0x30FF JUMP JUMPDEST PUSH1 0x40 MLOAD DUP1 SWAP2 SUB SWAP1 REVERT JUMPDEST DUP1 PUSH1 0x6 PUSH1 0x0 DUP5 DUP2 MSTORE PUSH1 0x20 ADD SWAP1 DUP2 MSTORE PUSH1 0x20 ADD PUSH1 0x0 KECCAK256 SWAP1 DUP1 MLOAD SWAP1 PUSH1 0x20 ADD SWAP1 PUSH2 0x1F0E SWAP3 SWAP2 SWAP1 PUSH2 0x259F JUMP JUMPDEST POP POP POP JUMP JUMPDEST POP POP POP POP JUMP JUMPDEST POP POP POP POP JUMP JUMPDEST PUSH1 0x0 PUSH2 0x1F40 DUP5 PUSH20 0xFFFFFFFFFFFFFFFFFFFFFFFFFFFFFFFFFFFFFFFF AND PUSH2 0x21E9 JUMP JUMPDEST ISZERO PUSH2 0x20A9 JUMPI DUP4 PUSH20 0xFFFFFFFFFFFFFFFFFFFFFFFFFFFFFFFFFFFFFFFF AND PUSH4 0x150B7A02 PUSH2 0x1F69 PUSH2 0x1498 JUMP JUMPDEST DUP8 DUP7 DUP7 PUSH1 0x40 MLOAD DUP6 PUSH4 0xFFFFFFFF AND PUSH1 0xE0 SHL DUP2 MSTORE PUSH1 0x4 ADD PUSH2 0x1F8B SWAP5 SWAP4 SWAP3 SWAP2 SWAP1 PUSH2 0x2EC4 JUMP JUMPDEST PUSH1 0x20 PUSH1 0x40 MLOAD DUP1 DUP4 SUB DUP2 PUSH1 0x0 DUP8 DUP1 EXTCODESIZE ISZERO DUP1 ISZERO PUSH2 0x1FA5 JUMPI PUSH1 0x0 DUP1 REVERT JUMPDEST POP GAS CALL SWAP3 POP POP POP DUP1 ISZERO PUSH2 0x1FD6 JUMPI POP PUSH1 0x40 MLOAD RETURNDATASIZE PUSH1 0x1F NOT PUSH1 0x1F DUP3 ADD AND DUP3 ADD DUP1 PUSH1 0x40 MSTORE POP DUP2 ADD SWAP1 PUSH2 0x1FD3 SWAP2 SWAP1 PUSH2 0x29BE JUMP JUMPDEST PUSH1 0x1 JUMPDEST PUSH2 0x2059 JUMPI RETURNDATASIZE DUP1 PUSH1 0x0 DUP2 EQ PUSH2 0x2006 JUMPI PUSH1 0x40 MLOAD SWAP2 POP PUSH1 0x1F NOT PUSH1 0x3F RETURNDATASIZE ADD AND DUP3 ADD PUSH1 0x40 MSTORE RETURNDATASIZE DUP3 MSTORE RETURNDATASIZE PUSH1 0x0 PUSH1 0x20 DUP5 ADD RETURNDATACOPY PUSH2 0x200B JUMP JUMPDEST PUSH1 0x60 SWAP2 POP JUMPDEST POP PUSH1 0x0 DUP2 MLOAD EQ ISZERO PUSH2 0x2051 JUMPI PUSH1 0x40 MLOAD PUSH32 0x8C379A000000000000000000000000000000000000000000000000000000000 DUP2 MSTORE PUSH1 0x4 ADD PUSH2 0x2048 SWAP1 PUSH2 0x301F JUMP JUMPDEST PUSH1 0x40 MLOAD DUP1 SWAP2 SUB SWAP1 REVERT JUMPDEST DUP1 MLOAD DUP2 PUSH1 0x20 ADD REVERT JUMPDEST PUSH4 0x150B7A02 PUSH1 0xE0 SHL PUSH28 0xFFFFFFFFFFFFFFFFFFFFFFFFFFFFFFFFFFFFFFFFFFFFFFFFFFFFFFFF NOT AND DUP2 PUSH28 0xFFFFFFFFFFFFFFFFFFFFFFFFFFFFFFFFFFFFFFFFFFFFFFFFFFFFFFFF NOT AND EQ SWAP2 POP POP PUSH2 0x20AE JUMP JUMPDEST PUSH1 0x1 SWAP1 POP JUMPDEST SWAP5 SWAP4 POP POP POP POP JUMP JUMPDEST PUSH1 0x60 PUSH1 0x0 PUSH1 0x1 PUSH2 0x20C5 DUP5 PUSH2 0x220C JUMP JUMPDEST ADD SWAP1 POP PUSH1 0x0 DUP2 PUSH8 0xFFFFFFFFFFFFFFFF DUP2 GT ISZERO PUSH2 0x20E4 JUMPI PUSH2 0x20E3 PUSH2 0x360C JUMP JUMPDEST JUMPDEST PUSH1 0x40 MLOAD SWAP1 DUP1 DUP3 MSTORE DUP1 PUSH1 0x1F ADD PUSH1 0x1F NOT AND PUSH1 0x20 ADD DUP3 ADD PUSH1 0x40 MSTORE DUP1 ISZERO PUSH2 0x2116 JUMPI DUP2 PUSH1 0x20 ADD PUSH1 0x1 DUP3 MUL DUP1 CALLDATASIZE DUP4 CALLDATACOPY DUP1 DUP3 ADD SWAP2 POP POP SWAP1 POP JUMPDEST POP SWAP1 POP PUSH1 0x0 DUP3 PUSH1 0x20 ADD DUP3 ADD SWAP1 POP JUMPDEST PUSH1 0x1 ISZERO PUSH2 0x2183 JUMPI DUP1 DUP1 PUSH1 0x1 SWAP1 SUB SWAP2 POP POP PUSH32 0x3031323334353637383961626364656600000000000000000000000000000000 PUSH1 0xA DUP7 MOD BYTE DUP2 MSTORE8 PUSH1 0xA DUP6 DUP2 PUSH2 0x216D JUMPI PUSH2 0x216C PUSH2 0x3550 JUMP JUMPDEST JUMPDEST DIV SWAP5 POP PUSH1 0x0 DUP6 EQ ISZERO PUSH2 0x217E JUMPI PUSH2 0x2183 JUMP JUMPDEST PUSH2 0x2124 JUMP JUMPDEST DUP2 SWAP4 POP POP POP POP SWAP2 SWAP1 POP JUMP JUMPDEST PUSH2 0x2198 DUP4 DUP4 PUSH2 0x235F JUMP JUMPDEST PUSH2 0x21A5 PUSH1 0x0 DUP5 DUP5 DUP5 PUSH2 0x1F1F JUMP JUMPDEST PUSH2 0x21E4 JUMPI PUSH1 0x40 MLOAD PUSH32 0x8C379A000000000000000000000000000000000000000000000000000000000 DUP2 MSTORE PUSH1 0x4 ADD PUSH2 0x21DB SWAP1 PUSH2 0x301F JUMP JUMPDEST PUSH1 0x40 MLOAD DUP1 SWAP2 SUB SWAP1 REVERT JUMPDEST POP POP POP JUMP JUMPDEST PUSH1 0x0 DUP1 DUP3 PUSH20 0xFFFFFFFFFFFFFFFFFFFFFFFFFFFFFFFFFFFFFFFF AND EXTCODESIZE GT SWAP1 POP SWAP2 SWAP1 POP JUMP JUMPDEST PUSH1 0x0 DUP1 PUSH1 0x0 SWAP1 POP PUSH27 0x184F03E93FF9F4DAA797ED6E38ED64BF6A1F010000000000000000 DUP4 LT PUSH2 0x226A JUMPI PUSH27 0x184F03E93FF9F4DAA797ED6E38ED64BF6A1F010000000000000000 DUP4 DUP2 PUSH2 0x2260 JUMPI PUSH2 0x225F PUSH2 0x3550 JUMP JUMPDEST JUMPDEST DIV SWAP3 POP PUSH1 0x40 DUP2 ADD SWAP1 POP JUMPDEST PUSH14 0x4EE2D6D415B85ACEF8100000000 DUP4 LT PUSH2 0x22A7 JUMPI PUSH14 0x4EE2D6D415B85ACEF8100000000 DUP4 DUP2 PUSH2 0x229D JUMPI PUSH2 0x229C PUSH2 0x3550 JUMP JUMPDEST JUMPDEST DIV SWAP3 POP PUSH1 0x20 DUP2 ADD SWAP1 POP JUMPDEST PUSH7 0x2386F26FC10000 DUP4 LT PUSH2 0x22D6 JUMPI PUSH7 0x2386F26FC10000 DUP4 DUP2 PUSH2 0x22CC JUMPI PUSH2 0x22CB PUSH2 0x3550 JUMP JUMPDEST JUMPDEST DIV SWAP3 POP PUSH1 0x10 DUP2 ADD SWAP1 POP JUMPDEST PUSH4 0x5F5E100 DUP4 LT PUSH2 0x22FF JUMPI PUSH4 0x5F5E100 DUP4 DUP2 PUSH2 0x22F5 JUMPI PUSH2 0x22F4 PUSH2 0x3550 JUMP JUMPDEST JUMPDEST DIV SWAP3 POP PUSH1 0x8 DUP2 ADD SWAP1 POP JUMPDEST PUSH2 0x2710 DUP4 LT PUSH2 0x2324 JUMPI PUSH2 0x2710 DUP4 DUP2 PUSH2 0x231A JUMPI PUSH2 0x2319 PUSH2 0x3550 JUMP JUMPDEST JUMPDEST DIV SWAP3 POP PUSH1 0x4 DUP2 ADD SWAP1 POP JUMPDEST PUSH1 0x64 DUP4 LT PUSH2 0x2347 JUMPI PUSH1 0x64 DUP4 DUP2 PUSH2 0x233D JUMPI PUSH2 0x233C PUSH2 0x3550 JUMP JUMPDEST JUMPDEST DIV SWAP3 POP PUSH1 0x2 DUP2 ADD SWAP1 POP JUMPDEST PUSH1 0xA DUP4 LT PUSH2 0x2356 JUMPI PUSH1 0x1 DUP2 ADD SWAP1 POP JUMPDEST DUP1 SWAP2 POP POP SWAP2 SWAP1 POP JUMP JUMPDEST PUSH1 0x0 PUSH20 0xFFFFFFFFFFFFFFFFFFFFFFFFFFFFFFFFFFFFFFFF AND DUP3 PUSH20 0xFFFFFFFFFFFFFFFFFFFFFFFFFFFFFFFFFFFFFFFF AND EQ ISZERO PUSH2 0x23CF JUMPI PUSH1 0x40 MLOAD PUSH32 0x8C379A000000000000000000000000000000000000000000000000000000000 DUP2 MSTORE PUSH1 0x4 ADD PUSH2 0x23C6 SWAP1 PUSH2 0x311F JUMP JUMPDEST PUSH1 0x40 MLOAD DUP1 SWAP2 SUB SWAP1 REVERT JUMPDEST PUSH2 0x23D8 DUP2 PUSH2 0x1E40 JUMP JUMPDEST ISZERO PUSH2 0x2418 JUMPI PUSH1 0x40 MLOAD PUSH32 0x8C379A000000000000000000000000000000000000000000000000000000000 DUP2 MSTORE PUSH1 0x4 ADD PUSH2 0x240F SWAP1 PUSH2 0x307F JUMP JUMPDEST PUSH1 0x40 MLOAD DUP1 SWAP2 SUB SWAP1 REVERT JUMPDEST PUSH2 0x2426 PUSH1 0x0 DUP4 DUP4 PUSH1 0x1 PUSH2 0x1F13 JUMP JUMPDEST PUSH2 0x242F DUP2 PUSH2 0x1E40 JUMP JUMPDEST ISZERO PUSH2 0x246F JUMPI PUSH1 0x40 MLOAD PUSH32 0x8C379A000000000000000000000000000000000000000000000000000000000 DUP2 MSTORE PUSH1 0x4 ADD PUSH2 0x2466 SWAP1 PUSH2 0x307F JUMP JUMPDEST PUSH1 0x40 MLOAD DUP1 SWAP2 SUB SWAP1 REVERT JUMPDEST PUSH1 0x1 PUSH1 0x3 PUSH1 0x0 DUP5 PUSH20 0xFFFFFFFFFFFFFFFFFFFFFFFFFFFFFFFFFFFFFFFF AND PUSH20 0xFFFFFFFFFFFFFFFFFFFFFFFFFFFFFFFFFFFFFFFF AND DUP2 MSTORE PUSH1 0x20 ADD SWAP1 DUP2 MSTORE PUSH1 0x20 ADD PUSH1 0x0 KECCAK256 PUSH1 0x0 DUP3 DUP3 SLOAD ADD SWAP3 POP POP DUP2 SWAP1 SSTORE POP DUP2 PUSH1 0x2 PUSH1 0x0 DUP4 DUP2 MSTORE PUSH1 0x20 ADD SWAP1 DUP2 MSTORE PUSH1 0x20 ADD PUSH1 0x0 KECCAK256 PUSH1 0x0 PUSH2 0x100 EXP DUP2 SLOAD DUP2 PUSH20 0xFFFFFFFFFFFFFFFFFFFFFFFFFFFFFFFFFFFFFFFF MUL NOT AND SWAP1 DUP4 PUSH20 0xFFFFFFFFFFFFFFFFFFFFFFFFFFFFFFFFFFFFFFFF AND MUL OR SWAP1 SSTORE POP DUP1 DUP3 PUSH20 0xFFFFFFFFFFFFFFFFFFFFFFFFFFFFFFFFFFFFFFFF AND PUSH1 0x0 PUSH20 0xFFFFFFFFFFFFFFFFFFFFFFFFFFFFFFFFFFFFFFFF AND PUSH32 0xDDF252AD1BE2C89B69C2B068FC378DAA952BA7F163C4A11628F55A4DF523B3EF PUSH1 0x40 MLOAD PUSH1 0x40 MLOAD DUP1 SWAP2 SUB SWAP1 LOG4 PUSH2 0x2579 PUSH1 0x0 DUP4 DUP4 PUSH1 0x1 PUSH2 0x1F19 JUMP JUMPDEST POP POP JUMP JUMPDEST PUSH1 0x40 MLOAD DUP1 PUSH1 0x60 ADD PUSH1 0x40 MSTORE DUP1 PUSH1 0x3 SWAP1 PUSH1 0x20 DUP3 MUL DUP1 CALLDATASIZE DUP4 CALLDATACOPY DUP1 DUP3 ADD SWAP2 POP POP SWAP1 POP POP SWAP1 JUMP JUMPDEST DUP3 DUP1 SLOAD PUSH2 0x25AB SWAP1 PUSH2 0x3444 JUMP JUMPDEST SWAP1 PUSH1 0x0 MSTORE PUSH1 0x20 PUSH1 0x0 KECCAK256 SWAP1 PUSH1 0x1F ADD PUSH1 0x20 SWAP1 DIV DUP2 ADD SWAP3 DUP3 PUSH2 0x25CD JUMPI PUSH1 0x0 DUP6 SSTORE PUSH2 0x2614 JUMP JUMPDEST DUP3 PUSH1 0x1F LT PUSH2 0x25E6 JUMPI DUP1 MLOAD PUSH1 0xFF NOT AND DUP4 DUP1 ADD OR DUP6 SSTORE PUSH2 0x2614 JUMP JUMPDEST DUP3 DUP1 ADD PUSH1 0x1 ADD DUP6 SSTORE DUP3 ISZERO PUSH2 0x2614 JUMPI SWAP2 DUP3 ADD JUMPDEST DUP3 DUP2 GT ISZERO PUSH2 0x2613 JUMPI DUP3 MLOAD DUP3 SSTORE SWAP2 PUSH1 0x20 ADD SWAP2 SWAP1 PUSH1 0x1 ADD SWAP1 PUSH2 0x25F8 JUMP JUMPDEST JUMPDEST POP SWAP1 POP PUSH2 0x2621 SWAP2 SWAP1 PUSH2 0x2625 JUMP JUMPDEST POP SWAP1 JUMP JUMPDEST JUMPDEST DUP1 DUP3 GT ISZERO PUSH2 0x263E JUMPI PUSH1 0x0 DUP2 PUSH1 0x0 SWAP1 SSTORE POP PUSH1 0x1 ADD PUSH2 0x2626 JUMP JUMPDEST POP SWAP1 JUMP JUMPDEST PUSH1 0x0 PUSH2 0x2655 PUSH2 0x2650 DUP5 PUSH2 0x31FF JUMP JUMPDEST PUSH2 0x31DA JUMP JUMPDEST SWAP1 POP DUP1 DUP4 DUP3 MSTORE PUSH1 0x20 DUP3 ADD SWAP1 POP DUP3 DUP6 PUSH1 0x20 DUP7 MUL DUP3 ADD GT ISZERO PUSH2 0x2678 JUMPI PUSH2 0x2677 PUSH2 0x3640 JUMP JUMPDEST JUMPDEST PUSH1 0x0 JUMPDEST DUP6 DUP2 LT ISZERO PUSH2 0x26A8 JUMPI DUP2 PUSH2 0x268E DUP9 DUP3 PUSH2 0x27A4 JUMP JUMPDEST DUP5 MSTORE PUSH1 0x20 DUP5 ADD SWAP4 POP PUSH1 0x20 DUP4 ADD SWAP3 POP POP PUSH1 0x1 DUP2 ADD SWAP1 POP PUSH2 0x267B JUMP JUMPDEST POP POP POP SWAP4 SWAP3 POP POP POP JUMP JUMPDEST PUSH1 0x0 PUSH2 0x26C5 PUSH2 0x26C0 DUP5 PUSH2 0x322B JUMP JUMPDEST PUSH2 0x31DA JUMP JUMPDEST SWAP1 POP DUP3 DUP2 MSTORE PUSH1 0x20 DUP2 ADD DUP5 DUP5 DUP5 ADD GT ISZERO PUSH2 0x26E1 JUMPI PUSH2 0x26E0 PUSH2 0x3645 JUMP JUMPDEST JUMPDEST PUSH2 0x26EC DUP5 DUP3 DUP6 PUSH2 0x3402 JUMP JUMPDEST POP SWAP4 SWAP3 POP POP POP JUMP JUMPDEST PUSH1 0x0 DUP2 CALLDATALOAD SWAP1 POP PUSH2 0x2703 DUP2 PUSH2 0x3A10 JUMP JUMPDEST SWAP3 SWAP2 POP POP JUMP JUMPDEST PUSH1 0x0 DUP3 PUSH1 0x1F DUP4 ADD SLT PUSH2 0x271E JUMPI PUSH2 0x271D PUSH2 0x363B JUMP JUMPDEST JUMPDEST DUP2 CALLDATALOAD PUSH2 0x272E DUP5 DUP3 PUSH1 0x20 DUP7 ADD PUSH2 0x2642 JUMP JUMPDEST SWAP2 POP POP SWAP3 SWAP2 POP POP JUMP JUMPDEST PUSH1 0x0 DUP2 CALLDATALOAD SWAP1 POP PUSH2 0x2746 DUP2 PUSH2 0x3A27 JUMP JUMPDEST SWAP3 SWAP2 POP POP JUMP JUMPDEST PUSH1 0x0 DUP2 CALLDATALOAD SWAP1 POP PUSH2 0x275B DUP2 PUSH2 0x3A3E JUMP JUMPDEST SWAP3 SWAP2 POP POP JUMP JUMPDEST PUSH1 0x0 DUP2 MLOAD SWAP1 POP PUSH2 0x2770 DUP2 PUSH2 0x3A3E JUMP JUMPDEST SWAP3 SWAP2 POP POP JUMP JUMPDEST PUSH1 0x0 DUP3 PUSH1 0x1F DUP4 ADD SLT PUSH2 0x278B JUMPI PUSH2 0x278A PUSH2 0x363B JUMP JUMPDEST JUMPDEST DUP2 CALLDATALOAD PUSH2 0x279B DUP5 DUP3 PUSH1 0x20 DUP7 ADD PUSH2 0x26B2 JUMP JUMPDEST SWAP2 POP POP SWAP3 SWAP2 POP POP JUMP JUMPDEST PUSH1 0x0 DUP2 CALLDATALOAD SWAP1 POP PUSH2 0x27B3 DUP2 PUSH2 0x3A55 JUMP JUMPDEST SWAP3 SWAP2 POP POP JUMP JUMPDEST PUSH1 0x0 DUP2 MLOAD SWAP1 POP PUSH2 0x27C8 DUP2 PUSH2 0x3A55 JUMP JUMPDEST SWAP3 SWAP2 POP POP JUMP JUMPDEST PUSH1 0x0 PUSH1 0x20 DUP3 DUP5 SUB SLT ISZERO PUSH2 0x27E4 JUMPI PUSH2 0x27E3 PUSH2 0x364F JUMP JUMPDEST JUMPDEST PUSH1 0x0 PUSH2 0x27F2 DUP5 DUP3 DUP6 ADD PUSH2 0x26F4 JUMP JUMPDEST SWAP2 POP POP SWAP3 SWAP2 POP POP JUMP JUMPDEST PUSH1 0x0 DUP1 PUSH1 0x40 DUP4 DUP6 SUB SLT ISZERO PUSH2 0x2812 JUMPI PUSH2 0x2811 PUSH2 0x364F JUMP JUMPDEST JUMPDEST PUSH1 0x0 PUSH2 0x2820 DUP6 DUP3 DUP7 ADD PUSH2 0x26F4 JUMP JUMPDEST SWAP3 POP POP PUSH1 0x20 PUSH2 0x2831 DUP6 DUP3 DUP7 ADD PUSH2 0x26F4 JUMP JUMPDEST SWAP2 POP POP SWAP3 POP SWAP3 SWAP1 POP JUMP JUMPDEST PUSH1 0x0 DUP1 PUSH1 0x0 PUSH1 0x60 DUP5 DUP7 SUB SLT ISZERO PUSH2 0x2854 JUMPI PUSH2 0x2853 PUSH2 0x364F JUMP JUMPDEST JUMPDEST PUSH1 0x0 PUSH2 0x2862 DUP7 DUP3 DUP8 ADD PUSH2 0x26F4 JUMP JUMPDEST SWAP4 POP POP PUSH1 0x20 PUSH2 0x2873 DUP7 DUP3 DUP8 ADD PUSH2 0x26F4 JUMP JUMPDEST SWAP3 POP POP PUSH1 0x40 PUSH2 0x2884 DUP7 DUP3 DUP8 ADD PUSH2 0x27A4 JUMP JUMPDEST SWAP2 POP POP SWAP3 POP SWAP3 POP SWAP3 JUMP JUMPDEST PUSH1 0x0 DUP1 PUSH1 0x0 DUP1 PUSH1 0x80 DUP6 DUP8 SUB SLT ISZERO PUSH2 0x28A8 JUMPI PUSH2 0x28A7 PUSH2 0x364F JUMP JUMPDEST JUMPDEST PUSH1 0x0 PUSH2 0x28B6 DUP8 DUP3 DUP9 ADD PUSH2 0x26F4 JUMP JUMPDEST SWAP5 POP POP PUSH1 0x20 PUSH2 0x28C7 DUP8 DUP3 DUP9 ADD PUSH2 0x26F4 JUMP JUMPDEST SWAP4 POP POP PUSH1 0x40 PUSH2 0x28D8 DUP8 DUP3 DUP9 ADD PUSH2 0x27A4 JUMP JUMPDEST SWAP3 POP POP PUSH1 0x60 DUP6 ADD CALLDATALOAD PUSH8 0xFFFFFFFFFFFFFFFF DUP2 GT ISZERO PUSH2 0x28F9 JUMPI PUSH2 0x28F8 PUSH2 0x364A JUMP JUMPDEST JUMPDEST PUSH2 0x2905 DUP8 DUP3 DUP9 ADD PUSH2 0x2776 JUMP JUMPDEST SWAP2 POP POP SWAP3 SWAP6 SWAP2 SWAP5 POP SWAP3 POP JUMP JUMPDEST PUSH1 0x0 DUP1 PUSH1 0x40 DUP4 DUP6 SUB SLT ISZERO PUSH2 0x2928 JUMPI PUSH2 0x2927 PUSH2 0x364F JUMP JUMPDEST JUMPDEST PUSH1 0x0 PUSH2 0x2936 DUP6 DUP3 DUP7 ADD PUSH2 0x26F4 JUMP JUMPDEST SWAP3 POP POP PUSH1 0x20 PUSH2 0x2947 DUP6 DUP3 DUP7 ADD PUSH2 0x2737 JUMP JUMPDEST SWAP2 POP POP SWAP3 POP SWAP3 SWAP1 POP JUMP JUMPDEST PUSH1 0x0 DUP1 PUSH1 0x40 DUP4 DUP6 SUB SLT ISZERO PUSH2 0x2968 JUMPI PUSH2 0x2967 PUSH2 0x364F JUMP JUMPDEST JUMPDEST PUSH1 0x0 PUSH2 0x2976 DUP6 DUP3 DUP7 ADD PUSH2 0x26F4 JUMP JUMPDEST SWAP3 POP POP PUSH1 0x20 PUSH2 0x2987 DUP6 DUP3 DUP7 ADD PUSH2 0x27A4 JUMP JUMPDEST SWAP2 POP POP SWAP3 POP SWAP3 SWAP1 POP JUMP JUMPDEST PUSH1 0x0 PUSH1 0x20 DUP3 DUP5 SUB SLT ISZERO PUSH2 0x29A7 JUMPI PUSH2 0x29A6 PUSH2 0x364F JUMP JUMPDEST JUMPDEST PUSH1 0x0 PUSH2 0x29B5 DUP5 DUP3 DUP6 ADD PUSH2 0x274C JUMP JUMPDEST SWAP2 POP POP SWAP3 SWAP2 POP POP JUMP JUMPDEST PUSH1 0x0 PUSH1 0x20 DUP3 DUP5 SUB SLT ISZERO PUSH2 0x29D4 JUMPI PUSH2 0x29D3 PUSH2 0x364F JUMP JUMPDEST JUMPDEST PUSH1 0x0 PUSH2 0x29E2 DUP5 DUP3 DUP6 ADD PUSH2 0x2761 JUMP JUMPDEST SWAP2 POP POP SWAP3 SWAP2 POP POP JUMP JUMPDEST PUSH1 0x0 PUSH1 0x20 DUP3 DUP5 SUB SLT ISZERO PUSH2 0x2A01 JUMPI PUSH2 0x2A00 PUSH2 0x364F JUMP JUMPDEST JUMPDEST PUSH1 0x0 PUSH2 0x2A0F DUP5 DUP3 DUP6 ADD PUSH2 0x27A4 JUMP JUMPDEST SWAP2 POP POP SWAP3 SWAP2 POP POP JUMP JUMPDEST PUSH1 0x0 PUSH1 0x20 DUP3 DUP5 SUB SLT ISZERO PUSH2 0x2A2E JUMPI PUSH2 0x2A2D PUSH2 0x364F JUMP JUMPDEST JUMPDEST PUSH1 0x0 PUSH2 0x2A3C DUP5 DUP3 DUP6 ADD PUSH2 0x27B9 JUMP JUMPDEST SWAP2 POP POP SWAP3 SWAP2 POP POP JUMP JUMPDEST PUSH1 0x0 DUP1 PUSH1 0x40 DUP4 DUP6 SUB SLT ISZERO PUSH2 0x2A5C JUMPI PUSH2 0x2A5B PUSH2 0x364F JUMP JUMPDEST JUMPDEST PUSH1 0x0 PUSH2 0x2A6A DUP6 DUP3 DUP7 ADD PUSH2 0x27A4 JUMP JUMPDEST SWAP3 POP POP PUSH1 0x20 DUP4 ADD CALLDATALOAD PUSH8 0xFFFFFFFFFFFFFFFF DUP2 GT ISZERO PUSH2 0x2A8B JUMPI PUSH2 0x2A8A PUSH2 0x364A JUMP JUMPDEST JUMPDEST PUSH2 0x2A97 DUP6 DUP3 DUP7 ADD PUSH2 0x2709 JUMP JUMPDEST SWAP2 POP POP SWAP3 POP SWAP3 SWAP1 POP JUMP JUMPDEST PUSH1 0x0 PUSH2 0x2AAD DUP4 DUP4 PUSH2 0x2E0B JUMP JUMPDEST PUSH1 0x20 DUP4 ADD SWAP1 POP SWAP3 SWAP2 POP POP JUMP JUMPDEST PUSH2 0x2AC2 DUP2 PUSH2 0x332D JUMP JUMPDEST DUP3 MSTORE POP POP JUMP JUMPDEST PUSH2 0x2AD1 DUP2 PUSH2 0x3266 JUMP JUMPDEST PUSH2 0x2ADB DUP2 DUP5 PUSH2 0x3294 JUMP JUMPDEST SWAP3 POP PUSH2 0x2AE6 DUP3 PUSH2 0x325C JUMP JUMPDEST DUP1 PUSH1 0x0 JUMPDEST DUP4 DUP2 LT ISZERO PUSH2 0x2B17 JUMPI DUP2 MLOAD PUSH2 0x2AFE DUP8 DUP3 PUSH2 0x2AA1 JUMP JUMPDEST SWAP7 POP PUSH2 0x2B09 DUP4 PUSH2 0x3287 JUMP JUMPDEST SWAP3 POP POP PUSH1 0x1 DUP2 ADD SWAP1 POP PUSH2 0x2AEA JUMP JUMPDEST POP POP POP POP POP POP JUMP JUMPDEST PUSH2 0x2B28 DUP2 PUSH2 0x333F JUMP JUMPDEST DUP3 MSTORE POP POP JUMP JUMPDEST PUSH2 0x2B37 DUP2 PUSH2 0x334B JUMP JUMPDEST DUP3 MSTORE POP POP JUMP JUMPDEST PUSH1 0x0 PUSH2 0x2B48 DUP3 PUSH2 0x3271 JUMP JUMPDEST PUSH2 0x2B52 DUP2 DUP6 PUSH2 0x329F JUMP JUMPDEST SWAP4 POP PUSH2 0x2B62 DUP2 DUP6 PUSH1 0x20 DUP7 ADD PUSH2 0x3411 JUMP JUMPDEST PUSH2 0x2B6B DUP2 PUSH2 0x3654 JUMP JUMPDEST DUP5 ADD SWAP2 POP POP SWAP3 SWAP2 POP POP JUMP JUMPDEST PUSH2 0x2B7F DUP2 PUSH2 0x33F0 JUMP JUMPDEST DUP3 MSTORE POP POP JUMP JUMPDEST PUSH1 0x0 PUSH2 0x2B90 DUP3 PUSH2 0x327C JUMP JUMPDEST PUSH2 0x2B9A DUP2 DUP6 PUSH2 0x32BB JUMP JUMPDEST SWAP4 POP PUSH2 0x2BAA DUP2 DUP6 PUSH1 0x20 DUP7 ADD PUSH2 0x3411 JUMP JUMPDEST PUSH2 0x2BB3 DUP2 PUSH2 0x3654 JUMP JUMPDEST DUP5 ADD SWAP2 POP POP SWAP3 SWAP2 POP POP JUMP JUMPDEST PUSH1 0x0 PUSH2 0x2BC9 DUP3 PUSH2 0x327C JUMP JUMPDEST PUSH2 0x2BD3 DUP2 DUP6 PUSH2 0x32CC JUMP JUMPDEST SWAP4 POP PUSH2 0x2BE3 DUP2 DUP6 PUSH1 0x20 DUP7 ADD PUSH2 0x3411 JUMP JUMPDEST DUP1 DUP5 ADD SWAP2 POP POP SWAP3 SWAP2 POP POP JUMP JUMPDEST PUSH1 0x0 PUSH2 0x2BFC PUSH1 0x2D DUP4 PUSH2 0x32BB JUMP JUMPDEST SWAP2 POP PUSH2 0x2C07 DUP3 PUSH2 0x3665 JUMP JUMPDEST PUSH1 0x40 DUP3 ADD SWAP1 POP SWAP2 SWAP1 POP JUMP JUMPDEST PUSH1 0x0 PUSH2 0x2C1F PUSH1 0x32 DUP4 PUSH2 0x32BB JUMP JUMPDEST SWAP2 POP PUSH2 0x2C2A DUP3 PUSH2 0x36B4 JUMP JUMPDEST PUSH1 0x40 DUP3 ADD SWAP1 POP SWAP2 SWAP1 POP JUMP JUMPDEST PUSH1 0x0 PUSH2 0x2C42 PUSH1 0x26 DUP4 PUSH2 0x32BB JUMP JUMPDEST SWAP2 POP PUSH2 0x2C4D DUP3 PUSH2 0x3703 JUMP JUMPDEST PUSH1 0x40 DUP3 ADD SWAP1 POP SWAP2 SWAP1 POP JUMP JUMPDEST PUSH1 0x0 PUSH2 0x2C65 PUSH1 0x25 DUP4 PUSH2 0x32BB JUMP JUMPDEST SWAP2 POP PUSH2 0x2C70 DUP3 PUSH2 0x3752 JUMP JUMPDEST PUSH1 0x40 DUP3 ADD SWAP1 POP SWAP2 SWAP1 POP JUMP JUMPDEST PUSH1 0x0 PUSH2 0x2C88 PUSH1 0x1C DUP4 PUSH2 0x32BB JUMP JUMPDEST SWAP2 POP PUSH2 0x2C93 DUP3 PUSH2 0x37A1 JUMP JUMPDEST PUSH1 0x20 DUP3 ADD SWAP1 POP SWAP2 SWAP1 POP JUMP JUMPDEST PUSH1 0x0 PUSH2 0x2CAB PUSH1 0x24 DUP4 PUSH2 0x32BB JUMP JUMPDEST SWAP2 POP PUSH2 0x2CB6 DUP3 PUSH2 0x37CA JUMP JUMPDEST PUSH1 0x40 DUP3 ADD SWAP1 POP SWAP2 SWAP1 POP JUMP JUMPDEST PUSH1 0x0 PUSH2 0x2CCE PUSH1 0x19 DUP4 PUSH2 0x32BB JUMP JUMPDEST SWAP2 POP PUSH2 0x2CD9 DUP3 PUSH2 0x3819 JUMP JUMPDEST PUSH1 0x20 DUP3 ADD SWAP1 POP SWAP2 SWAP1 POP JUMP JUMPDEST PUSH1 0x0 PUSH2 0x2CF1 PUSH1 0x29 DUP4 PUSH2 0x32BB JUMP JUMPDEST SWAP2 POP PUSH2 0x2CFC DUP3 PUSH2 0x3842 JUMP JUMPDEST PUSH1 0x40 DUP3 ADD SWAP1 POP SWAP2 SWAP1 POP JUMP JUMPDEST PUSH1 0x0 PUSH2 0x2D14 PUSH1 0x2E DUP4 PUSH2 0x32BB JUMP JUMPDEST SWAP2 POP PUSH2 0x2D1F DUP3 PUSH2 0x3891 JUMP JUMPDEST PUSH1 0x40 DUP3 ADD SWAP1 POP SWAP2 SWAP1 POP JUMP JUMPDEST PUSH1 0x0 PUSH2 0x2D37 PUSH1 0x20 DUP4 PUSH2 0x32BB JUMP JUMPDEST SWAP2 POP PUSH2 0x2D42 DUP3 PUSH2 0x38E0 JUMP JUMPDEST PUSH1 0x20 DUP3 ADD SWAP1 POP SWAP2 SWAP1 POP JUMP JUMPDEST PUSH1 0x0 PUSH2 0x2D5A PUSH1 0x20 DUP4 PUSH2 0x32BB JUMP JUMPDEST SWAP2 POP PUSH2 0x2D65 DUP3 PUSH2 0x3909 JUMP JUMPDEST PUSH1 0x20 DUP3 ADD SWAP1 POP SWAP2 SWAP1 POP JUMP JUMPDEST PUSH1 0x0 PUSH2 0x2D7D PUSH1 0x18 DUP4 PUSH2 0x32BB JUMP JUMPDEST SWAP2 POP PUSH2 0x2D88 DUP3 PUSH2 0x3932 JUMP JUMPDEST PUSH1 0x20 DUP3 ADD SWAP1 POP SWAP2 SWAP1 POP JUMP JUMPDEST PUSH1 0x0 PUSH2 0x2DA0 PUSH1 0x21 DUP4 PUSH2 0x32BB JUMP JUMPDEST SWAP2 POP PUSH2 0x2DAB DUP3 PUSH2 0x395B JUMP JUMPDEST PUSH1 0x40 DUP3 ADD SWAP1 POP SWAP2 SWAP1 POP JUMP JUMPDEST PUSH1 0x0 PUSH2 0x2DC3 PUSH1 0x0 DUP4 PUSH2 0x32B0 JUMP JUMPDEST SWAP2 POP PUSH2 0x2DCE DUP3 PUSH2 0x39AA JUMP JUMPDEST PUSH1 0x0 DUP3 ADD SWAP1 POP SWAP2 SWAP1 POP JUMP JUMPDEST PUSH1 0x0 PUSH2 0x2DE6 PUSH1 0x3D DUP4 PUSH2 0x32BB JUMP JUMPDEST SWAP2 POP PUSH2 0x2DF1 DUP3 PUSH2 0x39AD JUMP JUMPDEST PUSH1 0x40 DUP3 ADD SWAP1 POP SWAP2 SWAP1 POP JUMP JUMPDEST PUSH2 0x2E05 DUP2 PUSH2 0x3394 JUMP JUMPDEST DUP3 MSTORE POP POP JUMP JUMPDEST PUSH2 0x2E14 DUP2 PUSH2 0x33C2 JUMP JUMPDEST DUP3 MSTORE POP POP JUMP JUMPDEST PUSH2 0x2E23 DUP2 PUSH2 0x33C2 JUMP JUMPDEST DUP3 MSTORE POP POP JUMP JUMPDEST PUSH2 0x2E32 DUP2 PUSH2 0x33CC JUMP JUMPDEST DUP3 MSTORE POP POP JUMP JUMPDEST PUSH2 0x2E41 DUP2 PUSH2 0x33DC JUMP JUMPDEST DUP3 MSTORE POP POP JUMP JUMPDEST PUSH1 0x0 PUSH2 0x2E53 DUP3 DUP6 PUSH2 0x2BBE JUMP JUMPDEST SWAP2 POP PUSH2 0x2E5F DUP3 DUP5 PUSH2 0x2BBE JUMP JUMPDEST SWAP2 POP DUP2 SWAP1 POP SWAP4 SWAP3 POP POP POP JUMP JUMPDEST PUSH1 0x0 PUSH2 0x2E76 DUP3 PUSH2 0x2DB6 JUMP JUMPDEST SWAP2 POP DUP2 SWAP1 POP SWAP2 SWAP1 POP JUMP JUMPDEST PUSH1 0x0 PUSH1 0x20 DUP3 ADD SWAP1 POP PUSH2 0x2E95 PUSH1 0x0 DUP4 ADD DUP5 PUSH2 0x2AB9 JUMP JUMPDEST SWAP3 SWAP2 POP POP JUMP JUMPDEST PUSH1 0x0 PUSH1 0x40 DUP3 ADD SWAP1 POP PUSH2 0x2EB0 PUSH1 0x0 DUP4 ADD DUP6 PUSH2 0x2AB9 JUMP JUMPDEST PUSH2 0x2EBD PUSH1 0x20 DUP4 ADD DUP5 PUSH2 0x2AB9 JUMP JUMPDEST SWAP4 SWAP3 POP POP POP JUMP JUMPDEST PUSH1 0x0 PUSH1 0x80 DUP3 ADD SWAP1 POP PUSH2 0x2ED9 PUSH1 0x0 DUP4 ADD DUP8 PUSH2 0x2AB9 JUMP JUMPDEST PUSH2 0x2EE6 PUSH1 0x20 DUP4 ADD DUP7 PUSH2 0x2AB9 JUMP JUMPDEST PUSH2 0x2EF3 PUSH1 0x40 DUP4 ADD DUP6 PUSH2 0x2E1A JUMP JUMPDEST DUP2 DUP2 SUB PUSH1 0x60 DUP4 ADD MSTORE PUSH2 0x2F05 DUP2 DUP5 PUSH2 0x2B3D JUMP JUMPDEST SWAP1 POP SWAP6 SWAP5 POP POP POP POP POP JUMP JUMPDEST PUSH1 0x0 PUSH1 0x60 DUP3 ADD SWAP1 POP PUSH2 0x2F25 PUSH1 0x0 DUP4 ADD DUP5 PUSH2 0x2AC8 JUMP JUMPDEST SWAP3 SWAP2 POP POP JUMP JUMPDEST PUSH1 0x0 PUSH1 0x20 DUP3 ADD SWAP1 POP PUSH2 0x2F40 PUSH1 0x0 DUP4 ADD DUP5 PUSH2 0x2B1F JUMP JUMPDEST SWAP3 SWAP2 POP POP JUMP JUMPDEST PUSH1 0x0 PUSH1 0xA0 DUP3 ADD SWAP1 POP PUSH2 0x2F5B PUSH1 0x0 DUP4 ADD DUP9 PUSH2 0x2B2E JUMP JUMPDEST PUSH2 0x2F68 PUSH1 0x20 DUP4 ADD DUP8 PUSH2 0x2E38 JUMP JUMPDEST PUSH2 0x2F75 PUSH1 0x40 DUP4 ADD DUP7 PUSH2 0x2DFC JUMP JUMPDEST PUSH2 0x2F82 PUSH1 0x60 DUP4 ADD DUP6 PUSH2 0x2E29 JUMP JUMPDEST PUSH2 0x2F8F PUSH1 0x80 DUP4 ADD DUP5 PUSH2 0x2E29 JUMP JUMPDEST SWAP7 SWAP6 POP POP POP POP POP POP JUMP JUMPDEST PUSH1 0x0 PUSH1 0x20 DUP3 ADD SWAP1 POP PUSH2 0x2FAE PUSH1 0x0 DUP4 ADD DUP5 PUSH2 0x2B76 JUMP JUMPDEST SWAP3 SWAP2 POP POP JUMP JUMPDEST PUSH1 0x0 PUSH1 0x40 DUP3 ADD SWAP1 POP PUSH2 0x2FC9 PUSH1 0x0 DUP4 ADD DUP6 PUSH2 0x2B76 JUMP JUMPDEST PUSH2 0x2FD6 PUSH1 0x20 DUP4 ADD DUP5 PUSH2 0x2AB9 JUMP JUMPDEST SWAP4 SWAP3 POP POP POP JUMP JUMPDEST PUSH1 0x0 PUSH1 0x20 DUP3 ADD SWAP1 POP DUP2 DUP2 SUB PUSH1 0x0 DUP4 ADD MSTORE PUSH2 0x2FF7 DUP2 DUP5 PUSH2 0x2B85 JUMP JUMPDEST SWAP1 POP SWAP3 SWAP2 POP POP JUMP JUMPDEST PUSH1 0x0 PUSH1 0x20 DUP3 ADD SWAP1 POP DUP2 DUP2 SUB PUSH1 0x0 DUP4 ADD MSTORE PUSH2 0x3018 DUP2 PUSH2 0x2BEF JUMP JUMPDEST SWAP1 POP SWAP2 SWAP1 POP JUMP JUMPDEST PUSH1 0x0 PUSH1 0x20 DUP3 ADD SWAP1 POP DUP2 DUP2 SUB PUSH1 0x0 DUP4 ADD MSTORE PUSH2 0x3038 DUP2 PUSH2 0x2C12 JUMP JUMPDEST SWAP1 POP SWAP2 SWAP1 POP JUMP JUMPDEST PUSH1 0x0 PUSH1 0x20 DUP3 ADD SWAP1 POP DUP2 DUP2 SUB PUSH1 0x0 DUP4 ADD MSTORE PUSH2 0x3058 DUP2 PUSH2 0x2C35 JUMP JUMPDEST SWAP1 POP SWAP2 SWAP1 POP JUMP JUMPDEST PUSH1 0x0 PUSH1 0x20 DUP3 ADD SWAP1 POP DUP2 DUP2 SUB PUSH1 0x0 DUP4 ADD MSTORE PUSH2 0x3078 DUP2 PUSH2 0x2C58 JUMP JUMPDEST SWAP1 POP SWAP2 SWAP1 POP JUMP JUMPDEST PUSH1 0x0 PUSH1 0x20 DUP3 ADD SWAP1 POP DUP2 DUP2 SUB PUSH1 0x0 DUP4 ADD MSTORE PUSH2 0x3098 DUP2 PUSH2 0x2C7B JUMP JUMPDEST SWAP1 POP SWAP2 SWAP1 POP JUMP JUMPDEST PUSH1 0x0 PUSH1 0x20 DUP3 ADD SWAP1 POP DUP2 DUP2 SUB PUSH1 0x0 DUP4 ADD MSTORE PUSH2 0x30B8 DUP2 PUSH2 0x2C9E JUMP JUMPDEST SWAP1 POP SWAP2 SWAP1 POP JUMP JUMPDEST PUSH1 0x0 PUSH1 0x20 DUP3 ADD SWAP1 POP DUP2 DUP2 SUB PUSH1 0x0 DUP4 ADD MSTORE PUSH2 0x30D8 DUP2 PUSH2 0x2CC1 JUMP JUMPDEST SWAP1 POP SWAP2 SWAP1 POP JUMP JUMPDEST PUSH1 0x0 PUSH1 0x20 DUP3 ADD SWAP1 POP DUP2 DUP2 SUB PUSH1 0x0 DUP4 ADD MSTORE PUSH2 0x30F8 DUP2 PUSH2 0x2CE4 JUMP JUMPDEST SWAP1 POP SWAP2 SWAP1 POP JUMP JUMPDEST PUSH1 0x0 PUSH1 0x20 DUP3 ADD SWAP1 POP DUP2 DUP2 SUB PUSH1 0x0 DUP4 ADD MSTORE PUSH2 0x3118 DUP2 PUSH2 0x2D07 JUMP JUMPDEST SWAP1 POP SWAP2 SWAP1 POP JUMP JUMPDEST PUSH1 0x0 PUSH1 0x20 DUP3 ADD SWAP1 POP DUP2 DUP2 SUB PUSH1 0x0 DUP4 ADD MSTORE PUSH2 0x3138 DUP2 PUSH2 0x2D2A JUMP JUMPDEST SWAP1 POP SWAP2 SWAP1 POP JUMP JUMPDEST PUSH1 0x0 PUSH1 0x20 DUP3 ADD SWAP1 POP DUP2 DUP2 SUB PUSH1 0x0 DUP4 ADD MSTORE PUSH2 0x3158 DUP2 PUSH2 0x2D4D JUMP JUMPDEST SWAP1 POP SWAP2 SWAP1 POP JUMP JUMPDEST PUSH1 0x0 PUSH1 0x20 DUP3 ADD SWAP1 POP DUP2 DUP2 SUB PUSH1 0x0 DUP4 ADD MSTORE PUSH2 0x3178 DUP2 PUSH2 0x2D70 JUMP JUMPDEST SWAP1 POP SWAP2 SWAP1 POP JUMP JUMPDEST PUSH1 0x0 PUSH1 0x20 DUP3 ADD SWAP1 POP DUP2 DUP2 SUB PUSH1 0x0 DUP4 ADD MSTORE PUSH2 0x3198 DUP2 PUSH2 0x2D93 JUMP JUMPDEST SWAP1 POP SWAP2 SWAP1 POP JUMP JUMPDEST PUSH1 0x0 PUSH1 0x20 DUP3 ADD SWAP1 POP DUP2 DUP2 SUB PUSH1 0x0 DUP4 ADD MSTORE PUSH2 0x31B8 DUP2 PUSH2 0x2DD9 JUMP JUMPDEST SWAP1 POP SWAP2 SWAP1 POP JUMP JUMPDEST PUSH1 0x0 PUSH1 0x20 DUP3 ADD SWAP1 POP PUSH2 0x31D4 PUSH1 0x0 DUP4 ADD DUP5 PUSH2 0x2E1A JUMP JUMPDEST SWAP3 SWAP2 POP POP JUMP JUMPDEST PUSH1 0x0 PUSH2 0x31E4 PUSH2 0x31F5 JUMP JUMPDEST SWAP1 POP PUSH2 0x31F0 DUP3 DUP3 PUSH2 0x3476 JUMP JUMPDEST SWAP2 SWAP1 POP JUMP JUMPDEST PUSH1 0x0 PUSH1 0x40 MLOAD SWAP1 POP SWAP1 JUMP JUMPDEST PUSH1 0x0 PUSH8 0xFFFFFFFFFFFFFFFF DUP3 GT ISZERO PUSH2 0x321A JUMPI PUSH2 0x3219 PUSH2 0x360C JUMP JUMPDEST JUMPDEST PUSH1 0x20 DUP3 MUL SWAP1 POP PUSH1 0x20 DUP2 ADD SWAP1 POP SWAP2 SWAP1 POP JUMP JUMPDEST PUSH1 0x0 PUSH8 0xFFFFFFFFFFFFFFFF DUP3 GT ISZERO PUSH2 0x3246 JUMPI PUSH2 0x3245 PUSH2 0x360C JUMP JUMPDEST JUMPDEST PUSH2 0x324F DUP3 PUSH2 0x3654 JUMP JUMPDEST SWAP1 POP PUSH1 0x20 DUP2 ADD SWAP1 POP SWAP2 SWAP1 POP JUMP JUMPDEST PUSH1 0x0 DUP2 SWAP1 POP SWAP2 SWAP1 POP JUMP JUMPDEST PUSH1 0x0 PUSH1 0x3 SWAP1 POP SWAP2 SWAP1 POP JUMP JUMPDEST PUSH1 0x0 DUP2 MLOAD SWAP1 POP SWAP2 SWAP1 POP JUMP JUMPDEST PUSH1 0x0 DUP2 MLOAD SWAP1 POP SWAP2 SWAP1 POP JUMP JUMPDEST PUSH1 0x0 PUSH1 0x20 DUP3 ADD SWAP1 POP SWAP2 SWAP1 POP JUMP JUMPDEST PUSH1 0x0 DUP2 SWAP1 POP SWAP3 SWAP2 POP POP JUMP JUMPDEST PUSH1 0x0 DUP3 DUP3 MSTORE PUSH1 0x20 DUP3 ADD SWAP1 POP SWAP3 SWAP2 POP POP JUMP JUMPDEST PUSH1 0x0 DUP2 SWAP1 POP SWAP3 SWAP2 POP POP JUMP JUMPDEST PUSH1 0x0 DUP3 DUP3 MSTORE PUSH1 0x20 DUP3 ADD SWAP1 POP SWAP3 SWAP2 POP POP JUMP JUMPDEST PUSH1 0x0 DUP2 SWAP1 POP SWAP3 SWAP2 POP POP JUMP JUMPDEST PUSH1 0x0 PUSH2 0x32E2 DUP3 PUSH2 0x33C2 JUMP JUMPDEST SWAP2 POP PUSH2 0x32ED DUP4 PUSH2 0x33C2 JUMP JUMPDEST SWAP3 POP DUP3 PUSH32 0xFFFFFFFFFFFFFFFFFFFFFFFFFFFFFFFFFFFFFFFFFFFFFFFFFFFFFFFFFFFFFFFF SUB DUP3 GT ISZERO PUSH2 0x3322 JUMPI PUSH2 0x3321 PUSH2 0x3521 JUMP JUMPDEST JUMPDEST DUP3 DUP3 ADD SWAP1 POP SWAP3 SWAP2 POP POP JUMP JUMPDEST PUSH1 0x0 PUSH2 0x3338 DUP3 PUSH2 0x33A2 JUMP JUMPDEST SWAP1 POP SWAP2 SWAP1 POP JUMP JUMPDEST PUSH1 0x0 DUP2 ISZERO ISZERO SWAP1 POP SWAP2 SWAP1 POP JUMP JUMPDEST PUSH1 0x0 DUP2 SWAP1 POP SWAP2 SWAP1 POP JUMP JUMPDEST PUSH1 0x0 PUSH32 0xFFFFFFFF00000000000000000000000000000000000000000000000000000000 DUP3 AND SWAP1 POP SWAP2 SWAP1 POP JUMP JUMPDEST PUSH1 0x0 DUP2 SWAP1 POP PUSH2 0x338F DUP3 PUSH2 0x39FC JUMP JUMPDEST SWAP2 SWAP1 POP JUMP JUMPDEST PUSH1 0x0 PUSH2 0xFFFF DUP3 AND SWAP1 POP SWAP2 SWAP1 POP JUMP JUMPDEST PUSH1 0x0 PUSH20 0xFFFFFFFFFFFFFFFFFFFFFFFFFFFFFFFFFFFFFFFF DUP3 AND SWAP1 POP SWAP2 SWAP1 POP JUMP JUMPDEST PUSH1 0x0 DUP2 SWAP1 POP SWAP2 SWAP1 POP JUMP JUMPDEST PUSH1 0x0 PUSH4 0xFFFFFFFF DUP3 AND SWAP1 POP SWAP2 SWAP1 POP JUMP JUMPDEST PUSH1 0x0 PUSH8 0xFFFFFFFFFFFFFFFF DUP3 AND SWAP1 POP SWAP2 SWAP1 POP JUMP JUMPDEST PUSH1 0x0 PUSH2 0x33FB DUP3 PUSH2 0x3381 JUMP JUMPDEST SWAP1 POP SWAP2 SWAP1 POP JUMP JUMPDEST DUP3 DUP2 DUP4 CALLDATACOPY PUSH1 0x0 DUP4 DUP4 ADD MSTORE POP POP POP JUMP JUMPDEST PUSH1 0x0 JUMPDEST DUP4 DUP2 LT ISZERO PUSH2 0x342F JUMPI DUP1 DUP3 ADD MLOAD DUP2 DUP5 ADD MSTORE PUSH1 0x20 DUP2 ADD SWAP1 POP PUSH2 0x3414 JUMP JUMPDEST DUP4 DUP2 GT ISZERO PUSH2 0x343E JUMPI PUSH1 0x0 DUP5 DUP5 ADD MSTORE JUMPDEST POP POP POP POP JUMP JUMPDEST PUSH1 0x0 PUSH1 0x2 DUP3 DIV SWAP1 POP PUSH1 0x1 DUP3 AND DUP1 PUSH2 0x345C JUMPI PUSH1 0x7F DUP3 AND SWAP2 POP JUMPDEST PUSH1 0x20 DUP3 LT DUP2 EQ ISZERO PUSH2 0x3470 JUMPI PUSH2 0x346F PUSH2 0x35AE JUMP JUMPDEST JUMPDEST POP SWAP2 SWAP1 POP JUMP JUMPDEST PUSH2 0x347F DUP3 PUSH2 0x3654 JUMP JUMPDEST DUP2 ADD DUP2 DUP2 LT PUSH8 0xFFFFFFFFFFFFFFFF DUP3 GT OR ISZERO PUSH2 0x349E JUMPI PUSH2 0x349D PUSH2 0x360C JUMP JUMPDEST JUMPDEST DUP1 PUSH1 0x40 MSTORE POP POP POP JUMP JUMPDEST PUSH1 0x0 PUSH2 0x34B2 DUP3 PUSH2 0x33C2 JUMP JUMPDEST SWAP2 POP PUSH32 0xFFFFFFFFFFFFFFFFFFFFFFFFFFFFFFFFFFFFFFFFFFFFFFFFFFFFFFFFFFFFFFFF DUP3 EQ ISZERO PUSH2 0x34E5 JUMPI PUSH2 0x34E4 PUSH2 0x3521 JUMP JUMPDEST JUMPDEST PUSH1 0x1 DUP3 ADD SWAP1 POP SWAP2 SWAP1 POP JUMP JUMPDEST PUSH1 0x0 PUSH2 0x34FB DUP3 PUSH2 0x33C2 JUMP JUMPDEST SWAP2 POP PUSH2 0x3506 DUP4 PUSH2 0x33C2 JUMP JUMPDEST SWAP3 POP DUP3 PUSH2 0x3516 JUMPI PUSH2 0x3515 PUSH2 0x3550 JUMP JUMPDEST JUMPDEST DUP3 DUP3 MOD SWAP1 POP SWAP3 SWAP2 POP POP JUMP JUMPDEST PUSH32 0x4E487B7100000000000000000000000000000000000000000000000000000000 PUSH1 0x0 MSTORE PUSH1 0x11 PUSH1 0x4 MSTORE PUSH1 0x24 PUSH1 0x0 REVERT JUMPDEST PUSH32 0x4E487B7100000000000000000000000000000000000000000000000000000000 PUSH1 0x0 MSTORE PUSH1 0x12 PUSH1 0x4 MSTORE PUSH1 0x24 PUSH1 0x0 REVERT JUMPDEST PUSH32 0x4E487B7100000000000000000000000000000000000000000000000000000000 PUSH1 0x0 MSTORE PUSH1 0x21 PUSH1 0x4 MSTORE PUSH1 0x24 PUSH1 0x0 REVERT JUMPDEST PUSH32 0x4E487B7100000000000000000000000000000000000000000000000000000000 PUSH1 0x0 MSTORE PUSH1 0x22 PUSH1 0x4 MSTORE PUSH1 0x24 PUSH1 0x0 REVERT JUMPDEST PUSH32 0x4E487B7100000000000000000000000000000000000000000000000000000000 PUSH1 0x0 MSTORE PUSH1 0x32 PUSH1 0x4 MSTORE PUSH1 0x24 PUSH1 0x0 REVERT JUMPDEST PUSH32 0x4E487B7100000000000000000000000000000000000000000000000000000000 PUSH1 0x0 MSTORE PUSH1 0x41 PUSH1 0x4 MSTORE PUSH1 0x24 PUSH1 0x0 REVERT JUMPDEST PUSH1 0x0 DUP1 REVERT JUMPDEST PUSH1 0x0 DUP1 REVERT JUMPDEST PUSH1 0x0 DUP1 REVERT JUMPDEST PUSH1 0x0 DUP1 REVERT JUMPDEST PUSH1 0x0 DUP1 REVERT JUMPDEST PUSH1 0x0 PUSH1 0x1F NOT PUSH1 0x1F DUP4 ADD AND SWAP1 POP SWAP2 SWAP1 POP JUMP JUMPDEST PUSH32 0x4552433732313A2063616C6C6572206973206E6F7420746F6B656E206F776E65 PUSH1 0x0 DUP3 ADD MSTORE PUSH32 0x72206F7220617070726F76656400000000000000000000000000000000000000 PUSH1 0x20 DUP3 ADD MSTORE POP JUMP JUMPDEST PUSH32 0x4552433732313A207472616E7366657220746F206E6F6E204552433732315265 PUSH1 0x0 DUP3 ADD MSTORE PUSH32 0x63656976657220696D706C656D656E7465720000000000000000000000000000 PUSH1 0x20 DUP3 ADD MSTORE POP JUMP JUMPDEST PUSH32 0x4F776E61626C653A206E6577206F776E657220697320746865207A65726F2061 PUSH1 0x0 DUP3 ADD MSTORE PUSH32 0x6464726573730000000000000000000000000000000000000000000000000000 PUSH1 0x20 DUP3 ADD MSTORE POP JUMP JUMPDEST PUSH32 0x4552433732313A207472616E736665722066726F6D20696E636F727265637420 PUSH1 0x0 DUP3 ADD MSTORE PUSH32 0x6F776E6572000000000000000000000000000000000000000000000000000000 PUSH1 0x20 DUP3 ADD MSTORE POP JUMP JUMPDEST PUSH32 0x4552433732313A20746F6B656E20616C7265616479206D696E74656400000000 PUSH1 0x0 DUP3 ADD MSTORE POP JUMP JUMPDEST PUSH32 0x4552433732313A207472616E7366657220746F20746865207A65726F20616464 PUSH1 0x0 DUP3 ADD MSTORE PUSH32 0x7265737300000000000000000000000000000000000000000000000000000000 PUSH1 0x20 DUP3 ADD MSTORE POP JUMP JUMPDEST PUSH32 0x4552433732313A20617070726F766520746F2063616C6C657200000000000000 PUSH1 0x0 DUP3 ADD MSTORE POP JUMP JUMPDEST PUSH32 0x4552433732313A2061646472657373207A65726F206973206E6F742061207661 PUSH1 0x0 DUP3 ADD MSTORE PUSH32 0x6C6964206F776E65720000000000000000000000000000000000000000000000 PUSH1 0x20 DUP3 ADD MSTORE POP JUMP JUMPDEST PUSH32 0x45524337323155524953746F726167653A2055524920736574206F66206E6F6E PUSH1 0x0 DUP3 ADD MSTORE PUSH32 0x6578697374656E7420746F6B656E000000000000000000000000000000000000 PUSH1 0x20 DUP3 ADD MSTORE POP JUMP JUMPDEST PUSH32 0x4552433732313A206D696E7420746F20746865207A65726F2061646472657373 PUSH1 0x0 DUP3 ADD MSTORE POP JUMP JUMPDEST PUSH32 0x4F776E61626C653A2063616C6C6572206973206E6F7420746865206F776E6572 PUSH1 0x0 DUP3 ADD MSTORE POP JUMP JUMPDEST PUSH32 0x4552433732313A20696E76616C696420746F6B656E2049440000000000000000 PUSH1 0x0 DUP3 ADD MSTORE POP JUMP JUMPDEST PUSH32 0x4552433732313A20617070726F76616C20746F2063757272656E74206F776E65 PUSH1 0x0 DUP3 ADD MSTORE PUSH32 0x7200000000000000000000000000000000000000000000000000000000000000 PUSH1 0x20 DUP3 ADD MSTORE POP JUMP JUMPDEST POP JUMP JUMPDEST PUSH32 0x4552433732313A20617070726F76652063616C6C6572206973206E6F7420746F PUSH1 0x0 DUP3 ADD MSTORE PUSH32 0x6B656E206F776E6572206F7220617070726F76656420666F7220616C6C000000 PUSH1 0x20 DUP3 ADD MSTORE POP JUMP JUMPDEST PUSH1 0x3 DUP2 LT PUSH2 0x3A0D JUMPI PUSH2 0x3A0C PUSH2 0x357F JUMP JUMPDEST JUMPDEST POP JUMP JUMPDEST PUSH2 0x3A19 DUP2 PUSH2 0x332D JUMP JUMPDEST DUP2 EQ PUSH2 0x3A24 JUMPI PUSH1 0x0 DUP1 REVERT JUMPDEST POP JUMP JUMPDEST PUSH2 0x3A30 DUP2 PUSH2 0x333F JUMP JUMPDEST DUP2 EQ PUSH2 0x3A3B JUMPI PUSH1 0x0 DUP1 REVERT JUMPDEST POP JUMP JUMPDEST PUSH2 0x3A47 DUP2 PUSH2 0x3355 JUMP JUMPDEST DUP2 EQ PUSH2 0x3A52 JUMPI PUSH1 0x0 DUP1 REVERT JUMPDEST POP JUMP JUMPDEST PUSH2 0x3A5E DUP2 PUSH2 0x33C2 JUMP JUMPDEST DUP2 EQ PUSH2 0x3A69 JUMPI PUSH1 0x0 DUP1 REVERT JUMPDEST POP JUMP INVALID LOG2 PUSH5 0x6970667358 0x22 SLT KECCAK256 0xDD CODESIZE 0xED 0xF 0x23 0x29 DUP9 JUMP BASEFEE 0xFC 0xD1 0xC5 DUP9 TIMESTAMP 0xD2 DIFFICULTY 0xD7 BASEFEE BALANCE SWAP1 0xAA TIMESTAMP 0x21 0xDA CALLDATALOAD SWAP1 DELEGATECALL 0xF9 PUSH1 0x1F 0xDE DUP3 PUSH5 0x736F6C6343 STOP ADDMOD SMOD STOP CALLER "},"gasEstimates":{"creation":{"codeDepositCost":"3002000","executionCost":"infinite","totalCost":"infinite"},"external":{"approve(address,uint256)":"infinite","balanceOf(address)":"2902","getApproved(uint256)":"5300","getBreedFromModdedRng(uint256)":"infinite","getChanceArray()":"infinite","getDogTokenUris(uint256)":"infinite","getMintFee()":"infinite","getTokenCounter()":"2548","isApprovedForAll(address,address)":"infinite","name()":"infinite","owner()":"2611","ownerOf(uint256)":"3091","rawFulfillRandomWords(uint256,uint256[])":"infinite","renounceOwnership()":"30443","requestNft()":"infinite","s_requestIdToSender(uint256)":"2884","s_tokenCounter()":"2541","safeTransferFrom(address,address,uint256)":"infinite","safeTransferFrom(address,address,uint256,bytes)":"infinite","setApprovalForAll(address,bool)":"infinite","supportsInterface(bytes4)":"797","symbol()":"infinite","tokenURI(uint256)":"infinite","transferFrom(address,address,uint256)":"infinite","transferOwnership(address)":"30857","withdraw()":"infinite"},"internal":{"fulfillRandomWords(uint256,uint256[] memory)":"infinite"}},"methodIdentifiers":{"approve(address,uint256)":"095ea7b3","balanceOf(address)":"70a08231","getApproved(uint256)":"081812fc","getBreedFromModdedRng(uint256)":"a51cccf3","getChanceArray()":"5dacf5f4","getDogTokenUris(uint256)":"3af25975","getMintFee()":"7a5caab3","getTokenCounter()":"6e02007d","isApprovedForAll(address,address)":"e985e9c5","name()":"06fdde03","owner()":"8da5cb5b","ownerOf(uint256)":"6352211e","rawFulfillRandomWords(uint256,uint256[])":"1fe543e3","renounceOwnership()":"715018a6","requestNft()":"aa152491","s_requestIdToSender(uint256)":"a36f573b","s_tokenCounter()":"0b21a83b","safeTransferFrom(address,address,uint256)":"42842e0e","safeTransferFrom(address,address,uint256,bytes)":"b88d4fde","setApprovalForAll(address,bool)":"a22cb465","supportsInterface(bytes4)":"01ffc9a7","symbol()":"95d89b41","tokenURI(uint256)":"c87b56dd","transferFrom(address,address,uint256)":"23b872dd","transferOwnership(address)":"f2fde38b","withdraw()":"3ccfd60b"}},"storageLayout":{"storage":[{"astId":292,"contract":"contracts/RandomIpfsNft.sol:RandomIpfsNft","label":"_name","offset":0,"slot":"0","type":"t_string_storage"},{"astId":294,"contract":"contracts/RandomIpfsNft.sol:RandomIpfsNft","label":"_symbol","offset":0,"slot":"1","type":"t_string_storage"},{"astId":298,"contract":"contracts/RandomIpfsNft.sol:RandomIpfsNft","label":"_owners","offset":0,"slot":"2","type":"t_mapping(t_uint256,t_address)"},{"astId":302,"contract":"contracts/RandomIpfsNft.sol:RandomIpfsNft","label":"_balances","offset":0,"slot":"3","type":"t_mapping(t_address,t_uint256)"},{"astId":306,"contract":"contracts/RandomIpfsNft.sol:RandomIpfsNft","label":"_tokenApprovals","offset":0,"slot":"4","type":"t_mapping(t_uint256,t_address)"},{"astId":312,"contract":"contracts/RandomIpfsNft.sol:RandomIpfsNft","label":"_operatorApprovals","offset":0,"slot":"5","type":"t_mapping(t_address,t_mapping(t_address,t_bool))"},{"astId":1340,"contract":"contracts/RandomIpfsNft.sol:RandomIpfsNft","label":"_tokenURIs","offset":0,"slot":"6","type":"t_mapping(t_uint256,t_string_storage)"},{"astId":161,"contract":"contracts/RandomIpfsNft.sol:RandomIpfsNft","label":"_owner","offset":0,"slot":"7","type":"t_address"},{"astId":2949,"contract":"contracts/RandomIpfsNft.sol:RandomIpfsNft","label":"s_requestIdToSender","offset":0,"slot":"8","type":"t_mapping(t_uint256,t_address)"},{"astId":2951,"contract":"contracts/RandomIpfsNft.sol:RandomIpfsNft","label":"s_tokenCounter","offset":0,"slot":"9","type":"t_uint256"},{"astId":2957,"contract":"contracts/RandomIpfsNft.sol:RandomIpfsNft","label":"s_dogTokenUris","offset":0,"slot":"10","type":"t_array(t_string_storage)dyn_storage"}],"types":{"t_address":{"encoding":"inplace","label":"address","numberOfBytes":"20"},"t_array(t_string_storage)dyn_storage":{"base":"t_string_storage","encoding":"dynamic_array","label":"string[]","numberOfBytes":"32"},"t_bool":{"encoding":"inplace","label":"bool","numberOfBytes":"1"},"t_mapping(t_address,t_bool)":{"encoding":"mapping","key":"t_address","label":"mapping(address => bool)","numberOfBytes":"32","value":"t_bool"},"t_mapping(t_address,t_mapping(t_address,t_bool))":{"encoding":"mapping","key":"t_address","label":"mapping(address => mapping(address => bool))","numberOfBytes":"32","value":"t_mapping(t_address,t_bool)"},"t_mapping(t_address,t_uint256)":{"encoding":"mapping","key":"t_address","label":"mapping(address => uint256)","numberOfBytes":"32","value":"t_uint256"},"t_mapping(t_uint256,t_address)":{"encoding":"mapping","key":"t_uint256","label":"mapping(uint256 => address)","numberOfBytes":"32","value":"t_address"},"t_mapping(t_uint256,t_string_storage)":{"encoding":"mapping","key":"t_uint256","label":"mapping(uint256 => string)","numberOfBytes":"32","value":"t_string_storage"},"t_string_storage":{"encoding":"bytes","label":"string","numberOfBytes":"32"},"t_uint256":{"encoding":"inplace","label":"uint256","numberOfBytes":"32"}}},"userdoc":{"kind":"user","methods":{"getChanceArray()":{"notice":""}},"version":1}}}}