{
  "_format": "hh-sol-artifact-1",
  "contractName": "DynamicSvgNft",
  "sourceName": "contracts/DynamicSvgNft.sol",
  "abi": [
    {
      "inputs": [
        {
          "internalType": "address",
          "name": "priceFeedAddress",
          "type": "address"
        },
        {
          "internalType": "string",
          "name": "lowSvg",
          "type": "string"
        },
        {
          "internalType": "string",
          "name": "highSvg",
          "type": "string"
        }
      ],
      "stateMutability": "nonpayable",
      "type": "constructor"
    },
    {
      "anonymous": false,
      "inputs": [
        {
          "indexed": true,
          "internalType": "address",
          "name": "owner",
          "type": "address"
        },
        {
          "indexed": true,
          "internalType": "address",
          "name": "approved",
          "type": "address"
        },
        {
          "indexed": true,
          "internalType": "uint256",
          "name": "tokenId",
          "type": "uint256"
        }
      ],
      "name": "Approval",
      "type": "event"
    },
    {
      "anonymous": false,
      "inputs": [
        {
          "indexed": true,
          "internalType": "address",
          "name": "owner",
          "type": "address"
        },
        {
          "indexed": true,
          "internalType": "address",
          "name": "operator",
          "type": "address"
        },
        {
          "indexed": false,
          "internalType": "bool",
          "name": "approved",
          "type": "bool"
        }
      ],
      "name": "ApprovalForAll",
      "type": "event"
    },
    {
      "anonymous": false,
      "inputs": [
        {
          "indexed": true,
          "internalType": "uint256",
          "name": "tokenId",
          "type": "uint256"
        },
        {
          "indexed": false,
          "internalType": "int256",
          "name": "highVal",
          "type": "int256"
        }
      ],
      "name": "CreatedNFT",
      "type": "event"
    },
    {
      "anonymous": false,
      "inputs": [
        {
          "indexed": true,
          "internalType": "address",
          "name": "from",
          "type": "address"
        },
        {
          "indexed": true,
          "internalType": "address",
          "name": "to",
          "type": "address"
        },
        {
          "indexed": true,
          "internalType": "uint256",
          "name": "tokenId",
          "type": "uint256"
        }
      ],
      "name": "Transfer",
      "type": "event"
    },
    {
      "inputs": [
        {
          "internalType": "address",
          "name": "to",
          "type": "address"
        },
        {
          "internalType": "uint256",
          "name": "tokenId",
          "type": "uint256"
        }
      ],
      "name": "approve",
      "outputs": [],
      "stateMutability": "nonpayable",
      "type": "function"
    },
    {
      "inputs": [
        {
          "internalType": "address",
          "name": "owner",
          "type": "address"
        }
      ],
      "name": "balanceOf",
      "outputs": [
        {
          "internalType": "uint256",
          "name": "",
          "type": "uint256"
        }
      ],
      "stateMutability": "view",
      "type": "function"
    },
    {
      "inputs": [
        {
          "internalType": "uint256",
          "name": "tokenId",
          "type": "uint256"
        }
      ],
      "name": "getApproved",
      "outputs": [
        {
          "internalType": "address",
          "name": "",
          "type": "address"
        }
      ],
      "stateMutability": "view",
      "type": "function"
    },
    {
      "inputs": [
        {
          "internalType": "address",
          "name": "owner",
          "type": "address"
        },
        {
          "internalType": "address",
          "name": "operator",
          "type": "address"
        }
      ],
      "name": "isApprovedForAll",
      "outputs": [
        {
          "internalType": "bool",
          "name": "",
          "type": "bool"
        }
      ],
      "stateMutability": "view",
      "type": "function"
    },
    {
      "inputs": [
        {
          "internalType": "int256",
          "name": "highValue",
          "type": "int256"
        }
      ],
      "name": "mintNft",
      "outputs": [],
      "stateMutability": "nonpayable",
      "type": "function"
    },
    {
      "inputs": [],
      "name": "name",
      "outputs": [
        {
          "internalType": "string",
          "name": "",
          "type": "string"
        }
      ],
      "stateMutability": "view",
      "type": "function"
    },
    {
      "inputs": [
        {
          "internalType": "uint256",
          "name": "tokenId",
          "type": "uint256"
        }
      ],
      "name": "ownerOf",
      "outputs": [
        {
          "internalType": "address",
          "name": "",
          "type": "address"
        }
      ],
      "stateMutability": "view",
      "type": "function"
    },
    {
      "inputs": [
        {
          "internalType": "address",
          "name": "from",
          "type": "address"
        },
        {
          "internalType": "address",
          "name": "to",
          "type": "address"
        },
        {
          "internalType": "uint256",
          "name": "tokenId",
          "type": "uint256"
        }
      ],
      "name": "safeTransferFrom",
      "outputs": [],
      "stateMutability": "nonpayable",
      "type": "function"
    },
    {
      "inputs": [
        {
          "internalType": "address",
          "name": "from",
          "type": "address"
        },
        {
          "internalType": "address",
          "name": "to",
          "type": "address"
        },
        {
          "internalType": "uint256",
          "name": "tokenId",
          "type": "uint256"
        },
        {
          "internalType": "bytes",
          "name": "data",
          "type": "bytes"
        }
      ],
      "name": "safeTransferFrom",
      "outputs": [],
      "stateMutability": "nonpayable",
      "type": "function"
    },
    {
      "inputs": [
        {
          "internalType": "address",
          "name": "operator",
          "type": "address"
        },
        {
          "internalType": "bool",
          "name": "approved",
          "type": "bool"
        }
      ],
      "name": "setApprovalForAll",
      "outputs": [],
      "stateMutability": "nonpayable",
      "type": "function"
    },
    {
      "inputs": [
        {
          "internalType": "bytes4",
          "name": "interfaceId",
          "type": "bytes4"
        }
      ],
      "name": "supportsInterface",
      "outputs": [
        {
          "internalType": "bool",
          "name": "",
          "type": "bool"
        }
      ],
      "stateMutability": "view",
      "type": "function"
    },
    {
      "inputs": [
        {
          "internalType": "string",
          "name": "svg",
          "type": "string"
        }
      ],
      "name": "svgToImageURI",
      "outputs": [
        {
          "internalType": "string",
          "name": "",
          "type": "string"
        }
      ],
      "stateMutability": "pure",
      "type": "function"
    },
    {
      "inputs": [],
      "name": "symbol",
      "outputs": [
        {
          "internalType": "string",
          "name": "",
          "type": "string"
        }
      ],
      "stateMutability": "view",
      "type": "function"
    },
    {
      "inputs": [
        {
          "internalType": "uint256",
          "name": "tokenId",
          "type": "uint256"
        }
      ],
      "name": "tokenURI",
      "outputs": [
        {
          "internalType": "string",
          "name": "",
          "type": "string"
        }
      ],
      "stateMutability": "view",
      "type": "function"
    },
    {
      "inputs": [
        {
          "internalType": "address",
          "name": "from",
          "type": "address"
        },
        {
          "internalType": "address",
          "name": "to",
          "type": "address"
        },
        {
          "internalType": "uint256",
          "name": "tokenId",
          "type": "uint256"
        }
      ],
      "name": "transferFrom",
      "outputs": [],
      "stateMutability": "nonpayable",
      "type": "function"
    }
  ],
  "bytecode": "0x60a06040523480156200001157600080fd5b50604051620037a6380380620037a68339818101604052810190620000379190620004e2565b6040518060400160405280600f81526020017f44796e616d696320535647204e465400000000000000000000000000000000008152506040518060400160405280600381526020017f44534e00000000000000000000000000000000000000000000000000000000008152508160009080519060200190620000bb9291906200039d565b508060019080519060200190620000d49291906200039d565b50505060006006819055508273ffffffffffffffffffffffffffffffffffffffff1660808173ffffffffffffffffffffffffffffffffffffffff1660601b8152505062000127826200017160201b60201c565b600790805190602001906200013e9291906200039d565b5062000150816200017160201b60201c565b60089080519060200190620001679291906200039d565b505050506200093a565b60606000620001ac836040516020016200018c9190620005b3565b6040516020818303038152906040526200020f60201b62000ceb1760201c565b90506040518060400160405280601a81526020017f646174613a696d6167652f7376672b786d6c3b6261736536342c00000000000081525081604051602001620001f8929190620005cc565b604051602081830303815290604052915050919050565b6060600082511415620002345760405180602001604052806000815250905062000398565b600060405180606001604052806040815260200162003766604091399050600060036002855162000266919062000669565b620002729190620006c6565b6004620002809190620006fe565b9050600060208262000293919062000669565b67ffffffffffffffff811115620002af57620002ae620008cc565b5b6040519080825280601f01601f191660200182016040528015620002e25781602001600182028036833780820191505090505b509050818152600183018586518101602084015b8183101562000353576003830192508251603f8160121c168501518253600182019150603f81600c1c168501518253600182019150603f8160061c168501518253600182019150603f8116850151825360018201915050620002f6565b60038951066001811462000370576002811462000381576200038c565b613d3d60f01b60028303526200038c565b603d60f81b60018303525b50505050508093505050505b919050565b828054620003ab90620007d3565b90600052602060002090601f016020900481019282620003cf57600085556200041b565b82601f10620003ea57805160ff19168380011785556200041b565b828001600101855582156200041b579182015b828111156200041a578251825591602001919060010190620003fd565b5b5090506200042a91906200042e565b5090565b5b80821115620004495760008160009055506001016200042f565b5090565b6000620004646200045e846200061d565b620005f4565b90508281526020810184848401111562000483576200048262000900565b5b620004908482856200079d565b509392505050565b600081519050620004a98162000920565b92915050565b600082601f830112620004c757620004c6620008fb565b5b8151620004d98482602086016200044d565b91505092915050565b600080600060608486031215620004fe57620004fd6200090a565b5b60006200050e8682870162000498565b935050602084015167ffffffffffffffff81111562000532576200053162000905565b5b6200054086828701620004af565b925050604084015167ffffffffffffffff81111562000564576200056362000905565b5b6200057286828701620004af565b9150509250925092565b6000620005898262000653565b6200059581856200065e565b9350620005a78185602086016200079d565b80840191505092915050565b6000620005c182846200057c565b915081905092915050565b6000620005da82856200057c565b9150620005e882846200057c565b91508190509392505050565b60006200060062000613565b90506200060e828262000809565b919050565b6000604051905090565b600067ffffffffffffffff8211156200063b576200063a620008cc565b5b62000646826200090f565b9050602081019050919050565b600081519050919050565b600081905092915050565b6000620006768262000793565b9150620006838362000793565b9250827fffffffffffffffffffffffffffffffffffffffffffffffffffffffffffffffff03821115620006bb57620006ba6200083f565b5b828201905092915050565b6000620006d38262000793565b9150620006e08362000793565b925082620006f357620006f26200086e565b5b828204905092915050565b60006200070b8262000793565b9150620007188362000793565b9250817fffffffffffffffffffffffffffffffffffffffffffffffffffffffffffffffff04831182151516156200075457620007536200083f565b5b828202905092915050565b60006200076c8262000773565b9050919050565b600073ffffffffffffffffffffffffffffffffffffffff82169050919050565b6000819050919050565b60005b83811015620007bd578082015181840152602081019050620007a0565b83811115620007cd576000848401525b50505050565b60006002820490506001821680620007ec57607f821691505b602082108114156200080357620008026200089d565b5b50919050565b62000814826200090f565b810181811067ffffffffffffffff82111715620008365762000835620008cc565b5b80604052505050565b7f4e487b7100000000000000000000000000000000000000000000000000000000600052601160045260246000fd5b7f4e487b7100000000000000000000000000000000000000000000000000000000600052601260045260246000fd5b7f4e487b7100000000000000000000000000000000000000000000000000000000600052602260045260246000fd5b7f4e487b7100000000000000000000000000000000000000000000000000000000600052604160045260246000fd5b600080fd5b600080fd5b600080fd5b600080fd5b6000601f19601f8301169050919050565b6200092b816200075f565b81146200093757600080fd5b50565b60805160601c612e0d620009596000396000610a1c0152612e0d6000f3fe608060405234801561001057600080fd5b50600436106100f55760003560e01c806342842e0e11610097578063a22cb46511610066578063a22cb46514610296578063b88d4fde146102b2578063c87b56dd146102ce578063e985e9c5146102fe576100f5565b806342842e0e146101fc5780636352211e1461021857806370a082311461024857806395d89b4114610278576100f5565b8063095ea7b3116100d3578063095ea7b3146101785780631e9308121461019457806323b872dd146101b057806330d871c6146101cc576100f5565b806301ffc9a7146100fa57806306fdde031461012a578063081812fc14610148575b600080fd5b610114600480360381019061010f9190611daa565b61032e565b6040516101219190612323565b60405180910390f35b610132610410565b60405161013f9190612359565b60405180910390f35b610162600480360381019061015d9190611e7a565b6104a2565b60405161016f91906122bc565b60405180910390f35b610192600480360381019061018d9190611d6a565b6104e8565b005b6101ae60048036038101906101a99190611e04565b610600565b005b6101ca60048036038101906101c59190611c54565b610678565b005b6101e660048036038101906101e19190611e31565b6106d8565b6040516101f39190612359565b60405180910390f35b61021660048036038101906102119190611c54565b610765565b005b610232600480360381019061022d9190611e7a565b610785565b60405161023f91906122bc565b60405180910390f35b610262600480360381019061025d9190611be7565b61080c565b60405161026f91906124fb565b60405180910390f35b6102806108c4565b60405161028d9190612359565b60405180910390f35b6102b060048036038101906102ab9190611d2a565b610956565b005b6102cc60048036038101906102c79190611ca7565b61096c565b005b6102e860048036038101906102e39190611e7a565b6109ce565b6040516102f59190612359565b60405180910390f35b61031860048036038101906103139190611c14565b610c57565b6040516103259190612323565b60405180910390f35b60007f80ac58cd000000000000000000000000000000000000000000000000000000007bffffffffffffffffffffffffffffffffffffffffffffffffffffffff1916827bffffffffffffffffffffffffffffffffffffffffffffffffffffffff191614806103f957507f5b5e139f000000000000000000000000000000000000000000000000000000007bffffffffffffffffffffffffffffffffffffffffffffffffffffffff1916827bffffffffffffffffffffffffffffffffffffffffffffffffffffffff1916145b80610409575061040882610e64565b5b9050919050565b60606000805461041f90612797565b80601f016020809104026020016040519081016040528092919081815260200182805461044b90612797565b80156104985780601f1061046d57610100808354040283529160200191610498565b820191906000526020600020905b81548152906001019060200180831161047b57829003601f168201915b5050505050905090565b60006104ad82610ece565b6004600083815260200190815260200160002060009054906101000a900473ffffffffffffffffffffffffffffffffffffffff169050919050565b60006104f382610785565b90508073ffffffffffffffffffffffffffffffffffffffff168373ffffffffffffffffffffffffffffffffffffffff161415610564576040517f08c379a000000000000000000000000000000000000000000000000000000000815260040161055b906124bb565b60405180910390fd5b8073ffffffffffffffffffffffffffffffffffffffff16610583610f19565b73ffffffffffffffffffffffffffffffffffffffff1614806105b257506105b1816105ac610f19565b610c57565b5b6105f1576040517f08c379a00000000000000000000000000000000000000000000000000000000081526004016105e8906124db565b60405180910390fd5b6105fb8383610f21565b505050565b806009600060065481526020019081526020016000208190555061062633600654610fda565b600160065461063591906125e0565b6006819055506006547f882d3b5a729a8bb95cf6c0083c99b42ecd9637123d4425bd7b768877fd8af8b08260405161066d919061233e565b60405180910390a250565b610689610683610f19565b82610ff8565b6106c8576040517f08c379a00000000000000000000000000000000000000000000000000000000081526004016106bf9061237b565b60405180910390fd5b6106d383838361108d565b505050565b60606000610704836040516020016106f09190612231565b604051602081830303815290604052610ceb565b90506040518060400160405280601a81526020017f646174613a696d6167652f7376672b786d6c3b6261736536342c0000000000008152508160405160200161074e929190612248565b604051602081830303815290604052915050919050565b6107808383836040518060200160405280600081525061096c565b505050565b60008061079183611387565b9050600073ffffffffffffffffffffffffffffffffffffffff168173ffffffffffffffffffffffffffffffffffffffff161415610803576040517f08c379a00000000000000000000000000000000000000000000000000000000081526004016107fa9061249b565b60405180910390fd5b80915050919050565b60008073ffffffffffffffffffffffffffffffffffffffff168273ffffffffffffffffffffffffffffffffffffffff16141561087d576040517f08c379a00000000000000000000000000000000000000000000000000000000081526004016108749061245b565b60405180910390fd5b600360008373ffffffffffffffffffffffffffffffffffffffff1673ffffffffffffffffffffffffffffffffffffffff168152602001908152602001600020549050919050565b6060600180546108d390612797565b80601f01602080910402602001604051908101604052809291908181526020018280546108ff90612797565b801561094c5780601f106109215761010080835404028352916020019161094c565b820191906000526020600020905b81548152906001019060200180831161092f57829003601f168201915b5050505050905090565b610968610961610f19565b83836113c4565b5050565b61097d610977610f19565b83610ff8565b6109bc576040517f08c379a00000000000000000000000000000000000000000000000000000000081526004016109b39061237b565b60405180910390fd5b6109c884848484611531565b50505050565b60606109d98261158d565b610a18576040517f08c379a0000000000000000000000000000000000000000000000000000000008152600401610a0f9061239b565b60405180910390fd5b60007f000000000000000000000000000000000000000000000000000000000000000073ffffffffffffffffffffffffffffffffffffffff1663feaf968c6040518163ffffffff1660e01b815260040160a06040518083038186803b158015610a8057600080fd5b505afa158015610a94573d6000803e3d6000fd5b505050506040513d601f19601f82011682018060405250810190610ab89190611ea7565b505050915050600060078054610acd90612797565b80601f0160208091040260200160405190810160405280929190818152602001828054610af990612797565b8015610b465780601f10610b1b57610100808354040283529160200191610b46565b820191906000526020600020905b815481529060010190602001808311610b2957829003601f168201915b5050505050905060096000858152602001908152602001600020548212610bf55760088054610b7490612797565b80601f0160208091040260200160405190810160405280929190818152602001828054610ba090612797565b8015610bed5780601f10610bc257610100808354040283529160200191610bed565b820191906000526020600020905b815481529060010190602001808311610bd057829003601f168201915b505050505090505b610bfd6115ce565b610c2e610c08610410565b83604051602001610c1a92919061226c565b604051602081830303815290604052610ceb565b604051602001610c3f929190612248565b60405160208183030381529060405292505050919050565b6000600560008473ffffffffffffffffffffffffffffffffffffffff1673ffffffffffffffffffffffffffffffffffffffff16815260200190815260200160002060008373ffffffffffffffffffffffffffffffffffffffff1673ffffffffffffffffffffffffffffffffffffffff16815260200190815260200160002060009054906101000a900460ff16905092915050565b6060600082511415610d0e57604051806020016040528060008152509050610e5f565b6000604051806060016040528060408152602001612d986040913990506000600360028551610d3d91906125e0565b610d479190612636565b6004610d539190612667565b90506000602082610d6491906125e0565b67ffffffffffffffff811115610d7d57610d7c612887565b5b6040519080825280601f01601f191660200182016040528015610daf5781602001600182028036833780820191505090505b509050818152600183018586518101602084015b81831015610e1e576003830192508251603f8160121c168501518253600182019150603f81600c1c168501518253600182019150603f8160061c168501518253600182019150603f8116850151825360018201915050610dc3565b600389510660018114610e385760028114610e4857610e53565b613d3d60f01b6002830352610e53565b603d60f81b60018303525b50505050508093505050505b919050565b60007f01ffc9a7000000000000000000000000000000000000000000000000000000007bffffffffffffffffffffffffffffffffffffffffffffffffffffffff1916827bffffffffffffffffffffffffffffffffffffffffffffffffffffffff1916149050919050565b610ed78161158d565b610f16576040517f08c379a0000000000000000000000000000000000000000000000000000000008152600401610f0d9061249b565b60405180910390fd5b50565b600033905090565b816004600083815260200190815260200160002060006101000a81548173ffffffffffffffffffffffffffffffffffffffff021916908373ffffffffffffffffffffffffffffffffffffffff160217905550808273ffffffffffffffffffffffffffffffffffffffff16610f9483610785565b73ffffffffffffffffffffffffffffffffffffffff167f8c5be1e5ebec7d5bd14f71427d1e84f3dd0314c0f7b2291e5b200ac8c7c3b92560405160405180910390a45050565b610ff482826040518060200160405280600081525061160b565b5050565b60008061100483610785565b90508073ffffffffffffffffffffffffffffffffffffffff168473ffffffffffffffffffffffffffffffffffffffff16148061104657506110458185610c57565b5b8061108457508373ffffffffffffffffffffffffffffffffffffffff1661106c846104a2565b73ffffffffffffffffffffffffffffffffffffffff16145b91505092915050565b8273ffffffffffffffffffffffffffffffffffffffff166110ad82610785565b73ffffffffffffffffffffffffffffffffffffffff1614611103576040517f08c379a00000000000000000000000000000000000000000000000000000000081526004016110fa906123db565b60405180910390fd5b600073ffffffffffffffffffffffffffffffffffffffff168273ffffffffffffffffffffffffffffffffffffffff161415611173576040517f08c379a000000000000000000000000000000000000000000000000000000000815260040161116a9061241b565b60405180910390fd5b6111808383836001611666565b8273ffffffffffffffffffffffffffffffffffffffff166111a082610785565b73ffffffffffffffffffffffffffffffffffffffff16146111f6576040517f08c379a00000000000000000000000000000000000000000000000000000000081526004016111ed906123db565b60405180910390fd5b6004600082815260200190815260200160002060006101000a81549073ffffffffffffffffffffffffffffffffffffffff02191690556001600360008573ffffffffffffffffffffffffffffffffffffffff1673ffffffffffffffffffffffffffffffffffffffff168152602001908152602001600020600082825403925050819055506001600360008473ffffffffffffffffffffffffffffffffffffffff1673ffffffffffffffffffffffffffffffffffffffff16815260200190815260200160002060008282540192505081905550816002600083815260200190815260200160002060006101000a81548173ffffffffffffffffffffffffffffffffffffffff021916908373ffffffffffffffffffffffffffffffffffffffff160217905550808273ffffffffffffffffffffffffffffffffffffffff168473ffffffffffffffffffffffffffffffffffffffff167fddf252ad1be2c89b69c2b068fc378daa952ba7f163c4a11628f55a4df523b3ef60405160405180910390a4611382838383600161166c565b505050565b60006002600083815260200190815260200160002060009054906101000a900473ffffffffffffffffffffffffffffffffffffffff169050919050565b8173ffffffffffffffffffffffffffffffffffffffff168373ffffffffffffffffffffffffffffffffffffffff161415611433576040517f08c379a000000000000000000000000000000000000000000000000000000000815260040161142a9061243b565b60405180910390fd5b80600560008573ffffffffffffffffffffffffffffffffffffffff1673ffffffffffffffffffffffffffffffffffffffff16815260200190815260200160002060008473ffffffffffffffffffffffffffffffffffffffff1673ffffffffffffffffffffffffffffffffffffffff16815260200190815260200160002060006101000a81548160ff0219169083151502179055508173ffffffffffffffffffffffffffffffffffffffff168373ffffffffffffffffffffffffffffffffffffffff167f17307eab39ab6107e8899845ad3d59bd9653f200f220920489ca2b5937696c31836040516115249190612323565b60405180910390a3505050565b61153c84848461108d565b61154884848484611672565b611587576040517f08c379a000000000000000000000000000000000000000000000000000000000815260040161157e906123bb565b60405180910390fd5b50505050565b60008073ffffffffffffffffffffffffffffffffffffffff166115af83611387565b73ffffffffffffffffffffffffffffffffffffffff1614159050919050565b60606040518060400160405280601d81526020017f646174613a6170706c69636174696f6e2f6a736f6e3b6261736536342c000000815250905090565b6116158383611809565b6116226000848484611672565b611661576040517f08c379a0000000000000000000000000000000000000000000000000000000008152600401611658906123bb565b60405180910390fd5b505050565b50505050565b50505050565b60006116938473ffffffffffffffffffffffffffffffffffffffff16611a27565b156117fc578373ffffffffffffffffffffffffffffffffffffffff1663150b7a026116bc610f19565b8786866040518563ffffffff1660e01b81526004016116de94939291906122d7565b602060405180830381600087803b1580156116f857600080fd5b505af192505050801561172957506040513d601f19601f820116820180604052508101906117269190611dd7565b60015b6117ac573d8060008114611759576040519150601f19603f3d011682016040523d82523d6000602084013e61175e565b606091505b506000815114156117a4576040517f08c379a000000000000000000000000000000000000000000000000000000000815260040161179b906123bb565b60405180910390fd5b805181602001fd5b63150b7a0260e01b7bffffffffffffffffffffffffffffffffffffffffffffffffffffffff1916817bffffffffffffffffffffffffffffffffffffffffffffffffffffffff191614915050611801565b600190505b949350505050565b600073ffffffffffffffffffffffffffffffffffffffff168273ffffffffffffffffffffffffffffffffffffffff161415611879576040517f08c379a00000000000000000000000000000000000000000000000000000000081526004016118709061247b565b60405180910390fd5b6118828161158d565b156118c2576040517f08c379a00000000000000000000000000000000000000000000000000000000081526004016118b9906123fb565b60405180910390fd5b6118d0600083836001611666565b6118d98161158d565b15611919576040517f08c379a0000000000000000000000000000000000000000000000000000000008152600401611910906123fb565b60405180910390fd5b6001600360008473ffffffffffffffffffffffffffffffffffffffff1673ffffffffffffffffffffffffffffffffffffffff16815260200190815260200160002060008282540192505081905550816002600083815260200190815260200160002060006101000a81548173ffffffffffffffffffffffffffffffffffffffff021916908373ffffffffffffffffffffffffffffffffffffffff160217905550808273ffffffffffffffffffffffffffffffffffffffff16600073ffffffffffffffffffffffffffffffffffffffff167fddf252ad1be2c89b69c2b068fc378daa952ba7f163c4a11628f55a4df523b3ef60405160405180910390a4611a2360008383600161166c565b5050565b6000808273ffffffffffffffffffffffffffffffffffffffff163b119050919050565b6000611a5d611a588461253b565b612516565b905082815260208101848484011115611a7957611a786128bb565b5b611a84848285612755565b509392505050565b6000611a9f611a9a8461256c565b612516565b905082815260208101848484011115611abb57611aba6128bb565b5b611ac6848285612755565b509392505050565b600081359050611add81612d0d565b92915050565b600081359050611af281612d24565b92915050565b600081359050611b0781612d3b565b92915050565b600081519050611b1c81612d3b565b92915050565b600082601f830112611b3757611b366128b6565b5b8135611b47848260208601611a4a565b91505092915050565b600081359050611b5f81612d52565b92915050565b600081519050611b7481612d52565b92915050565b600082601f830112611b8f57611b8e6128b6565b5b8135611b9f848260208601611a8c565b91505092915050565b600081359050611bb781612d69565b92915050565b600081519050611bcc81612d69565b92915050565b600081519050611be181612d80565b92915050565b600060208284031215611bfd57611bfc6128c5565b5b6000611c0b84828501611ace565b91505092915050565b60008060408385031215611c2b57611c2a6128c5565b5b6000611c3985828601611ace565b9250506020611c4a85828601611ace565b9150509250929050565b600080600060608486031215611c6d57611c6c6128c5565b5b6000611c7b86828701611ace565b9350506020611c8c86828701611ace565b9250506040611c9d86828701611ba8565b9150509250925092565b60008060008060808587031215611cc157611cc06128c5565b5b6000611ccf87828801611ace565b9450506020611ce087828801611ace565b9350506040611cf187828801611ba8565b925050606085013567ffffffffffffffff811115611d1257611d116128c0565b5b611d1e87828801611b22565b91505092959194509250565b60008060408385031215611d4157611d406128c5565b5b6000611d4f85828601611ace565b9250506020611d6085828601611ae3565b9150509250929050565b60008060408385031215611d8157611d806128c5565b5b6000611d8f85828601611ace565b9250506020611da085828601611ba8565b9150509250929050565b600060208284031215611dc057611dbf6128c5565b5b6000611dce84828501611af8565b91505092915050565b600060208284031215611ded57611dec6128c5565b5b6000611dfb84828501611b0d565b91505092915050565b600060208284031215611e1a57611e196128c5565b5b6000611e2884828501611b50565b91505092915050565b600060208284031215611e4757611e466128c5565b5b600082013567ffffffffffffffff811115611e6557611e646128c0565b5b611e7184828501611b7a565b91505092915050565b600060208284031215611e9057611e8f6128c5565b5b6000611e9e84828501611ba8565b91505092915050565b600080600080600060a08688031215611ec357611ec26128c5565b5b6000611ed188828901611bd2565b9550506020611ee288828901611b65565b9450506040611ef388828901611bbd565b9350506060611f0488828901611bbd565b9250506080611f1588828901611bd2565b9150509295509295909350565b611f2b816126c1565b82525050565b611f3a816126d3565b82525050565b6000611f4b8261259d565b611f5581856125b3565b9350611f65818560208601612764565b611f6e816128ca565b840191505092915050565b611f828161270b565b82525050565b6000611f93826125a8565b611f9d81856125c4565b9350611fad818560208601612764565b611fb6816128ca565b840191505092915050565b6000611fcc826125a8565b611fd681856125d5565b9350611fe6818560208601612764565b80840191505092915050565b6000611fff602d836125c4565b915061200a826128db565b604082019050919050565b60006120226009836125d5565b915061202d8261292a565b600982019050919050565b6000612045601f836125c4565b915061205082612953565b602082019050919050565b60006120686032836125c4565b91506120738261297c565b604082019050919050565b600061208b6025836125c4565b9150612096826129cb565b604082019050919050565b60006120ae601c836125c4565b91506120b982612a1a565b602082019050919050565b60006120d16024836125c4565b91506120dc82612a43565b604082019050919050565b60006120f46019836125c4565b91506120ff82612a92565b602082019050919050565b60006121176029836125c4565b915061212282612abb565b604082019050919050565b600061213a6044836125d5565b915061214582612b0a565b604482019050919050565b600061215d6002836125d5565b915061216882612b7f565b600282019050919050565b60006121806020836125c4565b915061218b82612ba8565b602082019050919050565b60006121a36018836125c4565b91506121ae82612bd1565b602082019050919050565b60006121c66021836125c4565b91506121d182612bfa565b604082019050919050565b60006121e9603d836125c4565b91506121f482612c49565b604082019050919050565b600061220c6043836125d5565b915061221782612c98565b604382019050919050565b61222b81612735565b82525050565b600061223d8284611fc1565b915081905092915050565b60006122548285611fc1565b91506122608284611fc1565b91508190509392505050565b600061227782612015565b91506122838285611fc1565b915061228e8261212d565b9150612299826121ff565b91506122a58284611fc1565b91506122b082612150565b91508190509392505050565b60006020820190506122d16000830184611f22565b92915050565b60006080820190506122ec6000830187611f22565b6122f96020830186611f22565b6123066040830185612222565b81810360608301526123188184611f40565b905095945050505050565b60006020820190506123386000830184611f31565b92915050565b60006020820190506123536000830184611f79565b92915050565b600060208201905081810360008301526123738184611f88565b905092915050565b6000602082019050818103600083015261239481611ff2565b9050919050565b600060208201905081810360008301526123b481612038565b9050919050565b600060208201905081810360008301526123d48161205b565b9050919050565b600060208201905081810360008301526123f48161207e565b9050919050565b60006020820190508181036000830152612414816120a1565b9050919050565b60006020820190508181036000830152612434816120c4565b9050919050565b60006020820190508181036000830152612454816120e7565b9050919050565b600060208201905081810360008301526124748161210a565b9050919050565b6000602082019050818103600083015261249481612173565b9050919050565b600060208201905081810360008301526124b481612196565b9050919050565b600060208201905081810360008301526124d4816121b9565b9050919050565b600060208201905081810360008301526124f4816121dc565b9050919050565b60006020820190506125106000830184612222565b92915050565b6000612520612531565b905061252c82826127c9565b919050565b6000604051905090565b600067ffffffffffffffff82111561255657612555612887565b5b61255f826128ca565b9050602081019050919050565b600067ffffffffffffffff82111561258757612586612887565b5b612590826128ca565b9050602081019050919050565b600081519050919050565b600081519050919050565b600082825260208201905092915050565b600082825260208201905092915050565b600081905092915050565b60006125eb82612735565b91506125f683612735565b9250827fffffffffffffffffffffffffffffffffffffffffffffffffffffffffffffffff0382111561262b5761262a6127fa565b5b828201905092915050565b600061264182612735565b915061264c83612735565b92508261265c5761265b612829565b5b828204905092915050565b600061267282612735565b915061267d83612735565b9250817fffffffffffffffffffffffffffffffffffffffffffffffffffffffffffffffff04831182151516156126b6576126b56127fa565b5b828202905092915050565b60006126cc82612715565b9050919050565b60008115159050919050565b60007fffffffff0000000000000000000000000000000000000000000000000000000082169050919050565b6000819050919050565b600073ffffffffffffffffffffffffffffffffffffffff82169050919050565b6000819050919050565b600069ffffffffffffffffffff82169050919050565b82818337600083830152505050565b60005b83811015612782578082015181840152602081019050612767565b83811115612791576000848401525b50505050565b600060028204905060018216806127af57607f821691505b602082108114156127c3576127c2612858565b5b50919050565b6127d2826128ca565b810181811067ffffffffffffffff821117156127f1576127f0612887565b5b80604052505050565b7f4e487b7100000000000000000000000000000000000000000000000000000000600052601160045260246000fd5b7f4e487b7100000000000000000000000000000000000000000000000000000000600052601260045260246000fd5b7f4e487b7100000000000000000000000000000000000000000000000000000000600052602260045260246000fd5b7f4e487b7100000000000000000000000000000000000000000000000000000000600052604160045260246000fd5b600080fd5b600080fd5b600080fd5b600080fd5b6000601f19601f8301169050919050565b7f4552433732313a2063616c6c6572206973206e6f7420746f6b656e206f776e6560008201527f72206f7220617070726f76656400000000000000000000000000000000000000602082015250565b7f7b226e616d65223a220000000000000000000000000000000000000000000000600082015250565b7f55524920717565727920666f72206e6f6e6578697374656e7420746f6b656e00600082015250565b7f4552433732313a207472616e7366657220746f206e6f6e20455243373231526560008201527f63656976657220696d706c656d656e7465720000000000000000000000000000602082015250565b7f4552433732313a207472616e736665722066726f6d20696e636f72726563742060008201527f6f776e6572000000000000000000000000000000000000000000000000000000602082015250565b7f4552433732313a20746f6b656e20616c7265616479206d696e74656400000000600082015250565b7f4552433732313a207472616e7366657220746f20746865207a65726f2061646460008201527f7265737300000000000000000000000000000000000000000000000000000000602082015250565b7f4552433732313a20617070726f766520746f2063616c6c657200000000000000600082015250565b7f4552433732313a2061646472657373207a65726f206973206e6f74206120766160008201527f6c6964206f776e65720000000000000000000000000000000000000000000000602082015250565b7f222c20226465736372697074696f6e223a22416e204e4654207468617420636860008201527f616e676573206261736564206f6e2074686520436861696e6c696e6b2046656560208201527f64222c2000000000000000000000000000000000000000000000000000000000604082015250565b7f227d000000000000000000000000000000000000000000000000000000000000600082015250565b7f4552433732313a206d696e7420746f20746865207a65726f2061646472657373600082015250565b7f4552433732313a20696e76616c696420746f6b656e2049440000000000000000600082015250565b7f4552433732313a20617070726f76616c20746f2063757272656e74206f776e6560008201527f7200000000000000000000000000000000000000000000000000000000000000602082015250565b7f4552433732313a20617070726f76652063616c6c6572206973206e6f7420746f60008201527f6b656e206f776e6572206f7220617070726f76656420666f7220616c6c000000602082015250565b7f2261747472696275746573223a205b7b2274726169745f74797065223a20226360008201527f6f6f6c6e657373222c202276616c7565223a203130307d5d2c2022696d61676560208201527f223a220000000000000000000000000000000000000000000000000000000000604082015250565b612d16816126c1565b8114612d2157600080fd5b50565b612d2d816126d3565b8114612d3857600080fd5b50565b612d44816126df565b8114612d4f57600080fd5b50565b612d5b8161270b565b8114612d6657600080fd5b50565b612d7281612735565b8114612d7d57600080fd5b50565b612d898161273f565b8114612d9457600080fd5b5056fe4142434445464748494a4b4c4d4e4f505152535455565758595a6162636465666768696a6b6c6d6e6f707172737475767778797a303132333435363738392b2fa264697066735822122007940d94b34c6504eadad6070f38304257e00eeb275ad94a57d6e33e79718bd164736f6c634300080700334142434445464748494a4b4c4d4e4f505152535455565758595a6162636465666768696a6b6c6d6e6f707172737475767778797a303132333435363738392b2f",
  "linkReferences": {},
  "deployedLinkReferences": {}
}