{
  "_format": "hh-sol-artifact-1",
  "contractName": "RandomIpfsNft",
  "sourceName": "contracts/RandomIpfsNft.sol",
  "abi": [
    {
      "inputs": [
        {
          "internalType": "address",
          "name": "vrfCoordinatorV2",
          "type": "address"
        },
        {
          "internalType": "uint64",
          "name": "subscriptionId",
          "type": "uint64"
        },
        {
          "internalType": "bytes32",
          "name": "gasLane",
          "type": "bytes32"
        },
        {
          "internalType": "uint32",
          "name": "callbackGasLimit",
          "type": "uint32"
        },
        {
          "internalType": "string[3]",
          "name": "dogTokenUris",
          "type": "string[3]"
        },
        {
          "internalType": "uint256",
          "name": "mintFee",
          "type": "uint256"
        }
      ],
      "stateMutability": "nonpayable",
      "type": "constructor"
    },
    {
      "inputs": [
        {
          "internalType": "address",
          "name": "have",
          "type": "address"
        },
        {
          "internalType": "address",
          "name": "want",
          "type": "address"
        }
      ],
      "name": "OnlyCoordinatorCanFulfill",
      "type": "error"
    },
    {
      "inputs": [],
      "name": "RandomIpfsNft__NeedMoreETHSent",
      "type": "error"
    },
    {
      "inputs": [],
      "name": "RandomIpfsNft__RangeOutOfBounds",
      "type": "error"
    },
    {
      "inputs": [],
      "name": "RandomIpfsNft__TransferFailed",
      "type": "error"
    },
    {
      "anonymous": false,
      "inputs": [
        {
          "indexed": true,
          "internalType": "address",
          "name": "owner",
          "type": "address"
        },
        {
          "indexed": true,
          "internalType": "address",
          "name": "approved",
          "type": "address"
        },
        {
          "indexed": true,
          "internalType": "uint256",
          "name": "tokenId",
          "type": "uint256"
        }
      ],
      "name": "Approval",
      "type": "event"
    },
    {
      "anonymous": false,
      "inputs": [
        {
          "indexed": true,
          "internalType": "address",
          "name": "owner",
          "type": "address"
        },
        {
          "indexed": true,
          "internalType": "address",
          "name": "operator",
          "type": "address"
        },
        {
          "indexed": false,
          "internalType": "bool",
          "name": "approved",
          "type": "bool"
        }
      ],
      "name": "ApprovalForAll",
      "type": "event"
    },
    {
      "anonymous": false,
      "inputs": [
        {
          "indexed": false,
          "internalType": "enum RandomIpfsNft.Breed",
          "name": "breed",
          "type": "uint8"
        },
        {
          "indexed": false,
          "internalType": "address",
          "name": "minter",
          "type": "address"
        }
      ],
      "name": "NftMinted",
      "type": "event"
    },
    {
      "anonymous": false,
      "inputs": [
        {
          "indexed": true,
          "internalType": "uint256",
          "name": "requestId",
          "type": "uint256"
        },
        {
          "indexed": false,
          "internalType": "address",
          "name": "requester",
          "type": "address"
        }
      ],
      "name": "NftRequested",
      "type": "event"
    },
    {
      "anonymous": false,
      "inputs": [
        {
          "indexed": true,
          "internalType": "address",
          "name": "previousOwner",
          "type": "address"
        },
        {
          "indexed": true,
          "internalType": "address",
          "name": "newOwner",
          "type": "address"
        }
      ],
      "name": "OwnershipTransferred",
      "type": "event"
    },
    {
      "anonymous": false,
      "inputs": [
        {
          "indexed": true,
          "internalType": "address",
          "name": "from",
          "type": "address"
        },
        {
          "indexed": true,
          "internalType": "address",
          "name": "to",
          "type": "address"
        },
        {
          "indexed": true,
          "internalType": "uint256",
          "name": "tokenId",
          "type": "uint256"
        }
      ],
      "name": "Transfer",
      "type": "event"
    },
    {
      "inputs": [
        {
          "internalType": "address",
          "name": "to",
          "type": "address"
        },
        {
          "internalType": "uint256",
          "name": "tokenId",
          "type": "uint256"
        }
      ],
      "name": "approve",
      "outputs": [],
      "stateMutability": "nonpayable",
      "type": "function"
    },
    {
      "inputs": [
        {
          "internalType": "address",
          "name": "owner",
          "type": "address"
        }
      ],
      "name": "balanceOf",
      "outputs": [
        {
          "internalType": "uint256",
          "name": "",
          "type": "uint256"
        }
      ],
      "stateMutability": "view",
      "type": "function"
    },
    {
      "inputs": [
        {
          "internalType": "uint256",
          "name": "tokenId",
          "type": "uint256"
        }
      ],
      "name": "getApproved",
      "outputs": [
        {
          "internalType": "address",
          "name": "",
          "type": "address"
        }
      ],
      "stateMutability": "view",
      "type": "function"
    },
    {
      "inputs": [
        {
          "internalType": "uint256",
          "name": "moddedRng",
          "type": "uint256"
        }
      ],
      "name": "getBreedFromModdedRng",
      "outputs": [
        {
          "internalType": "enum RandomIpfsNft.Breed",
          "name": "",
          "type": "uint8"
        }
      ],
      "stateMutability": "pure",
      "type": "function"
    },
    {
      "inputs": [],
      "name": "getChanceArray",
      "outputs": [
        {
          "internalType": "uint256[3]",
          "name": "",
          "type": "uint256[3]"
        }
      ],
      "stateMutability": "pure",
      "type": "function"
    },
    {
      "inputs": [
        {
          "internalType": "uint256",
          "name": "index",
          "type": "uint256"
        }
      ],
      "name": "getDogTokenUris",
      "outputs": [
        {
          "internalType": "string",
          "name": "",
          "type": "string"
        }
      ],
      "stateMutability": "view",
      "type": "function"
    },
    {
      "inputs": [],
      "name": "getMintFee",
      "outputs": [
        {
          "internalType": "uint256",
          "name": "",
          "type": "uint256"
        }
      ],
      "stateMutability": "view",
      "type": "function"
    },
    {
      "inputs": [],
      "name": "getTokenCounter",
      "outputs": [
        {
          "internalType": "uint256",
          "name": "",
          "type": "uint256"
        }
      ],
      "stateMutability": "view",
      "type": "function"
    },
    {
      "inputs": [
        {
          "internalType": "address",
          "name": "owner",
          "type": "address"
        },
        {
          "internalType": "address",
          "name": "operator",
          "type": "address"
        }
      ],
      "name": "isApprovedForAll",
      "outputs": [
        {
          "internalType": "bool",
          "name": "",
          "type": "bool"
        }
      ],
      "stateMutability": "view",
      "type": "function"
    },
    {
      "inputs": [],
      "name": "name",
      "outputs": [
        {
          "internalType": "string",
          "name": "",
          "type": "string"
        }
      ],
      "stateMutability": "view",
      "type": "function"
    },
    {
      "inputs": [],
      "name": "owner",
      "outputs": [
        {
          "internalType": "address",
          "name": "",
          "type": "address"
        }
      ],
      "stateMutability": "view",
      "type": "function"
    },
    {
      "inputs": [
        {
          "internalType": "uint256",
          "name": "tokenId",
          "type": "uint256"
        }
      ],
      "name": "ownerOf",
      "outputs": [
        {
          "internalType": "address",
          "name": "",
          "type": "address"
        }
      ],
      "stateMutability": "view",
      "type": "function"
    },
    {
      "inputs": [
        {
          "internalType": "uint256",
          "name": "requestId",
          "type": "uint256"
        },
        {
          "internalType": "uint256[]",
          "name": "randomWords",
          "type": "uint256[]"
        }
      ],
      "name": "rawFulfillRandomWords",
      "outputs": [],
      "stateMutability": "nonpayable",
      "type": "function"
    },
    {
      "inputs": [],
      "name": "renounceOwnership",
      "outputs": [],
      "stateMutability": "nonpayable",
      "type": "function"
    },
    {
      "inputs": [],
      "name": "requestNft",
      "outputs": [
        {
          "internalType": "uint256",
          "name": "requestId",
          "type": "uint256"
        }
      ],
      "stateMutability": "payable",
      "type": "function"
    },
    {
      "inputs": [
        {
          "internalType": "uint256",
          "name": "",
          "type": "uint256"
        }
      ],
      "name": "s_requestIdToSender",
      "outputs": [
        {
          "internalType": "address",
          "name": "",
          "type": "address"
        }
      ],
      "stateMutability": "view",
      "type": "function"
    },
    {
      "inputs": [],
      "name": "s_tokenCounter",
      "outputs": [
        {
          "internalType": "uint256",
          "name": "",
          "type": "uint256"
        }
      ],
      "stateMutability": "view",
      "type": "function"
    },
    {
      "inputs": [
        {
          "internalType": "address",
          "name": "from",
          "type": "address"
        },
        {
          "internalType": "address",
          "name": "to",
          "type": "address"
        },
        {
          "internalType": "uint256",
          "name": "tokenId",
          "type": "uint256"
        }
      ],
      "name": "safeTransferFrom",
      "outputs": [],
      "stateMutability": "nonpayable",
      "type": "function"
    },
    {
      "inputs": [
        {
          "internalType": "address",
          "name": "from",
          "type": "address"
        },
        {
          "internalType": "address",
          "name": "to",
          "type": "address"
        },
        {
          "internalType": "uint256",
          "name": "tokenId",
          "type": "uint256"
        },
        {
          "internalType": "bytes",
          "name": "data",
          "type": "bytes"
        }
      ],
      "name": "safeTransferFrom",
      "outputs": [],
      "stateMutability": "nonpayable",
      "type": "function"
    },
    {
      "inputs": [
        {
          "internalType": "address",
          "name": "operator",
          "type": "address"
        },
        {
          "internalType": "bool",
          "name": "approved",
          "type": "bool"
        }
      ],
      "name": "setApprovalForAll",
      "outputs": [],
      "stateMutability": "nonpayable",
      "type": "function"
    },
    {
      "inputs": [
        {
          "internalType": "bytes4",
          "name": "interfaceId",
          "type": "bytes4"
        }
      ],
      "name": "supportsInterface",
      "outputs": [
        {
          "internalType": "bool",
          "name": "",
          "type": "bool"
        }
      ],
      "stateMutability": "view",
      "type": "function"
    },
    {
      "inputs": [],
      "name": "symbol",
      "outputs": [
        {
          "internalType": "string",
          "name": "",
          "type": "string"
        }
      ],
      "stateMutability": "view",
      "type": "function"
    },
    {
      "inputs": [
        {
          "internalType": "uint256",
          "name": "tokenId",
          "type": "uint256"
        }
      ],
      "name": "tokenURI",
      "outputs": [
        {
          "internalType": "string",
          "name": "",
          "type": "string"
        }
      ],
      "stateMutability": "view",
      "type": "function"
    },
    {
      "inputs": [
        {
          "internalType": "address",
          "name": "from",
          "type": "address"
        },
        {
          "internalType": "address",
          "name": "to",
          "type": "address"
        },
        {
          "internalType": "uint256",
          "name": "tokenId",
          "type": "uint256"
        }
      ],
      "name": "transferFrom",
      "outputs": [],
      "stateMutability": "nonpayable",
      "type": "function"
    },
    {
      "inputs": [
        {
          "internalType": "address",
          "name": "newOwner",
          "type": "address"
        }
      ],
      "name": "transferOwnership",
      "outputs": [],
      "stateMutability": "nonpayable",
      "type": "function"
    },
    {
      "inputs": [],
      "name": "withdraw",
      "outputs": [],
      "stateMutability": "nonpayable",
      "type": "function"
    }
  ],
  "bytecode": "0x6101406040523480156200001257600080fd5b5060405162004459380380620044598339818101604052810190620000389190620005d7565b6040518060400160405280600f81526020017f52616e646f6d2049504653204e465400000000000000000000000000000000008152506040518060400160405280600381526020017f52494e0000000000000000000000000000000000000000000000000000000000815250878073ffffffffffffffffffffffffffffffffffffffff1660808173ffffffffffffffffffffffffffffffffffffffff1660601b81525050508160009080519060200190620000f59291906200029e565b5080600190805190602001906200010e9291906200029e565b5050506200013162000125620001d060201b60201c565b620001d860201b60201c565b8573ffffffffffffffffffffffffffffffffffffffff1660a08173ffffffffffffffffffffffffffffffffffffffff1660601b815250508467ffffffffffffffff1660c08167ffffffffffffffff1660c01b815250508360e081815250508263ffffffff166101008163ffffffff1660e01b8152505081600a906003620001ba9291906200032f565b5080610120818152505050505050505062000932565b600033905090565b6000600760009054906101000a900473ffffffffffffffffffffffffffffffffffffffff16905081600760006101000a81548173ffffffffffffffffffffffffffffffffffffffff021916908373ffffffffffffffffffffffffffffffffffffffff1602179055508173ffffffffffffffffffffffffffffffffffffffff168173ffffffffffffffffffffffffffffffffffffffff167f8be0079c531659141344cd1fd0a4f28419497f9722a3daafe3b4186f6b6457e060405160405180910390a35050565b828054620002ac90620007bc565b90600052602060002090601f016020900481019282620002d057600085556200031c565b82601f10620002eb57805160ff19168380011785556200031c565b828001600101855582156200031c579182015b828111156200031b578251825591602001919060010190620002fe565b5b5090506200032b919062000396565b5090565b82805482825590600052602060002090810192821562000383579160200282015b8281111562000382578251829080519060200190620003719291906200029e565b509160200191906001019062000350565b5b509050620003929190620003b5565b5090565b5b80821115620003b157600081600090555060010162000397565b5090565b5b80821115620003d95760008181620003cf9190620003dd565b50600101620003b6565b5090565b508054620003eb90620007bc565b6000825580601f10620003ff575062000420565b601f0160209004906000526020600020908101906200041f919062000396565b5b50565b60006200043a6200043484620006bb565b62000692565b905080828560208602820111156200045757620004566200088b565b5b60005b85811015620004ac57815167ffffffffffffffff81111562000481576200048062000886565b5b8086016200049089826200055f565b855260208501945060208401935050506001810190506200045a565b5050509392505050565b6000620004cd620004c784620006e4565b62000692565b905082815260208101848484011115620004ec57620004eb62000890565b5b620004f984828562000786565b509392505050565b6000815190506200051281620008b0565b92915050565b600082601f83011262000530576200052f62000886565b5b60036200053f84828562000423565b91505092915050565b6000815190506200055981620008ca565b92915050565b600082601f83011262000577576200057662000886565b5b815162000589848260208601620004b6565b91505092915050565b600081519050620005a381620008e4565b92915050565b600081519050620005ba81620008fe565b92915050565b600081519050620005d18162000918565b92915050565b60008060008060008060c08789031215620005f757620005f66200089a565b5b60006200060789828a0162000501565b96505060206200061a89828a01620005c0565b95505060406200062d89828a0162000548565b94505060606200064089828a01620005a9565b935050608087015167ffffffffffffffff81111562000664576200066362000895565b5b6200067289828a0162000518565b92505060a06200068589828a0162000592565b9150509295509295509295565b60006200069e620006b1565b9050620006ac8282620007f2565b919050565b6000604051905090565b600067ffffffffffffffff821115620006d957620006d862000857565b5b602082029050919050565b600067ffffffffffffffff82111562000702576200070162000857565b5b6200070d826200089f565b9050602081019050919050565b6000620007278262000738565b9050919050565b6000819050919050565b600073ffffffffffffffffffffffffffffffffffffffff82169050919050565b6000819050919050565b600063ffffffff82169050919050565b600067ffffffffffffffff82169050919050565b60005b83811015620007a657808201518184015260208101905062000789565b83811115620007b6576000848401525b50505050565b60006002820490506001821680620007d557607f821691505b60208210811415620007ec57620007eb62000828565b5b50919050565b620007fd826200089f565b810181811067ffffffffffffffff821117156200081f576200081e62000857565b5b80604052505050565b7f4e487b7100000000000000000000000000000000000000000000000000000000600052602260045260246000fd5b7f4e487b7100000000000000000000000000000000000000000000000000000000600052604160045260246000fd5b600080fd5b600080fd5b600080fd5b600080fd5b600080fd5b6000601f19601f8301169050919050565b620008bb816200071a565b8114620008c757600080fd5b50565b620008d5816200072e565b8114620008e157600080fd5b50565b620008ef8162000758565b8114620008fb57600080fd5b50565b620009098162000762565b81146200091557600080fd5b50565b620009238162000772565b81146200092f57600080fd5b50565b60805160601c60a05160601c60c05160c01c60e0516101005160e01c61012051613abd6200099c60003960008181610d4b0152610f5a0152600061103401526000610ff00152600061101101526000610fb401526000818161091d01526109710152613abd6000f3fe6080604052600436106101815760003560e01c806370a08231116100d1578063a36f573b1161008a578063b88d4fde11610064578063b88d4fde14610577578063c87b56dd146105a0578063e985e9c5146105dd578063f2fde38b1461061a57610181565b8063a36f573b146104df578063a51cccf31461051c578063aa1524911461055957610181565b806370a08231146103e1578063715018a61461041e5780637a5caab3146104355780638da5cb5b1461046057806395d89b411461048b578063a22cb465146104b657610181565b806323b872dd1161013e57806342842e0e1161011857806342842e0e146103255780635dacf5f41461034e5780636352211e146103795780636e02007d146103b657610181565b806323b872dd146102a85780633af25975146102d15780633ccfd60b1461030e57610181565b806301ffc9a71461018657806306fdde03146101c3578063081812fc146101ee578063095ea7b31461022b5780630b21a83b146102545780631fe543e31461027f575b600080fd5b34801561019257600080fd5b506101ad60048036038101906101a891906129ac565b610643565b6040516101ba9190612f46565b60405180910390f35b3480156101cf57600080fd5b506101d8610725565b6040516101e59190612ff8565b60405180910390f35b3480156101fa57600080fd5b5061021560048036038101906102109190612a06565b6107b7565b6040516102229190612e9b565b60405180910390f35b34801561023757600080fd5b50610252600480360381019061024d919061296c565b6107fd565b005b34801561026057600080fd5b50610269610915565b60405161027691906131da565b60405180910390f35b34801561028b57600080fd5b506102a660048036038101906102a19190612a60565b61091b565b005b3480156102b457600080fd5b506102cf60048036038101906102ca9190612856565b6109db565b005b3480156102dd57600080fd5b506102f860048036038101906102f39190612a06565b610a3b565b6040516103059190612ff8565b60405180910390f35b34801561031a57600080fd5b50610323610aeb565b005b34801561033157600080fd5b5061034c60048036038101906103479190612856565b610b9f565b005b34801561035a57600080fd5b50610363610bbf565b6040516103709190612f2b565b60405180910390f35b34801561038557600080fd5b506103a0600480360381019061039b9190612a06565b610bea565b6040516103ad9190612e9b565b60405180910390f35b3480156103c257600080fd5b506103cb610c71565b6040516103d891906131da565b60405180910390f35b3480156103ed57600080fd5b50610408600480360381019061040391906127e9565b610c7b565b60405161041591906131da565b60405180910390f35b34801561042a57600080fd5b50610433610d33565b005b34801561044157600080fd5b5061044a610d47565b60405161045791906131da565b60405180910390f35b34801561046c57600080fd5b50610475610d6f565b6040516104829190612e9b565b60405180910390f35b34801561049757600080fd5b506104a0610d99565b6040516104ad9190612ff8565b60405180910390f35b3480156104c257600080fd5b506104dd60048036038101906104d8919061292c565b610e2b565b005b3480156104eb57600080fd5b5061050660048036038101906105019190612a06565b610e41565b6040516105139190612e9b565b60405180910390f35b34801561052857600080fd5b50610543600480360381019061053e9190612a06565b610e74565b6040516105509190612fb4565b60405180910390f35b610561610f56565b60405161056e91906131da565b60405180910390f35b34801561058357600080fd5b5061059e600480360381019061059991906128a9565b611156565b005b3480156105ac57600080fd5b506105c760048036038101906105c29190612a06565b6111b8565b6040516105d49190612ff8565b60405180910390f35b3480156105e957600080fd5b5061060460048036038101906105ff9190612816565b6112cb565b6040516106119190612f46565b60405180910390f35b34801561062657600080fd5b50610641600480360381019061063c91906127e9565b61135f565b005b60007f80ac58cd000000000000000000000000000000000000000000000000000000007bffffffffffffffffffffffffffffffffffffffffffffffffffffffff1916827bffffffffffffffffffffffffffffffffffffffffffffffffffffffff1916148061070e57507f5b5e139f000000000000000000000000000000000000000000000000000000007bffffffffffffffffffffffffffffffffffffffffffffffffffffffff1916827bffffffffffffffffffffffffffffffffffffffffffffffffffffffff1916145b8061071e575061071d826113e3565b5b9050919050565b6060600080546107349061345f565b80601f01602080910402602001604051908101604052809291908181526020018280546107609061345f565b80156107ad5780601f10610782576101008083540402835291602001916107ad565b820191906000526020600020905b81548152906001019060200180831161079057829003601f168201915b5050505050905090565b60006107c28261144d565b6004600083815260200190815260200160002060009054906101000a900473ffffffffffffffffffffffffffffffffffffffff169050919050565b600061080882610bea565b90508073ffffffffffffffffffffffffffffffffffffffff168373ffffffffffffffffffffffffffffffffffffffff161415610879576040517f08c379a00000000000000000000000000000000000000000000000000000000081526004016108709061319a565b60405180910390fd5b8073ffffffffffffffffffffffffffffffffffffffff16610898611498565b73ffffffffffffffffffffffffffffffffffffffff1614806108c757506108c6816108c1611498565b6112cb565b5b610906576040517f08c379a00000000000000000000000000000000000000000000000000000000081526004016108fd906131ba565b60405180910390fd5b61091083836114a0565b505050565b60095481565b7f000000000000000000000000000000000000000000000000000000000000000073ffffffffffffffffffffffffffffffffffffffff163373ffffffffffffffffffffffffffffffffffffffff16146109cd57337f00000000000000000000000000000000000000000000000000000000000000006040517f1cf993f40000000000000000000000000000000000000000000000000000000081526004016109c4929190612eb6565b60405180910390fd5b6109d78282611559565b5050565b6109ec6109e6611498565b82611703565b610a2b576040517f08c379a0000000000000000000000000000000000000000000000000000000008152600401610a229061301a565b60405180910390fd5b610a36838383611798565b505050565b6060600a8281548110610a5157610a506135f8565b5b906000526020600020018054610a669061345f565b80601f0160208091040260200160405190810160405280929190818152602001828054610a929061345f565b8015610adf5780601f10610ab457610100808354040283529160200191610adf565b820191906000526020600020905b815481529060010190602001808311610ac257829003601f168201915b50505050509050919050565b610af3611a92565b600047905060003373ffffffffffffffffffffffffffffffffffffffff1682604051610b1e90612e86565b60006040518083038185875af1925050503d8060008114610b5b576040519150601f19603f3d011682016040523d82523d6000602084013e610b60565b606091505b5050905080610b9b576040517fca7e25b700000000000000000000000000000000000000000000000000000000815260040160405180910390fd5b5050565b610bba83838360405180602001604052806000815250611156565b505050565b610bc7612598565b6040518060600160405280600a8152602001601e81526020016064815250905090565b600080610bf683611b10565b9050600073ffffffffffffffffffffffffffffffffffffffff168173ffffffffffffffffffffffffffffffffffffffff161415610c68576040517f08c379a0000000000000000000000000000000000000000000000000000000008152600401610c5f9061317a565b60405180910390fd5b80915050919050565b6000600954905090565b60008073ffffffffffffffffffffffffffffffffffffffff168273ffffffffffffffffffffffffffffffffffffffff161415610cec576040517f08c379a0000000000000000000000000000000000000000000000000000000008152600401610ce3906130fa565b60405180910390fd5b600360008373ffffffffffffffffffffffffffffffffffffffff1673ffffffffffffffffffffffffffffffffffffffff168152602001908152602001600020549050919050565b610d3b611a92565b610d456000611b4d565b565b60007f0000000000000000000000000000000000000000000000000000000000000000905090565b6000600760009054906101000a900473ffffffffffffffffffffffffffffffffffffffff16905090565b606060018054610da89061345f565b80601f0160208091040260200160405190810160405280929190818152602001828054610dd49061345f565b8015610e215780601f10610df657610100808354040283529160200191610e21565b820191906000526020600020905b815481529060010190602001808311610e0457829003601f168201915b5050505050905090565b610e3d610e36611498565b8383611c13565b5050565b60086020528060005260406000206000915054906101000a900473ffffffffffffffffffffffffffffffffffffffff1681565b600080600090506000610e85610bbf565b905060005b6003811015610f1e57828510158015610ec45750818160038110610eb157610eb06135f8565b5b602002015183610ec191906132f2565b85105b15610ee657806002811115610edc57610edb61359a565b5b9350505050610f51565b818160038110610ef957610ef86135f8565b5b602002015183610f0991906132f2565b92508080610f16906134c2565b915050610e8a565b506040517f12806c9d00000000000000000000000000000000000000000000000000000000815260040160405180910390fd5b919050565b60007f0000000000000000000000000000000000000000000000000000000000000000341015610fb2576040517fb90f491000000000000000000000000000000000000000000000000000000000815260040160405180910390fd5b7f000000000000000000000000000000000000000000000000000000000000000073ffffffffffffffffffffffffffffffffffffffff16635d3b1d307f00000000000000000000000000000000000000000000000000000000000000007f000000000000000000000000000000000000000000000000000000000000000060037f000000000000000000000000000000000000000000000000000000000000000060016040518663ffffffff1660e01b8152600401611075959493929190612f61565b602060405180830381600087803b15801561108f57600080fd5b505af11580156110a3573d6000803e3d6000fd5b505050506040513d601f19601f820116820180604052508101906110c79190612a33565b9050336008600083815260200190815260200160002060006101000a81548173ffffffffffffffffffffffffffffffffffffffff021916908373ffffffffffffffffffffffffffffffffffffffff160217905550807ff873236e6cc0ecc5be1a9a35c95ee5b8d1ac4cc7bfef0cc5060391d6cc98e26b3360405161114b9190612e9b565b60405180910390a290565b611167611161611498565b83611703565b6111a6576040517f08c379a000000000000000000000000000000000000000000000000000000000815260040161119d9061301a565b60405180910390fd5b6111b284848484611d80565b50505050565b60606111c38261144d565b60006006600084815260200190815260200160002080546111e39061345f565b80601f016020809104026020016040519081016040528092919081815260200182805461120f9061345f565b801561125c5780601f106112315761010080835404028352916020019161125c565b820191906000526020600020905b81548152906001019060200180831161123f57829003601f168201915b50505050509050600061126d611ddc565b90506000815114156112835781925050506112c6565b6000825111156112b85780826040516020016112a0929190612e62565b604051602081830303815290604052925050506112c6565b6112c184611df3565b925050505b919050565b6000600560008473ffffffffffffffffffffffffffffffffffffffff1673ffffffffffffffffffffffffffffffffffffffff16815260200190815260200160002060008373ffffffffffffffffffffffffffffffffffffffff1673ffffffffffffffffffffffffffffffffffffffff16815260200190815260200160002060009054906101000a900460ff16905092915050565b611367611a92565b600073ffffffffffffffffffffffffffffffffffffffff168173ffffffffffffffffffffffffffffffffffffffff1614156113d7576040517f08c379a00000000000000000000000000000000000000000000000000000000081526004016113ce9061305a565b60405180910390fd5b6113e081611b4d565b50565b60007f01ffc9a7000000000000000000000000000000000000000000000000000000007bffffffffffffffffffffffffffffffffffffffffffffffffffffffff1916827bffffffffffffffffffffffffffffffffffffffffffffffffffffffff1916149050919050565b61145681611e5b565b611495576040517f08c379a000000000000000000000000000000000000000000000000000000000815260040161148c9061317a565b60405180910390fd5b50565b600033905090565b816004600083815260200190815260200160002060006101000a81548173ffffffffffffffffffffffffffffffffffffffff021916908373ffffffffffffffffffffffffffffffffffffffff160217905550808273ffffffffffffffffffffffffffffffffffffffff1661151383610bea565b73ffffffffffffffffffffffffffffffffffffffff167f8c5be1e5ebec7d5bd14f71427d1e84f3dd0314c0f7b2291e5b200ac8c7c3b92560405160405180910390a45050565b60006008600084815260200190815260200160002060009054906101000a900473ffffffffffffffffffffffffffffffffffffffff169050600060095490506115a28282611e9c565b60006064846000815181106115ba576115b96135f8565b5b60200260200101516115cc919061350b565b905060006115d982610e74565b9050600954600960008282546115ef91906132f2565b925050819055506116008484611e9c565b6116c283600a8360028111156116195761161861359a565b5b8154811061162a576116296135f8565b5b90600052602060002001805461163f9061345f565b80601f016020809104026020016040519081016040528092919081815260200182805461166b9061345f565b80156116b85780601f1061168d576101008083540402835291602001916116b8565b820191906000526020600020905b81548152906001019060200180831161169b57829003601f168201915b5050505050611eba565b7f8a269f26b688e110e9cbd887d163dab35cae678fa353a0292de532c0cac1ecdc81856040516116f3929190612fcf565b60405180910390a1505050505050565b60008061170f83610bea565b90508073ffffffffffffffffffffffffffffffffffffffff168473ffffffffffffffffffffffffffffffffffffffff161480611751575061175081856112cb565b5b8061178f57508373ffffffffffffffffffffffffffffffffffffffff16611777846107b7565b73ffffffffffffffffffffffffffffffffffffffff16145b91505092915050565b8273ffffffffffffffffffffffffffffffffffffffff166117b882610bea565b73ffffffffffffffffffffffffffffffffffffffff161461180e576040517f08c379a00000000000000000000000000000000000000000000000000000000081526004016118059061307a565b60405180910390fd5b600073ffffffffffffffffffffffffffffffffffffffff168273ffffffffffffffffffffffffffffffffffffffff16141561187e576040517f08c379a0000000000000000000000000000000000000000000000000000000008152600401611875906130ba565b60405180910390fd5b61188b8383836001611f2e565b8273ffffffffffffffffffffffffffffffffffffffff166118ab82610bea565b73ffffffffffffffffffffffffffffffffffffffff1614611901576040517f08c379a00000000000000000000000000000000000000000000000000000000081526004016118f89061307a565b60405180910390fd5b6004600082815260200190815260200160002060006101000a81549073ffffffffffffffffffffffffffffffffffffffff02191690556001600360008573ffffffffffffffffffffffffffffffffffffffff1673ffffffffffffffffffffffffffffffffffffffff168152602001908152602001600020600082825403925050819055506001600360008473ffffffffffffffffffffffffffffffffffffffff1673ffffffffffffffffffffffffffffffffffffffff16815260200190815260200160002060008282540192505081905550816002600083815260200190815260200160002060006101000a81548173ffffffffffffffffffffffffffffffffffffffff021916908373ffffffffffffffffffffffffffffffffffffffff160217905550808273ffffffffffffffffffffffffffffffffffffffff168473ffffffffffffffffffffffffffffffffffffffff167fddf252ad1be2c89b69c2b068fc378daa952ba7f163c4a11628f55a4df523b3ef60405160405180910390a4611a8d8383836001611f34565b505050565b611a9a611498565b73ffffffffffffffffffffffffffffffffffffffff16611ab8610d6f565b73ffffffffffffffffffffffffffffffffffffffff1614611b0e576040517f08c379a0000000000000000000000000000000000000000000000000000000008152600401611b059061315a565b60405180910390fd5b565b60006002600083815260200190815260200160002060009054906101000a900473ffffffffffffffffffffffffffffffffffffffff169050919050565b6000600760009054906101000a900473ffffffffffffffffffffffffffffffffffffffff16905081600760006101000a81548173ffffffffffffffffffffffffffffffffffffffff021916908373ffffffffffffffffffffffffffffffffffffffff1602179055508173ffffffffffffffffffffffffffffffffffffffff168173ffffffffffffffffffffffffffffffffffffffff167f8be0079c531659141344cd1fd0a4f28419497f9722a3daafe3b4186f6b6457e060405160405180910390a35050565b8173ffffffffffffffffffffffffffffffffffffffff168373ffffffffffffffffffffffffffffffffffffffff161415611c82576040517f08c379a0000000000000000000000000000000000000000000000000000000008152600401611c79906130da565b60405180910390fd5b80600560008573ffffffffffffffffffffffffffffffffffffffff1673ffffffffffffffffffffffffffffffffffffffff16815260200190815260200160002060008473ffffffffffffffffffffffffffffffffffffffff1673ffffffffffffffffffffffffffffffffffffffff16815260200190815260200160002060006101000a81548160ff0219169083151502179055508173ffffffffffffffffffffffffffffffffffffffff168373ffffffffffffffffffffffffffffffffffffffff167f17307eab39ab6107e8899845ad3d59bd9653f200f220920489ca2b5937696c3183604051611d739190612f46565b60405180910390a3505050565b611d8b848484611798565b611d9784848484611f3a565b611dd6576040517f08c379a0000000000000000000000000000000000000000000000000000000008152600401611dcd9061303a565b60405180910390fd5b50505050565b606060405180602001604052806000815250905090565b6060611dfe8261144d565b6000611e08611ddc565b90506000815111611e285760405180602001604052806000815250611e53565b80611e32846120d1565b604051602001611e43929190612e62565b6040516020818303038152906040525b915050919050565b60008073ffffffffffffffffffffffffffffffffffffffff16611e7d83611b10565b73ffffffffffffffffffffffffffffffffffffffff1614159050919050565b611eb68282604051806020016040528060008152506121a9565b5050565b611ec382611e5b565b611f02576040517f08c379a0000000000000000000000000000000000000000000000000000000008152600401611ef99061311a565b60405180910390fd5b80600660008481526020019081526020016000209080519060200190611f299291906125ba565b505050565b50505050565b50505050565b6000611f5b8473ffffffffffffffffffffffffffffffffffffffff16612204565b156120c4578373ffffffffffffffffffffffffffffffffffffffff1663150b7a02611f84611498565b8786866040518563ffffffff1660e01b8152600401611fa69493929190612edf565b602060405180830381600087803b158015611fc057600080fd5b505af1925050508015611ff157506040513d601f19601f82011682018060405250810190611fee91906129d9565b60015b612074573d8060008114612021576040519150601f19603f3d011682016040523d82523d6000602084013e612026565b606091505b5060008151141561206c576040517f08c379a00000000000000000000000000000000000000000000000000000000081526004016120639061303a565b60405180910390fd5b805181602001fd5b63150b7a0260e01b7bffffffffffffffffffffffffffffffffffffffffffffffffffffffff1916817bffffffffffffffffffffffffffffffffffffffffffffffffffffffff1916149150506120c9565b600190505b949350505050565b6060600060016120e084612227565b01905060008167ffffffffffffffff8111156120ff576120fe613627565b5b6040519080825280601f01601f1916602001820160405280156121315781602001600182028036833780820191505090505b509050600082602001820190505b60011561219e578080600190039150507f3031323334353637383961626364656600000000000000000000000000000000600a86061a8153600a85816121885761218761356b565b5b04945060008514156121995761219e565b61213f565b819350505050919050565b6121b3838361237a565b6121c06000848484611f3a565b6121ff576040517f08c379a00000000000000000000000000000000000000000000000000000000081526004016121f69061303a565b60405180910390fd5b505050565b6000808273ffffffffffffffffffffffffffffffffffffffff163b119050919050565b600080600090507a184f03e93ff9f4daa797ed6e38ed64bf6a1f0100000000000000008310612285577a184f03e93ff9f4daa797ed6e38ed64bf6a1f010000000000000000838161227b5761227a61356b565b5b0492506040810190505b6d04ee2d6d415b85acef810000000083106122c2576d04ee2d6d415b85acef810000000083816122b8576122b761356b565b5b0492506020810190505b662386f26fc1000083106122f157662386f26fc1000083816122e7576122e661356b565b5b0492506010810190505b6305f5e100831061231a576305f5e10083816123105761230f61356b565b5b0492506008810190505b612710831061233f5761271083816123355761233461356b565b5b0492506004810190505b6064831061236257606483816123585761235761356b565b5b0492506002810190505b600a8310612371576001810190505b80915050919050565b600073ffffffffffffffffffffffffffffffffffffffff168273ffffffffffffffffffffffffffffffffffffffff1614156123ea576040517f08c379a00000000000000000000000000000000000000000000000000000000081526004016123e19061313a565b60405180910390fd5b6123f381611e5b565b15612433576040517f08c379a000000000000000000000000000000000000000000000000000000000815260040161242a9061309a565b60405180910390fd5b612441600083836001611f2e565b61244a81611e5b565b1561248a576040517f08c379a00000000000000000000000000000000000000000000000000000000081526004016124819061309a565b60405180910390fd5b6001600360008473ffffffffffffffffffffffffffffffffffffffff1673ffffffffffffffffffffffffffffffffffffffff16815260200190815260200160002060008282540192505081905550816002600083815260200190815260200160002060006101000a81548173ffffffffffffffffffffffffffffffffffffffff021916908373ffffffffffffffffffffffffffffffffffffffff160217905550808273ffffffffffffffffffffffffffffffffffffffff16600073ffffffffffffffffffffffffffffffffffffffff167fddf252ad1be2c89b69c2b068fc378daa952ba7f163c4a11628f55a4df523b3ef60405160405180910390a4612594600083836001611f34565b5050565b6040518060600160405280600390602082028036833780820191505090505090565b8280546125c69061345f565b90600052602060002090601f0160209004810192826125e8576000855561262f565b82601f1061260157805160ff191683800117855561262f565b8280016001018555821561262f579182015b8281111561262e578251825591602001919060010190612613565b5b50905061263c9190612640565b5090565b5b80821115612659576000816000905550600101612641565b5090565b600061267061266b8461321a565b6131f5565b905080838252602082019050828560208602820111156126935761269261365b565b5b60005b858110156126c357816126a988826127bf565b845260208401935060208301925050600181019050612696565b5050509392505050565b60006126e06126db84613246565b6131f5565b9050828152602081018484840111156126fc576126fb613660565b5b61270784828561341d565b509392505050565b60008135905061271e81613a2b565b92915050565b600082601f83011261273957612738613656565b5b813561274984826020860161265d565b91505092915050565b60008135905061276181613a42565b92915050565b60008135905061277681613a59565b92915050565b60008151905061278b81613a59565b92915050565b600082601f8301126127a6576127a5613656565b5b81356127b68482602086016126cd565b91505092915050565b6000813590506127ce81613a70565b92915050565b6000815190506127e381613a70565b92915050565b6000602082840312156127ff576127fe61366a565b5b600061280d8482850161270f565b91505092915050565b6000806040838503121561282d5761282c61366a565b5b600061283b8582860161270f565b925050602061284c8582860161270f565b9150509250929050565b60008060006060848603121561286f5761286e61366a565b5b600061287d8682870161270f565b935050602061288e8682870161270f565b925050604061289f868287016127bf565b9150509250925092565b600080600080608085870312156128c3576128c261366a565b5b60006128d18782880161270f565b94505060206128e28782880161270f565b93505060406128f3878288016127bf565b925050606085013567ffffffffffffffff81111561291457612913613665565b5b61292087828801612791565b91505092959194509250565b600080604083850312156129435761294261366a565b5b60006129518582860161270f565b925050602061296285828601612752565b9150509250929050565b600080604083850312156129835761298261366a565b5b60006129918582860161270f565b92505060206129a2858286016127bf565b9150509250929050565b6000602082840312156129c2576129c161366a565b5b60006129d084828501612767565b91505092915050565b6000602082840312156129ef576129ee61366a565b5b60006129fd8482850161277c565b91505092915050565b600060208284031215612a1c57612a1b61366a565b5b6000612a2a848285016127bf565b91505092915050565b600060208284031215612a4957612a4861366a565b5b6000612a57848285016127d4565b91505092915050565b60008060408385031215612a7757612a7661366a565b5b6000612a85858286016127bf565b925050602083013567ffffffffffffffff811115612aa657612aa5613665565b5b612ab285828601612724565b9150509250929050565b6000612ac88383612e26565b60208301905092915050565b612add81613348565b82525050565b612aec81613281565b612af681846132af565b9250612b0182613277565b8060005b83811015612b32578151612b198782612abc565b9650612b24836132a2565b925050600181019050612b05565b505050505050565b612b438161335a565b82525050565b612b5281613366565b82525050565b6000612b638261328c565b612b6d81856132ba565b9350612b7d81856020860161342c565b612b868161366f565b840191505092915050565b612b9a8161340b565b82525050565b6000612bab82613297565b612bb581856132d6565b9350612bc581856020860161342c565b612bce8161366f565b840191505092915050565b6000612be482613297565b612bee81856132e7565b9350612bfe81856020860161342c565b80840191505092915050565b6000612c17602d836132d6565b9150612c2282613680565b604082019050919050565b6000612c3a6032836132d6565b9150612c45826136cf565b604082019050919050565b6000612c5d6026836132d6565b9150612c688261371e565b604082019050919050565b6000612c806025836132d6565b9150612c8b8261376d565b604082019050919050565b6000612ca3601c836132d6565b9150612cae826137bc565b602082019050919050565b6000612cc66024836132d6565b9150612cd1826137e5565b604082019050919050565b6000612ce96019836132d6565b9150612cf482613834565b602082019050919050565b6000612d0c6029836132d6565b9150612d178261385d565b604082019050919050565b6000612d2f602e836132d6565b9150612d3a826138ac565b604082019050919050565b6000612d526020836132d6565b9150612d5d826138fb565b602082019050919050565b6000612d756020836132d6565b9150612d8082613924565b602082019050919050565b6000612d986018836132d6565b9150612da38261394d565b602082019050919050565b6000612dbb6021836132d6565b9150612dc682613976565b604082019050919050565b6000612dde6000836132cb565b9150612de9826139c5565b600082019050919050565b6000612e01603d836132d6565b9150612e0c826139c8565b604082019050919050565b612e20816133af565b82525050565b612e2f816133dd565b82525050565b612e3e816133dd565b82525050565b612e4d816133e7565b82525050565b612e5c816133f7565b82525050565b6000612e6e8285612bd9565b9150612e7a8284612bd9565b91508190509392505050565b6000612e9182612dd1565b9150819050919050565b6000602082019050612eb06000830184612ad4565b92915050565b6000604082019050612ecb6000830185612ad4565b612ed86020830184612ad4565b9392505050565b6000608082019050612ef46000830187612ad4565b612f016020830186612ad4565b612f0e6040830185612e35565b8181036060830152612f208184612b58565b905095945050505050565b6000606082019050612f406000830184612ae3565b92915050565b6000602082019050612f5b6000830184612b3a565b92915050565b600060a082019050612f766000830188612b49565b612f836020830187612e53565b612f906040830186612e17565b612f9d6060830185612e44565b612faa6080830184612e44565b9695505050505050565b6000602082019050612fc96000830184612b91565b92915050565b6000604082019050612fe46000830185612b91565b612ff16020830184612ad4565b9392505050565b600060208201905081810360008301526130128184612ba0565b905092915050565b6000602082019050818103600083015261303381612c0a565b9050919050565b6000602082019050818103600083015261305381612c2d565b9050919050565b6000602082019050818103600083015261307381612c50565b9050919050565b6000602082019050818103600083015261309381612c73565b9050919050565b600060208201905081810360008301526130b381612c96565b9050919050565b600060208201905081810360008301526130d381612cb9565b9050919050565b600060208201905081810360008301526130f381612cdc565b9050919050565b6000602082019050818103600083015261311381612cff565b9050919050565b6000602082019050818103600083015261313381612d22565b9050919050565b6000602082019050818103600083015261315381612d45565b9050919050565b6000602082019050818103600083015261317381612d68565b9050919050565b6000602082019050818103600083015261319381612d8b565b9050919050565b600060208201905081810360008301526131b381612dae565b9050919050565b600060208201905081810360008301526131d381612df4565b9050919050565b60006020820190506131ef6000830184612e35565b92915050565b60006131ff613210565b905061320b8282613491565b919050565b6000604051905090565b600067ffffffffffffffff82111561323557613234613627565b5b602082029050602081019050919050565b600067ffffffffffffffff82111561326157613260613627565b5b61326a8261366f565b9050602081019050919050565b6000819050919050565b600060039050919050565b600081519050919050565b600081519050919050565b6000602082019050919050565b600081905092915050565b600082825260208201905092915050565b600081905092915050565b600082825260208201905092915050565b600081905092915050565b60006132fd826133dd565b9150613308836133dd565b9250827fffffffffffffffffffffffffffffffffffffffffffffffffffffffffffffffff0382111561333d5761333c61353c565b5b828201905092915050565b6000613353826133bd565b9050919050565b60008115159050919050565b6000819050919050565b60007fffffffff0000000000000000000000000000000000000000000000000000000082169050919050565b60008190506133aa82613a17565b919050565b600061ffff82169050919050565b600073ffffffffffffffffffffffffffffffffffffffff82169050919050565b6000819050919050565b600063ffffffff82169050919050565b600067ffffffffffffffff82169050919050565b60006134168261339c565b9050919050565b82818337600083830152505050565b60005b8381101561344a57808201518184015260208101905061342f565b83811115613459576000848401525b50505050565b6000600282049050600182168061347757607f821691505b6020821081141561348b5761348a6135c9565b5b50919050565b61349a8261366f565b810181811067ffffffffffffffff821117156134b9576134b8613627565b5b80604052505050565b60006134cd826133dd565b91507fffffffffffffffffffffffffffffffffffffffffffffffffffffffffffffffff821415613500576134ff61353c565b5b600182019050919050565b6000613516826133dd565b9150613521836133dd565b9250826135315761353061356b565b5b828206905092915050565b7f4e487b7100000000000000000000000000000000000000000000000000000000600052601160045260246000fd5b7f4e487b7100000000000000000000000000000000000000000000000000000000600052601260045260246000fd5b7f4e487b7100000000000000000000000000000000000000000000000000000000600052602160045260246000fd5b7f4e487b7100000000000000000000000000000000000000000000000000000000600052602260045260246000fd5b7f4e487b7100000000000000000000000000000000000000000000000000000000600052603260045260246000fd5b7f4e487b7100000000000000000000000000000000000000000000000000000000600052604160045260246000fd5b600080fd5b600080fd5b600080fd5b600080fd5b600080fd5b6000601f19601f8301169050919050565b7f4552433732313a2063616c6c6572206973206e6f7420746f6b656e206f776e6560008201527f72206f7220617070726f76656400000000000000000000000000000000000000602082015250565b7f4552433732313a207472616e7366657220746f206e6f6e20455243373231526560008201527f63656976657220696d706c656d656e7465720000000000000000000000000000602082015250565b7f4f776e61626c653a206e6577206f776e657220697320746865207a65726f206160008201527f6464726573730000000000000000000000000000000000000000000000000000602082015250565b7f4552433732313a207472616e736665722066726f6d20696e636f72726563742060008201527f6f776e6572000000000000000000000000000000000000000000000000000000602082015250565b7f4552433732313a20746f6b656e20616c7265616479206d696e74656400000000600082015250565b7f4552433732313a207472616e7366657220746f20746865207a65726f2061646460008201527f7265737300000000000000000000000000000000000000000000000000000000602082015250565b7f4552433732313a20617070726f766520746f2063616c6c657200000000000000600082015250565b7f4552433732313a2061646472657373207a65726f206973206e6f74206120766160008201527f6c6964206f776e65720000000000000000000000000000000000000000000000602082015250565b7f45524337323155524953746f726167653a2055524920736574206f66206e6f6e60008201527f6578697374656e7420746f6b656e000000000000000000000000000000000000602082015250565b7f4552433732313a206d696e7420746f20746865207a65726f2061646472657373600082015250565b7f4f776e61626c653a2063616c6c6572206973206e6f7420746865206f776e6572600082015250565b7f4552433732313a20696e76616c696420746f6b656e2049440000000000000000600082015250565b7f4552433732313a20617070726f76616c20746f2063757272656e74206f776e6560008201527f7200000000000000000000000000000000000000000000000000000000000000602082015250565b50565b7f4552433732313a20617070726f76652063616c6c6572206973206e6f7420746f60008201527f6b656e206f776e6572206f7220617070726f76656420666f7220616c6c000000602082015250565b60038110613a2857613a2761359a565b5b50565b613a3481613348565b8114613a3f57600080fd5b50565b613a4b8161335a565b8114613a5657600080fd5b50565b613a6281613370565b8114613a6d57600080fd5b50565b613a79816133dd565b8114613a8457600080fd5b5056fea2646970667358221220b5b07409d27d58d1c0cc8c760181594474ca1831271c495305ca496bb92a199364736f6c63430008070033",
  "linkReferences": {},
  "deployedLinkReferences": {}
}