{
  "_format": "hh-sol-artifact-1",
  "contractName": "RandomIpfsNft",
  "sourceName": "contracts/RandomIpfsNft.sol",
  "abi": [
    {
      "inputs": [
        {
          "internalType": "address",
          "name": "vrfCoordinatorV2",
          "type": "address"
        },
        {
          "internalType": "uint64",
          "name": "subscriptionId",
          "type": "uint64"
        },
        {
          "internalType": "bytes32",
          "name": "gasLane",
          "type": "bytes32"
        },
        {
          "internalType": "uint32",
          "name": "callbackGasLimit",
          "type": "uint32"
        },
        {
          "internalType": "string[3]",
          "name": "dogTokenUris",
          "type": "string[3]"
        },
        {
          "internalType": "uint256",
          "name": "mintFee",
          "type": "uint256"
        }
      ],
      "stateMutability": "nonpayable",
      "type": "constructor"
    },
    {
      "inputs": [
        {
          "internalType": "address",
          "name": "have",
          "type": "address"
        },
        {
          "internalType": "address",
          "name": "want",
          "type": "address"
        }
      ],
      "name": "OnlyCoordinatorCanFulfill",
      "type": "error"
    },
    {
      "inputs": [],
      "name": "RandomIpfsNft__NeedMoreETHSent",
      "type": "error"
    },
    {
      "inputs": [],
      "name": "RandomIpfsNft__RangeOutOfBounds",
      "type": "error"
    },
    {
      "inputs": [],
      "name": "RandomIpfsNft__TransferFailed",
      "type": "error"
    },
    {
      "anonymous": false,
      "inputs": [
        {
          "indexed": true,
          "internalType": "address",
          "name": "owner",
          "type": "address"
        },
        {
          "indexed": true,
          "internalType": "address",
          "name": "approved",
          "type": "address"
        },
        {
          "indexed": true,
          "internalType": "uint256",
          "name": "tokenId",
          "type": "uint256"
        }
      ],
      "name": "Approval",
      "type": "event"
    },
    {
      "anonymous": false,
      "inputs": [
        {
          "indexed": true,
          "internalType": "address",
          "name": "owner",
          "type": "address"
        },
        {
          "indexed": true,
          "internalType": "address",
          "name": "operator",
          "type": "address"
        },
        {
          "indexed": false,
          "internalType": "bool",
          "name": "approved",
          "type": "bool"
        }
      ],
      "name": "ApprovalForAll",
      "type": "event"
    },
    {
      "anonymous": false,
      "inputs": [
        {
          "indexed": false,
          "internalType": "enum RandomIpfsNft.Breed",
          "name": "breed",
          "type": "uint8"
        },
        {
          "indexed": false,
          "internalType": "address",
          "name": "minter",
          "type": "address"
        }
      ],
      "name": "NftMinted",
      "type": "event"
    },
    {
      "anonymous": false,
      "inputs": [
        {
          "indexed": true,
          "internalType": "uint256",
          "name": "requestId",
          "type": "uint256"
        },
        {
          "indexed": false,
          "internalType": "address",
          "name": "requester",
          "type": "address"
        }
      ],
      "name": "NftRequested",
      "type": "event"
    },
    {
      "anonymous": false,
      "inputs": [
        {
          "indexed": true,
          "internalType": "address",
          "name": "previousOwner",
          "type": "address"
        },
        {
          "indexed": true,
          "internalType": "address",
          "name": "newOwner",
          "type": "address"
        }
      ],
      "name": "OwnershipTransferred",
      "type": "event"
    },
    {
      "anonymous": false,
      "inputs": [
        {
          "indexed": true,
          "internalType": "address",
          "name": "from",
          "type": "address"
        },
        {
          "indexed": true,
          "internalType": "address",
          "name": "to",
          "type": "address"
        },
        {
          "indexed": true,
          "internalType": "uint256",
          "name": "tokenId",
          "type": "uint256"
        }
      ],
      "name": "Transfer",
      "type": "event"
    },
    {
      "inputs": [
        {
          "internalType": "address",
          "name": "to",
          "type": "address"
        },
        {
          "internalType": "uint256",
          "name": "tokenId",
          "type": "uint256"
        }
      ],
      "name": "approve",
      "outputs": [],
      "stateMutability": "nonpayable",
      "type": "function"
    },
    {
      "inputs": [
        {
          "internalType": "address",
          "name": "owner",
          "type": "address"
        }
      ],
      "name": "balanceOf",
      "outputs": [
        {
          "internalType": "uint256",
          "name": "",
          "type": "uint256"
        }
      ],
      "stateMutability": "view",
      "type": "function"
    },
    {
      "inputs": [
        {
          "internalType": "uint256",
          "name": "tokenId",
          "type": "uint256"
        }
      ],
      "name": "getApproved",
      "outputs": [
        {
          "internalType": "address",
          "name": "",
          "type": "address"
        }
      ],
      "stateMutability": "view",
      "type": "function"
    },
    {
      "inputs": [
        {
          "internalType": "uint256",
          "name": "moddedRng",
          "type": "uint256"
        }
      ],
      "name": "getBreedFromModdedRng",
      "outputs": [
        {
          "internalType": "enum RandomIpfsNft.Breed",
          "name": "",
          "type": "uint8"
        }
      ],
      "stateMutability": "pure",
      "type": "function"
    },
    {
      "inputs": [],
      "name": "getChanceArray",
      "outputs": [
        {
          "internalType": "uint256[3]",
          "name": "",
          "type": "uint256[3]"
        }
      ],
      "stateMutability": "pure",
      "type": "function"
    },
    {
      "inputs": [
        {
          "internalType": "uint256",
          "name": "index",
          "type": "uint256"
        }
      ],
      "name": "getDogTokenUris",
      "outputs": [
        {
          "internalType": "string",
          "name": "",
          "type": "string"
        }
      ],
      "stateMutability": "view",
      "type": "function"
    },
    {
      "inputs": [],
      "name": "getMintFee",
      "outputs": [
        {
          "internalType": "uint256",
          "name": "",
          "type": "uint256"
        }
      ],
      "stateMutability": "view",
      "type": "function"
    },
    {
      "inputs": [],
      "name": "getTokenCounter",
      "outputs": [
        {
          "internalType": "uint256",
          "name": "",
          "type": "uint256"
        }
      ],
      "stateMutability": "view",
      "type": "function"
    },
    {
      "inputs": [
        {
          "internalType": "address",
          "name": "owner",
          "type": "address"
        },
        {
          "internalType": "address",
          "name": "operator",
          "type": "address"
        }
      ],
      "name": "isApprovedForAll",
      "outputs": [
        {
          "internalType": "bool",
          "name": "",
          "type": "bool"
        }
      ],
      "stateMutability": "view",
      "type": "function"
    },
    {
      "inputs": [],
      "name": "name",
      "outputs": [
        {
          "internalType": "string",
          "name": "",
          "type": "string"
        }
      ],
      "stateMutability": "view",
      "type": "function"
    },
    {
      "inputs": [],
      "name": "owner",
      "outputs": [
        {
          "internalType": "address",
          "name": "",
          "type": "address"
        }
      ],
      "stateMutability": "view",
      "type": "function"
    },
    {
      "inputs": [
        {
          "internalType": "uint256",
          "name": "tokenId",
          "type": "uint256"
        }
      ],
      "name": "ownerOf",
      "outputs": [
        {
          "internalType": "address",
          "name": "",
          "type": "address"
        }
      ],
      "stateMutability": "view",
      "type": "function"
    },
    {
      "inputs": [
        {
          "internalType": "uint256",
          "name": "requestId",
          "type": "uint256"
        },
        {
          "internalType": "uint256[]",
          "name": "randomWords",
          "type": "uint256[]"
        }
      ],
      "name": "rawFulfillRandomWords",
      "outputs": [],
      "stateMutability": "nonpayable",
      "type": "function"
    },
    {
      "inputs": [],
      "name": "renounceOwnership",
      "outputs": [],
      "stateMutability": "nonpayable",
      "type": "function"
    },
    {
      "inputs": [],
      "name": "requestNft",
      "outputs": [
        {
          "internalType": "uint256",
          "name": "requestId",
          "type": "uint256"
        }
      ],
      "stateMutability": "payable",
      "type": "function"
    },
    {
      "inputs": [
        {
          "internalType": "uint256",
          "name": "",
          "type": "uint256"
        }
      ],
      "name": "s_requestIdToSender",
      "outputs": [
        {
          "internalType": "address",
          "name": "",
          "type": "address"
        }
      ],
      "stateMutability": "view",
      "type": "function"
    },
    {
      "inputs": [],
      "name": "s_tokenCounter",
      "outputs": [
        {
          "internalType": "uint256",
          "name": "",
          "type": "uint256"
        }
      ],
      "stateMutability": "view",
      "type": "function"
    },
    {
      "inputs": [
        {
          "internalType": "address",
          "name": "from",
          "type": "address"
        },
        {
          "internalType": "address",
          "name": "to",
          "type": "address"
        },
        {
          "internalType": "uint256",
          "name": "tokenId",
          "type": "uint256"
        }
      ],
      "name": "safeTransferFrom",
      "outputs": [],
      "stateMutability": "nonpayable",
      "type": "function"
    },
    {
      "inputs": [
        {
          "internalType": "address",
          "name": "from",
          "type": "address"
        },
        {
          "internalType": "address",
          "name": "to",
          "type": "address"
        },
        {
          "internalType": "uint256",
          "name": "tokenId",
          "type": "uint256"
        },
        {
          "internalType": "bytes",
          "name": "data",
          "type": "bytes"
        }
      ],
      "name": "safeTransferFrom",
      "outputs": [],
      "stateMutability": "nonpayable",
      "type": "function"
    },
    {
      "inputs": [
        {
          "internalType": "address",
          "name": "operator",
          "type": "address"
        },
        {
          "internalType": "bool",
          "name": "approved",
          "type": "bool"
        }
      ],
      "name": "setApprovalForAll",
      "outputs": [],
      "stateMutability": "nonpayable",
      "type": "function"
    },
    {
      "inputs": [
        {
          "internalType": "bytes4",
          "name": "interfaceId",
          "type": "bytes4"
        }
      ],
      "name": "supportsInterface",
      "outputs": [
        {
          "internalType": "bool",
          "name": "",
          "type": "bool"
        }
      ],
      "stateMutability": "view",
      "type": "function"
    },
    {
      "inputs": [],
      "name": "symbol",
      "outputs": [
        {
          "internalType": "string",
          "name": "",
          "type": "string"
        }
      ],
      "stateMutability": "view",
      "type": "function"
    },
    {
      "inputs": [
        {
          "internalType": "uint256",
          "name": "tokenId",
          "type": "uint256"
        }
      ],
      "name": "tokenURI",
      "outputs": [
        {
          "internalType": "string",
          "name": "",
          "type": "string"
        }
      ],
      "stateMutability": "view",
      "type": "function"
    },
    {
      "inputs": [
        {
          "internalType": "address",
          "name": "from",
          "type": "address"
        },
        {
          "internalType": "address",
          "name": "to",
          "type": "address"
        },
        {
          "internalType": "uint256",
          "name": "tokenId",
          "type": "uint256"
        }
      ],
      "name": "transferFrom",
      "outputs": [],
      "stateMutability": "nonpayable",
      "type": "function"
    },
    {
      "inputs": [
        {
          "internalType": "address",
          "name": "newOwner",
          "type": "address"
        }
      ],
      "name": "transferOwnership",
      "outputs": [],
      "stateMutability": "nonpayable",
      "type": "function"
    },
    {
      "inputs": [],
      "name": "withdraw",
      "outputs": [],
      "stateMutability": "nonpayable",
      "type": "function"
    }
  ],
  "bytecode": "0x6101406040523480156200001257600080fd5b506040516200443e3803806200443e8339818101604052810190620000389190620005d7565b6040518060400160405280600f81526020017f52616e646f6d2049504653204e465400000000000000000000000000000000008152506040518060400160405280600381526020017f52494e0000000000000000000000000000000000000000000000000000000000815250878073ffffffffffffffffffffffffffffffffffffffff1660808173ffffffffffffffffffffffffffffffffffffffff1660601b81525050508160009080519060200190620000f59291906200029e565b5080600190805190602001906200010e9291906200029e565b5050506200013162000125620001d060201b60201c565b620001d860201b60201c565b8573ffffffffffffffffffffffffffffffffffffffff1660a08173ffffffffffffffffffffffffffffffffffffffff1660601b815250508467ffffffffffffffff1660c08167ffffffffffffffff1660c01b815250508360e081815250508263ffffffff166101008163ffffffff1660e01b8152505081600a906003620001ba9291906200032f565b5080610120818152505050505050505062000932565b600033905090565b6000600760009054906101000a900473ffffffffffffffffffffffffffffffffffffffff16905081600760006101000a81548173ffffffffffffffffffffffffffffffffffffffff021916908373ffffffffffffffffffffffffffffffffffffffff1602179055508173ffffffffffffffffffffffffffffffffffffffff168173ffffffffffffffffffffffffffffffffffffffff167f8be0079c531659141344cd1fd0a4f28419497f9722a3daafe3b4186f6b6457e060405160405180910390a35050565b828054620002ac90620007bc565b90600052602060002090601f016020900481019282620002d057600085556200031c565b82601f10620002eb57805160ff19168380011785556200031c565b828001600101855582156200031c579182015b828111156200031b578251825591602001919060010190620002fe565b5b5090506200032b919062000396565b5090565b82805482825590600052602060002090810192821562000383579160200282015b8281111562000382578251829080519060200190620003719291906200029e565b509160200191906001019062000350565b5b509050620003929190620003b5565b5090565b5b80821115620003b157600081600090555060010162000397565b5090565b5b80821115620003d95760008181620003cf9190620003dd565b50600101620003b6565b5090565b508054620003eb90620007bc565b6000825580601f10620003ff575062000420565b601f0160209004906000526020600020908101906200041f919062000396565b5b50565b60006200043a6200043484620006bb565b62000692565b905080828560208602820111156200045757620004566200088b565b5b60005b85811015620004ac57815167ffffffffffffffff81111562000481576200048062000886565b5b8086016200049089826200055f565b855260208501945060208401935050506001810190506200045a565b5050509392505050565b6000620004cd620004c784620006e4565b62000692565b905082815260208101848484011115620004ec57620004eb62000890565b5b620004f984828562000786565b509392505050565b6000815190506200051281620008b0565b92915050565b600082601f83011262000530576200052f62000886565b5b60036200053f84828562000423565b91505092915050565b6000815190506200055981620008ca565b92915050565b600082601f83011262000577576200057662000886565b5b815162000589848260208601620004b6565b91505092915050565b600081519050620005a381620008e4565b92915050565b600081519050620005ba81620008fe565b92915050565b600081519050620005d18162000918565b92915050565b60008060008060008060c08789031215620005f757620005f66200089a565b5b60006200060789828a0162000501565b96505060206200061a89828a01620005c0565b95505060406200062d89828a0162000548565b94505060606200064089828a01620005a9565b935050608087015167ffffffffffffffff81111562000664576200066362000895565b5b6200067289828a0162000518565b92505060a06200068589828a0162000592565b9150509295509295509295565b60006200069e620006b1565b9050620006ac8282620007f2565b919050565b6000604051905090565b600067ffffffffffffffff821115620006d957620006d862000857565b5b602082029050919050565b600067ffffffffffffffff82111562000702576200070162000857565b5b6200070d826200089f565b9050602081019050919050565b6000620007278262000738565b9050919050565b6000819050919050565b600073ffffffffffffffffffffffffffffffffffffffff82169050919050565b6000819050919050565b600063ffffffff82169050919050565b600067ffffffffffffffff82169050919050565b60005b83811015620007a657808201518184015260208101905062000789565b83811115620007b6576000848401525b50505050565b60006002820490506001821680620007d557607f821691505b60208210811415620007ec57620007eb62000828565b5b50919050565b620007fd826200089f565b810181811067ffffffffffffffff821117156200081f576200081e62000857565b5b80604052505050565b7f4e487b7100000000000000000000000000000000000000000000000000000000600052602260045260246000fd5b7f4e487b7100000000000000000000000000000000000000000000000000000000600052604160045260246000fd5b600080fd5b600080fd5b600080fd5b600080fd5b600080fd5b6000601f19601f8301169050919050565b620008bb816200071a565b8114620008c757600080fd5b50565b620008d5816200072e565b8114620008e157600080fd5b50565b620008ef8162000758565b8114620008fb57600080fd5b50565b620009098162000762565b81146200091557600080fd5b50565b620009238162000772565b81146200092f57600080fd5b50565b60805160601c60a05160601c60c05160c01c60e0516101005160e01c61012051613aa26200099c60003960008181610d4b0152610f5a0152600061103401526000610ff00152600061101101526000610fb401526000818161091d01526109710152613aa26000f3fe6080604052600436106101815760003560e01c806370a08231116100d1578063a36f573b1161008a578063b88d4fde11610064578063b88d4fde14610577578063c87b56dd146105a0578063e985e9c5146105dd578063f2fde38b1461061a57610181565b8063a36f573b146104df578063a51cccf31461051c578063aa1524911461055957610181565b806370a08231146103e1578063715018a61461041e5780637a5caab3146104355780638da5cb5b1461046057806395d89b411461048b578063a22cb465146104b657610181565b806323b872dd1161013e57806342842e0e1161011857806342842e0e146103255780635dacf5f41461034e5780636352211e146103795780636e02007d146103b657610181565b806323b872dd146102a85780633af25975146102d15780633ccfd60b1461030e57610181565b806301ffc9a71461018657806306fdde03146101c3578063081812fc146101ee578063095ea7b31461022b5780630b21a83b146102545780631fe543e31461027f575b600080fd5b34801561019257600080fd5b506101ad60048036038101906101a89190612991565b610643565b6040516101ba9190612f2b565b60405180910390f35b3480156101cf57600080fd5b506101d8610725565b6040516101e59190612fdd565b60405180910390f35b3480156101fa57600080fd5b50610215600480360381019061021091906129eb565b6107b7565b6040516102229190612e80565b60405180910390f35b34801561023757600080fd5b50610252600480360381019061024d9190612951565b6107fd565b005b34801561026057600080fd5b50610269610915565b60405161027691906131bf565b60405180910390f35b34801561028b57600080fd5b506102a660048036038101906102a19190612a45565b61091b565b005b3480156102b457600080fd5b506102cf60048036038101906102ca919061283b565b6109db565b005b3480156102dd57600080fd5b506102f860048036038101906102f391906129eb565b610a3b565b6040516103059190612fdd565b60405180910390f35b34801561031a57600080fd5b50610323610aeb565b005b34801561033157600080fd5b5061034c6004803603810190610347919061283b565b610b9f565b005b34801561035a57600080fd5b50610363610bbf565b6040516103709190612f10565b60405180910390f35b34801561038557600080fd5b506103a0600480360381019061039b91906129eb565b610bea565b6040516103ad9190612e80565b60405180910390f35b3480156103c257600080fd5b506103cb610c71565b6040516103d891906131bf565b60405180910390f35b3480156103ed57600080fd5b50610408600480360381019061040391906127ce565b610c7b565b60405161041591906131bf565b60405180910390f35b34801561042a57600080fd5b50610433610d33565b005b34801561044157600080fd5b5061044a610d47565b60405161045791906131bf565b60405180910390f35b34801561046c57600080fd5b50610475610d6f565b6040516104829190612e80565b60405180910390f35b34801561049757600080fd5b506104a0610d99565b6040516104ad9190612fdd565b60405180910390f35b3480156104c257600080fd5b506104dd60048036038101906104d89190612911565b610e2b565b005b3480156104eb57600080fd5b50610506600480360381019061050191906129eb565b610e41565b6040516105139190612e80565b60405180910390f35b34801561052857600080fd5b50610543600480360381019061053e91906129eb565b610e74565b6040516105509190612f99565b60405180910390f35b610561610f56565b60405161056e91906131bf565b60405180910390f35b34801561058357600080fd5b5061059e6004803603810190610599919061288e565b611156565b005b3480156105ac57600080fd5b506105c760048036038101906105c291906129eb565b6111b8565b6040516105d49190612fdd565b60405180910390f35b3480156105e957600080fd5b5061060460048036038101906105ff91906127fb565b6112cb565b6040516106119190612f2b565b60405180910390f35b34801561062657600080fd5b50610641600480360381019061063c91906127ce565b61135f565b005b60007f80ac58cd000000000000000000000000000000000000000000000000000000007bffffffffffffffffffffffffffffffffffffffffffffffffffffffff1916827bffffffffffffffffffffffffffffffffffffffffffffffffffffffff1916148061070e57507f5b5e139f000000000000000000000000000000000000000000000000000000007bffffffffffffffffffffffffffffffffffffffffffffffffffffffff1916827bffffffffffffffffffffffffffffffffffffffffffffffffffffffff1916145b8061071e575061071d826113e3565b5b9050919050565b60606000805461073490613444565b80601f016020809104026020016040519081016040528092919081815260200182805461076090613444565b80156107ad5780601f10610782576101008083540402835291602001916107ad565b820191906000526020600020905b81548152906001019060200180831161079057829003601f168201915b5050505050905090565b60006107c28261144d565b6004600083815260200190815260200160002060009054906101000a900473ffffffffffffffffffffffffffffffffffffffff169050919050565b600061080882610bea565b90508073ffffffffffffffffffffffffffffffffffffffff168373ffffffffffffffffffffffffffffffffffffffff161415610879576040517f08c379a00000000000000000000000000000000000000000000000000000000081526004016108709061317f565b60405180910390fd5b8073ffffffffffffffffffffffffffffffffffffffff16610898611498565b73ffffffffffffffffffffffffffffffffffffffff1614806108c757506108c6816108c1611498565b6112cb565b5b610906576040517f08c379a00000000000000000000000000000000000000000000000000000000081526004016108fd9061319f565b60405180910390fd5b61091083836114a0565b505050565b60095481565b7f000000000000000000000000000000000000000000000000000000000000000073ffffffffffffffffffffffffffffffffffffffff163373ffffffffffffffffffffffffffffffffffffffff16146109cd57337f00000000000000000000000000000000000000000000000000000000000000006040517f1cf993f40000000000000000000000000000000000000000000000000000000081526004016109c4929190612e9b565b60405180910390fd5b6109d78282611559565b5050565b6109ec6109e6611498565b826116e8565b610a2b576040517f08c379a0000000000000000000000000000000000000000000000000000000008152600401610a2290612fff565b60405180910390fd5b610a3683838361177d565b505050565b6060600a8281548110610a5157610a506135dd565b5b906000526020600020018054610a6690613444565b80601f0160208091040260200160405190810160405280929190818152602001828054610a9290613444565b8015610adf5780601f10610ab457610100808354040283529160200191610adf565b820191906000526020600020905b815481529060010190602001808311610ac257829003601f168201915b50505050509050919050565b610af3611a77565b600047905060003373ffffffffffffffffffffffffffffffffffffffff1682604051610b1e90612e6b565b60006040518083038185875af1925050503d8060008114610b5b576040519150601f19603f3d011682016040523d82523d6000602084013e610b60565b606091505b5050905080610b9b576040517fca7e25b700000000000000000000000000000000000000000000000000000000815260040160405180910390fd5b5050565b610bba83838360405180602001604052806000815250611156565b505050565b610bc761257d565b6040518060600160405280600a8152602001601e81526020016064815250905090565b600080610bf683611af5565b9050600073ffffffffffffffffffffffffffffffffffffffff168173ffffffffffffffffffffffffffffffffffffffff161415610c68576040517f08c379a0000000000000000000000000000000000000000000000000000000008152600401610c5f9061315f565b60405180910390fd5b80915050919050565b6000600954905090565b60008073ffffffffffffffffffffffffffffffffffffffff168273ffffffffffffffffffffffffffffffffffffffff161415610cec576040517f08c379a0000000000000000000000000000000000000000000000000000000008152600401610ce3906130df565b60405180910390fd5b600360008373ffffffffffffffffffffffffffffffffffffffff1673ffffffffffffffffffffffffffffffffffffffff168152602001908152602001600020549050919050565b610d3b611a77565b610d456000611b32565b565b60007f0000000000000000000000000000000000000000000000000000000000000000905090565b6000600760009054906101000a900473ffffffffffffffffffffffffffffffffffffffff16905090565b606060018054610da890613444565b80601f0160208091040260200160405190810160405280929190818152602001828054610dd490613444565b8015610e215780601f10610df657610100808354040283529160200191610e21565b820191906000526020600020905b815481529060010190602001808311610e0457829003601f168201915b5050505050905090565b610e3d610e36611498565b8383611bf8565b5050565b60086020528060005260406000206000915054906101000a900473ffffffffffffffffffffffffffffffffffffffff1681565b600080600090506000610e85610bbf565b905060005b6003811015610f1e57828510158015610ec45750818160038110610eb157610eb06135dd565b5b602002015183610ec191906132d7565b85105b15610ee657806002811115610edc57610edb61357f565b5b9350505050610f51565b818160038110610ef957610ef86135dd565b5b602002015183610f0991906132d7565b92508080610f16906134a7565b915050610e8a565b506040517f12806c9d00000000000000000000000000000000000000000000000000000000815260040160405180910390fd5b919050565b60007f0000000000000000000000000000000000000000000000000000000000000000341015610fb2576040517fb90f491000000000000000000000000000000000000000000000000000000000815260040160405180910390fd5b7f000000000000000000000000000000000000000000000000000000000000000073ffffffffffffffffffffffffffffffffffffffff16635d3b1d307f00000000000000000000000000000000000000000000000000000000000000007f000000000000000000000000000000000000000000000000000000000000000060037f000000000000000000000000000000000000000000000000000000000000000060016040518663ffffffff1660e01b8152600401611075959493929190612f46565b602060405180830381600087803b15801561108f57600080fd5b505af11580156110a3573d6000803e3d6000fd5b505050506040513d601f19601f820116820180604052508101906110c79190612a18565b9050336008600083815260200190815260200160002060006101000a81548173ffffffffffffffffffffffffffffffffffffffff021916908373ffffffffffffffffffffffffffffffffffffffff160217905550807ff873236e6cc0ecc5be1a9a35c95ee5b8d1ac4cc7bfef0cc5060391d6cc98e26b3360405161114b9190612e80565b60405180910390a290565b611167611161611498565b836116e8565b6111a6576040517f08c379a000000000000000000000000000000000000000000000000000000000815260040161119d90612fff565b60405180910390fd5b6111b284848484611d65565b50505050565b60606111c38261144d565b60006006600084815260200190815260200160002080546111e390613444565b80601f016020809104026020016040519081016040528092919081815260200182805461120f90613444565b801561125c5780601f106112315761010080835404028352916020019161125c565b820191906000526020600020905b81548152906001019060200180831161123f57829003601f168201915b50505050509050600061126d611dc1565b90506000815114156112835781925050506112c6565b6000825111156112b85780826040516020016112a0929190612e47565b604051602081830303815290604052925050506112c6565b6112c184611dd8565b925050505b919050565b6000600560008473ffffffffffffffffffffffffffffffffffffffff1673ffffffffffffffffffffffffffffffffffffffff16815260200190815260200160002060008373ffffffffffffffffffffffffffffffffffffffff1673ffffffffffffffffffffffffffffffffffffffff16815260200190815260200160002060009054906101000a900460ff16905092915050565b611367611a77565b600073ffffffffffffffffffffffffffffffffffffffff168173ffffffffffffffffffffffffffffffffffffffff1614156113d7576040517f08c379a00000000000000000000000000000000000000000000000000000000081526004016113ce9061303f565b60405180910390fd5b6113e081611b32565b50565b60007f01ffc9a7000000000000000000000000000000000000000000000000000000007bffffffffffffffffffffffffffffffffffffffffffffffffffffffff1916827bffffffffffffffffffffffffffffffffffffffffffffffffffffffff1916149050919050565b61145681611e40565b611495576040517f08c379a000000000000000000000000000000000000000000000000000000000815260040161148c9061315f565b60405180910390fd5b50565b600033905090565b816004600083815260200190815260200160002060006101000a81548173ffffffffffffffffffffffffffffffffffffffff021916908373ffffffffffffffffffffffffffffffffffffffff160217905550808273ffffffffffffffffffffffffffffffffffffffff1661151383610bea565b73ffffffffffffffffffffffffffffffffffffffff167f8c5be1e5ebec7d5bd14f71427d1e84f3dd0314c0f7b2291e5b200ac8c7c3b92560405160405180910390a45050565b60006008600084815260200190815260200160002060009054906101000a900473ffffffffffffffffffffffffffffffffffffffff169050600060095490506115a28282611e81565b60006064846000815181106115ba576115b96135dd565b5b60200260200101516115cc91906134f0565b905060006115d982610e74565b90506115e58484611e81565b6116a783600a8360028111156115fe576115fd61357f565b5b8154811061160f5761160e6135dd565b5b90600052602060002001805461162490613444565b80601f016020809104026020016040519081016040528092919081815260200182805461165090613444565b801561169d5780601f106116725761010080835404028352916020019161169d565b820191906000526020600020905b81548152906001019060200180831161168057829003601f168201915b5050505050611e9f565b7f8a269f26b688e110e9cbd887d163dab35cae678fa353a0292de532c0cac1ecdc81856040516116d8929190612fb4565b60405180910390a1505050505050565b6000806116f483610bea565b90508073ffffffffffffffffffffffffffffffffffffffff168473ffffffffffffffffffffffffffffffffffffffff161480611736575061173581856112cb565b5b8061177457508373ffffffffffffffffffffffffffffffffffffffff1661175c846107b7565b73ffffffffffffffffffffffffffffffffffffffff16145b91505092915050565b8273ffffffffffffffffffffffffffffffffffffffff1661179d82610bea565b73ffffffffffffffffffffffffffffffffffffffff16146117f3576040517f08c379a00000000000000000000000000000000000000000000000000000000081526004016117ea9061305f565b60405180910390fd5b600073ffffffffffffffffffffffffffffffffffffffff168273ffffffffffffffffffffffffffffffffffffffff161415611863576040517f08c379a000000000000000000000000000000000000000000000000000000000815260040161185a9061309f565b60405180910390fd5b6118708383836001611f13565b8273ffffffffffffffffffffffffffffffffffffffff1661189082610bea565b73ffffffffffffffffffffffffffffffffffffffff16146118e6576040517f08c379a00000000000000000000000000000000000000000000000000000000081526004016118dd9061305f565b60405180910390fd5b6004600082815260200190815260200160002060006101000a81549073ffffffffffffffffffffffffffffffffffffffff02191690556001600360008573ffffffffffffffffffffffffffffffffffffffff1673ffffffffffffffffffffffffffffffffffffffff168152602001908152602001600020600082825403925050819055506001600360008473ffffffffffffffffffffffffffffffffffffffff1673ffffffffffffffffffffffffffffffffffffffff16815260200190815260200160002060008282540192505081905550816002600083815260200190815260200160002060006101000a81548173ffffffffffffffffffffffffffffffffffffffff021916908373ffffffffffffffffffffffffffffffffffffffff160217905550808273ffffffffffffffffffffffffffffffffffffffff168473ffffffffffffffffffffffffffffffffffffffff167fddf252ad1be2c89b69c2b068fc378daa952ba7f163c4a11628f55a4df523b3ef60405160405180910390a4611a728383836001611f19565b505050565b611a7f611498565b73ffffffffffffffffffffffffffffffffffffffff16611a9d610d6f565b73ffffffffffffffffffffffffffffffffffffffff1614611af3576040517f08c379a0000000000000000000000000000000000000000000000000000000008152600401611aea9061313f565b60405180910390fd5b565b60006002600083815260200190815260200160002060009054906101000a900473ffffffffffffffffffffffffffffffffffffffff169050919050565b6000600760009054906101000a900473ffffffffffffffffffffffffffffffffffffffff16905081600760006101000a81548173ffffffffffffffffffffffffffffffffffffffff021916908373ffffffffffffffffffffffffffffffffffffffff1602179055508173ffffffffffffffffffffffffffffffffffffffff168173ffffffffffffffffffffffffffffffffffffffff167f8be0079c531659141344cd1fd0a4f28419497f9722a3daafe3b4186f6b6457e060405160405180910390a35050565b8173ffffffffffffffffffffffffffffffffffffffff168373ffffffffffffffffffffffffffffffffffffffff161415611c67576040517f08c379a0000000000000000000000000000000000000000000000000000000008152600401611c5e906130bf565b60405180910390fd5b80600560008573ffffffffffffffffffffffffffffffffffffffff1673ffffffffffffffffffffffffffffffffffffffff16815260200190815260200160002060008473ffffffffffffffffffffffffffffffffffffffff1673ffffffffffffffffffffffffffffffffffffffff16815260200190815260200160002060006101000a81548160ff0219169083151502179055508173ffffffffffffffffffffffffffffffffffffffff168373ffffffffffffffffffffffffffffffffffffffff167f17307eab39ab6107e8899845ad3d59bd9653f200f220920489ca2b5937696c3183604051611d589190612f2b565b60405180910390a3505050565b611d7084848461177d565b611d7c84848484611f1f565b611dbb576040517f08c379a0000000000000000000000000000000000000000000000000000000008152600401611db29061301f565b60405180910390fd5b50505050565b606060405180602001604052806000815250905090565b6060611de38261144d565b6000611ded611dc1565b90506000815111611e0d5760405180602001604052806000815250611e38565b80611e17846120b6565b604051602001611e28929190612e47565b6040516020818303038152906040525b915050919050565b60008073ffffffffffffffffffffffffffffffffffffffff16611e6283611af5565b73ffffffffffffffffffffffffffffffffffffffff1614159050919050565b611e9b82826040518060200160405280600081525061218e565b5050565b611ea882611e40565b611ee7576040517f08c379a0000000000000000000000000000000000000000000000000000000008152600401611ede906130ff565b60405180910390fd5b80600660008481526020019081526020016000209080519060200190611f0e92919061259f565b505050565b50505050565b50505050565b6000611f408473ffffffffffffffffffffffffffffffffffffffff166121e9565b156120a9578373ffffffffffffffffffffffffffffffffffffffff1663150b7a02611f69611498565b8786866040518563ffffffff1660e01b8152600401611f8b9493929190612ec4565b602060405180830381600087803b158015611fa557600080fd5b505af1925050508015611fd657506040513d601f19601f82011682018060405250810190611fd391906129be565b60015b612059573d8060008114612006576040519150601f19603f3d011682016040523d82523d6000602084013e61200b565b606091505b50600081511415612051576040517f08c379a00000000000000000000000000000000000000000000000000000000081526004016120489061301f565b60405180910390fd5b805181602001fd5b63150b7a0260e01b7bffffffffffffffffffffffffffffffffffffffffffffffffffffffff1916817bffffffffffffffffffffffffffffffffffffffffffffffffffffffff1916149150506120ae565b600190505b949350505050565b6060600060016120c58461220c565b01905060008167ffffffffffffffff8111156120e4576120e361360c565b5b6040519080825280601f01601f1916602001820160405280156121165781602001600182028036833780820191505090505b509050600082602001820190505b600115612183578080600190039150507f3031323334353637383961626364656600000000000000000000000000000000600a86061a8153600a858161216d5761216c613550565b5b049450600085141561217e57612183565b612124565b819350505050919050565b612198838361235f565b6121a56000848484611f1f565b6121e4576040517f08c379a00000000000000000000000000000000000000000000000000000000081526004016121db9061301f565b60405180910390fd5b505050565b6000808273ffffffffffffffffffffffffffffffffffffffff163b119050919050565b600080600090507a184f03e93ff9f4daa797ed6e38ed64bf6a1f010000000000000000831061226a577a184f03e93ff9f4daa797ed6e38ed64bf6a1f01000000000000000083816122605761225f613550565b5b0492506040810190505b6d04ee2d6d415b85acef810000000083106122a7576d04ee2d6d415b85acef8100000000838161229d5761229c613550565b5b0492506020810190505b662386f26fc1000083106122d657662386f26fc1000083816122cc576122cb613550565b5b0492506010810190505b6305f5e10083106122ff576305f5e10083816122f5576122f4613550565b5b0492506008810190505b612710831061232457612710838161231a57612319613550565b5b0492506004810190505b60648310612347576064838161233d5761233c613550565b5b0492506002810190505b600a8310612356576001810190505b80915050919050565b600073ffffffffffffffffffffffffffffffffffffffff168273ffffffffffffffffffffffffffffffffffffffff1614156123cf576040517f08c379a00000000000000000000000000000000000000000000000000000000081526004016123c69061311f565b60405180910390fd5b6123d881611e40565b15612418576040517f08c379a000000000000000000000000000000000000000000000000000000000815260040161240f9061307f565b60405180910390fd5b612426600083836001611f13565b61242f81611e40565b1561246f576040517f08c379a00000000000000000000000000000000000000000000000000000000081526004016124669061307f565b60405180910390fd5b6001600360008473ffffffffffffffffffffffffffffffffffffffff1673ffffffffffffffffffffffffffffffffffffffff16815260200190815260200160002060008282540192505081905550816002600083815260200190815260200160002060006101000a81548173ffffffffffffffffffffffffffffffffffffffff021916908373ffffffffffffffffffffffffffffffffffffffff160217905550808273ffffffffffffffffffffffffffffffffffffffff16600073ffffffffffffffffffffffffffffffffffffffff167fddf252ad1be2c89b69c2b068fc378daa952ba7f163c4a11628f55a4df523b3ef60405160405180910390a4612579600083836001611f19565b5050565b6040518060600160405280600390602082028036833780820191505090505090565b8280546125ab90613444565b90600052602060002090601f0160209004810192826125cd5760008555612614565b82601f106125e657805160ff1916838001178555612614565b82800160010185558215612614579182015b828111156126135782518255916020019190600101906125f8565b5b5090506126219190612625565b5090565b5b8082111561263e576000816000905550600101612626565b5090565b6000612655612650846131ff565b6131da565b9050808382526020820190508285602086028201111561267857612677613640565b5b60005b858110156126a8578161268e88826127a4565b84526020840193506020830192505060018101905061267b565b5050509392505050565b60006126c56126c08461322b565b6131da565b9050828152602081018484840111156126e1576126e0613645565b5b6126ec848285613402565b509392505050565b60008135905061270381613a10565b92915050565b600082601f83011261271e5761271d61363b565b5b813561272e848260208601612642565b91505092915050565b60008135905061274681613a27565b92915050565b60008135905061275b81613a3e565b92915050565b60008151905061277081613a3e565b92915050565b600082601f83011261278b5761278a61363b565b5b813561279b8482602086016126b2565b91505092915050565b6000813590506127b381613a55565b92915050565b6000815190506127c881613a55565b92915050565b6000602082840312156127e4576127e361364f565b5b60006127f2848285016126f4565b91505092915050565b600080604083850312156128125761281161364f565b5b6000612820858286016126f4565b9250506020612831858286016126f4565b9150509250929050565b6000806000606084860312156128545761285361364f565b5b6000612862868287016126f4565b9350506020612873868287016126f4565b9250506040612884868287016127a4565b9150509250925092565b600080600080608085870312156128a8576128a761364f565b5b60006128b6878288016126f4565b94505060206128c7878288016126f4565b93505060406128d8878288016127a4565b925050606085013567ffffffffffffffff8111156128f9576128f861364a565b5b61290587828801612776565b91505092959194509250565b600080604083850312156129285761292761364f565b5b6000612936858286016126f4565b925050602061294785828601612737565b9150509250929050565b600080604083850312156129685761296761364f565b5b6000612976858286016126f4565b9250506020612987858286016127a4565b9150509250929050565b6000602082840312156129a7576129a661364f565b5b60006129b58482850161274c565b91505092915050565b6000602082840312156129d4576129d361364f565b5b60006129e284828501612761565b91505092915050565b600060208284031215612a0157612a0061364f565b5b6000612a0f848285016127a4565b91505092915050565b600060208284031215612a2e57612a2d61364f565b5b6000612a3c848285016127b9565b91505092915050565b60008060408385031215612a5c57612a5b61364f565b5b6000612a6a858286016127a4565b925050602083013567ffffffffffffffff811115612a8b57612a8a61364a565b5b612a9785828601612709565b9150509250929050565b6000612aad8383612e0b565b60208301905092915050565b612ac28161332d565b82525050565b612ad181613266565b612adb8184613294565b9250612ae68261325c565b8060005b83811015612b17578151612afe8782612aa1565b9650612b0983613287565b925050600181019050612aea565b505050505050565b612b288161333f565b82525050565b612b378161334b565b82525050565b6000612b4882613271565b612b52818561329f565b9350612b62818560208601613411565b612b6b81613654565b840191505092915050565b612b7f816133f0565b82525050565b6000612b908261327c565b612b9a81856132bb565b9350612baa818560208601613411565b612bb381613654565b840191505092915050565b6000612bc98261327c565b612bd381856132cc565b9350612be3818560208601613411565b80840191505092915050565b6000612bfc602d836132bb565b9150612c0782613665565b604082019050919050565b6000612c1f6032836132bb565b9150612c2a826136b4565b604082019050919050565b6000612c426026836132bb565b9150612c4d82613703565b604082019050919050565b6000612c656025836132bb565b9150612c7082613752565b604082019050919050565b6000612c88601c836132bb565b9150612c93826137a1565b602082019050919050565b6000612cab6024836132bb565b9150612cb6826137ca565b604082019050919050565b6000612cce6019836132bb565b9150612cd982613819565b602082019050919050565b6000612cf16029836132bb565b9150612cfc82613842565b604082019050919050565b6000612d14602e836132bb565b9150612d1f82613891565b604082019050919050565b6000612d376020836132bb565b9150612d42826138e0565b602082019050919050565b6000612d5a6020836132bb565b9150612d6582613909565b602082019050919050565b6000612d7d6018836132bb565b9150612d8882613932565b602082019050919050565b6000612da06021836132bb565b9150612dab8261395b565b604082019050919050565b6000612dc36000836132b0565b9150612dce826139aa565b600082019050919050565b6000612de6603d836132bb565b9150612df1826139ad565b604082019050919050565b612e0581613394565b82525050565b612e14816133c2565b82525050565b612e23816133c2565b82525050565b612e32816133cc565b82525050565b612e41816133dc565b82525050565b6000612e538285612bbe565b9150612e5f8284612bbe565b91508190509392505050565b6000612e7682612db6565b9150819050919050565b6000602082019050612e956000830184612ab9565b92915050565b6000604082019050612eb06000830185612ab9565b612ebd6020830184612ab9565b9392505050565b6000608082019050612ed96000830187612ab9565b612ee66020830186612ab9565b612ef36040830185612e1a565b8181036060830152612f058184612b3d565b905095945050505050565b6000606082019050612f256000830184612ac8565b92915050565b6000602082019050612f406000830184612b1f565b92915050565b600060a082019050612f5b6000830188612b2e565b612f686020830187612e38565b612f756040830186612dfc565b612f826060830185612e29565b612f8f6080830184612e29565b9695505050505050565b6000602082019050612fae6000830184612b76565b92915050565b6000604082019050612fc96000830185612b76565b612fd66020830184612ab9565b9392505050565b60006020820190508181036000830152612ff78184612b85565b905092915050565b6000602082019050818103600083015261301881612bef565b9050919050565b6000602082019050818103600083015261303881612c12565b9050919050565b6000602082019050818103600083015261305881612c35565b9050919050565b6000602082019050818103600083015261307881612c58565b9050919050565b6000602082019050818103600083015261309881612c7b565b9050919050565b600060208201905081810360008301526130b881612c9e565b9050919050565b600060208201905081810360008301526130d881612cc1565b9050919050565b600060208201905081810360008301526130f881612ce4565b9050919050565b6000602082019050818103600083015261311881612d07565b9050919050565b6000602082019050818103600083015261313881612d2a565b9050919050565b6000602082019050818103600083015261315881612d4d565b9050919050565b6000602082019050818103600083015261317881612d70565b9050919050565b6000602082019050818103600083015261319881612d93565b9050919050565b600060208201905081810360008301526131b881612dd9565b9050919050565b60006020820190506131d46000830184612e1a565b92915050565b60006131e46131f5565b90506131f08282613476565b919050565b6000604051905090565b600067ffffffffffffffff82111561321a5761321961360c565b5b602082029050602081019050919050565b600067ffffffffffffffff8211156132465761324561360c565b5b61324f82613654565b9050602081019050919050565b6000819050919050565b600060039050919050565b600081519050919050565b600081519050919050565b6000602082019050919050565b600081905092915050565b600082825260208201905092915050565b600081905092915050565b600082825260208201905092915050565b600081905092915050565b60006132e2826133c2565b91506132ed836133c2565b9250827fffffffffffffffffffffffffffffffffffffffffffffffffffffffffffffffff0382111561332257613321613521565b5b828201905092915050565b6000613338826133a2565b9050919050565b60008115159050919050565b6000819050919050565b60007fffffffff0000000000000000000000000000000000000000000000000000000082169050919050565b600081905061338f826139fc565b919050565b600061ffff82169050919050565b600073ffffffffffffffffffffffffffffffffffffffff82169050919050565b6000819050919050565b600063ffffffff82169050919050565b600067ffffffffffffffff82169050919050565b60006133fb82613381565b9050919050565b82818337600083830152505050565b60005b8381101561342f578082015181840152602081019050613414565b8381111561343e576000848401525b50505050565b6000600282049050600182168061345c57607f821691505b602082108114156134705761346f6135ae565b5b50919050565b61347f82613654565b810181811067ffffffffffffffff8211171561349e5761349d61360c565b5b80604052505050565b60006134b2826133c2565b91507fffffffffffffffffffffffffffffffffffffffffffffffffffffffffffffffff8214156134e5576134e4613521565b5b600182019050919050565b60006134fb826133c2565b9150613506836133c2565b92508261351657613515613550565b5b828206905092915050565b7f4e487b7100000000000000000000000000000000000000000000000000000000600052601160045260246000fd5b7f4e487b7100000000000000000000000000000000000000000000000000000000600052601260045260246000fd5b7f4e487b7100000000000000000000000000000000000000000000000000000000600052602160045260246000fd5b7f4e487b7100000000000000000000000000000000000000000000000000000000600052602260045260246000fd5b7f4e487b7100000000000000000000000000000000000000000000000000000000600052603260045260246000fd5b7f4e487b7100000000000000000000000000000000000000000000000000000000600052604160045260246000fd5b600080fd5b600080fd5b600080fd5b600080fd5b600080fd5b6000601f19601f8301169050919050565b7f4552433732313a2063616c6c6572206973206e6f7420746f6b656e206f776e6560008201527f72206f7220617070726f76656400000000000000000000000000000000000000602082015250565b7f4552433732313a207472616e7366657220746f206e6f6e20455243373231526560008201527f63656976657220696d706c656d656e7465720000000000000000000000000000602082015250565b7f4f776e61626c653a206e6577206f776e657220697320746865207a65726f206160008201527f6464726573730000000000000000000000000000000000000000000000000000602082015250565b7f4552433732313a207472616e736665722066726f6d20696e636f72726563742060008201527f6f776e6572000000000000000000000000000000000000000000000000000000602082015250565b7f4552433732313a20746f6b656e20616c7265616479206d696e74656400000000600082015250565b7f4552433732313a207472616e7366657220746f20746865207a65726f2061646460008201527f7265737300000000000000000000000000000000000000000000000000000000602082015250565b7f4552433732313a20617070726f766520746f2063616c6c657200000000000000600082015250565b7f4552433732313a2061646472657373207a65726f206973206e6f74206120766160008201527f6c6964206f776e65720000000000000000000000000000000000000000000000602082015250565b7f45524337323155524953746f726167653a2055524920736574206f66206e6f6e60008201527f6578697374656e7420746f6b656e000000000000000000000000000000000000602082015250565b7f4552433732313a206d696e7420746f20746865207a65726f2061646472657373600082015250565b7f4f776e61626c653a2063616c6c6572206973206e6f7420746865206f776e6572600082015250565b7f4552433732313a20696e76616c696420746f6b656e2049440000000000000000600082015250565b7f4552433732313a20617070726f76616c20746f2063757272656e74206f776e6560008201527f7200000000000000000000000000000000000000000000000000000000000000602082015250565b50565b7f4552433732313a20617070726f76652063616c6c6572206973206e6f7420746f60008201527f6b656e206f776e6572206f7220617070726f76656420666f7220616c6c000000602082015250565b60038110613a0d57613a0c61357f565b5b50565b613a198161332d565b8114613a2457600080fd5b50565b613a308161333f565b8114613a3b57600080fd5b50565b613a4781613355565b8114613a5257600080fd5b50565b613a5e816133c2565b8114613a6957600080fd5b5056fea2646970667358221220dd38ed0f2329885648fcd1c58842d244d7483190aa4221da3590f4f9601fde8264736f6c63430008070033",
  "linkReferences": {},
  "deployedLinkReferences": {}
}